:04000000FEEF7FF0A0
:10C28C00010E1200050E1200020E1200010E120019
:10C29C003D01799F12003D01769912003D0179957F
:10C2AC0012003D01739D12003D01738D12003D0182
:10C2BC006A5112003D01749D12003D01748D1200F3
:10C2CC003D01739B12003D016C511200000E3D01AB
:10C2DC00796F120060EC61F0030E120060EC61F0FB
:10C2EC00040E120063EC61F0090E1200010E3EEC1C
:10C2FC0065F01200000E3EEC65F012003D01739FDC
:10C30C007885738F1200016E600007F06CFD1200CF
:10C31C00016E600007F06BFD120001C0F8F102C065
:10C32C00F9F1120001C0FCF002C0FDF0120001C0D6
:10C33C00FAF102C0FBF11200026E025055EC62F0F1
:10C34C0012003D01739F000E796F78851200010178
:10C35C00EF95000EEE6F0F0E12000101EB5189EC00
:10C36C0061F04CEC63F0120063EC61F066EC61F090
:10C37C00ADEC61F0120084EC61F00101EF95000E60
:10C38C00EE6F0F0E120084EC61F00101EF95020EBE
:10C39C00EE6F0F0E12006B0E176E000E186E680EFD
:10C3AC00B4EC66F012003D0179BFDFEF61F0E2EF13
:10C3BC0061F0010EE3EF61F0000E12003D0176B961
:10C3CC00EAEF61F0EDEF61F0010EEEEF61F0000EBF
:10C3DC0012003D0179B5F5EF61F0F8EF61F0010E57
:10C3EC00F9EF61F0000E12003D0178B100EF62F040
:10C3FC0003EF62F0010E04EF62F0000E12003D013B
:10C40C0074BB0BEF62F00EEF62F0010E0FEF62F0F7
:10C41C00000E12003D0178BB16EF62F019EF62F0CE
:10C42C00010E1AEF62F0000E12000101EF51FC0B2D
:10C43C000209EF6FE851E8258EEC61F0030E120053
:10C44C00A3EC62F080EC62F037EC69F049EC62F03E
:10C45C0080EC66F0120006C001F007C002F008C0C4
:10C46C0003F009C004F0000E10EC68F0120006C0D6
:10C47C0001F007C002F008C003F009C004F0020E7E
:10C48C0010EC68F01200710E3901D96F000EDB6FE1
:10C49C00000EDD6F010EDF6F000EDE6F1200016EFD
:10C4AC003901A3A95CEF62F05EEF62F056EF62F027
:10C4BC00600007F0EAFD1200390193939395929F67
:10C4CC0093913D017A917A957A9F7A9D7A9376939E
:10C4DC0076957691120077EF62F0EBEC65F095ECC7
:10C4EC0067F00101EFB57DEF62F07FEF62F073EF63
:10C4FC0062F01200040E3D01736F800E746F180E03
:10C50C00756F000E7B6F000E796F000E7A6F000E48
:10C51C00766F6C6912000101EFA997EF62F099EF49
:10C52C0062F0A2EF62F001C0E9F102C0EAF103C0CF
:10C53C00EBF104C0ECF1EF991200000E3901C06F61
:10C54C00000EC16F000EC26F000EC36F000EC46FE1
:10C55C00000EC56F000EC66F000EC76F120066ECA2
:10C56C0061F069EC61F00009D8B4BFEF62F0C1EF83
:10C57C0062F0C7EF62F0000E89EC61F0000E8EECF9
:10C58C0061F0000E1200015003026F00CCFF05F0A9
:10C59C006F00D0FF06F001500402F3500626025043
:10C5AC000302F350062605C001F006C002F012008B
:10C5BC00010E016E0101EFB5E6EF62F0E8EF62F0FB
:10C5CC00F2EF62F0EF97E8696CEC61F062EC62F00C
:10C5DC00A7EC61F0EEC101F0015012000AC001F0AD
:10C5EC000BC002F0000E046E020E036E91EC62F0B2
:10C5FC00000E066E000E076E000E086E000E096E21
:10C60C0031EC62F0040E12000AC001F00BC002F013
:10C61C00000E046E010E036E91EC62F0000E066EBD
:10C62C00000E076E000E086E000E096E31EC62F003
:10C63C00020E12000AC001F00BC002F0000E046ED4
:10C64C00020E036E91EC62F0000E066E000E076E89
:10C65C00000E086E000E096E31EC62F0020E120034
:10C66C000AC001F00BC002F0000E046E010E036E46
:10C67C0091EC62F0000E066E000E076E000E086E56
:10C68C00000E096E31EC62F0040E12000101EF5144
:10C69C00FC0B0209EF6FEB05EC11D8A458EF63F01B
:10C6AC005AEF63F05CEF63F0E6EC68F0D8800101C0
:10C6BC00E8358EEC61F0040E12003D0173BF69EF9A
:10C6CC0063F06BEF63F079EF63F0000E796F000E9F
:10C6DC007A6F000E766F6C69510E3A015A6F510EDB
:10C6EC005B6F3D01738F12001F6E1C50206E1BC0C0
:10C6FC0021F01DC022F0200E176E000E196E030ED5
:10C70C00186E1F5092EC65F00D0E1E6EFC0EE82E8E
:10C71C00FED71E2EFCD7120000EE00F2500EEE6A71
:10C72C00E806FDE100EECCF12C0EEE6AE806FDE128
:10C73C0000EEF5F0070EEE6AE806FDE15E6A5D6A52
:10C74C005C6A00018DEF72F01F6E1C501D6E1BC0D9
:10C75C001EF01D0E176E000E196E020E186E1F5075
:10C76C0092EC65F0000E206E200E176E000E196E06
:10C77C00010E186E1F5041EC64F020501200015055
:10C78C00021003100410D8B4CEEF63F0D0EF63F0B6
:10C79C00D8EF63F0000E011A000E021A000E031AF5
:10C7AC00800E041A01C001F002C002F003C003F0B5
:10C7BC0004C004F01200276E000E286EF6EF63F032
:10C7CC00285023241B6E000E24201C6E2550282478
:10C7DC00D96EDA6ADF501D6E27507AEC63F0282A86
:10C7EC002650285CD8A0FDEF63F0FFEF63F0E6EF76
:10C7FC0063F01200000E106E000E0F6E0FEF64F05F
:10C80C000EC003F0046A0DC005F040EC6AF00F4A4C
:10C81C00102A0F500B24D96E10500C20DA6EDF50FA
:10C82C000E6E0E50D8A41DEF64F01FEF64F006EFEF
:10C83C0064F01200266E000E276E37EF64F027505E
:10C84C0021241B6E000E22201C6E2650AAEC63F0D5
:10C85C00256E23502724D96EDA6A600097F0DFFF2B
:10C86C00272A2450275CD8A03EEF64F040EF64F0F8
:10C87C0025EF64F012001A6E1A504FEC68F00009A4
:10C88C00D8B44BEF64F04DEF64F042EF64F017C096
:10C89C0001F0026A18C003F019C004F091EC62F0C8
:10C8AC007CEC61F0DEEC62F0E806D8B460EF64F08A
:10C8BC0062EF64F058EF64F0120001C005F002C0A2
:10C8CC0006F060000FF0F6FF600013F0F7FF034A6C
:10C8DC00042AF86A600017F0D9FF60001BF0DAFF39
:10C8EC00054A062A08006F00D7FFDFFFDF50D8A4E7
:10C8FC0082EF64F084EF64F067EF64F01200970E3F
:10C90C004F6E93C050F094C051F0000E546E000E58
:10C91C00536E000E5B6E000E5A6E500E00018F6F40
:10C92C0095C090F096C091F04F0E926FEFEC64F0C2
:10C93C00535000019325D96E54509421DA6EDF6A5E
:10C94C001200000E1E1A000E1F1A000E201A800E66
:10C95C00211A1AC001F01BC002F01CC003F01DC04C
:10C96C0004F01EC005F01FC006F020C007F021C067
:10C97C0008F021EC78F001C01AF002C01BF003C0E3
:10C98C001CF004C01DF0120020EE02F00A50D92653
:10C99C000B50DA22DF500C6E0CC001F0026A600002
:10C9AC002BF0D9FF60002FF0DAFF6F0078FF03F057
:10C9BC006F0074FF04F091EC62F0000E066E000E36
:10C9CC00076E000E086E000E096E31EC62F0020E5E
:10C9DC00120090C04DF091C04EF0FEEF64F08FC08D
:10C9EC008CF04D0E00018D6F92C08EF0F3EC70F058
:10C9FC00600037F1F6FF60003BF1F7FFF86A0800C2
:10CA0C00F5500009D8A40DEF65F00FEF65F0F5EFC8
:10CA1C0064F0000E0001906F000E8F6F1200D9ECC5
:10CA2C0061F00009D8B41DEF65F01FEF65F023EF3E
:10CA3C0065F04EEC61F03DEF65F0EFEC61F0000954
:10CA4C00D8B42BEF65F02DEF65F031EF65F054ECB9
:10CA5C0061F03DEF65F0E4EC61F00009D8B439EF1A
:10CA6C0065F03BEF65F03DEF65F051EC61F01200C5
:10CA7C00156E010E166E0101EFB547EF65F049EF2B
:10CA8C0065F065EF65F0EF85000E166EEB5189ECE5
:10CA9C0061F01550D8B455EF65F057EF65F05EEFC7
:10CAAC0065F0040E0101ED6F4CEC63F063EF65F083
:10CABC00030E0101ED6F1BEC62F071EC62F016508D
:10CACC00120004BE6CEF65F06EEF65F078EF65F068
:10CADC0001C001F002C002F003C003F004C004F076
:10CAEC0091EF65F001C005F002C006F003C007F03D
:10CAFC0004C008F0051E061E071E081E052A000E9F
:10CB0C0006220722082205C001F006C002F007C069
:10CB1C0003F008C004F012001A6E1A504FEC68F0C3
:10CB2C000009D8B49CEF65F09EEF65F093EF65F0CB
:10CB3C0017C001F0026A18C003F019C004F091ECA0
:10CB4C0062F0000E066E000E076E000E086E000EF0
:10CB5C00096E3DEC62F080EC61F0DEEC62F0E80610
:10CB6C00D8B4BBEF65F0BDEF65F0B3EF65F0120024
:10CB7C0003C00AF004C00BF001C008F002C009F0B9
:10CB8C00DDEF65F060002BF0D9FF60002FF0DAFFCD
:10CB9C00DF50076E0A4A0B2A600023F0D9FF6000B1
:10CBAC0027F0DAFF60001FF0DFFF084A092A0506AC
:10CBBC00D8A00606052806E10628D8A4E8EF65F0FB
:10CBCC00EAEF65F0C8EF65F012003901A3A1F1EFAF
:10CBDC0065F0F3EF65F0F5EF65F018EF66F0A2AFD6
:10CBEC00FAEF65F0FCEF65F0FEEF65F018EF66F01C
:10CBFC003D0179A504EF66F006EF66F008EF66F0EC
:10CC0C0018EF66F079AF0DEF66F00FEF66F011EFED
:10CC1C0066F018EF66F076A916EF66F018EF66F07E
:10CC2C00EBEF65F0120015BE20EF66F01EEF66F01C
:10CC3C0024EF66F0000E156E000E146E000E186ECA
:10CC4C00000E176E34EF66F0000E046E200E036EAD
:10CC5C0011C005F040EC6AF0174A182A1450175C02
:10CC6C001850800A166E1550800A1658D8A041EF3D
:10CC7C0066F043EF66F02AEF66F012C00BF013C0BB
:10CC8C000CF011C00DF000EC64F01200FC0E010170
:10CC9C00EF17020EEE6FEF955BEF66F04CEC61F068
:10CCAC007FEF66F00F0E7FEF66F0DCC10AF0DDC19E
:10CCBC000BF002D86BEF66F00500FA6ED051FD6EEA
:10CCCC00D151FE6EFF6AFA5012000D6E0E6A0E50B4
:10CCDC00000AD8B474EF66F058EF66F00D50020AF3
:10CCEC00D8B454EF66F0010AD8B454EF66F058EF9C
:10CCFC0066F01200000E3D01EC6F000EED6F000EA1
:10CD0C00EE6F000EEF6F000EF06F000EF16FB00EB5
:10CD1C00F26F800EF36F000EF46FCF0EF56F000EF6
:10CD2C00F66F000EF76F000EF86F000EF96F000E25
:10CD3C00FA6F000E016E000E026E98EC61F0000EA0
:10CD4C00016E000E026E9DEC61F0000E016E000E85
:10CD5C00026E93EC61F0000E5E6E1200196E1950AB
:10CD6C004FEC68F00009D8B4BEEF66F0C0EF66F087
:10CD7C00B5EF66F06C0E066EC60E076E180E086EDA
:10CD8C00096A31EC62F0170E016E026A000E046E35
:10CD9C00010E036E91EC62F0000E066E000E076E33
:10CDAC00000E086E000E096E3DEC62F080EC61F036
:10CDBC00DEEC62F0E806D8B4E6EF66F0E8EF66F079
:10CDCC00DEEF66F012006CEC61F0020E0101EE6F0A
:10CDDC00FCEF66F0B3EC61F020EF67F04AEC61F029
:10CDEC0020EF67F0C1EC61F020EF67F0DAC10AF0D8
:10CDFC00DBC10BF002D80CEF67F00500FA6ECE51D8
:10CE0C00FD6ECF51FE6EFF6AFA5012000D6E0E6A67
:10CE1C000E50000AD8B415EF67F0F8EF66F00D501D
:10CE2C00020AD8B4F0EF66F0010AD8B4F4EF66F059
:10CE3C00F8EF66F012003CEF67F060000BF0F6FFC5
:10CE4C0060000FF0F7FF000EF86E0F0EF76403D0C2
:10CE5C000800F55007D06F00DBFFE9FF6F00DFFF24
:10CE6C00EAFFEF5055EC62F0024A032A60000BF027
:10CE7C00F6FF60000FF0F7FF000EF86E0F0EF76470
:10CE8C0003D00800F55007D06F00DBFFE9FF6F00FF
:10CE9C00DFFFEAFFEF500009D8A457EF67F059EF16
:10CEAC0067F023EF67F012001B6E18C01EF019C05C
:10CEBC001CF01AC01DF01B504FEC68F00009D8B4E0
:10CECC006AEF67F06CEF67F061EF67F0940E066E37
:10CEDC00C90E076E1C0E086E096A31EC62F0170E53
:10CEEC00016E026A000E046E010E036E91EC62F08C
:10CEFC00000E066E000E076E000E086E000E096E18
:10CF0C003DEC62F080EC61F0DEEC62F0E806D8B447
:10CF1C0092EF67F094EF67F08AEF67F0120015EC70
:10CF2C0065F00101EF51030B0009D8B4A0EF67F0D5
:10CF3C00A2EF67F0AFEF67F005EC62F00009D8B430
:10CF4C00AAEF67F0ACEF67F0AFEF67F0100E0101DE
:10CF5C00ED6F0101ED51020DF70EF324F66EFE0E8E
:10CF6C00F420F76EF86A000EF82209006F00D4FF67
:10CF7C0013F009006F00D4FF14F002D8CFEF67F064
:10CF8C000500FA6E1350FD6E1450FE6EFF6AFA50D7
:10CF9C0012000101ED6F12000101EF89E7EF67F05C
:10CFAC005AEC61F0070E0FEF68F00101EB2989ECE8
:10CFBC0061F0030E0FEF68F057EC61F00A0E0FEF03
:10CFCC0068F0D8C10AF0D9C10BF002D8F7EF67F0BE
:10CFDC000500FA6ECC51FD6ECD51FE6EFF6AFA5013
:10CFEC0012000D6E0E6A0E50000AD8B400EF68F0F5
:10CFFC00E2EF67F00D50010AD8B4E2EF67F0030AD4
:10D00C00D8B4D6EF67F0060AD8B4DBEF67F0E2EFDE
:10D01C0067F01200056E01500210D8B418EF68F0DA
:10D02C001AEF68F038EF68F00550020DCC0EF324BF
:10D03C00D96E010EF420DA6E600007F0DEFF60009E
:10D04C000BF0DDFF0550020DD80EF324D96E010E46
:10D05C00F420DA6E60000FF0DEFF600013F0DDFFED
:10D06C004EEF68F00550020DCC0EF324D96E010E74
:10D07C00F420DA6E8C0EDE6EC20EDD6E0550020DE3
:10D08C00D80EF324D96E010EF420DA6EDE6ADD6A56
:10D09C001200016E010E026E0101EFB758EF68F03D
:10D0AC005AEF68F095EF68F001C0E8F1EF95EF8763
:10D0BC00FC0EEF170F0EED6F010EE76FF40EE66F1F
:10D0CC00EF898C0ECC6FC20ECD6F000ED86F000E98
:10D0DC00D96F8C0ECE6FC20ECF6F000EDA6F000EB2
:10D0EC00DB6F8C0ED06FC20ED16F000EDC6F000E9A
:10D0FC00DD6F8C0ED26FC20ED36F000EDE6F000E82
:10D10C00DF6F900ED46FC20ED56F000EE06F000E65
:10D11C00E16F6CEC61F063EC63F0000E026E025098
:10D12C001200FAEC61F00009D8A49FEF68F0A1EFAF
:10D13C0068F0A4EF68F0040EE5EF68F00101EF5120
:10D14C00030B0009D8B4ADEF68F0AFEF68F0BBEF9C
:10D15C0068F0010E0F6EEF51030B106E0F50105E46
:10D16C00EF511018FC0B1018EF6FEB07D8A0EC0761
:10D17C00EB51EC11D8B4C5EF68F0C7EF68F0D5EF00
:10D18C0068F05DEC61F06000A7F7D9FF6000ABF7C9
:10D19C00DAFFDF6E0101E94BEA2BA1EF68F0E6EC58
:10D1AC0068F0116E5DEC61F06000A7F7D9FF6000CC
:10D1BC00ABF7DAFFDF6E0101E94BEA2B11501200DD
:10D1CC000101EF890AEF69F05AEC61F0080E36EFB5
:10D1DC0069F05AEC61F0070E36EF69F00101EB29AA
:10D1EC0089EC61F0040E36EF69F0070E0101ED19C0
:10D1FC00D8B403EF69F005EF69F007EF69F057EC6D
:10D20C0061F00F0E36EF69F0D8C10AF0D9C10BF0FE
:10D21C0002D81AEF69F00500FA6ECC51FD6ECD51B3
:10D22C00FE6EFF6AFA5012000D6E0E6A0E50000A66
:10D23C00D8B423EF69F0FBEF68F00D50010AD8B4B5
:10D24C00FBEF68F0030AD8B4EFEF68F0010AD8B42A
:10D25C00EAEF68F0070AD8B4F4EF68F0FBEF68F077
:10D26C001200000EBE6E000EBD6E000EBA6E000EE9
:10D27C00BB6E000EBC6E070EC66EC268F90EC36E96
:10D28C00BF0EC46EFC0EC56E3A0170697F0E606FE6
:10D29C00F90E506F070E806F4069000E716F000E13
:10D2AC00816F000E516F000E416F000E616F000E0A
:10D2BC005A6F000E5B6F000E6A6F000E6B6F000EE4
:10D2CC007A6F000E7B6F000E826F000E426F260E7F
:10D2DC00526F180E626F000E726F43695369636967
:10D2EC007369070E836F44695469646974690F0E1E
:10D2FC00846F0A0EE26F210E096F220E0A6F130E55
:10D30C00166F170EE56F090EE16F1200000E011477
:10D31C00096E000E02140A6E800E03140B6E7F0E43
:10D32C0004140C6E09500A100B100C10D8A4A1EFA9
:10D33C0069F0A3EF69F0ABEF69F0000E016E000E1F
:10D34C00026E000E036E000E046E000E0514096EC4
:10D35C00000E06140A6E800E07140B6E7F0E081456
:10D36C000C6E09500A100B100C10D8A4C0EF69F009
:10D37C00C2EF69F0CAEF69F0000E056E000E066E82
:10D38C00000E076E000E086E055001180FE10650D6
:10D39C0002180CE10750031809E108500418D8B41E
:10D3AC00DAEF69F0DCEF69F0DFEF69F0D890E0EFCD
:10D3BC0069F0D8801200000E0B6E000E0A6E07503A
:10D3CC00D96EDA6A6F007BFFF6FF6F0077FFF7FF0D
:10D3DC00F86A0800F5502A0AD8A4F7EF69F0F9EFBB
:10D3EC0069F025EF6AF00750D96EDA6ADE2A000E72
:10D3FC00DD220850D96EDA6A020EDF26DF5CD96EA8
:10D40C00DA6A6F0078FF0AF06F0078FF0BF03BEFE1
:10D41C006AF00AC001F00BC002F0000E046E0A0E96
:10D42C00036EC9EC62F0095001240A6E000E022052
:10D43C000B6E0750D96EDA6ADE2A000EDD22075019
:10D44C00D96EDA6A6F007BFFF6FF6F0077FFF7FF8C
:10D45C00F86A0800F550D00F096E090E096439EF0F
:10D46C006AF03BEF6AF00FEF6AF00AC007F00BC0EE
:10D47C0008F012000550D8B446EF6AF048EF6AF095
:10D48C0050EF6AF00550D8A44EEF6AF050EF6AF0F6
:10D49C0055EF6AF00350A2EC61F0A1EF6AF0055071
:10D4AC00D96EDA6A0A0ED926DE50DE10D8B461EFD6
:10D4BC006AF063EF6AF07CEF6AF00550D96EDA6AB5
:10D4CC000A0ED9260550E16EE26A030EE126DE5003
:10D4DC00E65CE650800A0A6EDE50800A0A58D8B024
:10D4EC007AEF6AF07CEF6AF0A1EF6AF00550D96E22
:10D4FC00DA6A030ED9266F0078FF06F06F0074FF0E
:10D50C0007F00550D96EDA6A6F0078FF08F06F00EB
:10D51C0074FF09F006500824D96E07500920DA6E02
:10D52C0060000FF0DFFF0550D96EDA6A030ED926C2
:10D53C00DE2A000EDD221200000E0A6E04BEABEFD6
:10D54C006AF0A9EF6AF0B5EF6AF0041E031E021E22
:10D55C00016C000E022203220422010E0A6E08BE88
:10D56C00BCEF6AF0BAEF6AF0C4EF6AF0081E071E4F
:10D57C00061E056C000E0622072208220550061016
:10D58C0007100810D8B4CDEF6AF0CFEF6AF0FFEFB8
:10D59C006AF0010E096ED9EF6AF0D890053606369E
:10D5AC0007360836092A08AEDEEF6AF0E0EF6AF0BB
:10D5BC00D3EF6AF00550015C06500258075003582F
:10D5CC0008500458D8A0EDEF6AF0EFEF6AF0F7EFCF
:10D5DC006AF00550015E0650025A0750035A085073
:10D5EC00045AD8900832073206320532092EE0EF81
:10D5FC006AF00A50D8B405EF6BF007EF6BF00FEF41
:10D60C006BF0041E031E021E016C000E022203228C
:10D61C00042201C001F002C002F003C003F004C0F8
:10D62C0004F01200F5C00BF0F6C00CF0F7C00DF0D2
:10D63C00F8C00EF001C00BF002C00CF003C00DF0EE
:10D64C0004C00EF00BC005F00CC006F00DC007F0C6
:10D65C000EC008F0180E38EF6BF0D8900832073275
:10D66C0006320532E82E33EF6BF00550096E0A6A6C
:10D67C0009500A10D8A445EF6BF047EF6BF067EF39
:10D68C006BF0D8900B34056E0C34066E0D34076EAF
:10D69C000E34086E0550061007100810D8A459EF68
:10D6AC006BF05BEF6BF061EF6BF0000E026E020E35
:10D6BC00016E96EF6BF0000E026E030E016E96EF8C
:10D6CC006BF009280A10D8A46EEF6BF070EF6BF0BA
:10D6DC0092EF6BF00BC005F00CC006F00DC007F01C
:10D6EC000EC008F0090ED8900536063607360836F7
:10D6FC00E82E79EF6BF00550061007100810D8B41F
:10D70C008AEF6BF08DEF6BF0010E8EEF6BF0000E6D
:10D71C00016E026A96EF6BF0000E026E040E016E43
:10D72C001200000E1A14226E000E1B14236E800EB3
:10D73C001C14246E7F0E1D14256E225023102410F1
:10D74C002510D8A4ACEF6BF0AEEF6BF0B6EF6BF02E
:10D75C00000E1A6E000E1B6E000E1C6E000E1D6E5F
:10D76C00000E1E14226E000E1F14236E800E201449
:10D77C00246E7F0E2114256E2250231024102510A8
:10D78C00D8A4CBEF6BF0CDEF6BF0D5EF6BF0000EB8
:10D79C001E6E000E1F6E000E206E000E216E1DAE52
:10D7AC00DAEF6BF0DCEF6BF0E5EF6BF01A6C1B1E35
:10D7BC00D8B01B2A1C1ED8B01C2A800E1D5621AEB8
:10D7CC00EAEF6BF0ECEF6BF0F5EF6BF01E6C1F1EDD
:10D7DC00D8B01F2A201ED8B0202A800E2156000E49
:10D7EC001A1A000E1B1A000E1C1A800E1D1A000E9F
:10D7FC001E1A000E1F1A000E201A800E211A1E501F
:10D80C001A5C1F501B5820501C5821501D58D8B062
:10D81C0012EF6CF014EF6CF017EF6CF0D89018EF6F
:10D82C006CF0D8801200033404340A6E0A50D8A469
:10D83C0022EF6CF024EF6CF02EEF6CF0000E016E0A
:10D84C00000E026E000E036E000E046E9BEF6CF069
:10D85C0001C005F002C006F003C007F004C008F0D8
:10D86C00200E3EEF6CF0D8900832073206320532AB
:10D87C00E82E39EF6CF00550096E038EFF0E011681
:10D88C00FF0E0216FF0E0316000E0416960E0A5E0D
:10D89C000ABE55EF6CF053EF6CF06BEF6CF00A5066
:10D8AC00800A970FD8B05DEF6CF05FEF6CF061EF12
:10D8BC006CF024EF6CF0D890043203320232013257
:10D8CC000A3E61EF6CF083EF6CF01F0E0A6471EF8F
:10D8DC006CF073EF6CF07BEF6CF024EF6CF0D89085
:10D8EC0001360236033604360A060A50D8A481EFF4
:10D8FC006CF083EF6CF075EF6CF00950D8B489EFD5
:10D90C006CF08BEF6CF093EF6CF0041E031E021E98
:10D91C00016C000E02220322042201C001F002C09D
:10D92C0002F003C003F004C004F012005DBEA3EFCC
:10D93C006CF0A1EF6CF0A9EF6CF0000E226E010EF2
:10D94C00216EADEF6CF05CC021F05DC022F0F9C02F
:10D95C001FF0FAC020F0000E256E4F0E246E000E44
:10D96C0002014F6FEDEF6CF02406D8A025061A507B
:10D97C000F0B236E0A0E2360C6EF6CF0C8EF6CF031
:10D98C00CCEF6CF0300E2326CEEF6CF0370E232646
:10D99C00000E2424D96E020E2520DA6E60008FF062
:10D9AC00DFFF2106D8A022061F06D8A020061AC029
:10D9BC001CF01BC01DF0040E1E6ED8901D321C32C4
:10D9CC001E2EE3EF6CF01CC01AF01DC01BF025BE20
:10D9DC00F9EF6CF0255009E1020E245CD8A0F9EFA8
:10D9EC006CF0FBEF6CF011EF6DF01A501B10D8A41B
:10D9FC0002EF6DF004EF6DF0BAEF6CF022BE11EF98
:10DA0C006DF0225006E12104D8B00FEF6DF011EF4C
:10DA1C006DF0BAEF6CF019C011F0000E2424126EE8
:10DA2C00020E2520136E1FC014F020C015F019EC47
:10DA3C0066F0120005EC62F00009D8B428EF6DF026
:10DA4C002AEF6DF064EF6DF037EF6DF0B3EC61F031
:10DA5C00B0EF6DF04AEC61F0B0EF6DF0000EB0EF8E
:10DA6C006DF0DEC10AF0DFC10BF002D848EF6DF0AB
:10DA7C000500FA6E0101D251FD6ED351FE6EFF6AA4
:10DA8C00FA5012000D6E0E6A0E50000AD8B451EF07
:10DA9C006DF034EF6DF00D50010AD8B434EF6DF029
:10DAAC00030AD8B42CEF6DF0010AD8B430EF6DF046
:10DABC00070AD8B434EF6DF034EF6DF010EC62F06F
:10DACC000009D8B46CEF6DF06EEF6DF0AFEF6DF048
:10DADC000101EF51030B0009D8B477EF6DF079EF2A
:10DAEC006DF085EF6DF0010E0D6EEF51030B0E6EA8
:10DAFC000D500E5EEF510E18FC0B0E18EF6F600000
:10DB0C00A7F7D9FF6000ABF7DAFFDF500F6EE94BD8
:10DB1C00EA2BEB07D8A0EC07EB51EC11D8A499EF4A
:10DB2C006DF09BEF6DF0A3EF6DF0D2EC67F00D6E26
:10DB3C000D50116E126AA7EF6DF0000E126E030EEF
:10DB4C00116E11C010F00F508EEC61F01050B0EF50
:10DB5C006DF0030E1200096E0950D8B4B8EF6DF0D9
:10DB6C00BAEF6DF0DCEF6DF004BEC1EF6DF0BFEFFE
:10DB7C006DF0DCEF6DF001C005F002C006F003C0E3
:10DB8C0007F004C008F0051E061E071E081E052A15
:10DB9C00000E06220722082205C00BF006C00CF06E
:10DBAC0007C00DF008C00EF0E4EF6DF001C00BF0F3
:10DBBC0002C00CF003C00DF004C00EF001500210B6
:10DBCC0003100410D8A4EDEF6DF0EFEF6DF0F9EF4A
:10DBDC006DF0000E016E000E026E000E036E000E54
:10DBEC00046E8AEF6EF0960E0A6E03EF6EF00A2A40
:10DBFC00D8900E320D320C320B32000E0B14056E17
:10DC0C00000E0C14066E000E0D14076EFE0E0E1494
:10DC1C00086E0550061007100810D8A418EF6EF007
:10DC2C001AEF6EF0FDEF6DF028EF6EF00A2A010E80
:10DC3C000B26000E0C220D220E22D8900E320D3225
:10DC4C000C320B32000E0B14056E000E0C14066E0B
:10DC5C00000E0D14076EFF0E0E14086E0550061004
:10DC6C0007100810D8A43DEF6EF03FEF6EF01CEFDC
:10DC7C006EF047EF6EF00A06D8900B360C360D3668
:10DC8C000E360DBE4CEF6EF04EEF6EF056EF6EF0A2
:10DC9C00020E0A6054EF6EF056EF6EF041EF6EF02C
:10DCAC000AB05BEF6EF05DEF6EF05EEF6EF00D9E06
:10DCBC00D8900A320AC005F0066A076A086A05C0DD
:10DCCC0008F0076A066A056A05500B1206500C121A
:10DCDC0007500D1208500E120950D8B478EF6EF0A0
:10DCEC007AEF6EF082EF6EF004BE81EF6EF07FEF94
:10DCFC006EF082EF6EF00E8E0BC001F00CC002F0D5
:10DD0C000DC003F00EC004F01200F0C138F0F1C1E8
:10DD1C0039F0F2C13AF0F3C13BF028C038F029C019
:10DD2C0039F02AC03AF02BC03BF0810E2C6EFF0E5E
:10DD3C002D6E38C02EF039C02FF03AC030F03BC0F9
:10DD4C0031F0180EAFEF6EF0D890313230322F32F6
:10DD5C002E32E82EAAEF6EF02E502C24366E000ECA
:10DD6C002D20376E37BEC4EF6EF0375009E1170E19
:10DD7C00365CD8A0C4EF6EF0C6EF6EF0D0EF6EF04C
:10DD8C0028C028F029C029F02AC02AF02BC02BF07B
:10DD9C0093EF6FF037BED5EF6EF0D7EF6EF047EF25
:10DDAC006FF036C02CF0FF0E2D6EFF0E2E6E7F0E18
:10DDBC002F6E000E306E2C66E6EF6EF0EEEF6EF00E
:10DDCC00303430322F322E322D322C2EE1EF6EF0D9
:10DDDC002DC032F02EC033F02FC034F030C035F0EF
:10DDEC00325038142C6E335039142D6E34503A1482
:10DDFC002E6E35503B142F6E2C502D102E102F10D4
:10DE0C00D8A40BEF6FF00DEF6FF00FEF6FF0C6EFC4
:10DE1C006EF038C02CF039C02DF03AC02EF03BC05B
:10DE2C002FF0200E1FEF6FF0D8902F322E322D32A4
:10DE3C002C32E82E1AEF6FF02C502D102E102F10C4
:10DE4C00D8B42BEF6FF02DEF6FF035EF6FF0325041
:10DE5C0038263350392234503A2235503B22321C6A
:10DE6C002C6E331C2D6E341C2E6E351C2F6E2C50CC
:10DE7C0038162D5039162E503A162F503B168BEF64
:10DE8C006FF038C02CF039C02DF03AC02EF03BC0EA
:10DE9C002FF0200E57EF6FF0D8902F322E322D32FC
:10DEAC002C32E82E52EF6FF02C502D102E102F101C
:10DEBC00D8A463EF6FF065EF6FF06FEF6FF0000EAB
:10DECC00386E000E396E000E3A6E000E3B6E8BEF04
:10DEDC006FF0D89038342C6E39342D6E3A342E6E57
:10DEEC003B342F6E2C502D102E102F10D8B481EFE8
:10DEFC006FF083EF6FF08BEF6FF0000E386E000E4B
:10DF0C00396E800E3A6EBF0E3B6E38C028F039C0A9
:10DF1C0029F03AC02AF03BC02BF012003B0E176ED2
:10DF2C00310E186E000E1A6E0C0E196E680E5AEC2D
:10DF3C0067F0325031C02FF0306A2FC030F02F6AAA
:10DF4C002F103D6E30503E6E345033C02FF0306A7F
:10DF5C002FC030F02F6A2F103F6E3050406E36506D
:10DF6C0035C02FF0306A2FC030F02F6A2F10416E61
:10DF7C003050426E385037C02FF0306A2FC030F01E
:10DF8C002F6A2F10436E3050446E3A5039C02FF028
:10DF9C00306A2FC030F02F6A2F10456E3050466E0D
:10DFAC003C503BC02FF0306A2FC030F02F6A2F103E
:10DFBC00476E3050486E3DC001F03EC002F0000E7E
:10DFCC0002BEFF0E036E046E010EB1EC6DF001C0CB
:10DFDC000FF002C010F003C011F004C012F0000EDC
:10DFEC00136E000E146E800E156E460E166E2DEC12
:10DFFC0074F02850D96EDA6A60003FF0DEFF6000E2
:10E00C0043F0DEFF600047F0DEFF60004BF0DEFF08
:10E01C003FC001F040C002F0000E02BEFF0E036EC6
:10E02C00046E010EB1EC6DF001C00FF002C010F0E7
:10E03C0003C011F004C012F0000E136E000E146E2B
:10E04C00800E156E460E166E2DEC74F02950D96E9E
:10E05C00DA6A60003FF0DEFF600043F0DEFF600034
:10E06C0047F0DEFF60004BF0DEFF41C001F042C024
:10E07C0002F0000E02BEFF0E036E046E010EB1EC38
:10E08C006DF001C00FF002C010F003C011F004C01D
:10E09C0012F0000E136E000E146E800E156E460EEE
:10E0AC00166E2DEC74F02A50D96EDA6A60003FF0CF
:10E0BC00DEFF600043F0DEFF600047F0DEFF600033
:10E0CC004BF0DEFF43C001F044C002F0000E02BE74
:10E0DC00FF0E036E046E010EB1EC6DF001C00FF07B
:10E0EC0002C010F003C011F004C012F0000E136E49
:10E0FC00000E146E030E156E430E166E2DEC74F09E
:10E10C002B50D96EDA6A60003FF0DEFF600043F0FE
:10E11C00DEFF600047F0DEFF60004BF0DEFF45C025
:10E12C0001F046C002F0000E02BEFF0E036E046E3C
:10E13C00010EB1EC6DF001C00FF002C010F003C085
:10E14C0011F004C012F0000E136E000E146E030ECC
:10E15C00156E430E166E2DEC74F02C50D96EDA6AD7
:10E16C0060003FF0DEFF600043F0DEFF600047F030
:10E17C00DEFF60004BF0DEFF47C001F048C002F04C
:10E18C00000E02BEFF0E036E046E010EB1EC6DF0BC
:10E19C0001C00FF002C010F003C011F004C012F067
:10E1AC00000E136E000E146E030E156E430E166EDB
:10E1BC002DEC74F06000B7F0D9FF6000BBF0DAFF13
:10E1CC0060003FF0DEFF600043F0DEFF600047F0D0
:10E1DC00DEFF60004BF0DEFF120000018D51D96EA6
:10E1EC00DA6A6F007BFFF6FF6F0077FFF7FFF86AC4
:10E1FC000800F550250AD8A406EF71F008EF71F06D
:10E20C0078EF72F08D51D96EDA6ADE2A000EDD22BB
:10E21C00000EFA6F000EF96FF9C0FBF05C685D68D8
:10E22C008D51D96EDA6A6F007BFFF6FF6F0077FFB6
:10E23C00F7FFF86A0800F5502E0AD8A428EF71F001
:10E24C002AEF71F03AEF71F08D51D96EDA6ADE2A4D
:10E25C00000EDD228DC007F08EC008F0E1EC69F0F5
:10E26C0007C05CF008C05DF000018D51D96EDA6A10
:10E27C006F0078FF4BF06F0074FF4CF060002FF1D3
:10E28C00F6FF600033F1F7FFF86A0800F550580A02
:10E29C00D8A453EF71F055EF71F097EF71F08E51E8
:10E2AC00D96EDA6A020EDF26DF5CD96EDA6A6F008D
:10E2BC0078FF46F06F0078FF47F0010E4B24446E58
:10E2CC00000E4C20456E8D51D96EDA6A600013F148
:10E2DC00DEFF600017F1DDFF7EEF71F08CC019F0EE
:10E2EC0046C01AF047C01BF09CEC6CF08CEF72F03F
:10E2FC0060002FF1F6FF600033F1F7FFF86A0800B9
:10E30C00F550446E456A4550000AD8B490EF71F050
:10E31C0097EF71F04450580AD8B474EF71F097EF3E
:10E32C0071F08D51D96EDA6A6F0078FF4BF06F0087
:10E33C0074FF4CF060002FF1F6FF600033F1F7FF33
:10E34C00F86A08006F00D4FF4AF0B9EF71F04B4A3D
:10E35C004C2AD2EF71F06C0E4A6ED2EF71F0000EB7
:10E36C004A6ED2EF71F04A50446E456A4550000A2D
:10E37C00D8B4C3EF71F0B5EF71F044504C0AD8B477
:10E38C00ADEF71F02A0AD8B4B1EF71F00A0AD8B423
:10E39C00ADEF71F0B5EF71F060002FF1F6FF60009A
:10E3AC0033F1F7FFF86A0800F550660AD8A4E1EFDC
:10E3BC0071F0E3EF71F06FEF72F017EF72F08E51B6
:10E3CC00D96EDA6A6F007CFF44F0040EDF264450ED
:10E3DC00D96EDA6A6F0078FF46F06F0078FF47F06D
:10E3EC006F0078FF48F06F0078FF49F02CEF72F067
:10E3FC008E51D96EDA6A6F007CFF44F0040EDF2672
:10E40C004450D96EDA6A6F0078FF46F06F0078FFDF
:10E41C0047F06F0078FF48F06F0078FF49F02CEF61
:10E42C0072F04A50446E456A4550000AD8B421EF48
:10E43C0072F02CEF72F044504C0AD8B4FEEF71F02D
:10E44C00200AD8B4E5EF71F02CEF72F0010E4B24DA
:10E45C00446E000E4C20456E8D51D96EDA6A600008
:10E46C0013F1DEFF600017F1DDFF56EF72F08CC088
:10E47C003CF046C03DF047C03EF048C03FF049C0BC
:10E48C0040F060002FF1F6FF600033F1F7FFF86AFF
:10E49C0008006F00D4FF41F081EC7AF08CEF72F041
:10E4AC0060002FF1F6FF600033F1F7FFF86A080007
:10E4BC00F550446E456A4550000AD8B468EF72F0C6
:10E4CC006FEF72F04450660AD8B43DEF72F06FEF04
:10E4DC0072F000018D51D96EDA6ADE2A000EDD224F
:10E4EC008CEF72F08D51D96EDA6A6F007BFFF6FFFC
:10E4FC006F0077FFF7FFF86A0800F550036E046AA7
:10E50C008CC005F040EC6AF06FEF72F0120026EC54
:10E51C0062F0D1EC61F0E10E286EE50E296EE90E89
:10E52C002A6EED0E2B6EF10E2C6EC80E2D6E010E9A
:10E53C002E6E94EC6FF0B10E016E026AE10E036E5A
:10E54C00046A000E066E040E056EBEEC65F0B50E88
:10E55C00016E026AE50E036E046A000E066E040E6E
:10E56C00056EBEEC65F0B90E016E026AE90E036E23
:10E57C00046A000E066E040E056EBEEC65F0BD0E50
:10E58C00016E026AED0E036E046A000E066E040E36
:10E59C00056EBEEC65F0C10E016E026AF10E036EE3
:10E5AC00046A000E066E040E056EBEEC65F0C50E18
:10E5BC00016E026AC80E036E010E046E000E066E2A
:10E5CC00040E056EBEEC65F0F6C123F0F7C124F025
:10E5DC00B10E256E0C0E266E500EE1EC63F0F6C1FA
:10E5EC0021F0F7C122F0B10E236E0C0E246E500EEA
:10E5FC0020EC64F0C90E016E026AB10E036E046A5F
:10E60C00000E066E040E056EBEEC65F0CD0E016EAE
:10E61C00026AB50E036E046A000E066E040E056ED9
:10E62C00BEEC65F0D10E016E026AB90E036E046A7F
:10E63C00000E066E040E056EBEEC65F0F4C123F000
:10E64C00F5C124F0BD0E256E0C0E266E510EE1ECBC
:10E65C0063F0F4C121F0F5C122F0BD0E236E0C0E57
:10E66C00246E510E20EC64F0D50E016E026ABD0EC4
:10E67C00036E046A000E066E040E056EBEEC65F0A9
:10E68C00D90E016E026AC10E036E046A000E066E8C
:10E69C00040E056EBEEC65F0DD0E016E026AC50E51
:10E6AC00036E046A000E066E040E056EBEEC65F079
:10E6BC00010E0101F6250001AF6F000E0101F721DB
:10E6CC000001B06FAFC001F0B0C002F0036A046A81
:10E6DC00550E056E050E066E000E076E000E086ECA
:10E6EC00A2EC6AF001C0F6F102C0F7F1010E0101D3
:10E6FC00F4250001AF6F000E0101F5210001B06F90
:10E70C00AFC001F0B0C002F0036A046A550E056E8A
:10E71C00050E066E000E076E000E086EA2EC6AF077
:10E72C0001C0F4F102C0F5F1000E0001936F010E6F
:10E73C00946F640E956FFF0E966FE1C097F0E2C078
:10E74C0098F0E3C099F0E4C09AF0E5C09BF0E6C005
:10E75C009CF0E7C09DF0E8C09EF0E9C09FF0EAC0D5
:10E76C00A0F0EBC0A1F0ECC0A2F0EDC0A3F0EEC0A5
:10E77C00A4F0EFC0A5F0F0C0A6F0F1C0A7F0F2C075
:10E78C00A8F0F3C0A9F0F4C0AAF0C8C1ABF0C9C19D
:10E79C00ACF0CAC1ADF0CBC1AEF085EC64F0000EAC
:10E7AC00026E010E036E21EC67F0000E0001936FF8
:10E7BC00010E946F1D0E956FFF0E966FC9C097F0EA
:10E7CC00CAC098F0CBC099F0CCC09AF0CDC09BF0E9
:10E7DC00CEC09CF0CFC09DF0D0C09EF0D1C09FF0B9
:10E7EC00D2C0A0F0D3C0A1F0D4C0A2F0D5C0A3F089
:10E7FC00D6C0A4F0D7C0A5F0D8C0A6F0D9C0A7F059
:10E80C00DAC0A8F0DBC0A9F0DCC0AAF0DDC0ABF028
:10E81C00DEC0ACF0DFC0ADF0E0C0AEF085EC64F073
:10E82C00000E026E010E036E21EC67F00B0E000160
:10E83C00B06F260EAF6F5D0EE82EFED7AF2FFCD754
:10E84C00B02FFAD700D091EF72F0FEEF7FF012509C
:10E85C00800B1F6E12501224266E11AE38EF74F01E
:10E86C003AEF74F03BEF74F026802650D8B441EFA9
:10E87C0074F043EF74F058EF74F02628D8A449EFE5
:10E88C0074F04BEF74F053EF74F0000E0F6E000E3B
:10E89C00106E000E116E000E126E118E000E126EA6
:10E8AC0060EF74F0000E0F6E000E106E000E116E05
:10E8BC00000E126E1650800B1F1A16501624276E5F
:10E8CC0015AE6BEF74F06DEF74F06EEF74F0278093
:10E8DC002750D8B474EF74F076EF74F08BEF74F0BB
:10E8EC002728D8A47CEF74F07EEF74F086EF74F0D8
:10E8FC00000E136E000E146E000E156E000E166ECA
:10E90C00158E000E166E93EF74F0000E136E000E43
:10E91C00146E000E156E000E166E1350141015109A
:10E92C001610D8A49CEF74F09EEF74F0B6EF74F050
:10E93C00000E0F6E000E106E000E116E000E126E99
:10E94C00800E11127F0E12121F5012120FC00FF0F8
:10E95C0010C010F011C011F012C012F0F9EF75F0E8
:10E96C002650D8A4BCEF74F0BEEF74F0C8EF74F06E
:10E97C00000E0F6E000E106E000E116E000E126E59
:10E98C00F9EF75F0275026C017F0186A175E000EC5
:10E99C00185A7F0E1724206E000E1820216E0FC0FF
:10E9AC001BF010C01CF011C01DF012C01EF0000EA8
:10E9BC000F6E000E106E000E116E000E126E000E19
:10E9CC00226E000E236E000E246E000E256E000EBD
:10E9DC00276E29EF75F02750D8B4F7EF74F0F9EFE4
:10E9EC0074F010EF75F0D8901B361C361D361E36A1
:10E9FC00D8900F3610361136123625AE08EF75F05A
:10EA0C000AEF75F00BEF75F00F80D8902236233695
:10EA1C002436253613501B5C14501C5815501D58A9
:10EA2C0016501E58D8A01DEF75F01FEF75F028EF8B
:10EA3C0075F0258C13501B5E14501C5A15501D5A22
:10EA4C0016501E5A272A190E27642FEF75F031EF36
:10EA5C0075F0F1EF74F01B501C101D101E10D8B483
:10EA6C003AEF75F03CEF75F054EF75F0228054EFEF
:10EA7C0075F0D8900F3610361136123625AE49EF98
:10EA8C0075F04BEF75F04CEF75F00F80D890223687
:10EA9C002336243625362006D8A0210611AE59EF90
:10EAAC0075F05BEF75F03FEF75F0000E276E25AE3D
:10EABC0062EF75F064EF75F088EF75F0FF0E2214BD
:10EACC00176EFF0E2314186EFF0E2414196E7F0E92
:10EADC0025141A6E1750181019101A10D8B479EF93
:10EAEC0075F07BEF75F07FEF75F0010E276E88EFF8
:10EAFC0075F00FA084EF75F086EF75F088EF75F068
:10EB0C007BEF75F02750D8B48EEF75F090EF75F061
:10EB1C00B4EF75F0010E0F26000E102211221222F6
:10EB2C0012A09BEF75F09DEF75F0B4EF75F00FC070
:10EB3C0017F010C018F011C019F012C01AF01A34E6
:10EB4C001A3219321832173217C00FF018C010F0E1
:10EB5C0019C011F01AC012F0204A212A21BEBFEFB1
:10EB6C0075F0215008E12028D8A0BFEF75F0C1EF57
:10EB7C0075F0CCEF75F0000E216E2068000E0F6E54
:10EB8C00000E106E000E116E000E126E21BED9EF2B
:10EB9C0075F0215006E12004D8B0D7EF75F0D9EF0D
:10EBAC0075F0E7EF75F0000E216E000E206E000E72
:10EBBC000F6E000E106E000E116E000E126E000E17
:10EBCC001F6E20C026F026A0EEEF75F0F0EF75F06A
:10EBDC00F3EF75F0118EF4EF75F0119ED89026308E
:10EBEC00126EAAEF74F012000450800B0D6E0450DC
:10EBFC000424136E03AE05EF76F007EF76F008EF02
:10EC0C0076F013801350D8B40EEF76F010EF76F048
:10EC1C0023EF76F01328D8A416EF76F018EF76F0E1
:10EC2C0020EF76F0000E016E000E026E000E036EE9
:10EC3C00000E046E038E2BEF76F0000E016E000EAC
:10EC4C00026E000E036E000E046E0850800B0D1A3F
:10EC5C00085008240E6E07AE36EF76F038EF76F0DB
:10EC6C0039EF76F00E800E50D8B43FEF76F041EFCE
:10EC7C0076F054EF76F00E28D8A447EF76F049EFF3
:10EC8C0076F051EF76F0000E056E000E066E000E5B
:10EC9C00076E000E086E078E5CEF76F0000E056EA8
:10ECAC00000E066E000E076E000E086E0E50D8B4E5
:10ECBC0062EF76F064EF76F06CEF76F01350D8A438
:10ECCC006AEF76F06CEF76F076EF76F0000E016E70
:10ECDC00000E026E000E036E000E046E20EF78F034
:10ECEC00075001026F00CCFF18F06F00D0FF19F035
:10ECFC0018500F6E106A116A126A1950146E156A48
:10ED0C00166A176A065002026F00CCFF18F06F00EB
:10ED1C00D0FF19F018500F26000E102211221222CB
:10ED2C0019501426000E1522162217220550030224
:10ED3C006F00CCFF18F06F00D0FF19F018500F26A1
:10ED4C00000E10221122122219501426000E152228
:10ED5C001622172211C012F010C011F00FC010F0C3
:10ED6C000F6A055002026F00CCFF18F06F00D0FF45
:10ED7C0019F018500F2619501022000E1122000EF7
:10ED8C001222065001026F00CCFF18F06F00D0FF6A
:10ED9C0019F018500F2619501022000E1122000ED7
:10EDAC00122211C012F010C011F00FC010F00F6A37
:10EDBC00055001026F00CCFF18F06F00D0FF19F066
:10EDCC0018500F2619501022000E1122000E12227C
:10EDDC00075002026F00CCFF18F06F00D0FF19F043
:10EDEC001850142619501522000E1622000E172248
:10EDFC00065003026F00CCFF18F06F00D0FF19F023
:10EE0C001850142619501522000E1622000E172227
:10EE1C00075003026F00CCFF18F06F00D0FF19F001
:10EE2C001850096E19500A6E0B6A0C6A0BC00CF064
:10EE3C000AC00BF009C00AF0096A095014260A50DE
:10EE4C0015220B5016220C5017220FC009F010C0BF
:10EE5C000AF011C00BF012C00CF0190E3BEF77F05A
:10EE6C00D8900C320B320A320932E82E36EF77F09A
:10EE7C00095014260A5015220B5016220C5017223A
:10EE8C0011C012F010C011F00FC010F00F6A0E502C
:10EE9C0013C009F00A6A0926000E0A22820E092400
:10EEAC00186EFF0E0A20196E71EF77F0D890143699
:10EEBC0015361636173612AE66EF77F068EF77F028
:10EECC0069EF77F01480D8900F3610361136123661
:10EEDC001806D8A0190616AE76EF77F078EF77F013
:10EEEC005CEF77F0000E0E6E12AE7FEF77F081EFD5
:10EEFC0077F0A5EF77F0FF0E0F14096EFF0E1014CC
:10EF0C000A6EFF0E11140B6E7F0E12140C6E09504C
:10EF1C000A100B100C10D8B496EF77F098EF77F02E
:10EF2C009CEF77F0010E0E6EA5EF77F014A0A1EF19
:10EF3C0077F0A3EF77F0A5EF77F098EF77F00E501E
:10EF4C00D8B4ABEF77F0ADEF77F0D1EF77F0010EEF
:10EF5C001426000E15221622172217A0B8EF77F0F0
:10EF6C00BAEF77F0D1EF77F014C009F015C00AF0C2
:10EF7C0016C00BF017C00CF00C340C320B320A32EA
:10EF8C00093209C014F00AC015F00BC016F00CC001
:10EF9C0017F0184A192A19BEDCEF77F0195008E15E
:10EFAC001828D8A0DCEF77F0DEEF77F0E8EF77F0F9
:10EFBC00000E146E000E156E800E166E7F0E176E00
:10EFCC0016EF78F019BEF5EF77F0195006E118043A
:10EFDC00D8B0F3EF77F0F5EF77F001EF78F0000EA3
:10EFEC00146E000E156E000E166E000E176E000ECF
:10EFFC000D6E16EF78F018C013F0FF0E1416FF0EFE
:10F00C0015167F0E1616000E171613A010EF78F0BB
:10F01C0012EF78F013EF78F0168ED8901330176E3D
:10F02C000D50171214C001F015C002F016C003F0F9
:10F03C0017C004F012000450800B0D6E0450042411
:10F04C000F6E03AE2CEF78F02EEF78F02FEF78F0F8
:10F05C000F800F50D8B435EF78F037EF78F04CEFD5
:10F06C0078F00F28D8A43DEF78F03FEF78F047EF19
:10F07C0078F0000E016E000E026E000E036E000E94
:10F08C00046E038E000E046E54EF78F0000E016EC9
:10F09C00000E026E000E036E000E046E0850800B04
:10F0AC000E6E0D500E18D8B45EEF78F060EF78F05D
:10F0BC0061EF78F00D8C085008240E6E07AE69EFE6
:10F0CC0078F06BEF78F06CEF78F00E800E50D8B4CF
:10F0DC0072EF78F074EF78F089EF78F00E28D8A4FE
:10F0EC007AEF78F07CEF78F084EF78F0000E056E14
:10F0FC00000E066E000E076E000E086E078E000ED8
:10F10C00086E91EF78F0000E056E000E066E000E84
:10F11C00076E000E086E0F500E5CD8B098EF78F0AA
:10F12C009AEF78F0C1EF78F00DAC9FEF78F0A1EF8B
:10F13C0078F0A3EF78F0800E0D1A0FC010F00EC00F
:10F14C000FF010C00EF001C010F005C001F010C09F
:10F15C0005F002C010F006C002F010C006F003C0AB
:10F16C0010F007C003F010C007F004C010F008C086
:10F17C0004F010C008F0000E106E0F500EC009F015
:10F18C000A6A095E000E0A5A0ABED6EF78F00A50D7
:10F19C0009E11A0E095CD8A0D6EF78F0D8EF78F018
:10F1AC000FEF79F00150021003100410D8A4E1EF16
:10F1BC0078F0E4EF78F0010EE5EF78F0000E106EC9
:10F1CC00000E016E000E026E000E036E000E046E39
:10F1DC000EC00FF018EF79F010A0F7EF78F0F9EF00
:10F1EC0078F0FFEF78F0D89010300109106E01EF35
:10F1FC0079F0D890103201A006EF79F008EF79F091
:10F20C0009EF79F0108E04340432033202320132E9
:10F21C000F2A0E500F5CD8A016EF79F018EF79F08A
:10F22C00F2EF78F00DBC1DEF79F01FEF79F05FEF86
:10F23C0079F00F50D8A425EF79F027EF79F031EF62
:10F24C0079F0000E016E000E026E000E036E000EC1
:10F25C00046E80EF7AF0055001260650022207500A
:10F26C0003220850042204A03EEF79F040EF79F01D
:10F27C00ECEF79F010A045EF79F047EF79F04DEF16
:10F28C0079F0D89010300109106E4FEF79F0D890CA
:10F29C00103201A054EF79F056EF79F057EF79F076
:10F2AC00108E043404320332023201320F2AECEF96
:10F2BC0079F00550015C0650025807500358045071
:10F2CC00800A096E0850800A0958D8B070EF79F09E
:10F2DC0072EF79F09DEF79F00150055C096E0250E8
:10F2EC0006580A6E035007580B6E045008580C6EE3
:10F2FC00FF0E0924016EFF0E0A20026EFF0E0B207A
:10F30C00036EFF0E0C20046E800E0D1A106C105044
:10F31C00D8A493EF79F095EF79F0A5EF79F0010E81
:10F32C000126000E022203220422A5EF79F00550DB
:10F33C00015E0650025A0750035A0850045A0150F5
:10F34C00021003100410D8A4AEEF79F0B0EF79F0EE
:10F35C00E5EF79F01050D8A4B6EF79F0B8EF79F06A
:10F36C00E5EF79F0000E016E000E026E000E036EDA
:10F37C00000E046E80EF7AF0D89001360236033618
:10F38C00043610AECCEF79F0CEEF79F0CFEF79F008
:10F39C00018010A0D4EF79F0D6EF79F0DAEF79F0A4
:10F3AC00D8801036DCEF79F0D89010360F50D8B4E6
:10F3BC00E2EF79F0E4EF79F0E5EF79F00F0603AEC8
:10F3CC00EAEF79F0ECEF79F0C2EF79F0000E0E6E07
:10F3DC0010AEF3EF79F0F5EF79F00DEF7AF010C095
:10F3EC0009F07F0E0916D8B4FEEF79F000EF7AF031
:10F3FC0004EF7AF0010E0E6E0DEF7AF001A009EF1A
:10F40C007AF00BEF7AF00DEF7AF000EF7AF00E5005
:10F41C00D8B413EF7AF015EF7AF040EF7AF0010ED2
:10F42C000126000E02220322042204A020EF7AF00F
:10F43C0022EF7AF040EF7AF001C009F002C00AF036
:10F44C0003C00BF004C00CF00C340C320B320A323B
:10F45C00093209C001F00AC002F00BC003F00CC065
:10F46C0004F00F28D8B43DEF7AF03FEF7AF040EF7C
:10F47C007AF00F2A0F28D8B446EF7AF048EF7AF0DA
:10F48C0050EF7AF00F50D8A44EEF7AF050EF7AF09C
:10F49C0062EF7AF0000E016E000E026E000E036E2B
:10F4AC00000E046E0F50D8A45EEF7AF060EF7AF085
:10F4BC0062EF7AF0000E0D6E0FA067EF7AF069EF35
:10F4CC007AF06CEF7AF0038E6DEF7AF0039ED890A1
:10F4DC000F30046E0DAE75EF7AF077EF7AF078EFAF
:10F4EC007AF0048E01C001F002C002F003C003F0F8
:10F4FC0004C004F01200000E0001816F3DC082F0C8
:10F50C003EC083F03FC084F040C085F085BF93EFD0
:10F51C007AF091EF7AF0A7EF7AF0010E816F82C04A
:10F52C0001F083C002F084C003F085C004F0C5EC88
:10F53C0063F001C082F002C083F003C084F004C009
:10F54C0085F0000E0001876F000E866FF9C071F018
:10F55C00FAC072F08151D8B4B6EF7AF0B8EF7AF005
:10F56C00CCEF7AF08151D8A4BEEF7AF0C0EF7AF0EC
:10F57C00C6EF7AF0000E676F2B0E666FCAEF7AF04B
:10F58C00000E676F2D0E666F66C081F082C001F0B1
:10F59C0083C002F084C003F085C004F018EC6BF05B
:10F5AC0001040210D8A4DDEF7AF0DFEF7AF010EF4F
:10F5BC007BF000018151D8B4E6EF7AF0E8EF7AF0F5
:10F5CC00F1EF7AF081C000F27107D8A07207000E3B
:10F5DC00876F010E866F000E8625016E020E872145
:10F5EC00026EF30E036EFF0E046E63EC64F000010A
:10F5FC00FD0E7127FF0E72233CC011F0000E126E2F
:10F60C00020E136E71C014F072C015F019EC66F096
:10F61C007AEF7FF082C001F083C002F084C003F067
:10F62C0085C004F018EC6BF001500210D8A421EF47
:10F63C007BF023EF7BF043EF7BF000018151D8B4DA
:10F64C002AEF7BF02CEF7BF035EF7BF081C000F2E2
:10F65C007107D8A07207000E876F010E866F000E1F
:10F66C008625016E020E8721026EF70E036EFF0EC9
:10F67C00046E63EC64F0FDEF7AF0000E0001886F0D
:10F68C00000E896F800E8A6F3F0E8B6F000E706FAD
:10F69C00000E6F6F82C001F083C002F084C003F0D3
:10F6AC0085C004F0000E056E000E066E000E076E8F
:10F6BC00000E086E8CEC69F0D8B067EF7BF069EF48
:10F6CC007BF048EF7CF076EF7BF073C088F074C071
:10F6DC0089F075C08AF076C08BF000016F4B702BEF
:10F6EC0088C001F089C002F08AC003F08BC004F01E
:10F6FC00000E056E000E066E200E076E410E086E93
:10F70C00FAEC75F001C073F002C074F003C075F030
:10F71C0004C076F000017351825D016E74518359FF
:10F72C00026E75518459036E76518559046E67ECDF
:10F73C0065F004BEADEF7BF004500310021009E13C
:10F74C00020E015CD8A0ADEF7BF0AFEF7BF06BEF5E
:10F75C007BF073C01AF074C01BF075C01CF076C03F
:10F76C001DF082C01EF083C01FF084C020F085C045
:10F77C0021F097EC6BF0D8A0C6EF7BF0C8EF7BF0D4
:10F78C006BEF7BF000018851825D016E89518359CA
:10F79C00026E8A518459036E8B518559046E67EC45
:10F7AC0065F004BEE7EF7BF004500310021007E194
:10F7BC00020E015CD8B0E5EF7BF0E7EF7BF02FEFAA
:10F7CC007CF088C082F089C083F08AC084F08BC042
:10F7DC0085F048EF7CF088C00FF089C010F08AC02B
:10F7EC0011F08BC012F0000E136E000E146E200E72
:10F7FC00156E410E166E2DEC74F00FC088F010C013
:10F80C0089F011C08AF012C08BF000016F07D8A0EC
:10F81C0070078851825D016E89518359026E8A513D
:10F82C008459036E8B518559046E67EC65F004BEE8
:10F83C002DEF7CF004500310021007E1020E015C66
:10F84C00D8B02BEF7CF02DEF7CF02FEF7CF0E7EFB6
:10F85C007BF082C01AF083C01BF084C01CF085C002
:10F86C001DF088C01EF089C01FF08AC020F08BC02C
:10F87C0021F097EC6BF0D8A046EF7CF048EF7CF0D1
:10F88C00F1EF7BF041C069F069C06AF05DBE51EFE9
:10F89C007CF053EF7CF059EF7CF05CC062F05DC003
:10F8AC0063F05EEF7CF0000E0001636F060E626F7A
:10F8BC0062C06DF063C06EF000016D4B6E2B660E76
:10F8CC006A19D8A46CEF7CF06EEF7CF08EEF7CF0B4
:10F8DC0070BF75EF7CF073EF7CF081EF7CF0000E65
:10F8EC00886F000E896F800E8A6F3F0E8B6F000E33
:10F8FC00706F000E6F6F670E6919D8B488EF7CF0CB
:10F90C008AEF7CF08EEF7CF06F516D2770516E2377
:10F91C00000E786F000E776F82C079F083C07AF09A
:10F92C0084C07BF085C07CF088C073F089C074F013
:10F93C008AC075F08BC076F01FEF7DF079C00FF0A8
:10F94C007AC010F07BC011F07CC012F088C013F0AC
:10F95C0089C014F08AC015F08BC016F02DEC74F031
:10F96C000FC028F010C029F011C02AF012C02BF0E3
:10F97C008BEC6EF028C07DF029C07EF02AC07FF0A1
:10F98C002BC080F07DC001F07EC002F07FC003F080
:10F99C0080C004F019EC6CF001C06BF002C06CF08C
:10F9AC0079C01AF07AC01BF07BC01CF07CC01DF033
:10F9BC007DC005F07EC006F07FC007F080C008F067
:10F9CC0088C001F089C002F08AC003F08BC004F03B
:10F9DC00FAEC75F001C01EF002C01FF003C020F05D
:10F9EC0004C021F0A7EC64F01AC079F01BC07AF0C7
:10F9FC001CC07BF01DC07CF088C00FF089C010F0DB
:10FA0C008AC011F08BC012F0000E136E000E146E33
:10FA1C00200E156E410E166E2DEC74F00FC088F092
:10FA2C0010C089F011C08AF012C08BF00001774B26
:10FA3C00782B6D51775D7851800A426E6E51800A39
:10FA4C004258D8A02CEF7DF02EEF7DF0A4EF7CF087
:10FA5C0088C001F089C002F08AC003F08BC004F0AA
:10FA6C00000E056E000E066EA00E076E400E086EA0
:10FA7C00FAEC75F001C07DF002C07EF003C07FF09F
:10FA8C0004C080F079C01AF07AC01BF07BC01CF067
:10FA9C007CC01DF07DC01EF07EC01FF07FC020F02A
:10FAAC0080C021F097EC6BF0D8B05FEF7DF061EF88
:10FABC007DF06CEF7DF0000E00017D6F000E7E6F0F
:10FACC00000E7F6F000E806F95EF7DF079C001F016
:10FADC007AC002F07BC003F07CC004F07DC005F05E
:10FAEC007EC006F07FC007F080C008F08CEC69F097
:10FAFC00D8A083EF7DF085EF7DF095EF7DF00001D0
:10FB0C006BB18BEF7DF08DEF7DF095EF7DF0000EFE
:10FB1C007D6F000E7E6F000E7F6F000E806F82C0B7
:10FB2C0001F083C002F084C003F085C004F07DC0F6
:10FB3C0005F07EC006F07FC007F080C008F021EC15
:10FB4C0078F001C079F002C07AF003C07BF004C0F9
:10FB5C007CF079C01AF07AC01BF07BC01CF07CC022
:10FB6C001DF0000E056E000E066E200E076E410E87
:10FB7C00086E73C001F074C002F075C003F076C05B
:10FB8C0004F0FAEC75F001C01EF002C01FF003C0C7
:10FB9C0020F004C021F097EC6BF0D8A0D8EF7DF0EA
:10FBAC00DAEF7DF003EF7EF000016F4B702B73C02A
:10FBBC0001F074C002F075C003F076C004F0000EC2
:10FBCC00056E000E066E200E076E410E086EFAECE6
:10FBDC0075F001C073F002C074F003C075F004C07E
:10FBEC0076F0660E00016A19D8A4FFEF7DF001EFE4
:10FBFC007EF003EF7EF06D4B6E2B73C088F074C0FB
:10FC0C0089F075C08AF076C08BF06FC060F070C060
:10FC1C0061F0000E0001686F000E656F000E646FDE
:10FC2C00000E786F000E776F01EF7FF079C00FF048
:10FC3C007AC010F07BC011F07CC012F088C013F0B9
:10FC4C0089C014F08AC015F08BC016F02DEC74F03E
:10FC5C000FC028F010C029F011C02AF012C02BF0F0
:10FC6C008BEC6EF028C07DF029C07EF02AC07FF0AE
:10FC7C002BC080F07DC001F07EC002F07FC003F08D
:10FC8C0080C004F019EC6CF002BE58EF7EF002500C
:10FC9C0007E10A0E015CD8B056EF7EF058EF7EF00B
:10FCAC0068EF7EF07DC001F07EC002F07FC003F0F3
:10FCBC0080C004F019EC6CF001C06BF002C06CF069
:10FCCC006DEF7EF0000E00016C6F090E6B6F000182
:10FCDC006851D8A474EF7EF076EF7EF09EEF7EF044
:10FCEC0061BF7DEF7EF07BEF7EF09EEF7EF0000E2D
:10FCFC008625D96E020E8721DA6E2E0EDF6E864BAC
:10FD0C00872B7107D8A07207010E686F9EEF7EF0EB
:10FD1C00000E8625D96E020E8721DA6E300EDF6E4C
:10FD2C00864B872B7107D8A072076407D8A065078C
:10FD3C0064516511D8A4A5EF7EF0A7EF7EF08EEF8D
:10FD4C007EF0000E8625D96E020E8721DA6E6B517D
:10FD5C00300FDF6E864B872B7107D8A0720779C0E6
:10FD6C001AF07AC01BF07BC01CF07CC01DF07DC06B
:10FD7C0005F07EC006F07FC007F080C008F088C098
:10FD8C0001F089C002F08AC003F08BC004F0FAECD9
:10FD9C0075F001C01EF002C01FF003C020F004C0BB
:10FDAC0021F0A7EC64F01AC079F01BC07AF01CC0EB
:10FDBC007BF01DC07CF088C00FF089C010F08AC0A9
:10FDCC0011F08BC012F0000E136E000E146E200E8C
:10FDDC00156E410E166E2DEC74F00FC088F010C02D
:10FDEC0089F011C08AF012C08BF000016007D8A016
:10FDFC006107774B782B6D51775D7851800A426E95
:10FE0C006E51800A4258D8B00EEF7FF010EF7FF0A1
:10FE1C001EEF7FF087BF1CEF7FF0875109E14B0E7F
:10FE2C00865DD8A01CEF7FF01EEF7FF01CEF7EF0FC
:10FE3C00000E786F4F0E776F000E7725D96E020E7D
:10FE4C007821DA6EDF6A000E426E020E436E865126
:10FE5C00425E8751435A77514224016E78514320B8
:10FE6C00026E000E036E020E046E86C005F087C093
:10FE7C0006F0BEEC65F000018651775D866F875108
:10FE8C007859876F8151D8A44EEF7FF051EF7FF0F6
:10FE9C00010E52EF7FF0000E776F786B8151D8B462
:10FEAC005AEF7FF05CEF7FF068EF7FF08607D8A009
:10FEBC008707000E8625D96E020E8721DA6E600048
:10FECC0007F2DFFF7751715F7851725B3CC011F024
:10FEDC00000E8625126E020E8721136E71C014F06F
:10FEEC0072C015F019EC66F01200005AC398C636B1
:10FEFC00C440DA2ED1A4CFCCD166C394C298C26AC6
:10FF0C00C5E8C2E0C274C3F0C282C398CCD2CD9211
:10FF1C00C35F5F5F5F52656164202D2041583A20BA
:10FF2C00252E32662C2041593A20252E32662C2063
:10FF3C00415A3A20252E32662C2047583A20252E3D
:10FF4C0032662C2047593A20252E32662C20475AEF
:10FF5C003A20252E32660A004F726967696E616C11
:10FF6C00202D2041583A20252E32662C2041593A1A
:10FF7C0020252E32662C20415A3A20252E32662C12
:10FF8C002047583A20252E32662C2047593A2025F6
:10FF9C002E32662C20475A3A20252E32660A00490A
:10FFAC0032432064657669636520666F756E6420E4
:10FFBC00617420616464726573733A2030782558DB
:10FFCC000A005363616E6E696E672049324320628A
:10FFDC0075732E2E2E0A005363616E20636F6D7045
:10FFEC006C6574652E0A00696E66006E616E0000A9
:04FFFC0092EF63F02D
:020000040030CA
:0A000000FAFFF7FF9FFFFFFFFFFF6D
:00000001FF
