:04000000FEEF7FF0A0
:1010000000FC4474411644FE2F7438A239D237EEE6
:1010100044C245BE45D0426A457245E0446245D06F
:1010200044BE3C0E3BC04441583A20252E32662C2B
:101030002041593A20252E32662C20415A3A20254B
:101040002E32662C2047583A20252E32662C204717
:10105000593A20252E32662C20475A3A20252E3226
:10106000660A00696E66006E616E0000000E000187
:10107000816F3DC082F03EC083F03FC084F040C02D
:1010800085F085BF48EF08F046EF08F05CEF08F008
:10109000010E816F82C001F083C002F084C003F0B2
:1010A00085C004F06BEC20F001C082F002C083F038
:1010B00003C084F004C085F0000E0001876F000EAD
:1010C000866F5AC071F05BC072F08151D8B46BEF7B
:1010D00008F06DEF08F081EF08F08151D8A473EFAC
:1010E00008F075EF08F07BEF08F0000E676F2B0E2D
:1010F000666F7FEF08F0000E676F2D0E666F66C09B
:1011000081F082C001F083C002F084C003F085C08A
:1011100004F095EC19F001040210D8A492EF08F045
:1011200094EF08F0C3EF08F000018151D8B49BEFB1
:1011300008F09DEF08F0A6EF08F081C000F27107FB
:10114000D8A07207000E876F010E866F000E8625ED
:10115000016E020E8721026E630E036E09EC20F011
:101160000001FD0E7127FF0E72233CC011F0000E2E
:10117000126E020E136E71C014F072C015F093EC73
:101180001EF02BEF0DF082C001F083C002F084C08E
:1011900003F085C004F095EC19F001500210D8A4BA
:1011A000D4EF08F0D6EF08F0F4EF08F00001815119
:1011B000D8B4DDEF08F0DFEF08F0E8EF08F081C009
:1011C00000F27107D8A07207000E876F010E866FBC
:1011D000000E8625016E020E8721026E670E036ED9
:1011E00009EC20F0B0EF08F0000E0001886F000E4F
:1011F000896F800E8A6F3F0E8B6F000E706F000E2E
:101200006F6F82C001F083C002F084C003F085C01C
:1012100004F0000E056E000E066E000E076E000E46
:10122000086E3FEC1BF0D8B018EF09F01AEF09F088
:10123000F9EF09F027EF09F073C088F074C089F066
:1012400075C08AF076C08BF000016F4B702B88C0A0
:1012500001F089C002F08AC003F08BC004F0000ED8
:10126000056E000E066E200E076E410E086E8CECA9
:101270000FF001C073F002C074F003C075F004C039
:1012800076F000017351825D016E74518359026ED4
:1012900075518459036E76518559046E21EC1FF007
:1012A00004BE5EEF09F004500310021009E1020EC3
:1012B000015CD8A05EEF09F060EF09F01CEF09F0C7
:1012C00073C01AF074C01BF075C01CF076C01DF01E
:1012D00082C01EF083C01FF084C020F085C021F0C2
:1012E00013EC19F0D8A077EF09F079EF09F01CEFB3
:1012F00009F000018851825D016E89518359026EA7
:101300008A518459036E8B518559046E21EC1FF06C
:1013100004BE98EF09F004500310021007E1020E1A
:10132000015CD8B096EF09F098EF09F0E0EF09F012
:1013300088C082F089C083F08AC084F08BC085F0B9
:10134000F9EF09F088C00FF089C010F08AC011F0E1
:101350008BC012F0000E136E000E146E200E156E70
:10136000410E166EB3EC11F00FC088F010C089F07A
:1013700011C08AF012C08BF000016F07D8A070076F
:101380008851825D016E89518359026E8A51845958
:10139000036E8B518559046E21EC1FF004BEDEEF05
:1013A00009F004500310021007E1020E015CD8B0EE
:1013B000DCEF09F0DEEF09F0E0EF09F098EF09F05B
:1013C00082C01AF083C01BF084C01CF085C01DF0E1
:1013D00088C01EF089C01FF08AC020F08BC021F0A9
:1013E00013EC19F0D8A0F7EF09F0F9EF09F0A2EF2C
:1013F00009F041C069F069C06AF05DBE02EF0AF011
:1014000004EF0AF00AEF0AF05CC062F05DC063F01E
:101410000FEF0AF0000E0001636F060E626F62C0EC
:101420006DF063C06EF000016D4B6E2B660E6A1995
:10143000D8A41DEF0AF01FEF0AF03FEF0AF070BFCB
:1014400026EF0AF024EF0AF032EF0AF0000E886F60
:10145000000E896F800E8A6F3F0E8B6F000E706FCB
:10146000000E6F6F670E6919D8B439EF0AF03BEFC1
:101470000AF03FEF0AF06F516D2770516E23000E96
:10148000786F000E776F82C079F083C07AF084C0E5
:101490007BF085C07CF088C073F089C074F08AC08E
:1014A00075F08BC076F0D0EF0AF079C00FF07AC0FB
:1014B00010F07BC011F07CC012F088C013F089C01E
:1014C00014F08AC015F08BC016F0B3EC11F00FC009
:1014D00028F010C029F011C02AF012C02BF0A2ECA5
:1014E00014F028C07DF029C07EF02AC07FF02BC008
:1014F00080F07DC001F07EC002F07FC003F080C0AC
:1015000004F090EC18F001C06BF002C06CF079C0F0
:101510001AF07AC01BF07BC01CF07CC01DF07DC0AF
:1015200005F07EC006F07FC007F080C008F088C0DC
:1015300001F089C002F08AC003F08BC004F08CEC8B
:101540000FF001C01EF002C01FF003C020F004C065
:1015500021F0E6EC1FF01AC079F01BC07AF01CC035
:101560007BF01DC07CF088C00FF089C010F08AC0ED
:1015700011F08BC012F0000E136E000E146E200ED0
:10158000156E410E166EB3EC11F00FC088F010C04E
:1015900089F011C08AF012C08BF00001774B782BD4
:1015A0006D51775D7851800A426E6E51800A4258C3
:1015B000D8A0DDEF0AF0DFEF0AF055EF0AF088C09F
:1015C00001F089C002F08AC003F08BC004F0000E65
:1015D000056E000E066EA00E076E400E086E8CECB7
:1015E0000FF001C07DF002C07EF003C07FF004C0A8
:1015F00080F079C01AF07AC01BF07BC01CF07CC070
:101600001DF07DC01EF07EC01FF07FC020F080C0A6
:1016100021F013EC19F0D8B010EF0BF012EF0BF033
:101620001DEF0BF0000E00017D6F000E7E6F000EAF
:101630007F6F000E806F46EF0BF079C001F07AC02B
:1016400002F07BC003F07CC004F07DC005F07EC0DA
:1016500006F07FC007F080C008F03FEC1BF0D8A078
:1016600034EF0BF036EF0BF046EF0BF000016BB1EF
:101670003CEF0BF03EEF0BF046EF0BF0000E7D6FF2
:10168000000E7E6F000E7F6F000E806F82C001F033
:1016900083C002F084C003F085C004F07DC005F073
:1016A0007EC006F07FC007F080C008F02CEC0DF083
:1016B00001C079F002C07AF003C07BF004C07CF076
:1016C00079C01AF07AC01BF07BC01CF07CC01DF002
:1016D000000E056E000E066E200E076E410E086E9F
:1016E00073C001F074C002F075C003F076C004F05E
:1016F0008CEC0FF001C01EF002C01FF003C020F000
:1017000004C021F013EC19F0D8A089EF0BF08BEF97
:101710000BF0B4EF0BF000016F4B702B73C001F0B6
:1017200074C002F075C003F076C004F0000E056EC0
:10173000000E066E200E076E410E086E8CEC0FF048
:1017400001C073F002C074F003C075F004C076F0FD
:10175000660E00016A19D8A4B0EF0BF0B2EF0BF0DF
:10176000B4EF0BF06D4B6E2B73C088F074C089F032
:1017700075C08AF076C08BF06FC060F070C061F009
:10178000000E0001686F000E656F000E646F000EA2
:10179000786F000E776FB2EF0CF079C00FF07AC05F
:1017A00010F07BC011F07CC012F088C013F089C02B
:1017B00014F08AC015F08BC016F0B3EC11F00FC016
:1017C00028F010C029F011C02AF012C02BF0A2ECB2
:1017D00014F028C07DF029C07EF02AC07FF02BC015
:1017E00080F07DC001F07EC002F07FC003F080C0B9
:1017F00004F090EC18F002BE09EF0CF0025007E183
:101800000A0E015CD8B007EF0CF009EF0CF019EFED
:101810000CF07DC001F07EC002F07FC003F080C0FC
:1018200004F090EC18F001C06BF002C06CF01EEFF9
:101830000CF0000E00016C6F090E6B6F0001685117
:10184000D8A425EF0CF027EF0CF04FEF0CF061BFA0
:101850002EEF0CF02CEF0CF04FEF0CF0000E862565
:10186000D96E020E8721DA6E2E0EDF6E864B872B25
:101870007107D8A07207010E686F4FEF0CF0000ED1
:101880008625D96E020E8721DA6E300EDF6E864B0A
:10189000872B7107D8A072076407D8A06507645129
:1018A0006511D8A456EF0CF058EF0CF03FEF0CF098
:1018B000000E8625D96E020E8721DA6E6B51300F2D
:1018C000DF6E864B872B7107D8A0720779C01AF09C
:1018D0007AC01BF07BC01CF07CC01DF07DC005F001
:1018E0007EC006F07FC007F080C008F088C001F01D
:1018F00089C002F08AC003F08BC004F08CEC0FF0BA
:1019000001C01EF002C01FF003C020F004C021F08F
:10191000E6EC1FF01AC079F01BC07AF01CC07BF017
:101920001DC07CF088C00FF089C010F08AC011F093
:101930008BC012F0000E136E000E146E200E156E8A
:10194000410E166EB3EC11F00FC088F010C089F094
:1019500011C08AF012C08BF000016007D8A06107A7
:10196000774B782B6D51775D7851800A426E6E51BE
:10197000800A4258D8B0BFEF0CF0C1EF0CF0CFEFA7
:101980000CF087BFCDEF0CF0875109E14B0E865D5F
:10199000D8A0CDEF0CF0CFEF0CF0CDEF0BF0000E98
:1019A000786F4F0E776F000E7725D96E020E782173
:1019B000DA6EDF6A000E426E020E436E8651425EA0
:1019C0008751435A77514224016E78514320026E69
:1019D000000E036E020E046E86C005F087C006F08E
:1019E000F4EC1EF000018651775D866F87517859BF
:1019F000876F8151D8A4FFEF0CF002EF0DF0010EBC
:101A000003EF0DF0000E776F786B8151D8B40BEFB8
:101A10000DF00DEF0DF019EF0DF08607D8A0870738
:101A2000000E8625D96E020E8721DA6E600007F25D
:101A3000DFFF7751715F7851725B3CC011F0000E8F
:101A40008625126E020E8721136E71C014F072C0CB
:101A500015F093EC1EF012000450800B0D6E045034
:101A600004240F6E03AE37EF0DF039EF0DF03AEFAF
:101A70000DF00F800F50D8B440EF0DF042EF0DF095
:101A800057EF0DF00F28D8A448EF0DF04AEF0DF0F6
:101A900052EF0DF0000E016E000E026E000E036E8E
:101AA000000E046E038E000E046E5FEF0DF0000E4C
:101AB000016E000E026E000E036E000E046E0850E2
:101AC000800B0E6E0D500E18D8B469EF0DF06BEF51
:101AD0000DF06CEF0DF00D8C085008240E6E07AE63
:101AE00074EF0DF076EF0DF077EF0DF00E800E50E5
:101AF000D8B47DEF0DF07FEF0DF094EF0DF00E28D0
:101B0000D8A485EF0DF087EF0DF08FEF0DF0000EEC
:101B1000056E000E066E000E076E000E086E078E34
:101B2000000E086E9CEF0DF0000E056E000E066EA6
:101B3000000E076E000E086E0F500E5CD8B0A3EFBB
:101B40000DF0A5EF0DF0CCEF0DF00DACAAEF0DF000
:101B5000ACEF0DF0AEEF0DF0800E0D1A0FC010F0CF
:101B60000EC00FF010C00EF001C010F005C001F063
:101B700010C005F002C010F006C002F010C006F060
:101B800003C010F007C003F010C007F004C010F04D
:101B900008C004F010C008F0000E106E0F500EC008
:101BA00009F00A6A095E000E0A5A0ABEE1EF0DF05A
:101BB0000A5009E11A0E095CD8A0E1EF0DF0E3EF3D
:101BC0000DF01AEF0EF00150021003100410D8A40B
:101BD000ECEF0DF0EFEF0DF0010EF0EF0DF0000E59
:101BE000106E000E016E000E026E000E036E000EEF
:101BF000046E0EC00FF023EF0EF010A002EF0EF0F7
:101C000004EF0EF00AEF0EF0D89010300109106EBC
:101C10000CEF0EF0D890103201A011EF0EF013EF80
:101C20000EF014EF0EF0108E043404320332023240
:101C300001320F2A0E500F5CD8A021EF0EF023EFD7
:101C40000EF0FDEF0DF00DBC28EF0EF02AEF0EF0B8
:101C50006AEF0EF00F50D8A430EF0EF032EF0EF016
:101C60003CEF0EF0000E016E000E026E000E036ED1
:101C7000000E046E8BEF0FF0055001260650022275
:101C8000075003220850042204A049EF0EF04BEF46
:101C90000EF0F7EF0EF010A050EF0EF052EF0EF036
:101CA00058EF0EF0D89010300109106E5AEF0EF078
:101CB000D890103201A05FEF0EF061EF0EF062EFEE
:101CC0000EF0108E043404320332023201320F2A35
:101CD000F7EF0EF00550015C06500258075003580C
:101CE0000450800A096E0850800A0958D8B07BEF6A
:101CF0000EF07DEF0EF0A8EF0EF00150055C096EBE
:101D0000025006580A6E035007580B6E04500858CC
:101D10000C6EFF0E0924016EFF0E0A20026EFF0EEC
:101D20000B20036EFF0E0C20046E800E0D1A106C3B
:101D30001050D8A49EEF0EF0A0EF0EF0B0EF0EF012
:101D4000010E0126000E022203220422B0EF0EF043
:101D50000550015E0650025A0750035A0850045AB3
:101D60000150021003100410D8A4B9EF0EF0BBEF1D
:101D70000EF0F0EF0EF01050D8A4C1EF0EF0C3EF4C
:101D80000EF0F0EF0EF0000E016E000E026E000E6F
:101D9000036E000E046E8BEF0FF0D8900136023602
:101DA0000336043610AED7EF0EF0D9EF0EF0DAEFAF
:101DB0000EF0018010A0DFEF0EF0E1EF0EF0E5EF86
:101DC0000EF0D8801036E7EF0EF0D89010360F5096
:101DD000D8B4EDEF0EF0EFEF0EF0F0EF0EF00F06CF
:101DE00003AEF5EF0EF0F7EF0EF0CDEF0EF0000EB4
:101DF0000E6E10AEFEEF0EF000EF0FF018EF0FF0CA
:101E000010C009F07F0E0916D8B409EF0FF00BEFE0
:101E10000FF00FEF0FF0010E0E6E18EF0FF001A094
:101E200014EF0FF016EF0FF018EF0FF00BEF0FF0AD
:101E30000E50D8B41EEF0FF020EF0FF04BEF0FF065
:101E4000010E0126000E02220322042204A02BEF21
:101E50000FF02DEF0FF04BEF0FF001C009F002C0B3
:101E60000AF003C00BF004C00CF00C340C320B323F
:101E70000A32093209C001F00AC002F00BC003F0B7
:101E80000CC004F00F28D8B448EF0FF04AEF0FF061
:101E90004BEF0FF00F2A0F28D8B451EF0FF053EF8C
:101EA0000FF05BEF0FF00F50D8A459EF0FF05BEF7E
:101EB0000FF06DEF0FF0000E016E000E026E000EBF
:101EC000036E000E046E0F50D8A469EF0FF06BEF95
:101ED0000FF06DEF0FF0000E0D6E0FA072EF0FF010
:101EE00074EF0FF077EF0FF0038E78EF0FF0039E93
:101EF000D8900F30046E0DAE80EF0FF082EF0FF030
:101F000083EF0FF0048E01C001F002C002F003C0A5
:101F100003F004C004F012000450800B0D6E045056
:101F20000424136E03AE97EF0FF099EF0FF09AEFC2
:101F30000FF013801350D8B4A0EF0FF0A2EF0FF002
:101F4000B5EF0FF01328D8A4A8EF0FF0AAEF0FF009
:101F5000B2EF0FF0000E016E000E026E000E036E67
:101F6000000E046E038EBDEF0FF0000E016E000E2A
:101F7000026E000E036E000E046E0850800B0D1AE8
:101F800008500824126E07AEC8EF0FF0CAEF0FF02A
:101F9000CBEF0FF012801250D8B4D1EF0FF0D3EF87
:101FA0000FF0E6EF0FF01228D8A4D9EF0FF0DBEF17
:101FB0000FF0E3EF0FF0000E056E000E066E000E40
:101FC000076E000E086E078EEEEF0FF0000E056E26
:101FD000000E066E000E076E000E086E1250D8B48A
:101FE000F4EF0FF0F6EF0FF0FEEF0FF01350D8A460
:101FF000FCEF0FF0FEEF0FF008EF10F0000E016E97
:10200000000E026E000E036E000E046EB2EF11F0B1
:10201000075001026F00CCFF18F06F00D0FF19F0DD
:1020200018500E6E0F6A106A116A1950146E156AF4
:10203000166A176A065002026F00CCFF18F06F0094
:10204000D0FF19F018500E26000E0F221022112278
:1020500019501426000E15221622172205500302CD
:102060006F00CCFF18F06F00D0FF19F018500E264B
:10207000000E0F221022112219501426000E1522D4
:102080001622172210C011F00FC010F00EC00FF072
:102090000E6A055002026F00CCFF18F06F00D0FFEF
:1020A00019F018500E2619500F22000E1022000EA3
:1020B0001122065001026F00CCFF18F06F00D0FF14
:1020C00019F018500E2619500F22000E1022000E83
:1020D000112210C011F00FC010F00EC00FF00E6AE8
:1020E000055001026F00CCFF18F06F00D0FF19F00F
:1020F00018500E2619500F22000E1022000E112229
:10210000075002026F00CCFF18F06F00D0FF19F0EB
:102110001850142619501522000E1622000E1722F0
:10212000065003026F00CCFF18F06F00D0FF19F0CB
:102130001850142619501522000E1622000E1722D0
:10214000075003026F00CCFF18F06F00D0FF19F0AA
:102150001850096E19500A6E0B6A0C6A0BC00CF00D
:102160000AC00BF009C00AF0096A095014260A5087
:1021700015220B5016220C5017220EC009F00FC06A
:102180000AF010C00BF011C00CF0190ECDEF10F0DA
:10219000D8900C320B320A320932E82EC8EF10F018
:1021A000095014260A5015220B5016220C501722E3
:1021B00010C011F00FC010F00EC00FF00E6A1250D8
:1021C00013C009F00A6A0926000E0A22820E0924A9
:1021D000186EFF0E0A20196E03EF11F0D890143616
:1021E00015361636173611AEF8EF10F0FAEF10F07C
:1021F000FBEF10F01480D8900E360F3610361136E3
:102200001806D8A0190616AE08EF11F00AEF11F063
:10221000EEEF10F0000E126E11AE11EF11F013EF91
:1022200011F037EF11F0FF0E0E14096EFF0E0F14B0
:102230000A6EFF0E10140B6E7F0E11140C6E0950F7
:102240000A100B100C10D8B428EF11F02AEF11F07F
:102250002EEF11F0010E126E37EF11F014A033EFD4
:1022600011F035EF11F037EF11F02AEF11F01250A5
:10227000D8B43DEF11F03FEF11F063EF11F0010E14
:102280001426000E15221622172217A04AEF11F06D
:102290004CEF11F063EF11F014C009F015C00AF013
:1022A00016C00BF017C00CF00C340C320B320A3293
:1022B000093209C014F00AC015F00BC016F00CC0AA
:1022C00017F0184A192A19BE6EEF11F0195008E1DB
:1022D0001828D8A06EEF11F070EF11F07AEF11F01E
:1022E000000E146E000E156E800E166E7F0E176EA9
:1022F000A8EF11F019BE87EF11F0195006E118048C
:10230000D8B085EF11F087EF11F093EF11F0000EC8
:10231000146E000E156E000E166E000E176E000E77
:102320000D6EA8EF11F018C013F0FF0E1416FF0E7B
:1023300015167F0E1616000E171613A0A2EF11F039
:10234000A4EF11F0A5EF11F0168ED8901330176E90
:102350000D50171214C001F015C002F016C003F0A2
:1023600017C004F012001250800B1F6E125012247E
:10237000266E11AEBEEF11F0C0EF11F0C1EF11F0FB
:1023800026802650D8B4C7EF11F0C9EF11F0DEEF68
:1023900011F02628D8A4CFEF11F0D1EF11F0D9EF2A
:1023A00011F0000E0F6E000E106E000E116E000E7A
:1023B000126E118E000E126EE6EF11F0000E0F6E0F
:1023C000000E106E000E116E000E126E1650800B75
:1023D0001F1A16501624276E15AEF1EF11F0F3EF09
:1023E00011F0F4EF11F027802750D8B4FAEF11F074
:1023F000FCEF11F011EF12F02728D8A402EF12F031
:1024000004EF12F00CEF12F0000E136E000E146EBB
:10241000000E156E000E166E158E000E166E19EF5C
:1024200012F0000E136E000E146E000E156E000EEC
:10243000166E1350141015101610D8A422EF12F0B7
:1024400024EF12F03CEF12F0000E0F6E000E106E33
:10245000000E116E000E126E800E11127F0E1212FF
:102460001F5012120FC00FF010C010F011C011F069
:1024700012C012F07FEF13F02650D8A442EF12F0F2
:1024800044EF12F04EEF12F0000E0F6E000E106EC1
:10249000000E116E000E126E7FEF13F0275026C053
:1024A00017F0186A175E000E185A7F0E1724206E58
:1024B000000E1820216E0FC01BF010C01CF011C0C0
:1024C0001DF012C01EF0000E0F6E000E106E000EFA
:1024D000116E000E126E000E226E000E236E000EA4
:1024E000246E000E256E000E276EAFEF12F02750FF
:1024F000D8B47DEF12F07FEF12F096EF12F0D89083
:102500001B361C361D361E36D8900F361036113647
:10251000123625AE8EEF12F090EF12F091EF12F01E
:102520000F80D890223623362436253613501B5C74
:1025300014501C5815501D5816501E58D8A0A3EF03
:1025400012F0A5EF12F0AEEF12F0258C13501B5EC7
:1025500014501C5A15501D5A16501E5A272A190E6F
:102560002764B5EF12F0B7EF12F077EF12F01B50BF
:102570001C101D101E10D8B4C0EF12F0C2EF12F0E4
:10258000DAEF12F02280DAEF12F0D8900F36103620
:102590001136123625AECFEF12F0D1EF12F0D2EF96
:1025A00012F00F80D89022362336243625362006A6
:1025B000D8A0210611AEDFEF12F0E1EF12F0C5EF67
:1025C00012F0000E276E25AEE8EF12F0EAEF12F0DF
:1025D0000EEF13F0FF0E2214176EFF0E2314186E69
:1025E000FF0E2414196E7F0E25141A6E1750181042
:1025F00019101A10D8B4FFEF12F001EF13F005EF25
:1026000013F0010E276E0EEF13F00FA00AEF13F078
:102610000CEF13F00EEF13F001EF13F02750D8B4C6
:1026200014EF13F016EF13F03AEF13F0010E0F262C
:10263000000E10221122122212A021EF13F023EF1C
:1026400013F03AEF13F00FC017F010C018F011C0DC
:1026500019F012C01AF01A341A321932183217321D
:1026600017C00FF018C010F019C011F01AC012F006
:10267000204A212A21BE45EF13F0215008E12028ED
:10268000D8A045EF13F047EF13F052EF13F0000E10
:10269000216E2068000E0F6E000E106E000E116E7F
:1026A000000E126E21BE5FEF13F0215006E12004F0
:1026B000D8B05DEF13F05FEF13F06DEF13F0000E85
:1026C000216E000E206E000E0F6E000E106E000EBA
:1026D000116E000E126E000E1F6E20C026F026A096
:1026E00074EF13F076EF13F079EF13F0118E7AEFA9
:1026F00013F0119ED8902630126E30EF12F01200B7
:1027000000018D51D96EDA6A6F007FFFF6FF100E5F
:10271000F76EF86A0800F550250AD8A492EF13F076
:1027200094EF13F08EEF14F08D51D96EDA6ADF2A30
:10273000000E5B6E000E5A6E5AC0E0F05C685D6879
:102740008D51D96EDA6A6F007FFFF6FF100EF76EBB
:10275000F86A0800F5502E0AD8A4B1EF13F0B3EFD1
:1027600013F0C1EF13F08D51D96EDA6ADF2A8DC0F4
:1027700007F08EC008F0E6EC1AF007C05CF008C065
:102780005DF000018D51D96EDA6ADF504B6E60004A
:102790002FF1F6FF100EF76EF86A08006F00D4FFF5
:1027A0004AF0DEEF13F04B2AF7EF13F06C0E4A6E8F
:1027B000F7EF13F0000E4A6EF7EF13F04A50446E35
:1027C000456A4550000AD8B4E8EF13F0DAEF13F089
:1027D00044504C0AD8B4D3EF13F02A0AD8B4D6EF39
:1027E00013F00A0AD8B4D3EF13F0DAEF13F0600055
:1027F0002FF1F6FF100EF76EF86A0800F550660A22
:10280000D8A405EF14F007EF14F087EF14F03BEFB6
:1028100014F08E51D96EDA6A6F007CFF44F0040E1A
:10282000DF264450D96EDA6A6F0078FF46F06F00F9
:1028300078FF47F06F0078FF48F06F0078FF49F0AD
:1028400050EF14F08E51D96EDA6A6F007CFF44F0BD
:10285000040EDF264450D96EDA6A6F0078FF46F026
:102860006F0078FF47F06F0078FF48F06F0078FF47
:1028700049F050EF14F04A50446E456A4550000A42
:10288000D8B445EF14F050EF14F044504C0AD8B4CB
:1028900022EF14F0200AD8B409EF14F050EF14F02E
:1028A0008D51D96EDA6A4B28DF6E6FEF14F08CC051
:1028B0003CF046C03DF047C03EF048C03FF049C044
:1028C00040F060002FF1F6FF100EF76EF86A080076
:1028D0006F00D4FF41F036EC08F0A1EF14F0600077
:1028E0002FF1F6FF100EF76EF86A0800F550446EEF
:1028F000456A4550000AD8B480EF14F087EF14F011
:102900004450660AD8B457EF14F087EF14F0000172
:102910008D51D96EDA6ADF2AA1EF14F08D51D96E8C
:10292000DA6A6F007FFFF6FF100EF76EF86A080094
:10293000F550036E046A8CC005F084EC1AF087EF42
:1029400014F01200D3C038F0D4C039F0D5C03AF03A
:10295000D6C03BF028C038F029C039F02AC03AF080
:102960002BC03BF0810E2C6EFF0E2D6E38C02EF06A
:1029700039C02FF03AC030F03BC031F0180EC6EF2E
:1029800014F0D890313230322F322E32E82EC1EF8F
:1029900014F02E502C24366E000E2D20376E37BECC
:1029A000DBEF14F0375009E1170E365CD8A0DBEFEF
:1029B00014F0DDEF14F0E7EF14F028C028F029C080
:1029C00029F02AC02AF02BC02BF0AAEF15F037BE51
:1029D000ECEF14F0EEEF14F05EEF15F036C02CF0D3
:1029E000FF0E2D6EFF0E2E6E7F0E2F6E000E306EC0
:1029F0002C66FDEF14F005EF15F0303430322F3235
:102A00002E322D322C2EF8EF14F02DC032F02EC0C5
:102A100033F02FC034F030C035F0325038142C6E03
:102A2000335039142D6E34503A142E6E35503B14F9
:102A30002F6E2C502D102E102F10D8A422EF15F031
:102A400024EF15F026EF15F0DDEF14F038C02CF070
:102A500039C02DF03AC02EF03BC02FF0200E36EFDB
:102A600015F0D8902F322E322D322C32E82E31EF45
:102A700015F02C502D102E102F10D8B442EF15F059
:102A800044EF15F04CEF15F0325038263350392210
:102A900034503A2235503B22321C2C6E331C2D6EA2
:102AA000341C2E6E351C2F6E2C5038162D503916B6
:102AB0002E503A162F503B16A2EF15F038C02CF0CE
:102AC00039C02DF03AC02EF03BC02FF0200E6EEF33
:102AD00015F0D8902F322E322D322C32E82E69EF9D
:102AE00015F02C502D102E102F10D8A47AEF15F0C1
:102AF0007CEF15F086EF15F0000E386E000E396E83
:102B0000000E3A6E000E3B6EA2EF15F0D8903834EE
:102B10002C6E39342D6E3A342E6E3B342F6E2C5081
:102B20002D102E102F10D8B498EF15F09AEF15F045
:102B3000A2EF15F0000E386E000E396E800E3A6E60
:102B4000BF0E3B6E38C028F039C029F03AC02AF0D9
:102B50003BC02BF01200096E0950D8B4B2EF15F04B
:102B6000B4EF15F0D6EF15F004BEBBEF15F0B9EFDA
:102B700015F0D6EF15F001C005F002C006F003C055
:102B800007F004C008F0051E061E071E081E052AD1
:102B9000000E06220722082205C00BF006C00CF02A
:102BA00007C00DF008C00EF0DEEF15F001C00BF00D
:102BB00002C00CF003C00DF004C00EF00150021072
:102BC00003100410D8A4E7EF15F0E9EF15F0F3EFC8
:102BD00015F0000E016E000E026E000E036E000E68
:102BE000046E84EF16F0960E0A6EFDEF15F00A2AB9
:102BF000D8900E320D320C320B32000E0B14056ED3
:102C0000000E0C14066E000E0D14076EFE0E0E1450
:102C1000086E0550061007100810D8A412EF16F021
:102C200014EF16F0F7EF15F022EF16F00A2A010E56
:102C30000B26000E0C220D220E22D8900E320D32E1
:102C40000C320B32000E0B14056E000E0C14066EC7
:102C5000000E0D14076EFF0E0E14086E05500610C0
:102C600007100810D8A437EF16F039EF16F016EF5A
:102C700016F041EF16F00A06D8900B360C360D36DA
:102C80000E360DBE46EF16F048EF16F050EF16F078
:102C9000020E0A604EEF16F050EF16F03BEF16F002
:102CA0000AB055EF16F057EF16F058EF16F00D9EDC
:102CB000D8900A320AC005F0066A076A086A05C099
:102CC00008F0076A066A056A05500B1206500C12D6
:102CD00007500D1208500E120950D8B472EF16F0BA
:102CE00074EF16F07CEF16F004BE7BEF16F079EF70
:102CF00016F07CEF16F00E8E0BC001F00CC002F047
:102D00000DC003F00EC004F01200430E186E360E14
:102D1000196E000E1B6E060E1A6E680E4CEC1DF03E
:102D2000375036C02EF02F6A2EC02FF02E6A2E108C
:102D3000306E2F50316E395038C02EF02F6A2EC0B1
:102D40002FF02E6A2E10326E2F50336E3B503AC049
:102D50002EF02F6A2EC02FF02E6A2E10346E2F50B8
:102D6000356E30C001F031C002F0000E02BEFF0E21
:102D7000036E046E010EABEC15F001C00FF002C043
:102D800010F003C011F004C012F0000E136E000E1C
:102D9000146E030E156E430E166EB3EC11F0600048
:102DA000A3F0D9FF6000A7F0DAFF60003FF0DEFF7C
:102DB000600043F0DEFF600047F0DEFF60004BF094
:102DC000DEFF32C001F033C002F0000E02BEFF0E83
:102DD000036E046E010EABEC15F001C00FF002C0E3
:102DE00010F003C011F004C012F0000E136E000EBC
:102DF000146E030E156E430E166EB3EC11F06000E8
:102E0000ABF0D9FF6000AFF0DAFF60003FF0DEFF0B
:102E1000600043F0DEFF600047F0DEFF60004BF033
:102E2000DEFF34C001F035C002F0000E02BEFF0E1E
:102E3000036E046E010EABEC15F001C00FF002C082
:102E400010F003C011F004C012F0000E136E000E5B
:102E5000146E030E156E430E166EB3EC11F0600087
:102E6000B3F0D9FF6000B7F0DAFF60003FF0DEFF9B
:102E7000600043F0DEFF600047F0DEFF60004BF0D3
:102E8000DEFF12003B0E186E360E196E000E1B6E22
:102E9000060E1A6E680E4CEC1DF0375036C02EF040
:102EA0002F6A2EC02FF02E6A2E10306E2F50316EEA
:102EB000395038C02EF02F6A2EC02FF02E6A2E10F7
:102EC000326E2F50336E3B503AC02EF02F6A2EC018
:102ED0002FF02E6A2E10346E2F50356E30C001F058
:102EE00031C002F0000E02BEFF0E036E046E010E32
:102EF000ABEC15F001C00FF002C010F003C011F0F0
:102F000004C012F0000E136E000E146E800E156ECB
:102F1000460E166EB3EC11F06000A3F0D9FF60000E
:102F2000A7F0DAFF60003FF0DEFF600043F0DEFF55
:102F3000600047F0DEFF60004BF0DEFF32C001F0C2
:102F400033C002F0000E02BEFF0E036E046E010ECF
:102F5000ABEC15F001C00FF002C010F003C011F08F
:102F600004C012F0000E136E000E146E800E156E6B
:102F7000460E166EB3EC11F06000ABF0D9FF6000A6
:102F8000AFF0DAFF60003FF0DEFF600043F0DEFFED
:102F9000600047F0DEFF60004BF0DEFF34C001F060
:102FA00035C002F0000E02BEFF0E036E046E010E6D
:102FB000ABEC15F001C00FF002C010F003C011F02F
:102FC00004C012F0000E136E000E146E800E156E0B
:102FD000460E166EB3EC11F06000B3F0D9FF60003E
:102FE000B7F0DAFF60003FF0DEFF600043F0DEFF85
:102FF000600047F0DEFF60004BF0DEFF120021ECC6
:1030000022F00009D8B407EF18F009EF18F043EFE9
:1030100018F016EF18F077EC22F08FEF18F0E1ECD3
:1030200022F08FEF18F0000E8FEF18F0C1C00AF0F9
:10303000C2C00BF002D827EF18F00500FA6E0001AD
:10304000B551FD6EB651FE6EFF6AFA5012000D6E5C
:103050000E6A0E50000AD8B430EF18F013EF18F0D3
:103060000D50010AD8B413EF18F0030AD8B40BEFCF
:1030700018F0010AD8B40FEF18F0070AD8B413EF0C
:1030800018F013EF18F016EC22F00009D8B44BEF4B
:1030900018F04DEF18F08EEF18F00001D251030B2D
:1030A0000009D8B456EF18F058EF18F064EF18F094
:1030B000010E0D6ED251030B0E6E0D500E5ED251ED
:1030C0000E18FC0B0E18D26F600033F3D9FF6000AE
:1030D00037F3DAFFDF50116ECC4BCD2BCE07D8A0E3
:1030E000CF07CE51CF11D8A478EF18F07AEF18F0AF
:1030F00082EF18F0D1EC1CF00D6E0D500F6E106ABF
:1031000086EF18F0000E106E030E0F6E0FC012F057
:1031100011509EEC22F012508FEF18F0030E1200A7
:10312000033404340A6E0A50D8A499EF18F09BEFC8
:1031300018F0A5EF18F0000E016E000E026E000EE2
:10314000036E000E046E12EF19F001C005F002C00C
:1031500006F003C007F004C008F0200EB5EF18F029
:10316000D8900832073206320532E82EB0EF18F058
:103170000550096E038EFF0E0116FF0E0216FF0E9C
:103180000316000E0416960E0A5E0ABECCEF18F067
:10319000CAEF18F0E2EF18F00A50800A970FD8B083
:1031A000D4EF18F0D6EF18F0D8EF18F09BEF18F026
:1031B000D89004320332023201320A3ED8EF18F0BE
:1031C000FAEF18F01F0E0A64E8EF18F0EAEF18F0B3
:1031D000F2EF18F09BEF18F0D89001360236033664
:1031E00004360A060A50D8A4F8EF18F0FAEF18F0DF
:1031F000ECEF18F00950D8B400EF19F002EF19F015
:103200000AEF19F0041E031E021E016C000E0222BA
:103210000322042201C001F002C002F003C003F047
:1032200004C004F01200000E1A14226E000E1B14CB
:10323000236E800E1C14246E7F0E1D14256E2250EA
:10324000231024102510D8A428EF19F02AEF19F024
:1032500032EF19F0000E1A6E000E1B6E000E1C6E7F
:10326000000E1D6E000E1E14226E000E1F14236E23
:10327000800E2014246E7F0E2114256E2250231000
:1032800024102510D8A447EF19F049EF19F051EF99
:1032900019F0000E1E6E000E1F6E000E206E000E46
:1032A000216E1DAE56EF19F058EF19F061EF19F0CD
:1032B0001A6C1B1ED8B01B2A1C1ED8B01C2A800EEC
:1032C0001D5621AE66EF19F068EF19F071EF19F095
:1032D0001E6C1F1ED8B01F2A201ED8B0202A800EB8
:1032E0002156000E1A1A000E1B1A000E1C1A800E10
:1032F0001D1A000E1E1A000E1F1A000E201A800E34
:10330000211A1E501A5C1F501B5820501C58215067
:103310001D58D8B08EEF19F090EF19F093EF19F017
:10332000D89094EF19F0D8801200D7C00BF0D8C015
:103330000CF0D9C00DF0DAC00EF001C00BF002C0E5
:103340000CF003C00DF004C00EF00BC005F00CC073
:1033500006F00DC007F00EC008F0180EB5EF19F01A
:10336000D8900832073206320532E82EB0EF19F055
:103370000550096E0A6A09500A10D8A4C2EF19F064
:10338000C4EF19F0E4EF19F0D8900B34056E0C344B
:10339000066E0D34076E0E34086E055006100710C9
:1033A0000810D8A4D6EF19F0D8EF19F0DEEF19F015
:1033B000000E026E020E016E13EF1AF0000E026E86
:1033C000030E016E13EF1AF009280A10D8A4EBEFD0
:1033D00019F0EDEF19F00FEF1AF00BC005F00CC06B
:1033E00006F00DC007F00EC008F0090ED8900536A3
:1033F000063607360836E82EF6EF19F005500610A7
:1034000007100810D8B407EF1AF00AEF1AF0010EEF
:103410000BEF1AF0000E016E026A13EF1AF0000EA5
:10342000026E040E016E120000EC22F058EC22F045
:10343000C80E286E010E296ECC0E2A6E010E2B6E60
:10344000D00E2C6E010E2D6E42EC17F0D40E286EAD
:10345000010E296ED80E2A6E010E2B6EDC0E2C6E1C
:10346000010E2D6E85EC16F0000E0001926F010E1C
:10347000936F270E946FC8C195F0C9C196F0CAC169
:1034800097F0CBC198F0CCC199F0CDC19AF0CEC1E4
:103490009BF0CFC19CF0D0C19DF0D1C19EF0D2C1B4
:1034A0009FF0D3C1A0F0D4C1A1F0D5C1A2F0D6C184
:1034B000A3F0D7C1A4F0D8C1A5F0D9C1A6F0DAC154
:1034C000A7F0DBC1A8F0DCC1A9F0DDC1AAF0DEC124
:1034D000ABF0DFC1ACF02BEC20F0000E026E010E61
:1034E000036E87EC20F00B0E0001AE6F260EAD6F61
:1034F0005D0EE82EFED7AD2FFCD7AE2FFAD700D049
:1035000018EF1AF0FEEF7FF00550D8B48AEF1AF0EA
:103510008CEF1AF094EF1AF00550D8A492EF1AF03D
:1035200094EF1AF099EF1AF003508AEC22F0E5EFCD
:103530001AF00550D96EDA6A0A0ED926DE50DE106E
:10354000D8B4A5EF1AF0A7EF1AF0C0EF1AF00550A3
:10355000D96EDA6A0A0ED9260550E16EE26A030EC8
:10356000E126DE50E65CE650800A0A6EDE50800AF4
:103570000A58D8B0BEEF1AF0C0EF1AF0E5EF1AF013
:103580000550D96EDA6A030ED9266F0078FF06F06F
:103590006F0074FF07F00550D96EDA6A6F0078FF8C
:1035A00008F06F0074FF09F006500824D96E075028
:1035B0000920DA6E60000FF0DFFF0550D96EDA6A7D
:1035C000030ED926DE2A000EDD221200000E0B6E3D
:1035D000000E0A6E0750D96EDA6A6F007FFFF6FFA1
:1035E000100EF76EF86A0800F5502A0AD8A4FBEF0F
:1035F0001AF0FDEF1AF025EF1BF00750D96EDA6ACA
:10360000DF2A0850D96EDA6A020EDF26DF5CD96E37
:10361000DA6A6F0078FF0AF06F0078FF0BF03AEF7C
:103620001BF00AC001F00BC002F0000E046E0A0E7F
:10363000036E3FEC21F0095001240A6E000E0220B7
:103640000B6E0750D96EDA6ADF2A0750D96EDA6A34
:103650006F007FFFF6FF100EF76EF86A0800F55056
:10366000D00F096E090E096438EF1BF03AEF1BF01A
:1036700011EF1BF00AC007F00BC008F01200000E9B
:103680000114096E000E02140A6E800E03140B6EF4
:103690007F0E04140C6E09500A100B100C10D8A4E5
:1036A00054EF1BF056EF1BF05EEF1BF0000E016EA7
:1036B000000E026E000E036E000E046E000E051466
:1036C000096E000E06140A6E800E07140B6E7F0E34
:1036D00008140C6E09500A100B100C10D8A473EFCC
:1036E0001BF075EF1BF07DEF1BF0000E056E000E5A
:1036F000066E000E076E000E086E055001180FE1F1
:10370000065002180CE10750031809E1085004188C
:10371000D8B48DEF1BF08FEF1BF092EF1BF0D89019
:1037200093EF1BF0D8801200000EBE6E000EBD6E2F
:10373000000EBA6E000EBB6E000EBC6E070EC66E9B
:10374000C268F90EC36EBF0EC46EFC0EC56E3A01A0
:1037500070697F0E606FF90E506F070E806F4069C1
:10376000000E716F000E816F000E516F000E416FE1
:10377000000E616F000E5A6F000E5B6F000E6A6FD5
:10378000000E6B6F000E7A6F000E7B6F000E826F63
:10379000000E426F260E526F180E626F000E726F8F
:1037A0004369536963697369070E836F4469546998
:1037B000646974690F0E846F0A0EE26F210E096F3F
:1037C000220E0A6F130E166F170EE56F090EE16FCA
:1037D00012000001D2890DEF1CF0D0EC22F0080E8F
:1037E00039EF1CF0D0EC22F0070E39EF1CF000018D
:1037F000CE29A3EC22F0040E39EF1CF0070E0001D5
:10380000D019D8B406EF1CF008EF1CF00AEF1CF03A
:10381000D3EC22F00F0E39EF1CF0BBC00AF0BCC095
:103820000BF002D81DEF1CF00500FA6EAF51FD6ED3
:10383000B051FE6EFF6AFA5012000D6E0E6A0E5005
:10384000000AD8B426EF1CF0FEEF1BF00D50010A61
:10385000D8B4FEEF1BF0030AD8B4F2EF1BF0010A54
:10386000D8B4EDEF1BF0070AD8B4F7EF1BF0FEEF6A
:103870001BF012002CEC22F00009D8A442EF1CF03F
:1038800044EF1CF047EF1CF0040E88EF1CF0000121
:10389000D251030B0009D8B450EF1CF052EF1CF0CA
:1038A0005EEF1CF0010E0F6ED251030B106E0F5025
:1038B000105ED2511018FC0B1018D26FCE07D8A092
:1038C000CF07CE51CF11D8B468EF1CF06AEF1CF0CF
:1038D00078EF1CF0CDEC22F0600033F3D9FF6000EC
:1038E00037F3DAFFDF6E0001CC4BCD2B44EF1CF039
:1038F000E9EC1BF0116ECDEC22F0600033F3D9FF40
:10390000600037F3DAFFDF6E0001CC4BCD2B115096
:103910001200016E010E026E0001D2B792EF1CF090
:1039200094EF1CF0CFEF1CF001C0CBF0D295D28702
:10393000FC0ED2170F0ED06F010ECA6FF40EC96FB6
:10394000D289CA0EAF6F450EB06F000EBB6F000E6E
:10395000BC6FCA0EB16F450EB26F000EBD6F000E88
:10396000BE6FCA0EB36F450EB46F000EBF6F000E70
:10397000C06FCA0EB56F450EB66F000EC16F000E58
:10398000C26FC60EB76F450EB86F000EC36F000E44
:10399000C46FBDEC22F0A3EC20F0000E026E0250CA
:1039A00012000001D289E6EF1CF0D0EC22F0070EE5
:1039B0000EEF1DF00001CE29A3EC22F0030E0EEF56
:1039C0001DF0D3EC22F00A0E0EEF1DF0BBC00AF082
:1039D000BCC00BF002D8F6EF1CF00500FA6EAF5138
:1039E000FD6EB051FE6EFF6AFA5012000D6E0E6A47
:1039F0000E50000AD8B4FFEF1CF0E1EF1CF00D50A0
:103A0000010AD8B4E1EF1CF0030AD8B4D5EF1CF0DA
:103A1000060AD8B4DAEF1CF0E1EF1CF0120075ECE6
:103A20001FF00001D251030B0009D8B41AEF1DF0AA
:103A30001CEF1DF029EF1DF021EC22F00009D8B495
:103A400024EF1DF026EF1DF029EF1DF0100E0001F0
:103A5000D06F0001D051020DF350010F136E6000C2
:103A60004FF0F6FF100EF76EF86A09006F00D4FFF2
:103A700014F009006F00D4FF15F002D849EF1DF0D3
:103A80000500FA6E1450FD6E1550FE6EFF6AFA5076
:103A900012000001D06F12001C6E19C01FF01AC076
:103AA0001DF01BC01EF01C5089EC1CF00009D8B49E
:103AB0005CEF1DF05EEF1DF053EF1DF03C0E066E47
:103AC0003F0E076E1D0E086E096AF4EC21F0180E09
:103AD000016E026A000E046E010E036E8EEC21F080
:103AE000000E066E000E076E000E086E000E096EC8
:103AF000E8EC21F0ADEC22F029EC21F0E806D8B496
:103B000084EF1DF086EF1DF07CEF1DF01200BDEC80
:103B100022F0020E0001D16F9AEF1DF077EC22F037
:103B2000BEEF1DF0E1EC22F0BEEF1DF068EC22F0DC
:103B3000BEEF1DF0BDC00AF0BEC00BF002D8AAEF68
:103B40001DF00500FA6EB151FD6EB251FE6EFF6AB6
:103B5000FA5012000D6E0E6A0E50000AD8B4B3EF80
:103B60001DF096EF1DF00D50020AD8B48EEF1DF037
:103B7000010AD8B492EF1DF096EF1DF01200056E09
:103B800001500210D8B4C7EF1DF0C9EF1DF0E3EFEC
:103B90001DF00550020DF350AF0FD96EDA6A6000C8
:103BA00007F0DEFF60000BF0DDFF0550020DF35063
:103BB000BB0FD96EDA6A60000FF0DEFF600013F011
:103BC000DDFFF5EF1DF00550020DF350AF0FD96E7C
:103BD000DA6ACA0EDE6E450EDD6E0550020DF35038
:103BE000BB0FD96EDA6ADE6ADD6A12001A6E1A50ED
:103BF00089EC1CF00009D8B400EF1EF002EF1EF0B3
:103C0000F7EF1DF0A20E066E410E076E190E086E3C
:103C1000096AF4EC21F0180E016E026A000E046EBF
:103C2000010E036E8EEC21F0000E066E000E076E84
:103C3000000E086E000E096EE8EC21F0ADEC22F0EB
:103C400029EC21F0E806D8B428EF1EF02AEF1EF088
:103C500020EF1EF01200000E3D01EC6F000EED6F24
:103C6000000EEE6F000EEF6F000EF06F000EF16FA2
:103C7000B00EF26F800EF36F000EF46FCF0EF56F83
:103C8000000EF66F000EF76F000EF86F000EF96F62
:103C9000000EFA6F000E016E000E026E94EC22F020
:103CA000000E016E000E026E8FEC22F0000E016E0F
:103CB000000E026E99EC22F0000E5E6E1200FC0EF9
:103CC0000001D217020ED16FD2956EEF1EF0DFEC1D
:103CD00022F092EF1EF00F0E92EF1EF0BFC00AF01E
:103CE000C0C00BF002D87EEF1EF00500FA6EB35193
:103CF000FD6EB451FE6EFF6AFA5012000D6E0E6A30
:103D00000E50000AD8B487EF1EF06BEF1EF00D5076
:103D1000020AD8B467EF1EF0010AD8B467EF1EF0AC
:103D20006BEF1EF0120015BE9AEF1EF098EF1EF01A
:103D30009EEF1EF0000E156E000E146E000E186E33
:103D4000000E176EAEEF1EF0000E046E200E036E16
:103D500011C005F084EC1AF0174A182A1450175CA9
:103D60001850800A166E1550800A1658D8A0BBEF5E
:103D70001EF0BDEF1EF0A4EF1EF012C00BF013C03A
:103D80000CF011C00DF04BEC20F012003901A3A192
:103D9000CCEF1EF0CEEF1EF0D0EF1EF0F3EF1EF0D2
:103DA000A2AFD5EF1EF0D7EF1EF0D9EF1EF0F3EF64
:103DB0001EF03D0179A5DFEF1EF0E1EF1EF0E3EF0D
:103DC0001EF0F3EF1EF079AFE8EF1EF0EAEF1EF001
:103DD000ECEF1EF0F3EF1EF076A9F1EF1EF0F3EF1B
:103DE0001EF0C6EF1EF0120003C00AF004C00BF074
:103DF00001C008F002C009F013EF1FF060002BF0C3
:103E0000D9FF60002FF0DAFFDF50076E0A4A0B2A55
:103E1000600023F0D9FF600027F0DAFF60001FF098
:103E2000DFFF084A092A0506D8A00606052806E18C
:103E30000628D8A41EEF1FF020EF1FF0FEEF1EF0A3
:103E4000120004BE26EF1FF028EF1FF032EF1FF024
:103E500001C001F002C002F003C003F004C004F08E
:103E60004BEF1FF001C005F002C006F003C007F0E1
:103E700004C008F0051E061E071E081E052A000EB7
:103E800006220722082205C001F006C002F007C082
:103E900003F008C004F01200166E010E176E000148
:103EA000D2B555EF1FF057EF1FF073EF1FF0D2851B
:103EB000000E176ECE51A3EC22F01650D8B463EF6B
:103EC0001FF065EF1FF06CEF1FF0040E0001D06FC4
:103ED000BAEC20F071EF1FF0030E0001D06F0BEC75
:103EE00022F0B1EC21F0175012004DEC22F0000945
:103EF000D8B47DEF1FF07FEF1FF083EF1FF0DCECF5
:103F000022F09DEF1FF037EC22F00009D8B48BEFC0
:103F10001FF08DEF1FF091EF1FF0D6EC22F09DEF18
:103F20001FF042EC22F00009D8B499EF1FF09BEF8C
:103F30001FF09DEF1FF0D9EC22F0120020EE02F0EE
:103F40000A50D9260B50DA22DF500C6E0CC001F05B
:103F5000026A60002BF0D9FF60002FF0DAFF6F00DB
:103F600078FF03F06F0074FF04F08EEC21F0000E78
:103F7000066E000E076E000E086E000E096EF4EC61
:103F800021F0020E120090C04CF0D0EF1FF08FC055
:103F90008CF04C0E00018D6F91C08EF080EC13F010
:103FA000600033F1F6FF100EF76EF86A0800F55066
:103FB0000009D8A4DEEF1FF0E0EF1FF0C7EF1FF0FD
:103FC000000E0001906F000E8F6F1200000E1E1A7F
:103FD000000E1F1A000E201A800E211A1AC001F0BE
:103FE0001BC002F01CC003F01DC004F01EC005F091
:103FF0001FC006F020C007F021C008F02CEC0DF027
:1040000001C01AF002C01BF003C01CF004C01DF078
:10401000120001C005F002C006F0032A0304046E7A
:10402000600013F0F6FF100EF76EF86A600017F0EC
:10403000D9FF60001BF0DAFF054A062A08006F006E
:10404000D7FFDFFFDF50D8A428EF20F02AEF20F0C1
:104050000DEF20F01200950E4D6E92C04EF093C001
:104060004FF0000E526E000E516E000E596E000E93
:10407000586E4E0E00018F6F94C090F04D0E916FF0
:10408000C3EC1FF0515000019225D96E525093217C
:10409000DA6EDF6A1200000E106E000E0F6E5AEF1D
:1040A00020F00EC003F0046A0DC005F084EC1AF095
:1040B0000F4A102A0F500B24D96E10500C20DA6EC4
:1040C000DF500E6E0E50D8A468EF20F06AEF20F09B
:1040D00051EF20F012000150021003100410D8B468
:1040E00074EF20F076EF20F07EEF20F0000E011A42
:1040F000000E021A000E031A800E041A01C001F00D
:1041000002C002F003C003F004C004F0120094EFF8
:1041100020F060000BF0D9FF60000FF0DAFFDF50F5
:10412000CFEC21F0024A032A60000BF0D9FF6000B7
:104130000FF0DAFFDF50D8A4A0EF20F0A2EF20F0BC
:1041400089EF20F012003D0173BFA9EF20F0ABEF23
:1041500020F0B9EF20F0000E796F000E7A6F000E9C
:10416000766F6C69510E3A015A6F510E5B6F3D01CB
:10417000738F12000001D251FC0B0209D26FCE05E1
:10418000CF11D8A4C6EF20F0C8EF20F0CAEF20F07E
:10419000E9EC1BF0D8800001CB359EEC22F0040E38
:1041A00012000AC001F00BC002F0000E046E010EF6
:1041B000036E8EEC21F0000E066E000E076E000EF0
:1041C000086E000E096EF4EC21F0040E12000AC015
:1041D00001F00BC002F0000E046E020E036E8EECB6
:1041E00021F0000E066E000E076E000E086E000E27
:1041F000096EF4EC21F0020E12000AC001F00BC0AF
:1042000002F0000E046E010E036E8EEC21F0000E23
:10421000066E000E076E000E086E000E096EF4ECBE
:1042200021F0020E12000AC001F00BC002F0000ED5
:10423000046E020E036E8EEC21F0000E066E000E70
:10424000076E000E086E000E096EF4EC21F0040EED
:104250001200010E016E0001D2B531EF21F033EFF3
:1042600021F03DEF21F0D297CB69BDEC22F0C0ECFC
:1042700021F084EC22F0D1C001F001501200015075
:1042800003026F00CCFF05F06F00D0FF06F0015075
:104290000402F350062602500302F350062605C01E
:1042A00001F006C002F0120000EE00F2500EEE6ABD
:1042B000E806FDE100EEAFF0320EEE6AE806FDE141
:1042C0005E6A5D6A5C6A5B6A5A6A000114EF1AF002
:1042D000C4EC22F0C1EC22F00009D8B472EF21F056
:1042E00074EF21F07AEF21F0000EA3EC22F0000E23
:1042F0009EEC22F0000E1200000E3901C06F000E7D
:10430000C16F000EC26F000EC36F000EC46F000EAF
:10431000C56F000EC66F000EC76F12000001D2A954
:1043200094EF21F096EF21F09FEF21F001C0CCF047
:1043300002C0CDF003C0CEF004C0CFF0D29912007D
:10434000040E3D01736F800E746F180E756F000EB2
:104350007B6F000E796F000E7A6F000E766F6C69BE
:104360001200B7EF21F0C6EC1EF00FEC1DF00001BB
:10437000D2B5BDEF21F0BFEF21F0B3EF21F0120075
:10438000390193939395929F93913D017A917A95F8
:104390007A9F7A9D7A937693769576911200016E44
:1043A0003901A3A9D6EF21F0D8EF21F0D0EF21F009
:1043B000600007F0EAFD1200710E3901D96F000E9E
:1043C000DB6F000EDD6F010EDF6F000EDE6F12007F
:1043D00006C001F007C002F008C003F009C004F0F5
:1043E000020EBFEC1DF0120006C001F007C002F083
:1043F00008C003F009C004F0000EBFEC1DF012006D
:104400007CEC21F0A0EC21F094EC1BF0DCEC21F032
:104410002BEC1EF012000001D251FC0B0209D26FEE
:10442000CB51CB259EEC22F0030E12003D0178BB50
:104430001CEF22F01FEF22F0010E20EF22F0000E01
:1044400012003D0174BB27EF22F02AEF22F0010E8B
:104450002BEF22F0000E12003D0178B132EF22F076
:1044600035EF22F0010E36EF22F0000E12003D0172
:1044700079B53DEF22F040EF22F0010E41EF22F03E
:10448000000E12003D0176B948EF22F04BEF22F00A
:10449000010E4CEF22F0000E12003D0179BF53EFE8
:1044A00022F056EF22F0010E57EF22F0000E12001C
:1044B0006B0E186E000E196E680EF6EC1DF01200F1
:1044C000A8EC22F00001D295020ED16F0F0E12005F
:1044D000A8EC22F00001D295000ED16F0F0E120051
:1044E000C7EC22F0C4EC22F07EEC22F012000001B6
:1044F000CE51A3EC22F0BAEC20F012000001D295CC
:10450000000ED16F0F0E12003D01739F000E796FE8
:1045100078851200026E0250CFEC21F0120001C02B
:10452000E3F002C0E4F0120001C0E5F002C0E6F0E2
:10453000120001C0E1F002C0E2F01200016E600062
:1045400007F06BFD1200016E600007F06CFD1200B9
:104550003D01739F7885738F1200000E4CEC1FF0A5
:104560001200C7EC22F0090E1200CAEC22F0040E71
:104570001200CAEC22F0030E1200000E3D01796F0A
:1045800012003D016C5112003D01739B12003D0170
:10459000748D12003D01749D12003D016A5112009C
:1045A0003D01738D12003D01739D12003D0179950F
:1045B00012003D01769912003D01799F1200010E13
:0E45C0001200020E1200050E1200010E120073
:04FFFC0054EF21F0AD
:020000040030CA
:0A000000FAFFF7FF9FFFFFFFFFFF6D
:00000001FF
