:04000000FEEF7FF0A0
:10C05E00120012001200010E1200050E1200020E46
:10C06E001200010E12003D01799F12003D017699DA
:10C07E0012003D01799512003D01739D12003D01A4
:10C08E00738D12003D016A5112003D01749D120024
:10C09E003D01748D12003D01739B12003D016C51E8
:10C0AE001200000E3D01796F12004CEC60F0030E91
:10C0BE0012004CEC60F0040E12004FEC60F0090E12
:10C0CE001200010E45EC64F01200000E45EC64F017
:10C0DE0012003D01739F7885738F1200016E600010
:10C0EE0007F06CFD1200016E600007F06BFD120090
:10C0FE0001C054F202C055F2120001C058F202C043
:10C10E0059F2120001C056F202C057F21200026E2E
:10C11E00025041EC61F012003D01739F000E796FE9
:10C12E00788512000101F795000EF66F0F0E1200C2
:10C13E000101F35175EC60F04EEC62F012004FEC21
:10C14E0060F052EC60F099EC60F0120070EC60F070
:10C15E000101F795000EF66F0F0E120070EC60F0F5
:10C16E000101F795020EF66F0F0E12006B0E176E91
:10C17E00000E186E680EBBEC65F012003D0179BF23
:10C18E00CBEF60F0CEEF60F0010ECFEF60F0000E5F
:10C19E0012003D0176B9D6EF60F0D9EF60F0010ED6
:10C1AE00DAEF60F0000E12003D0179B5E1EF60F0BC
:10C1BE00E4EF60F0010EE5EF60F0000E12003D01BD
:10C1CE0078B1ECEF60F0EFEF60F0010EF0EF60F0A1
:10C1DE00000E12003D0174BBF7EF60F0FAEF60F055
:10C1EE00010EFBEF60F0000E12003D0178BB02EF76
:10C1FE0061F005EF61F0010E06EF61F0000E120026
:10C20E000101F751FC0B0209F76FF051F0257AECA2
:10C21E0060F0030E12008FEC61F06CEC61F016EC26
:10C22E0069F035EC61F087EC65F0120006C001F0A4
:10C23E0007C002F008C003F009C004F0000E4FEC76
:10C24E0067F0120006C001F007C002F008C003F04C
:10C25E0009C004F0020E4FEC67F01200710E3901A6
:10C26E00D96F000EDB6F000EDD6F010EDF6F000E5B
:10C27E00DE6F1200016E3901A3A948EF61F04AEF9B
:10C28E0061F042EF61F0600007F0EAFD1200390143
:10C29E0093939395929F93913D017A917A957A9F7C
:10C2AE007A9D7A93769376957691120063EF61F08C
:10C2BE00F2EC64F0D4EC66F00101F7B569EF61F0D1
:10C2CE006BEF61F05FEF61F01200040E3D01736FD2
:10C2DE00800E746F180E756F000E7B6F000E796FE7
:10C2EE00000E7A6F000E766F6C6912000101F7A9CD
:10C2FE0083EF61F085EF61F08EEF61F001C0F1F137
:10C30E0002C0F2F103C0F3F104C0F4F1F799120088
:10C31E00000E3901C06F000EC16F000EC26F000E0D
:10C32E00C36F000EC46F000EC56F000EC66F000EF9
:10C33E00C76F120052EC60F055EC60F00009D8B4F3
:10C34E00ABEF61F0ADEF61F0B3EF61F0000E75ECA5
:10C35E0060F0000E7AEC60F0000E12000150030245
:10C36E006F00CCFF05F06F00D0FF06F00150040205
:10C37E00F350062602500302F350062605C001F0C4
:10C38E0006C002F01200010E016E0101F7B5D2EFE8
:10C39E0061F0D4EF61F0DEEF61F0F797F06958ECE1
:10C3AE0060F04EEC61F093EC60F0F6C101F00150DC
:10C3BE0012000AC001F00BC002F0000E046E020E55
:10C3CE00036E7DEC61F0000E066E000E076E000E21
:10C3DE00086E000E096E1DEC61F0040E12000AC00C
:10C3EE0001F00BC002F0000E046E010E036E7DEC28
:10C3FE0061F0000E066E000E076E000E086E000E47
:10C40E00096E1DEC61F0020E12000AC001F00BC0A5
:10C41E0002F0000E046E020E036E7DEC61F0000E53
:10C42E00066E000E076E000E086E000E096E1DECF5
:10C43E0061F0020E12000AC001F00BC002F0000EF5
:10C44E00046E010E036E7DEC61F0000E066E000EA2
:10C45E00076E000E086E000E096E1DEC61F0040EE4
:10C46E00120000EE00F2540EEE6AE806FDE100EE58
:10C47E00D4F12C0EEE6AE806FDE10001FD6BFC6BBB
:10C48E00FB6B5E6A5D6A5C6A0001EAEF73F00101A4
:10C49E00F751FC0B0209F76FF305F411D8A45AEF0C
:10C4AE0062F05CEF62F05EEF62F073EC68F0D880E1
:10C4BE000101F0357AEC60F0040E12003D0173BFFD
:10C4CE006BEF62F06DEF62F07BEF62F0000E796F52
:10C4DE00000E7A6F000E766F6C69510E3A015A6F2C
:10C4EE00510E5B6F3D01738F12001F6E1C50206E3C
:10C4FE001BC021F01DC022F0200E176E000E196E0B
:10C50E00030E186E1F5099EC64F00D0E1E6EFC0E8D
:10C51E00E82EFED71E2EFCD712001F6E1C501D6E6D
:10C52E001BC01EF01D0E176E000E196E020E186E39
:10C53E001F5099EC64F0000E206E200E176E000E48
:10C54E00196E010E186E1F5048EC63F02050120049
:10C55E000150021003100410D8B4B8EF62F0BAEF15
:10C56E0062F0C2EF62F0000E011A000E021A000E07
:10C57E00031A800E041A01C001F002C002F003C0BB
:10C58E0003F004C004F01200D4EF62F0030E056E47
:10C59E00980EE82EFED7052EFCD70106000E025A85
:10C5AE00035A045A01280AE1022808E1032806E189
:10C5BE000428D8A4E5EF62F0E7EF62F0CDEF62F069
:10C5CE001200276E000E286EFDEF62F02850232415
:10C5DE001B6E000E24201C6E25502824D96EDA6A9C
:10C5EE00DF501D6E27507CEC62F0282A2650285C06
:10C5FE00D8A004EF63F006EF63F0EDEF62F01200E7
:10C60E00000E106E000E0F6E16EF63F00EC003F0EC
:10C61E00046A0DC005F01FEC6AF00F4A102A0F5085
:10C62E000B24D96E10500C20DA6EDF500E6E0E50A9
:10C63E00D8A424EF63F026EF63F00DEF63F0120041
:10C64E00266E000E276E3EEF63F0275021241B6EE0
:10C65E00000E22201C6E265094EC62F0256E2350A4
:10C66E002724D96EDA6A600097F0DFFF272A24505C
:10C67E00275CD8A045EF63F047EF63F02CEF63F033
:10C68E0012001A6E1A508EEC67F00009D8B452EFF1
:10C69E0063F054EF63F049EF63F017C001F0026AE4
:10C6AE0018C003F019C004F07DEC61F068EC60F086
:10C6BE00CAEC61F0E806D8B467EF63F069EF63F097
:10C6CE005FEF63F0120001C005F002C006F06000DB
:10C6DE000FF0F6FF600013F0F7FF034A042AF86A22
:10C6EE00600017F0D9FF60001BF0DAFF054A062A3A
:10C6FE0008006F00D7FFDFFFDF50D8A489EF63F08B
:10C70E008BEF63F06EEF63F01200970E4F6E93C0D7
:10C71E0050F094C051F0000E546E000E536E000E89
:10C72E005B6E000E5A6E500E00018F6F95C090F02A
:10C73E0096C091F04F0E926FF6EC63F053500001DD
:10C74E009325D96E54509421DA6EDF6A1200000ED2
:10C75E001E1A000E1F1A000E201A800E211A1AC061
:10C76E0001F01BC002F01CC003F01DC004F01EC07F
:10C77E0005F01FC006F020C007F021C008F009EC3C
:10C78E0078F001C01AF002C01BF003C01CF004C008
:10C79E001DF0120020EE02F00A50D9260B50DA22BC
:10C7AE00DF500C6E0CC001F0026A60002BF0D9FF56
:10C7BE0060002FF0DAFF6F0078FF03F06F0074FF58
:10C7CE0004F07DEC61F0000E066E000E076E000E9A
:10C7DE00086E000E096E1DEC61F0020E120090C084
:10C7EE004DF091C04EF005EF64F08FC08CF04D0E01
:10C7FE0000018D6F92C08EF077EC6FF0600037F114
:10C80E00F6FF60003BF1F7FFF86A0800F5500009EB
:10C81E00D8A414EF64F016EF64F0FCEF63F0000E92
:10C82E000001906F000E8F6F1200C5EC60F00009D2
:10C83E00D8B424EF64F026EF64F02AEF64F03AECFB
:10C84E0060F044EF64F0DBEC60F00009D8B432EF36
:10C85E0064F034EF64F038EF64F040EC60F044EFD5
:10C86E0064F0D0EC60F00009D8B440EF64F042EF11
:10C87E0064F044EF64F03DEC60F01200156E010EB2
:10C88E00166E0101F7B54EEF64F050EF64F06CEFE9
:10C89E0064F0F785000E166EF35175EC60F01550CE
:10C8AE00D8B45CEF64F05EEF64F065EF64F0040EF4
:10C8BE000101F56F4EEC62F06AEF64F0030E0101B8
:10C8CE00F56F07EC61F05DEC61F01650120004BEDE
:10C8DE0073EF64F075EF64F07FEF64F001C001F068
:10C8EE0002C002F003C003F004C004F098EF64F03D
:10C8FE0001C005F002C006F003C007F004C008F046
:10C90E00051E061E071E081E052A000E06220722F9
:10C91E00082205C001F006C002F007C003F008C0EF
:10C92E0004F012001A6E1A508EEC67F00009D8B49B
:10C93E00A3EF64F0A5EF64F09AEF64F017C001F076
:10C94E00026A18C003F019C004F07DEC61F0000E0D
:10C95E00066E000E076E000E086E000E096E29ECB4
:10C96E0061F06CEC60F0CAEC61F0E806D8B4C2EF8E
:10C97E0064F0C4EF64F0BAEF64F0120003C00AF082
:10C98E0004C00BF001C008F002C009F0E4EF64F03F
:10C99E0060002BF0D9FF60002FF0DAFFDF50076E3A
:10C9AE000A4A0B2A600023F0D9FF600027F0DAFF55
:10C9BE0060001FF0DFFF084A092A0506D8A0060608
:10C9CE00052806E10628D8A4EFEF64F0F1EF64F035
:10C9DE00CFEF64F012003901A3A1F8EF64F0FAEF83
:10C9EE0064F0FCEF64F01FEF65F0A2AF01EF65F0AD
:10C9FE0003EF65F005EF65F01FEF65F03D0179A5DA
:10CA0E000BEF65F00DEF65F00FEF65F01FEF65F0C2
:10CA1E0079AF14EF65F016EF65F018EF65F01FEFC4
:10CA2E0065F076A91DEF65F01FEF65F0F2EF64F08B
:10CA3E00120015BE27EF65F025EF65F02BEF65F0C0
:10CA4E00000E156E000E146E000E186E000E176E90
:10CA5E003BEF65F0000E046E200E036E11C005F064
:10CA6E001FEC6AF0174A182A1450175C1850800AE7
:10CA7E00166E1550800A1658D8A048EF65F04AEF8A
:10CA8E0065F031EF65F012C00BF013C00CF011C061
:10CA9E000DF007EC63F01200FC0E0101F717020E09
:10CAAE00F66FF79562EF65F038EC60F086EF65F0A3
:10CABE000F0E86EF65F0E4C10AF0E5C10BF002D867
:10CACE0072EF65F00500FA6ED851FD6ED951FE6E0B
:10CADE00FF6AFA5012000D6E0E6A0E50000AD8B49C
:10CAEE007BEF65F05FEF65F00D50020AD8B45BEF97
:10CAFE0065F0010AD8B45BEF65F05FEF65F01200E8
:10CB0E00000E3D01EC6F000EED6F000EEE6F000E8D
:10CB1E00EF6F000EF06F000EF16FB00EF26F800E21
:10CB2E00F36F000EF46FCF0EF56F000EF66F000E62
:10CB3E00F76F000EF86F000EF96F000EFA6F600EB1
:10CB4E00016EC00E026E84EC60F0620E016EC00EBD
:10CB5E00026E89EC60F05E0E016EC00E026E7FEC0E
:10CB6E0060F0000E5E6E1200196E19508EEC67F0BA
:10CB7E000009D8B4C5EF65F0C7EF65F0BCEF65F0FE
:10CB8E00440E066EC40E076E180E086E096A1DEC72
:10CB9E0061F0170E016E026A000E046E010E036E36
:10CBAE007DEC61F0000E066E000E076E000E086E34
:10CBBE00000E096E29EC61F06CEC60F0CAEC61F0CD
:10CBCE00E806D8B4EDEF65F0EFEF65F0E5EF65F050
:10CBDE00120058EC60F0020E0101F66F03EF66F0E2
:10CBEE009FEC60F027EF66F036EC60F027EF66F012
:10CBFE00ADEC60F027EF66F0E2C10AF0E3C10BF096
:10CC0E0002D813EF66F00500FA6ED651FD6ED751BD
:10CC1E00FE6EFF6AFA5012000D6E0E6A0E50000A7A
:10CC2E00D8B41CEF66F0FFEF65F00D50020AD8B4D1
:10CC3E00F7EF65F0010AD8B4FBEF65F0FFEF65F092
:10CC4E001200000E096E42EF66F0D6EC67F0086E29
:10CC5E000D0E0818D8A436EF66F038EF66F03AEFEE
:10CC6E0066F05AEF66F001500924D96EDA6A600058
:10CC7E0023F0DFFF092AFF0E0224036E046AFF0E63
:10CC8E0004220950056E066A0350055C0650800AA0
:10CC9E00076E0450800A0758D8A058EF66F05AEF76
:10CCAE0066F02CEF66F001500924D96EDA6ADF6A5D
:10CCBE0012007BEF66F060000BF0F6FF60000FF0E5
:10CCCE00F7FF000EF86E0F0EF76403D00800F55054
:10CCDE0007D06F00DBFFE9FF6F00DFFFEAFFEF50C9
:10CCEE0041EC61F0024A032A60000BF0F6FF60008F
:10CCFE000FF0F7FF000EF86E0F0EF76403D008006A
:10CD0E00F55007D06F00DBFFE9FF6F00DFFFEAFF92
:10CD1E00EF500009D8A496EF66F098EF66F062EF38
:10CD2E0066F012001B6E18C01EF019C01CF01AC05F
:10CD3E001DF01B508EEC67F00009D8B4A9EF66F019
:10CD4E00ABEF66F0A0EF66F0A20E066EC70E076E92
:10CD5E001C0E086E096A1DEC61F0170E016E026A58
:10CD6E00000E046E010E036E7DEC61F0000E066E79
:10CD7E00000E076E000E086E000E096E29EC61F0B3
:10CD8E006CEC60F0CAEC61F0E806D8B4D1EF66F056
:10CD9E00D3EF66F0C9EF66F012001CEC64F00101EF
:10CDAE00F751030B0009D8B4DFEF66F0E1EF66F040
:10CDBE00EEEF66F0F1EC60F00009D8B4E9EF66F042
:10CDCE00EBEF66F0EEEF66F0100E0101F56F01016C
:10CDDE00F551020DC70EF324F66EFE0EF420F76E1B
:10CDEE00F86A000EF82209006F00D4FF13F0090054
:10CDFE006F00D4FF14F002D80EEF67F00500FA6E44
:10CE0E001350FD6E1450FE6EFF6AFA5012000101AF
:10CE1E00F56F12000101F78926EF67F046EC60F01E
:10CE2E00070E4EEF67F00101F32975EC60F0030E6B
:10CE3E004EEF67F043EC60F00A0E4EEF67F0E0C184
:10CE4E000AF0E1C10BF002D836EF67F00500FA6E7A
:10CE5E00D451FD6ED551FE6EFF6AFA5012000D6E62
:10CE6E000E6A0E50000AD8B43FEF67F021EF67F05C
:10CE7E000D50010AD8B421EF67F0030AD8B415EFAC
:10CE8E0067F0060AD8B41AEF67F021EF67F01200C8
:10CE9E00056E01500210D8B457EF67F059EF67F0E6
:10CEAE0077EF67F00550020DD40EF324D96E010E04
:10CEBE00F420DA6E600007F0DEFF60000BF0DDFF9D
:10CECE000550020DE00EF324D96E010EF420DA6E39
:10CEDE0060000FF0DEFF600013F0DDFF8DEF67F0F6
:10CEEE000550020DD40EF324D96E010EF420DA6E25
:10CEFE00640EDE6EC00EDD6E0550020DE00EF324E4
:10CF0E00D96E010EF420DA6EDE6ADD6A1200016E51
:10CF1E00010E026E0101F7B797EF67F099EF67F018
:10CF2E00D4EF67F001C0F0F1F795F787FC0EF71715
:10CF3E000F0EF56F010EEF6FF40EEE6FF789640EA4
:10CF4E00D46FC00ED56F000EE06F000EE16F640E51
:10CF5E00D66FC00ED76F000EE26F000EE36F640E39
:10CF6E00D86FC00ED96F000EE46F000EE56F640E21
:10CF7E00DA6FC00EDB6F000EE66F000EE76F680E05
:10CF8E00DC6FC00EDD6F000EE86F000EE96F58EC1F
:10CF9E0060F065EC62F0000E026E02501200390174
:10CFAE00A3A7DCEF67F0DEEF67F0D6EF67F0000EB9
:10CFBE005E6E3D01F9A7E6EF67F0E8EF67F0F6EF7A
:10CFCE0067F05E8202D8F6EF67F00500FA6E020196
:10CFDE005851FD6E5951FE6EFF6AFA5012003D0116
:10CFEE00F9A3FCEF67F0FEEF67F00CEF68F05E84DC
:10CFFE0002D80CEF68F00500FA6E02015651FD6E74
:10D00E005751FE6EFF6AFA5012005E50D8B412EFFE
:10D01E0068F014EF68F021EF68F002D821EF68F0A5
:10D02E000500FA6E02015451FD6E5551FE6EFF6AF7
:10D03E00FA5012003D01E8511200E6EC60F00009D2
:10D04E00D8A42CEF68F02EEF68F031EF68F0040EE4
:10D05E0072EF68F00101F751030B0009D8B43AEFF3
:10D06E0068F03CEF68F048EF68F0010E0F6EF75174
:10D07E00030B106E0F50105EF7511018FC0B1018AA
:10D08E00F76FF307D8A0F407F351F411D8B452EFA9
:10D09E0068F054EF68F062EF68F049EC60F0600001
:10D0AE00C7F7D9FF6000CBF7DAFFDF6E0101F14B56
:10D0BE00F22B2EEF68F073EC68F0116E49EC60F015
:10D0CE006000C7F7D9FF6000CBF7DAFFDF6E010112
:10D0DE00F14BF22B115012000101F78997EF68F016
:10D0EE0046EC60F0080EC3EF68F046EC60F0070EF9
:10D0FE00C3EF68F00101F32975EC60F0040EC3EF85
:10D10E0068F0070E0101F519D8B490EF68F092EFB0
:10D11E0068F094EF68F043EC60F00F0EC3EF68F028
:10D12E00E0C10AF0E1C10BF002D8A7EF68F00500EC
:10D13E00FA6ED451FD6ED551FE6EFF6AFA50120092
:10D14E000D6E0E6A0E50000AD8B4B0EF68F088EF7C
:10D15E0068F00D50010AD8B488EF68F0030AD8B40D
:10D16E007CEF68F0010AD8B477EF68F0070AD8B4FC
:10D17E0081EF68F088EF68F01200000E096E000E65
:10D18E000A6E000E0B6E000E0C6E05500610071088
:10D19E000810D8B4D5EF68F0D7EF68F00DEF69F04E
:10D1AE00010E0D6EE1EF68F0D890053606360736A3
:10D1BE0008360D2A08AEE6EF68F0E8EF68F0DBEF10
:10D1CE0068F0D89009360A360B360C360550015CDD
:10D1DE00065002580750035808500458D8A0FAEFCA
:10D1EE0068F0FCEF68F005EF69F00550015E06503F
:10D1FE00025A0750035A0850045A0980D890083230
:10D20E000732063205320D2EE8EF68F009C001F044
:10D21E000AC002F00BC003F00CC004F01200000EA6
:10D22E00BE6E000EBD6E000EBA6E000EBB6E000E10
:10D23E00BC6E070EC66EC268F90EC36EBF0EC46E0C
:10D24E00FC0EC56E3A0170697F0E606FF90E506F5D
:10D25E00070E806F4069000E716F000E816F000E19
:10D26E00516F000E416F000E616F000E5A6F000E6F
:10D27E005B6F000E6A6F000E6B6F000E7A6F000E02
:10D28E007B6F000E826F000E426F260E526F180ECD
:10D29E00626F000E726F4369536963697369070E9B
:10D2AE00836F44695469646974690F0E846F0A0E42
:10D2BE00E26F210E096F220E0A6F130E166F170EF4
:10D2CE00E56F090EE16F1200000E0114096E000EDB
:10D2DE0002140A6E800E03140B6E7F0E04140C6E75
:10D2EE0009500A100B100C10D8A480EF69F082EFD1
:10D2FE0069F08AEF69F0000E016E000E026E000EEC
:10D30E00036E000E046E000E0514096E000E061458
:10D31E000A6E800E07140B6E7F0E08140C6E0950E9
:10D32E000A100B100C10D8A49FEF69F0A1EF69F052
:10D33E00A9EF69F0000E056E000E066E000E076E68
:10D34E00000E086E055001180FE1065002180CE190
:10D35E000750031809E108500418D8B4B9EF69F062
:10D36E00BBEF69F0BEEF69F0D890BFEF69F0D880DF
:10D37E001200000E0B6E000E0A6E0750D96EDA6A9E
:10D38E006F007BFFF6FF6F0077FFF7FFF86A08006C
:10D39E00F5502A0AD8A4D6EF69F0D8EF69F004EF59
:10D3AE006AF00750D96EDA6ADE2A000EDD220850C6
:10D3BE00D96EDA6A020EDF26DF5CD96EDA6A6F008A
:10D3CE0078FF0AF06F0078FF0BF01AEF6AF00AC0D0
:10D3DE0001F00BC002F0000E046E0A0E036EB5ECE7
:10D3EE0061F0095001240A6E000E02200B6E0750E8
:10D3FE00D96EDA6ADE2A000EDD220750D96EDA6A9D
:10D40E006F007BFFF6FF6F0077FFF7FFF86A0800EB
:10D41E00F550D00F096E090E096418EF6AF01AEF75
:10D42E006AF0EEEF69F00AC007F00BC008F01200C8
:10D43E000550D8B425EF6AF027EF6AF02FEF6AF0A7
:10D44E000550D8A42DEF6AF02FEF6AF034EF6AF092
:10D45E0003508EEC60F080EF6AF00550D96EDA6AF8
:10D46E000A0ED926DE50DE10D8B440EF6AF042EF35
:10D47E006AF05BEF6AF00550D96EDA6A0A0ED926A9
:10D48E000550E16EE26A030EE126DE50E65CE650E0
:10D49E00800A0A6EDE50800A0A58D8B059EF6AF038
:10D4AE005BEF6AF080EF6AF00550D96EDA6A030E10
:10D4BE00D9266F0078FF06F06F0074FF07F0055055
:10D4CE00D96EDA6A6F0078FF08F06F0074FF09F00A
:10D4DE0006500824D96E07500920DA6E60000FF04E
:10D4EE00DFFF0550D96EDA6A030ED926DE2A000E4A
:10D4FE00DD221200000E0A6E04BE8AEF6AF088EF7B
:10D50E006AF094EF6AF0041E031E021E016C000EF8
:10D51E00022203220422010E0A6E08BE9BEF6AF05D
:10D52E0099EF6AF0A3EF6AF0081E071E061E056C3F
:10D53E00000E0622072208220550061007100810BA
:10D54E00D8B4ACEF6AF0AEEF6AF0DEEF6AF0010E1F
:10D55E00096EB8EF6AF0D8900536063607360836EB
:10D56E00092A08AEBDEF6AF0BFEF6AF0B2EF6AF0BB
:10D57E000550015C065002580750035808500458D5
:10D58E00D8A0CCEF6AF0CEEF6AF0D6EF6AF0055075
:10D59E00015E0650025A0750035A0850045AD8909A
:10D5AE000832073206320532092EBFEF6AF00A50F2
:10D5BE00D8B4E4EF6AF0E6EF6AF0EEEF6AF0041E1C
:10D5CE00031E021E016C000E02220322042201C061
:10D5DE0001F002C002F003C003F004C004F0120018
:10D5EE00F8C10BF0F9C10CF0FAC10DF0FBC10EF051
:10D5FE0001C00BF002C00CF003C00DF004C00EF021
:10D60E000BC005F00CC006F00DC007F00EC008F000
:10D61E00180E17EF6BF0D89008320732063205322B
:10D62E00E82E12EF6BF00550096E0A6A09500A10C7
:10D63E00D8A424EF6BF026EF6BF046EF6BF0D8908A
:10D64E000B34056E0C34066E0D34076E0E34086EF8
:10D65E000550061007100810D8A438EF6BF03AEFFB
:10D66E006BF040EF6BF0000E026E020E016E75EF66
:10D67E006BF0000E026E030E016E75EF6BF0092853
:10D68E000A10D8A44DEF6BF04FEF6BF071EF6BF00B
:10D69E000BC005F00CC006F00DC007F00EC008F070
:10D6AE00090ED8900536063607360836E82E58EF9E
:10D6BE006BF00550061007100810D8B469EF6BF028
:10D6CE006CEF6BF0010E6DEF6BF0000E016E026AE7
:10D6DE0075EF6BF0000E026E040E016E1200000E5E
:10D6EE001A14226E000E1B14236E800E1C14246E50
:10D6FE007F0E1D14256E2250231024102510D8A441
:10D70E008BEF6BF08DEF6BF095EF6BF0000E1A6EEA
:10D71E00000E1B6E000E1C6E000E1D6E000E1E14F3
:10D72E00226E000E1F14236E800E2014246E7F0EA8
:10D73E002114256E2250231024102510D8A4AAEFF0
:10D74E006BF0ACEF6BF0B4EF6BF0000E1E6E000ED4
:10D75E001F6E000E206E000E216E1DAEB9EF6BF027
:10D76E00BBEF6BF0C4EF6BF01A6C1B1ED8B01B2A0C
:10D77E001C1ED8B01C2A800E1D5621AEC9EF6BF0B0
:10D78E00CBEF6BF0D4EF6BF01E6C1F1ED8B01F2AC0
:10D79E00201ED8B0202A800E2156000E1A1A000E16
:10D7AE001B1A000E1C1A800E1D1A000E1E1A000ED9
:10D7BE001F1A000E201A800E211A1E501A5C1F50BE
:10D7CE001B5820501C5821501D58D8B0F1EF6BF04B
:10D7DE00F3EF6BF0F6EF6BF0D890F7EF6BF0D880BD
:10D7EE001200033404340A6E0A50D8A401EF6CF010
:10D7FE0003EF6CF00DEF6CF0000E016E000E026E7A
:10D80E00000E036E000E046E7AEF6CF001C005F090
:10D81E0002C006F003C007F004C008F0200E1DEF92
:10D82E006CF0D8900832073206320532E82E18EF27
:10D83E006CF00550096E038EFF0E0116FF0E0216D8
:10D84E00FF0E0316000E0416960E0A5E0ABE34EF85
:10D85E006CF032EF6CF04AEF6CF00A50800A970FC2
:10D86E00D8B03CEF6CF03EEF6CF040EF6CF003EF95
:10D87E006CF0D89004320332023201320A3E40EF8D
:10D88E006CF062EF6CF01F0E0A6450EF6CF052EF0A
:10D89E006CF05AEF6CF003EF6CF0D8900136023654
:10D8AE00033604360A060A50D8A460EF6CF062EF15
:10D8BE006CF054EF6CF00950D8B468EF6CF06AEF6E
:10D8CE006CF072EF6CF0041E031E021E016C000E53
:10D8DE0002220322042201C001F002C002F003C0A2
:10D8EE0003F004C004F01200000E0D6E000E0C6E5C
:10D8FE00000E0B6E84EF6CF0072A0750D96EDA6AB1
:10D90E00200EDE18D8B48EEF6CF090EF6CF083EF33
:10D91E006CF00750D96EDA6ADF50096EF70E0926E1
:10D92E00040E09649DEF6CF09FEF6CF083EF6CF0CA
:10D93E000750D96EDA6A2D0EDE18D8A4A9EF6CF056
:10D94E00ABEF6CF0B0EF6CF0010E0B6E072AD9EF57
:10D95E006CF00750D96EDA6A2B0EDE18D8A4BAEF27
:10D96E006CF0BCEF6CF0D9EF6CF0ADEF6CF00CC05E
:10D97E0001F00DC002F0000E046E0A0E036EB5EC3F
:10D98E0061F00750D96EDA6ADF50096E0950015EF8
:10D99E00000E025A300E01240C6E000E02200D6E87
:10D9AE00ADEF6CF00750D96EDA6ADF50096ED00E0B
:10D9BE000926090E0964E6EF6CF0E8EF6CF0BEEF95
:10D9CE006CF00B50D8A4EEEF6CF0F0EF6CF0FEEFB5
:10D9DE006CF00CC009F00DC00AF0091E0A1E094AAF
:10D9EE000A2A09C007F00AC008F002EF6DF00CC059
:10D9FE0007F00DC008F01200F1EC60F00009D8B489
:10DA0E000BEF6DF00DEF6DF047EF6DF01AEF6DF05F
:10DA1E009FEC60F093EF6DF036EC60F093EF6DF0ED
:10DA2E00000E93EF6DF0E6C10AF0E7C10BF002D8DD
:10DA3E002BEF6DF00500FA6E0101DA51FD6EDB5130
:10DA4E00FE6EFF6AFA5012000D6E0E6A0E50000A3C
:10DA5E00D8B434EF6DF017EF6DF00D50010AD8B455
:10DA6E0017EF6DF0030AD8B40FEF6DF0010AD8B4BA
:10DA7E0013EF6DF0070AD8B417EF6DF017EF6DF0D6
:10DA8E00FCEC60F00009D8B44FEF6DF051EF6DF083
:10DA9E0092EF6DF00101F751030B0009D8B45AEF64
:10DAAE006DF05CEF6DF068EF6DF0010E0D6EF751DD
:10DABE00030B0E6E0D500E5EF7510E18FC0B0E186A
:10DACE00F76F6000C7F7D9FF6000CBF7DAFFDF50C2
:10DADE000F6EF14BF22BF307D8A0F407F351F411AC
:10DAEE00D8A47CEF6DF07EEF6DF086EF6DF011EC4B
:10DAFE0067F00D6E0D50116E126A8AEF6DF0000E0A
:10DB0E00126E030E116E11C010F00F507AEC60F011
:10DB1E00105093EF6DF0030E1200096E0950D8B439
:10DB2E009BEF6DF09DEF6DF0BFEF6DF004BEA4EFB7
:10DB3E006DF0A2EF6DF0BFEF6DF001C005F002C009
:10DB4E0006F003C007F004C008F0051E061E071EEF
:10DB5E00081E052A000E06220722082205C00BF019
:10DB6E0006C00CF007C00DF008C00EF0C7EF6DF048
:10DB7E0001C00BF002C00CF003C00DF004C00EF09B
:10DB8E000150021003100410D8A4D0EF6DF0D2EFA4
:10DB9E006DF0DCEF6DF0000E016E000E026E000EE9
:10DBAE00036E000E046E6DEF6EF0960E0A6EE6EFCB
:10DBBE006DF00A2AD8900E320D320C320B32000E56
:10DBCE000B14056E000E0C14066E000E0D14076E6F
:10DBDE00FE0E0E14086E0550061007100810D8A47D
:10DBEE00FBEF6DF0FDEF6DF0E0EF6DF00BEF6EF013
:10DBFE000A2A010E0B26000E0C220D220E22D890A0
:10DC0E000E320D320C320B32000E0B14056E000E5E
:10DC1E000C14066E000E0D14076EFF0E0E14086E19
:10DC2E000550061007100810D8A420EF6EF022EF52
:10DC3E006EF0FFEF6DF02AEF6EF00A06D8900B36FD
:10DC4E000C360D360E360DBE2FEF6EF031EF6EF038
:10DC5E0039EF6EF0020E0A6037EF6EF039EF6EF0AC
:10DC6E0024EF6EF00AB03EEF6EF040EF6EF041EF33
:10DC7E006EF00D9ED8900A320AC005F0066A076A49
:10DC8E00086A05C008F0076A066A056A05500B1295
:10DC9E0006500C1207500D1208500E120950D8B42F
:10DCAE005BEF6EF05DEF6EF065EF6EF004BE64EF4D
:10DCBE006EF062EF6EF065EF6EF00E8E0BC001F03F
:10DCCE000CC002F00DC003F00EC004F0120000C232
:10DCDE0038F001C239F002C23AF003C23BF028C05C
:10DCEE0038F029C039F02AC03AF02BC03BF0810E33
:10DCFE002C6EFF0E2D6E38C02EF039C02FF03AC0AC
:10DD0E0030F03BC031F0180E92EF6EF0D8903132F9
:10DD1E0030322F322E32E82E8DEF6EF02E502C2414
:10DD2E00366E000E2D20376E37BEA7EF6EF03750D1
:10DD3E0009E1170E365CD8A0A7EF6EF0A9EF6EF0D2
:10DD4E00B3EF6EF028C028F029C029F02AC02AF0BF
:10DD5E002BC02BF076EF6FF037BEB8EF6EF0BAEF48
:10DD6E006EF02AEF6FF036C02CF0FF0E2D6EFF0E08
:10DD7E002E6E7F0E2F6E000E306E2C66C9EF6EF07B
:10DD8E00D1EF6EF0303430322F322E322D322C2E27
:10DD9E00C4EF6EF02DC032F02EC033F02FC034F031
:10DDAE0030C035F0325038142C6E335039142D6E7D
:10DDBE0034503A142E6E35503B142F6E2C502D10BD
:10DDCE002E102F10D8A4EEEF6EF0F0EF6EF0F2EFF3
:10DDDE006EF0A9EF6EF038C02CF039C02DF03AC0BD
:10DDEE002EF03BC02FF0200E02EF6FF0D8902F32A6
:10DDFE002E322D322C32E82EFDEF6EF02C502D10DF
:10DE0E002E102F10D8B40EEF6FF010EF6FF018EF3A
:10DE1E006FF0325038263350392234503A22355072
:10DE2E003B22321C2C6E331C2D6E341C2E6E351C78
:10DE3E002F6E2C5038162D5039162E503A162F5054
:10DE4E003B166EEF6FF038C02CF039C02DF03AC093
:10DE5E002EF03BC02FF0200E3AEF6FF0D8902F32FD
:10DE6E002E322D322C32E82E35EF6FF02C502D1035
:10DE7E002E102F10D8A446EF6FF048EF6FF052EF30
:10DE8E006FF0000E386E000E396E000E3A6E000EF8
:10DE9E003B6E6EEF6FF0D89038342C6E39342D6E99
:10DEAE003A342E6E3B342F6E2C502D102E102F1018
:10DEBE00D8B464EF6FF066EF6FF06EEF6FF0000E98
:10DECE00386E000E396E800E3A6EBF0E3B6E38C045
:10DEDE0028F039C029F03AC02AF03BC02BF01200CE
:10DEEE0000018D51D96EDA6A6F007BFFF6FF6F006D
:10DEFE0077FFF7FFF86A0800F550250AD8A48AEFD5
:10DF0E006FF08CEF6FF0A0EF70F08D51D96EDA6A72
:10DF1E00DE2A000EDD22000EFC6F000EFB6FFBC032
:10DF2E00FDF05C685D688D51D96EDA6A6F007BFF1B
:10DF3E00F6FF6F0077FFF7FFF86A0800F5502E0A1C
:10DF4E00D8A4ACEF6FF0AEEF6FF0BEEF6FF08D5167
:10DF5E00D96EDA6ADE2A000EDD228DC007F08EC081
:10DF6E0008F0C0EC69F007C05CF008C05DF000017D
:10DF7E008D51D96EDA6A6F0078FF4BF06F0074FF27
:10DF8E004CF060002FF1F6FF600033F1F7FFF86AF6
:10DF9E0008006F00D4FF4AF0E1EF6FF04B4A4C2AB5
:10DFAE00FAEF6FF06C0E4A6EFAEF6FF0000E4A6EDB
:10DFBE00FAEF6FF04A50446E456A4550000AD8B4E5
:10DFCE00EBEF6FF0DDEF6FF044504C0AD8B4D5EFA5
:10DFDE006FF02A0AD8B4D9EF6FF00A0AD8B4D5EF89
:10DFEE006FF0DDEF6FF060002FF1F6FF600033F1A0
:10DFFE00F7FFF86A0800F550660AD8A409EF70F02A
:10E00E000BEF70F097EF70F03FEF70F08E51D96E0E
:10E01E00DA6A6F007CFF44F0040EDF264450D96E9E
:10E02E00DA6A6F0078FF46F06F0078FF47F06F00F6
:10E03E0078FF48F06F0078FF49F054EF70F08E5182
:10E04E00D96EDA6A6F007CFF44F0040EDF2644506E
:10E05E00D96EDA6A6F0078FF46F06F0078FF47F0EE
:10E06E006F0078FF48F06F0078FF49F054EF70F0C2
:10E07E004A50446E456A4550000AD8B449EF70F0D4
:10E08E0054EF70F044504C0AD8B426EF70F0200ACA
:10E09E00D8B40DEF70F054EF70F0010E4B24446EB7
:10E0AE00000E4C20456E8D51D96EDA6A600013F168
:10E0BE00DEFF600017F1DDFF7EEF70F08CC03CF0EC
:10E0CE0046C03DF047C03EF048C03FF049C040F06A
:10E0DE0060002FF1F6FF600033F1F7FFF86A0800D9
:10E0EE006F00D4FF41F069EC7AF0B4EF70F060008D
:10E0FE002FF1F6FF600033F1F7FFF86A0800F550D4
:10E10E00446E456A4550000AD8B490EF70F097EF10
:10E11E0070F04450660AD8B465EF70F097EF70F067
:10E12E0000018D51D96EDA6ADE2A000EDD22B4EFBF
:10E13E0070F08D51D96EDA6A6F007BFFF6FF6F00BB
:10E14E0077FFF7FFF86A0800F550036E046A8CC07B
:10E15E0005F01FEC6AF097EF70F012003B0E176E91
:10E16E00340E186E000E1A6E0C0E196E680E99ECA7
:10E17E0066F0355034C032F0336A32C033F0326A52
:10E18E003210406E3350416E375036C032F0336A23
:10E19E0032C033F0326A3210426E3350436E395011
:10E1AE0038C032F0336A32C033F0326A3210446E05
:10E1BE003350456E3B503AC032F0336A32C033F0C2
:10E1CE00326A3210466E3350476E3D503CC032F0CC
:10E1DE00336A32C033F0326A3210486E3350496EB1
:10E1EE003F503EC032F0336A32C033F0326A3210E2
:10E1FE004A6E33504B6E40C001F041C002F0000E2B
:10E20E0002BEFF0E036E046E010E94EC6DF001C0A3
:10E21E000FF002C010F003C011F004C012F0000E97
:10E22E00136E000E146E800E156E460E166E1DECDD
:10E23E0072F02850D96EDA6A60003FF0DEFF60009F
:10E24E0043F0DEFF600047F0DEFF60004BF0DEFFC4
:10E25E0042C001F043C002F0000E02BEFF0E036E7C
:10E26E00046E010E94EC6DF001C00FF002C010F0C0
:10E27E0003C011F004C012F0000E136E000E146EE7
:10E28E00800E156E460E166E1DEC72F02950D96E6C
:10E29E00DA6A60003FF0DEFF600043F0DEFF6000F0
:10E2AE0047F0DEFF60004BF0DEFF44C001F045C0DA
:10E2BE0002F0000E02BEFF0E036E046E010E94EC11
:10E2CE006DF001C00FF002C010F003C011F004C0D9
:10E2DE0012F0000E136E000E146E800E156E460EAA
:10E2EE00166E1DEC72F06000ABF0D9FF6000AFF05F
:10E2FE00DAFF60003FF0DEFF600043F0DEFF6000FB
:10E30E0047F0DEFF60004BF0DEFF46C001F047C075
:10E31E0002F0000E02BEFF0E036E046E010E94ECB0
:10E32E006DF001C00FF002C010F003C011F004C078
:10E33E0012F0000E136E000E146E030E156E430EC9
:10E34E00166E1DEC72F06000B3F0D9FF6000B7F0EE
:10E35E00DAFF60003FF0DEFF600043F0DEFF60009A
:10E36E0047F0DEFF60004BF0DEFF48C001F049C011
:10E37E0002F0000E02BEFF0E036E046E010E94EC50
:10E38E006DF001C00FF002C010F003C011F004C018
:10E39E0012F0000E136E000E146E030E156E430E69
:10E3AE00166E1DEC72F06000BBF0D9FF6000BFF07E
:10E3BE00DAFF60003FF0DEFF600043F0DEFF60003A
:10E3CE0047F0DEFF60004BF0DEFF4AC001F04BC0AD
:10E3DE0002F0000E02BEFF0E036E046E010E94ECF0
:10E3EE006DF001C00FF002C010F003C011F004C0B8
:10E3FE0012F0000E136E000E146E030E156E430E09
:10E40E00166E1DEC72F06000C3F0D9FF6000C7F00D
:10E41E00DAFF60003FF0DEFF600043F0DEFF6000D9
:10E42E0047F0DEFF60004BF0DEFF12001250800B53
:10E43E001F6E12501224266E11AE28EF72F02AEFC4
:10E44E0072F02BEF72F026802650D8B431EF72F0B6
:10E45E0033EF72F048EF72F02628D8A439EF72F03D
:10E46E003BEF72F043EF72F0000E0F6E000E106E67
:10E47E00000E116E000E126E118E000E126E50EF07
:10E48E0072F0000E0F6E000E106E000E116E000E6A
:10E49E00126E1650800B1F1A16501624276E15AECC
:10E4AE005BEF72F05DEF72F05EEF72F02780275037
:10E4BE00D8B464EF72F066EF72F07BEF72F027283B
:10E4CE00D8A46CEF72F06EEF72F076EF72F0000E71
:10E4DE00136E000E146E000E156E000E166E158E57
:10E4EE00000E166E83EF72F0000E136E000E146E99
:10E4FE00000E156E000E166E135014101510161019
:10E50E00D8A48CEF72F08EEF72F0A6EF72F0000EC0
:10E51E000F6E000E106E000E116E000E126E800E3B
:10E52E0011127F0E12121F5012120FC00FF010C0D8
:10E53E0010F011C011F012C012F0E9EF73F0265076
:10E54E00D8A4ACEF72F0AEEF72F0B8EF72F0000E2E
:10E55E000F6E000E106E000E116E000E126EE9EFB1
:10E56E0073F0275026C017F0186A175E000E185A5F
:10E57E007F0E1724206E000E1820216E0FC01BF088
:10E58E0010C01CF011C01DF012C01EF0000E0F6E58
:10E59E00000E106E000E116E000E126E000E226E28
:10E5AE00000E236E000E246E000E256E000E276EDA
:10E5BE0019EF73F02750D8B4E7EF72F0E9EF72F06D
:10E5CE0000EF73F0D8901B361C361D361E36D890D1
:10E5DE000F3610361136123625AEF8EF72F0FAEF0E
:10E5EE0072F0FBEF72F00F80D8902236233624366D
:10E5FE00253613501B5C14501C5815501D581650C0
:10E60E001E58D8A00DEF73F00FEF73F018EF73F0E4
:10E61E00258C13501B5E14501C5A15501D5A165043
:10E62E001E5A272A190E27641FEF73F021EF73F07D
:10E63E00E1EF72F01B501C101D101E10D8B42AEF03
:10E64E0073F02CEF73F044EF73F0228044EF73F00D
:10E65E00D8900F3610361136123625AE39EF73F0CC
:10E66E003BEF73F03CEF73F00F80D89022362336D9
:10E67E00243625362006D8A0210611AE49EF73F0B8
:10E68E004BEF73F02FEF73F0000E276E25AE52EFA7
:10E69E0073F054EF73F078EF73F0FF0E2214176ED1
:10E6AE00FF0E2314186EFF0E2414196E7F0E251400
:10E6BE001A6E1750181019101A10D8B469EF73F09B
:10E6CE006BEF73F06FEF73F0010E276E78EF73F050
:10E6DE000FA074EF73F076EF73F078EF73F06BEFCB
:10E6EE0073F02750D8B47EEF73F080EF73F0A4EF81
:10E6FE0073F0010E0F26000E10221122122212A00C
:10E70E008BEF73F08DEF73F0A4EF73F00FC017F073
:10E71E0010C018F011C019F012C01AF01A341A32C3
:10E72E0019321832173217C00FF018C010F019C076
:10E73E0011F01AC012F0204A212A21BEAFEF73F059
:10E74E00215008E12028D8A0AFEF73F0B1EF73F09D
:10E75E00BCEF73F0000E216E2068000E0F6E000EDF
:10E76E00106E000E116E000E126E21BEC9EF73F008
:10E77E00215006E12004D8B0C7EF73F0C9EF73F053
:10E78E00D7EF73F0000E216E000E206E000E0F6E8E
:10E79E00000E106E000E116E000E126E000E1F6E29
:10E7AE0020C026F026A0DEEF73F0E0EF73F0E3EF6B
:10E7BE0073F0118EE4EF73F0119ED8902630126E26
:10E7CE009AEF72F0120012EC61F0BDEC60F0B80E30
:10E7DE00026EFF0E036E60EC66F0B10E016E0A0E55
:10E7EE00026E28EC66F0B10E076E7BEC6CF007C083
:10E7FE00EFF008C0F0F00001000EF0BFFF0EF16F59
:10E80E00F26FF2510DE1810EEF5D1A0EF059060E08
:10E81E00F159D8A015EF74F017EF74F026EF74F0DD
:10E82E007B0E026EFF0E036E60EC66F0800E000132
:10E83E00EF6F1A0EF06F060EF16F000EF26FE80E0C
:10E84E00016E030E026E000E036E000E046EEFC01C
:10E85E0005F0F0C006F0F1C007F0F2C008F0C4EC0D
:10E86E0068F001C0D3F002C0D4F003C0D5F004C0EC
:10E87E00D6F0F30E286EF70E296EC80E2A6E010E14
:10E88E002B6ECC0E2C6E010E2D6ED00E2E6E010E3A
:10E89E002F6E5A0E306E020E316EB5EC70F0BB0E4E
:10E8AE00016E026AF30E036E046A000E066E040E0B
:10E8BE00056EC5EC64F0BF0E016E026AF70E036EB4
:10E8CE00046A000E066E040E056EC5EC64F0C30EEF
:10E8DE00016E026AC80E036E010E046E000E066E05
:10E8EE00040E056EC5EC64F0C70E016E026ACC0E06
:10E8FE00036E010E046E000E066E040E056EC5EC60
:10E90E0064F0CB0E016E026AD00E036E010E046E21
:10E91E00000E066E040E056EC5EC64F0CF0E016E91
:10E92E00026A5A0E036E020E046E000E066E040E7E
:10E93E00056EC5EC64F0FEC123F0FFC124F0BB0EE2
:10E94E00256E0C0E266E500EE8EC62F0FEC121F024
:10E95E00FFC122F0BB0E236E0C0E246E500E27EC60
:10E96E0063F0D70E016E026ABB0E036E046A000ED0
:10E97E00066E040E056EC5EC64F0DB0E016E026AC7
:10E98E00BF0E036E046A000E066E040E056EC5EC15
:10E99E0064F0DF0E016E026AC30E036E046A000E8F
:10E9AE00066E040E056EC5EC64F0FCC123F0FDC1CD
:10E9BE0024F0C70E256E0C0E266E510EE8EC62F09A
:10E9CE00FCC121F0FDC122F0C70E236E0C0E246E89
:10E9DE00510E27EC63F0E30E016E026AC70E036E52
:10E9EE00046A000E066E040E056EC5EC64F0E70EAA
:10E9FE00016E026ACB0E036E046A000E066E040EE2
:10EA0E00056EC5EC64F0EB0E016E026ACF0E036E5E
:10EA1E00046A000E066E040E056EC5EC64F0010E5F
:10EA2E000101FE250001AF6F000E0101FF21000163
:10EA3E00B06FAFC001F0B0C002F0036A046A550EA9
:10EA4E00056E050E066E000E076E000E086E81EC4A
:10EA5E006AF001C0FEF102C0FFF1010E0101FC25BA
:10EA6E000001AF6F000E0101FD210001B06FAFC0BC
:10EA7E0001F0B0C002F0036A046A550E056E050E71
:10EA8E00066E000E076E000E086E81EC6AF001C075
:10EA9E00FCF102C0FDF1000E0001936F010E946FA8
:10EAAE00340E956FFF0E966FF3C097F0F4C098F08A
:10EABE00F5C099F0F6C09AF0F7C09BF0F8C09CF044
:10EACE00F9C09DF0FAC09EF0C8C19FF0C9C1A0F078
:10EADE00CAC1A1F0CBC1A2F0CCC1A3F0CDC1A4F0AC
:10EAEE00CEC1A5F0CFC1A6F0D0C1A7F0D1C1A8F07C
:10EAFE00D2C1A9F0D3C1AAF05AC2ABF05BC2ACF03E
:10EB0E005CC2ADF05DC2AEF08CEC63F0000E026E36
:10EB1E00010E036E60EC66F0000E0001936F010EA5
:10EB2E00946FED0E956FFE0E966FD7C097F0D8C00E
:10EB3E0098F0D9C099F0DAC09AF0DBC09BF0DCC037
:10EB4E009CF0DDC09DF0DEC09EF0DFC09FF0E0C007
:10EB5E00A0F0E1C0A1F0E2C0A2F0E3C0A3F0E4C0D7
:10EB6E00A4F0E5C0A5F0E6C0A6F0E7C0A7F0E8C0A7
:10EB7E00A8F0E9C0A9F0EAC0AAF0EBC0ABF0ECC077
:10EB8E00ACF0EDC0ADF0EEC0AEF08CEC63F0000E6C
:10EB9E00026E010E036E60EC66F0D3C001F0D4C0BD
:10EBAE0002F0D5C003F0D6C004F0CBEC62F040EF1B
:10EBBE0074F0FEEF7FF00450800B0D6E04500424B1
:10EBCE00136E03AEEDEF75F0EFEF75F0F0EF75F03D
:10EBDE0013801350D8B4F6EF75F0F8EF75F00BEF15
:10EBEE0076F01328D8A4FEEF75F000EF76F008EF5C
:10EBFE0076F0000E016E000E026E000E036E000E19
:10EC0E00046E038E13EF76F0000E016E000E026E90
:10EC1E00000E036E000E046E0850800B0D1A085085
:10EC2E0008240E6E07AE1EEF76F020EF76F021EF81
:10EC3E0076F00E800E50D8B427EF76F029EF76F0EE
:10EC4E003CEF76F00E28D8A42FEF76F031EF76F069
:10EC5E0039EF76F0000E056E000E066E000E076E92
:10EC6E00000E086E078E44EF76F0000E056E000E55
:10EC7E00066E000E076E000E086E0E50D8B44AEFE8
:10EC8E0076F04CEF76F054EF76F01350D8A452EFA6
:10EC9E0076F054EF76F05EEF76F0000E016E000E19
:10ECAE00026E000E036E000E046E08EF78F0075031
:10ECBE0001026F00CCFF18F06F00D0FF19F0185052
:10ECCE000F6E106A116A126A1950146E156A166A5E
:10ECDE00176A065002026F00CCFF18F06F00D0FFCB
:10ECEE0019F018500F26000E102211221222195060
:10ECFE001426000E152216221722055003026F004D
:10ED0E00CCFF18F06F00D0FF19F018500F26000E30
:10ED1E0010221122122219501426000E152216222C
:10ED2E00172211C012F010C011F00FC010F00F6AB0
:10ED3E00055002026F00CCFF18F06F00D0FF19F0E3
:10ED4E0018500F2619501022000E1122000E1222FA
:10ED5E00065001026F00CCFF18F06F00D0FF19F0C3
:10ED6E0018500F2619501022000E1122000E1222DA
:10ED7E0011C012F010C011F00FC010F00F6A055044
:10ED8E0001026F00CCFF18F06F00D0FF19F0185081
:10ED9E000F2619501022000E1122000E12220750BB
:10EDAE0002026F00CCFF18F06F00D0FF19F0185060
:10EDBE00142619501522000E1622000E1722065088
:10EDCE0003026F00CCFF18F06F00D0FF19F018503F
:10EDDE00142619501522000E1622000E1722075067
:10EDEE0003026F00CCFF18F06F00D0FF19F018501F
:10EDFE00096E19500A6E0B6A0C6A0BC00CF00AC031
:10EE0E000BF009C00AF0096A095014260A5015229F
:10EE1E000B5016220C5017220FC009F010C00AF02A
:10EE2E0011C00BF012C00CF0190E23EF77F0D89032
:10EE3E000C320B320A320932E82E1EEF77F00950EF
:10EE4E0014260A5015220B5016220C50172211C0F0
:10EE5E0012F010C011F00FC010F00F6A0E5013C058
:10EE6E0009F00A6A0926000E0A22820E0924186E7B
:10EE7E00FF0E0A20196E59EF77F0D890143615361A
:10EE8E001636173612AE4EEF77F050EF77F051EF91
:10EE9E0077F01480D8900F361036113612361806C9
:10EEAE00D8A0190616AE5EEF77F060EF77F044EF5C
:10EEBE0077F0000E0E6E12AE67EF77F069EF77F017
:10EECE008DEF77F0FF0E0F14096EFF0E10140A6E01
:10EEDE00FF0E11140B6E7F0E12140C6E09500A10D9
:10EEEE000B100C10D8B47EEF77F080EF77F084EF34
:10EEFE0077F0010E0E6E8DEF77F014A089EF77F09C
:10EF0E008BEF77F08DEF77F080EF77F00E50D8B46F
:10EF1E0093EF77F095EF77F0B9EF77F0010E1426B7
:10EF2E00000E15221622172217A0A0EF77F0A2EFDF
:10EF3E0077F0B9EF77F014C009F015C00AF016C0DB
:10EF4E000BF017C00CF00C340C320B320A320932B3
:10EF5E0009C014F00AC015F00BC016F00CC017F063
:10EF6E00184A192A19BEC4EF77F0195008E118286B
:10EF7E00D8A0C4EF77F0C6EF77F0D0EF77F0000EA1
:10EF8E00146E000E156E800E166E7F0E176EFEEF4F
:10EF9E0077F019BEDDEF77F0195006E11804D8B0FE
:10EFAE00DBEF77F0DDEF77F0E9EF77F0000E146E20
:10EFBE00000E156E000E166E000E176E000E0D6E04
:10EFCE00FEEF77F018C013F0FF0E1416FF0E151695
:10EFDE007F0E1616000E171613A0F8EF77F0FAEF45
:10EFEE0077F0FBEF77F0168ED8901330176E0D502A
:10EFFE00171214C001F015C002F016C003F017C0AE
:10F00E0004F012000450800B0D6E045004240F6E99
:10F01E0003AE14EF78F016EF78F017EF78F00F805C
:10F02E000F50D8B41DEF78F01FEF78F034EF78F072
:10F03E000F28D8A425EF78F027EF78F02FEF78F08F
:10F04E00000E016E000E026E000E036E000E046EB8
:10F05E00038E000E046E3CEF78F0000E016E000E73
:10F06E00026E000E036E000E046E0850800B0E6EC4
:10F07E000D500E18D8B446EF78F048EF78F049EFFF
:10F08E0078F00D8C085008240E6E07AE51EF78F014
:10F09E0053EF78F054EF78F00E800E50D8B45AEF4C
:10F0AE0078F05CEF78F071EF78F00E28D8A462EF6C
:10F0BE0078F064EF78F06CEF78F0000E056E000ECD
:10F0CE00066E000E076E000E086E078E000E086E9E
:10F0DE0079EF78F0000E056E000E066E000E076ECC
:10F0EE00000E086E0F500E5CD8B080EF78F082EFF5
:10F0FE0078F0A9EF78F00DAC87EF78F089EF78F023
:10F10E008BEF78F0800E0D1A0FC010F00EC00FF0BE
:10F11E0010C00EF001C010F005C001F010C005F0D7
:10F12E0002C010F006C002F010C006F003C010F0CE
:10F13E0007C003F010C007F004C010F008C004F0C0
:10F14E0010C008F0000E106E0F500EC009F00A6AC3
:10F15E00095E000E0A5A0ABEBEEF78F00A5009E1A7
:10F16E001A0E095CD8A0BEEF78F0C0EF78F0F7EF7A
:10F17E0078F00150021003100410D8A4C9EF78F0F3
:10F18E00CCEF78F0010ECDEF78F0000E106E000E81
:10F19E00016E000E026E000E036E000E046E0EC0A7
:10F1AE000FF000EF79F010A0DFEF78F0E1EF78F0DC
:10F1BE00E7EF78F0D89010300109106EE9EF78F093
:10F1CE00D890103201A0EEEF78F0F0EF78F0F1EF7A
:10F1DE0078F0108E043404320332023201320F2AD8
:10F1EE000E500F5CD8A0FEEF78F000EF79F0DAEF5A
:10F1FE0078F00DBC05EF79F007EF79F047EF79F075
:10F20E000F50D8A40DEF79F00FEF79F019EF79F0D8
:10F21E00000E016E000E026E000E036E000E046EE6
:10F22E0068EF7AF00550012606500222075003229D
:10F23E000850042204A026EF79F028EF79F0D4EFDD
:10F24E0079F010A02DEF79F02FEF79F035EF79F0FE
:10F25E00D89010300109106E37EF79F0D890103237
:10F26E0001A03CEF79F03EEF79F03FEF79F0108E90
:10F27E00043404320332023201320F2AD4EF79F011
:10F28E000550015C06500258075003580450800A7E
:10F29E00096E0850800A0958D8B058EF79F05AEF25
:10F2AE0079F085EF79F00150055C096E0250065831
:10F2BE000A6E035007580B6E045008580C6EFF0E62
:10F2CE000924016EFF0E0A20026EFF0E0B20036E44
:10F2DE00FF0E0C20046E800E0D1A106C1050D8A468
:10F2EE007BEF79F07DEF79F08DEF79F0010E01264D
:10F2FE00000E0222032204228DEF79F00550015EEA
:10F30E000650025A0750035A0850045A0150021070
:10F31E0003100410D8A496EF79F098EF79F0CDEFA2
:10F32E0079F01050D8A49EEF79F0A0EF79F0CDEFE0
:10F33E0079F0000E016E000E026E000E036E000ECE
:10F34E00046E68EF7AF0D890013602360336043632
:10F35E0010AEB4EF79F0B6EF79F0B7EF79F0018037
:10F36E0010A0BCEF79F0BEEF79F0C2EF79F0D88043
:10F37E001036C4EF79F0D89010360F50D8B4CAEFCB
:10F38E0079F0CCEF79F0CDEF79F00F0603AED2EF36
:10F39E0079F0D4EF79F0AAEF79F0000E0E6E10AE80
:10F3AE00DBEF79F0DDEF79F0F5EF79F010C009F0D1
:10F3BE007F0E0916D8B4E6EF79F0E8EF79F0ECEFAE
:10F3CE0079F0010E0E6EF5EF79F001A0F1EF79F004
:10F3DE00F3EF79F0F5EF79F0E8EF79F00E50D8B45D
:10F3EE00FBEF79F0FDEF79F028EF7AF0010E0126B0
:10F3FE00000E02220322042204A008EF7AF00AEF84
:10F40E007AF028EF7AF001C009F002C00AF003C0CA
:10F41E000BF004C00CF00C340C320B320A320932F1
:10F42E0009C001F00AC002F00BC003F00CC004F0DA
:10F43E000F28D8B425EF7AF027EF7AF028EF7AF07C
:10F44E000F2A0F28D8B42EEF7AF030EF7AF038EF7B
:10F45E007AF00F50D8A436EF7AF038EF7AF04AEF00
:10F46E007AF0000E016E000E026E000E036E000E9C
:10F47E00046E0F50D8A446EF7AF048EF7AF04AEFB8
:10F48E007AF0000E0D6E0FA04FEF7AF051EF7AF07A
:10F49E0054EF7AF0038E55EF7AF0039ED8900F302A
:10F4AE00046E0DAE5DEF7AF05FEF7AF060EF7AF0FA
:10F4BE00048E01C001F002C002F003C003F004C0CC
:10F4CE0004F01200000E0001816F3DC082F03EC0BC
:10F4DE0083F03FC084F040C085F085BF7BEF7AF0AB
:10F4EE0079EF7AF08FEF7AF0010E816F82C001F022
:10F4FE0083C002F084C003F085C004F0AFEC62F06C
:10F50E0001C082F002C083F003C084F004C085F015
:10F51E00000E0001876F000E866FFBC071F0FCC0FD
:10F52E0072F08151D8B49EEF7AF0A0EF7AF0B4EF7A
:10F53E007AF08151D8A4A6EF7AF0A8EF7AF0AEEF68
:10F54E007AF0000E676F2B0E666FB2EF7AF0000E38
:10F55E00676F2D0E666F66C081F082C001F083C0AA
:10F56E0002F084C003F085C004F0F7EC6AF00104E9
:10F57E000210D8A4C5EF7AF0C7EF7AF0F8EF7AF060
:10F58E0000018151D8B4CEEF7AF0D0EF7AF0D9EFF6
:10F59E007AF081C004F27107D8A07207000E876F4F
:10F5AE00010E866F040E8625016E020E8721026EF5
:10F5BE00F20E036EFF0E046E6AEC63F00001FD0E98
:10F5CE007127FF0E72233CC011F0040E126E020E54
:10F5DE00136E71C014F072C015F020EC65F062EF7E
:10F5EE007FF082C001F083C002F084C003F085C0BA
:10F5FE0004F0F7EC6AF001500210D8A409EF7BF08A
:10F60E000BEF7BF02BEF7BF000018151D8B412EFA2
:10F61E007BF014EF7BF01DEF7BF081C004F27107DD
:10F62E00D8A07207000E876F010E866F040E862516
:10F63E00016E020E8721026EF60E036EFF0E046E31
:10F64E006AEC63F0E5EF7AF0000E0001886F000EB1
:10F65E00896F800E8A6F3F0E8B6F000E706F000EDB
:10F66E006F6F82C001F083C002F084C003F085C0CA
:10F67E0004F0000E056E000E066E000E076E000EF4
:10F68E00086E6BEC69F0D8B04FEF7BF051EF7BF06A
:10F69E0030EF7CF05EEF7BF073C088F074C089F0C1
:10F6AE0075C08AF076C08BF000016F4B702B88C04E
:10F6BE0001F089C002F08AC003F08BC004F0000E86
:10F6CE00056E000E066E200E076E410E086EE2EC01
:10F6DE0075F001C073F002C074F003C075F004C081
:10F6EE0076F000017351825D016E74518359026E82
:10F6FE0075518459036E76518559046E6EEC64F023
:10F70E0004BE95EF7BF004500310021009E1020EC7
:10F71E00015CD8A095EF7BF097EF7BF053EF7BF079
:10F72E0073C01AF074C01BF075C01CF076C01DF0CB
:10F73E0082C01EF083C01FF084C020F085C021F06F
:10F74E0076EC6BF0D8A0AEEF7BF0B0EF7BF053EF22
:10F75E007BF000018851825D016E89518359026EE2
:10F76E008A518459036E8B518559046E6EEC64F088
:10F77E0004BECFEF7BF004500310021007E1020E1F
:10F78E00015CD8B0CDEF7BF0CFEF7BF017EF7CF0C4
:10F79E0088C082F089C083F08AC084F08BC085F067
:10F7AE0030EF7CF088C00FF089C010F08AC011F0E5
:10F7BE008BC012F0000E136E000E146E200E156E1E
:10F7CE00410E166E1DEC72F00FC088F010C089F05D
:10F7DE0011C08AF012C08BF000016F07D8A070071D
:10F7EE008851825D016E89518359026E8A51845906
:10F7FE00036E8B518559046E6EEC64F004BE15EFEA
:10F80E007CF004500310021007E1020E015CD8B028
:10F81E0013EF7CF015EF7CF017EF7CF0CFEF7BF061
:10F82E0082C01AF083C01BF084C01CF085C01DF08E
:10F83E0088C01EF089C01FF08AC020F08BC021F056
:10F84E0076EC6BF0D8A02EEF7CF030EF7CF0D9EF99
:10F85E007BF041C069F069C06AF05DBE39EF7CF0A3
:10F86E003BEF7CF041EF7CF05CC062F05DC063F07A
:10F87E0046EF7CF0000E0001636F060E626F62C0F1
:10F88E006DF063C06EF000016D4B6E2B660E6A1943
:10F89E00D8A454EF7CF056EF7CF076EF7CF070BF7E
:10F8AE005DEF7CF05BEF7CF069EF7CF0000E886F13
:10F8BE00000E896F800E8A6F3F0E8B6F000E706F79
:10F8CE00000E6F6F670E6919D8B470EF7CF072EF8F
:10F8DE007CF076EF7CF06F516D2770516E23000E29
:10F8EE00786F000E776F82C079F083C07AF084C093
:10F8FE007BF085C07CF088C073F089C074F08AC03C
:10F90E0075F08BC076F007EF7DF079C00FF07AC0FE
:10F91E0010F07BC011F07CC012F088C013F089C0CB
:10F92E0014F08AC015F08BC016F01DEC72F00FC0EB
:10F93E0028F010C029F011C02AF012C02BF06EEC86
:10F94E006EF028C07DF029C07EF02AC07FF02BC05B
:10F95E0080F07DC001F07EC002F07FC003F080C059
:10F96E0004F0F8EC6BF001C06BF002C06CF079C0E3
:10F97E001AF07AC01BF07BC01CF07CC01DF07DC05D
:10F98E0005F07EC006F07FC007F080C008F088C08A
:10F99E0001F089C002F08AC003F08BC004F0E2ECE3
:10F9AE0075F001C01EF002C01FF003C020F004C0AD
:10F9BE0021F0AEEC63F01AC079F01BC07AF01CC0D7
:10F9CE007BF01DC07CF088C00FF089C010F08AC09B
:10F9DE0011F08BC012F0000E136E000E146E200E7E
:10F9EE00156E410E166E1DEC72F00FC088F010C031
:10F9FE0089F011C08AF012C08BF00001774B782B82
:10FA0E006D51775D7851800A426E6E51800A425870
:10FA1E00D8A014EF7DF016EF7DF08CEF7CF088C04F
:10FA2E0001F089C002F08AC003F08BC004F0000E12
:10FA3E00056E000E066EA00E076E400E086EE2EC0E
:10FA4E0075F001C07DF002C07EF003C07FF004C0EF
:10FA5E0080F079C01AF07AC01BF07BC01CF07CC01D
:10FA6E001DF07DC01EF07EC01FF07FC020F080C054
:10FA7E0021F076EC6BF0D8B047EF7DF049EF7DF0DA
:10FA8E0054EF7DF0000E00017D6F000E7E6F000EB4
:10FA9E007F6F000E806F7DEF7DF079C001F07AC030
:10FAAE0002F07BC003F07CC004F07DC005F07EC088
:10FABE0006F07FC007F080C008F06BEC69F0D8A0AC
:10FACE006BEF7DF06DEF7DF07DEF7DF000016BB1A2
:10FADE0073EF7DF075EF7DF07DEF7DF0000E7D6FA5
:10FAEE00000E7E6F000E7F6F000E806F82C001F0E1
:10FAFE0083C002F084C003F085C004F07DC005F021
:10FB0E007EC006F07FC007F080C008F009EC78F0E8
:10FB1E0001C079F002C07AF003C07BF004C07CF023
:10FB2E0079C01AF07AC01BF07BC01CF07CC01DF0AF
:10FB3E00000E056E000E066E200E076E410E086E4C
:10FB4E0073C001F074C002F075C003F076C004F00B
:10FB5E00E2EC75F001C01EF002C01FF003C020F0F1
:10FB6E0004C021F076EC6BF0D8A0C0EF7DF0C2EFB0
:10FB7E007DF0EBEF7DF000016F4B702B73C001F049
:10FB8E0074C002F075C003F076C004F0000E056E6E
:10FB9E00000E066E200E076E410E086EE2EC75F03A
:10FBAE0001C073F002C074F003C075F004C076F0AB
:10FBBE00660E00016A19D8A4E7EF7DF0E9EF7DF03B
:10FBCE00EBEF7DF06D4B6E2B73C088F074C089F037
:10FBDE0075C08AF076C08BF06FC060F070C061F0B7
:10FBEE00000E0001686F000E656F000E646F000E50
:10FBFE00786F000E776FE9EF7EF079C00FF07AC064
:10FC0E0010F07BC011F07CC012F088C013F089C0D8
:10FC1E0014F08AC015F08BC016F01DEC72F00FC0F8
:10FC2E0028F010C029F011C02AF012C02BF06EEC93
:10FC3E006EF028C07DF029C07EF02AC07FF02BC068
:10FC4E0080F07DC001F07EC002F07FC003F080C066
:10FC5E0004F0F8EC6BF002BE40EF7EF0025007E1CC
:10FC6E000A0E015CD8B03EEF7EF040EF7EF050EF12
:10FC7E007EF07DC001F07EC002F07FC003F080C038
:10FC8E0004F0F8EC6BF001C06BF002C06CF055EFB5
:10FC9E007EF0000E00016C6F090E6B6F0001685153
:10FCAE00D8A45CEF7EF05EEF7EF086EF7EF061BF53
:10FCBE0065EF7EF063EF7EF086EF7EF0040E862514
:10FCCE00D96E020E8721DA6E2E0EDF6E864B872BD3
:10FCDE007107D8A07207010E686F86EF7EF0040ED2
:10FCEE008625D96E020E8721DA6E300EDF6E864BB8
:10FCFE00872B7107D8A072076407D8A065076451D7
:10FD0E006511D8A48DEF7EF08FEF7EF076EF7EF04A
:10FD1E00040E8625D96E020E8721DA6E6B51300FD6
:10FD2E00DF6E864B872B7107D8A0720779C01AF049
:10FD3E007AC01BF07BC01CF07CC01DF07DC005F0AE
:10FD4E007EC006F07FC007F080C008F088C001F0CA
:10FD5E0089C002F08AC003F08BC004F0E2EC75F0AB
:10FD6E0001C01EF002C01FF003C020F004C021F03D
:10FD7E00AEEC63F01AC079F01BC07AF01CC07BF0B9
:10FD8E001DC07CF088C00FF089C010F08AC011F041
:10FD9E008BC012F0000E136E000E146E200E156E38
:10FDAE00410E166E1DEC72F00FC088F010C089F077
:10FDBE0011C08AF012C08BF000016007D8A0610755
:10FDCE00774B782B6D51775D7851800A426E6E516C
:10FDDE00800A4258D8B0F6EF7EF0F8EF7EF006EFCC
:10FDEE007FF087BF04EF7FF0875109E14B0E865DF0
:10FDFE00D8A004EF7FF006EF7FF004EF7EF0000E48
:10FE0E00786F4F0E776F040E7725D96E020E78211C
:10FE1E00DA6EDF6A040E426E020E436E8651425E49
:10FE2E008751435A77514224016E78514320026E16
:10FE3E00040E036E020E046E86C005F087C006F037
:10FE4E00C5EC64F000018651775D866F8751785955
:10FE5E00876F8151D8A436EF7FF039EF7FF0010E16
:10FE6E003AEF7FF0000E776F786B8151D8B442EF86
:10FE7E007FF044EF7FF050EF7FF08607D8A0870722
:10FE8E00040E8625D96E020E8721DA6E600007F207
:10FE9E00DFFF7751715F7851725B3CC011F0040E39
:10FEAE008625126E020E8721136E71C014F072C079
:10FEBE0015F020EC65F012000032C19CC40EC20693
:10FECE00DA48D022CEE6D03EC16CC070C042C3C06C
:10FEDE00C0B8C04CC1C8C05AC1A6CAE0CB6AC15F87
:10FEEE005F5F5F52656164202D2041583A20252EB8
:10FEFE0032662C2041593A20252E32662C20415A4A
:10FF0E003A20252E32662C2047583A20252E32666E
:10FF1E002C2047593A20252E32662C20475A3A205B
:10FF2E00252E32660A004F726967696E616C202D4C
:10FF3E002041583A20252E32662C2041593A202550
:10FF4E002E32662C20415A3A20252E32662C20471E
:10FF5E00583A20252E32662C2047593A20252E322B
:10FF6E00662C20475A3A20252E32660A00467265C4
:10FF7E006375656E63696120696E6772657361642E
:10FF8E0061206573206D757920616C74612E20532C
:10FF9E00652065737461626C656365726120656E60
:10FFAE00203430306B487A2E0A00496E67726573C2
:10FFBE0065206C61206672656375656E636961208C
:10FFCE006465206D7565737472656F20286D617838
:10FFDE00203430306B487A203D2034303030303091
:0DFFEE00293A2000696E66006E616E000009
:04FFFC0038EF62F088
:020000040030CA
:0A000000FAFFF7FF9FFFFFFFFFFF6D
:00000001FF
