:04000000FEEF7FF0A0
:10100000006C21B61EEE20E013F016161854162CB4
:1010100021042200220A1FAC21B4211E21A4211088
:1010200021B61A7219022150726F6772616D6120C8
:10103000736967756520636F727269656E646F2E80
:101040002E2E0A0A0A004461746F20457363726988
:10105000746F20656E206C6120454550524F4D20C5
:10106000310A004461746F204573637269746F20A4
:10107000656E206C6120454550524F4D20320A006C
:1010800045736372697475726120312066616C6C9E
:101090006964612E0A004573637269747572612018
:1010A000322066616C6C6964612E0A00457363725C
:1010B0006974757261203120657869746F73612E6F
:1010C0000A00457363726974757261203220657815
:1010D00069746F73612E0A004461746F2031206C53
:1010E0006569646F3A2025580A004461746F2032A4
:0D10F000206C6569646F3A2025580A0000E5
:1010FE000C50D96EDA6A6F007FFFF6FF100EF76E96
:10110E00F86A0800F550250AD8A490EF08F092EF7F
:10111E0008F036EF09F00C50D96EDA6ADF2A000EAD
:10112E00536E000E526E52C056F0546855680C50F5
:10113E00D96EDA6ADF50156E600057F0F6FF100EAA
:10114E00F76EF86A0800F550580AD8A4B1EF08F007
:10115E00B3EF08F030EF09F00D50D96EDA6A020ED7
:10116E00DF26DF5CD96EDA6A6F0078FF10F06F0051
:10117E0078FF11F00C50D96EDA6A1528DF6E18EF71
:10118E0009F0200E166E10500F0B146E0A0E14601E
:10119E00D3EF08F0D5EF08F0D9EF08F0300E142693
:1011AE00DBEF08F0370E142616061650C60FD96E52
:1011BE00DA6A600053F0DFFF103A113A0F0E101684
:1011CE001150F00B10120F0E111610501110D8B442
:1011DE00F3EF08F0F5EF08F00DEF09F01650D8A474
:1011EE00FBEF08F0FDEF08F0CAEF08F00DEF09F085
:1011FE001650C60FD96EDA6ADF500E6E0E50036EA1
:10120E00046A0BC005F07FEC0AF0162A200E1618A1
:10121E00D8A414EF09F016EF09F0FFEF08F049EF2C
:10122E0009F0600057F0F6FF100EF76EF86A08002E
:10123E00F5500E6E0F6A0F50000AD8B429EF09F060
:10124E0030EF09F00E50580AD8B4C8EF08F030EF5E
:10125E0009F00C50D96EDA6ADF2A49EF09F00C500A
:10126E00D96EDA6A6F007FFFF6FF100EF76EF86A1E
:10127E000800F550036E046A0BC005F07FEC0AF00F
:10128E0030EF09F012002AEC10F0000E1D6E100E59
:10129E001C6EA50E1E6E500ED4EC0EF0460E026E97
:1012AE000250D8A4100E036E47EC0CF0000E1D6E0B
:1012BE00100E1C6E500E9FEC0EF00001C46FA50EAA
:1012CE00C419D8A46DEF09F06FEF09F079EF09F0AA
:1012DE00AC0E026E0250D8A4100E036E47EC0CF04A
:1012EE0081EF09F0800E026E0250D8A4100E036E2C
:1012FE0047EC0CF0600E1B6ED80E1C6EC4C01DF0B9
:10130E001E6ABAEC0EF0600E026E036A47EC0CF029
:10131E00820E2C6EDE0EE82EFED72C2EFCD7000E83
:10132E001D6E100E1C6EB60E1E6E540ED4EC0EF00C
:10133E00630E026E0250D8A4100E036E47EC0CF032
:10134E00000E1D6E100E1C6E540E9FEC0EF0000162
:10135E00C56FB60EC519D8A4B7EF09F0B9EF09F0ED
:10136E00C3EF09F0C20E026E0250D8A4100E036E27
:10137E0047EC0CF0CBEF09F0960E026E0250D8A49B
:10138E00100E036E47EC0CF0920E1B6EEA0E1C6EE6
:10139E00C5C01DF01E6ABAEC0EF0920E026E036A04
:1013AE0047EC0CF0270E026E0250D8A4100E036EFE
:1013BE0047EC0CF00B0E2D6E260E2C6E5E0EE82EEC
:1013CE00FED72C2EFCD72D2EFAD74CEF09F0FEEFC0
:1013DE007FF040EC10F00009D8B4F8EF09F0FAEF06
:1013EE0009F033EF0AF007EF0AF096EC10F07EEFFB
:1013FE000AF002EC11F07EEF0AF0000E7EEF0AF01A
:10140E0040C00AF041C00BF002D817EF0AF00500F9
:10141E00FA6E3450FD6E3550FE6EFF6AFA501200B1
:10142E000D6E0E6A0E50000AD8B420EF0AF004EFCB
:10143E000AF00D50010AD8B404EF0AF0030AD8B42A
:10144E00FCEF09F0010AD8B400EF0AF0070AD8B48D
:10145E0004EF0AF004EF0AF035EC10F00009D8B4EE
:10146E003BEF0AF03DEF0AF07DEF0AF05150030B0F
:10147E000009D8B445EF0AF047EF0AF053EF0AF02F
:10148E00010E0D6E5150030B0E6E0D500E5E51502F
:10149E000E18FC0B0E18516E60002FF1D9FF600074
:1014AE0033F1DAFFDF50116E4B4A4C2A4D06D8A0AD
:1014BE004E064D504E10D8A467EF0AF069EF0AF0B1
:1014CE0071EF0AF00BEC0CF00D6E0D500F6E106AF2
:1014DE0075EF0AF0000E106E030E0F6E0FC012F0B5
:1014EE001150BBEC10F012507EEF0AF0030E1200FA
:1014FE000550D8B485EF0AF087EF0AF08FEF0AF0A7
:10150E000550D8A48DEF0AF08FEF0AF094EF0AF091
:10151E000350A2EC10F0D4EF0AF00550D96EDA6A3F
:10152E000A0ED926DE50DE10D8B4A0EF0AF0A2EFD4
:10153E000AF0BBEF0AF00550D96EDA6A0A0ED92608
:10154E000550E16EE26A030EE126DE50E65CE650DF
:10155E00800A0A6EDE50800A0A58D8B0B9EF0AF037
:10156E00BBEF0AF0D4EF0AF00550D96EDA6A030E1B
:10157E00D926DF50066E0550D96EDA6ADF50062482
:10158E00D96EDA6A60000FF0DFFF0550D96EDA6AA5
:10159E00030ED926DE2A000EDD221200000EBE6ECC
:1015AE00000EBD6E000EBA6E000EBB6E000EBC6E4F
:1015BE00070EC66EC268F90EC36EBF0EC46EFC0E69
:1015CE00C56E3A0170697F0E606FF90E506F070E8F
:1015DE00806F4069000E716F000E816F000E516FAB
:1015EE00000E416F000E616F000E5A6F000E5B6FA2
:1015FE00000E6A6F000E6B6F000E7A6F000E7B6F1F
:10160E00000E826F000E426F260E526F180E626F22
:10161E00000E726F4369536963697369070E836FB6
:10162E0044695469646974690F0E846F0A0EE26F1F
:10163E00210E096F220E0A6F130E166F170EE56F2D
:10164E00090EE16F120051884BEF0BF0F1EC10F028
:10165E00080E77EF0BF0F1EC10F0070E77EF0BF0B2
:10166E004D28C0EC10F0040E77EF0BF0070E4F185C
:10167E00D8B444EF0BF046EF0BF048EF0BF0F4EC60
:10168E0010F00F0E77EF0BF03AC00AF03BC00BF0E4
:10169E0002D85BEF0BF00500FA6E2E50FD6E2F5048
:1016AE00FE6EFF6AFA5012000D6E0E6A0E50000AA0
:1016BE00D8B464EF0BF03DEF0BF00D50010AD8B427
:1016CE003DEF0BF0030AD8B432EF0BF0010AD8B499
:1016DE002DEF0BF0070AD8B437EF0BF03DEF0BF000
:1016EE0012004BEC10F00009D8A480EF0BF082EF43
:1016FE000BF085EF0BF0040EC3EF0BF05150030B04
:10170E000009D8B48DEF0BF08FEF0BF09BEF0BF0C1
:10171E00010E0F6E5150030B106E0F50105E515094
:10172E001018FC0B1018516E4D06D8A04E064D50D9
:10173E004E10D8B4A5EF0BF0A7EF0BF0B4EF0BF0F3
:10174E00EEEC10F060002FF1D9FF600033F1DAFFFC
:10175E00DF6E4B4A4C2A82EF0BF02AEC0BF0116E27
:10176E00EEEC10F060002FF1D9FF600033F1DAFFDC
:10177E00DF6E4B4A4C2A11501200016E010E026EA2
:10178E0051B6CCEF0BF0CEEF0BF009EF0CF001C021
:10179E004AF051945186FC0E51160F0E4F6E010EEB
:1017AE00496EF40E486E51880C0E2E6E220E2F6E60
:1017BE00000E3A6E000E3B6E0C0E306E220E316E27
:1017CE00000E3C6E000E3D6E0C0E326E220E336E0F
:1017DE00000E3E6E000E3F6E0C0E346E220E356EF7
:1017EE00000E406E000E416E080E366E220E376EE3
:1017FE00000E426E000E436EDEEC10F0ECEC0EF0BE
:10180E00000E026E0250120051881EEF0CF0F1EC29
:10181E0010F0070E46EF0CF04D28C0EC10F0030E42
:10182E0046EF0CF0F4EC10F00A0E46EF0CF03AC056
:10183E000AF03BC00BF002D82EEF0CF00500FA6E4A
:10184E002E50FD6E2F50FE6EFF6AFA5012000D6E76
:10185E000E6A0E50000AD8B437EF0CF019EF0CF0E8
:10186E000D50010AD8B419EF0CF0030AD8B40EEFDC
:10187E000CF0060AD8B413EF0CF019EF0CF01200AE
:10188E0062EF0CF060000BF0F6FF60000FF0F7FF58
:10189E00000EF86E0F0EF76403D00800F55007D057
:1018AE006F00DBFFE9FF6F00DFFFEAFFEF50F9EC9F
:1018BE000FF0024A032A60000BF0F6FF60000FF0F3
:1018CE00F7FF000EF86E0F0EF76403D00800F55008
:1018DE0007D06F00DBFFE9FF6F00DFFFEAFFEF507D
:1018EE000009D8A47DEF0CF07FEF0CF049EF0CF05F
:1018FE001200E8EC0DF05150030B0009D8B48AEF3A
:10190E000CF08CEF0CF098EF0CF040EC10F000099E
:10191E00D8B494EF0CF096EF0CF098EF0CF0100E8C
:10192E004F6E4F50020DF350010F136E60004FF0CB
:10193E00F6FF100EF76EF86A09006F00D4FF14F070
:10194E0009006F00D4FF15F002D8B7EF0CF00500B8
:10195E00FA6E1450FD6E1550FE6EFF6AFA501200AC
:10196E004F6E1200DEEC10F0020E506ECBEF0CF04C
:10197E0096EC10F0EFEF0CF002EC11F0EFEF0CF034
:10198E0088EC10F0EFEF0CF03CC00AF03DC00BF00D
:10199E0002D8DBEF0CF00500FA6E3050FD6E3150C0
:1019AE00FE6EFF6AFA5012000D6E0E6A0E50000A9D
:1019BE00D8B4E4EF0CF0C7EF0CF00D50020AD8B417
:1019CE00BFEF0CF0010AD8B4C3EF0CF0C7EF0CF068
:1019DE001200056E01500210D8B4F8EF0CF0FAEFB9
:1019EE000CF014EF0DF00550020DF3502E0FD96EC2
:1019FE00DA6A600007F0DEFF60000BF0DDFF0550D5
:101A0E00020DF3503A0FD96EDA6A60000FF0DEFF66
:101A1E00600013F0DDFF26EF0DF00550020DF350C0
:101A2E002E0FD96EDA6A0C0EDE6E220EDD6E0550AA
:101A3E00020DF3503A0FD96EDA6ADE6ADD6A1200D1
:101A4E00000E3D01EC6F000EED6F000EEE6F000EFE
:101A5E00EF6F000EF06F000EF16FB00EF26F800E92
:101A6E00F36F000EF46FCF0EF56F000EF66F000ED3
:101A7E00F76F000EF86F000EF96F000EFA6F000E82
:101A8E00016E000E026EACEC10F0000E016E000E38
:101A9E00026EA7EC10F0000E016E000E026EB1EC9D
:101AAE0010F0000E576E1200FC0E5116020E506E04
:101ABE00519469EF0DF000EC11F08DEF0DF00F0E5B
:101ACE008DEF0DF03EC00AF03FC00BF002D879EF5B
:101ADE000DF00500FA6E3250FD6E3350FE6EFF6A49
:101AEE00FA5012000D6E0E6A0E50000AD8B482EF34
:101AFE000DF066EF0DF00D50020AD8B462EF0DF046
:101B0E00010AD8B462EF0DF066EF0DF01200390144
:101B1E00A3A194EF0DF096EF0DF098EF0DF0BBEF43
:101B2E000DF0A2AF9DEF0DF09FEF0DF0A1EF0DF0B8
:101B3E00BBEF0DF03D0179A5A7EF0DF0A9EF0DF06C
:101B4E00ABEF0DF0BBEF0DF079AFB0EF0DF0B2EFE4
:101B5E000DF0B4EF0DF0BBEF0DF076A9B9EF0DF06F
:101B6E00BBEF0DF08EEF0DF012001B6E1B50C4EC90
:101B7E000BF00009D8B4C6EF0DF0C8EF0DF0BDEFB5
:101B8E000DF018C001F0026A19C003F01AC004F07B
:101B9E00BCEC0FF0000E066E000E076E000E086E07
:101BAE00000E096E12EC10F0CAEC10F070EC0FF093
:101BBE00E806D8B4E5EF0DF0E7EF0DF0DDEF0DF030
:101BCE0012006CEC10F00009D8B4F0EF0DF0F2EF4B
:101BDE000DF0F6EF0DF0FDEC10F010EF0EF056ECF0
:101BEE0010F00009D8B4FEEF0DF000EF0EF004EF88
:101BFE000EF0F7EC10F010EF0EF061EC10F00009A3
:101C0E00D8B40CEF0EF00EEF0EF010EF0EF0FAEC63
:101C1E0010F01200166E010E176E51B419EF0EF081
:101C2E001BEF0EF035EF0EF05184000E176E4D5077
:101C3E00C0EC10F01650D8B427EF0EF029EF0EF0CE
:101C4E002FEF0EF0040E4F6E5BEC0FF033EF0EF035
:101C5E00030E4F6E77EC10F0EBEC0FF017501200F6
:101C6E0020EE02F00A50D9260B50DA22DF500C6E0D
:101C7E000CC001F0026A60002BF0D9FF60002FF05B
:101C8E00DAFF6F0078FF03F06F0074FF04F0BCEC16
:101C9E000FF0000E066E000E076E000E086E000EA0
:101CAE00096E1EEC10F0020E12001B6E1B50C4ECDF
:101CBE000BF00009D8B466EF0EF068EF0EF05DEF92
:101CCE000EF018C001F0026A19C003F01AC004F039
:101CDE00BCEC0FF0CEEC10F070EC0FF0E806D8B4C0
:101CEE007BEF0EF07DEF0EF073EF0EF0120018C0CA
:101CFE001AF08AEF0EF017C00BF01A0E0C6E19C008
:101D0E000DF07FEC08F060006BF0F6FF100EF76E32
:101D1E00F86A0800F5500009D8A498EF0EF09AEF73
:101D2E000EF082EF0EF0000E186E000E176E1200FF
:101D3E00206E1D501E6E1CC01FF01E0E186E000E63
:101D4E001A6E020E196E2050BCEC0DF0000E216EB4
:101D5E00210E186E000E1A6E010E196E20505CECDC
:101D6E000EF0215012001D0E1F6E1BC020F0000E33
:101D7E00246E000E236E000E2B6E000E2A6E200EA9
:101D8E00176E1CC018F01F0E196E7EEC0EF01B5055
:101D9E002324D96EDA6ADF6A1200206E1D50216E7E
:101DAE001CC022F01EC023F0210E186E000E1A6EFB
:101DBE00030E196E2050BCEC0DF00D0E1F6EFC0EB6
:101DCE00E82EFED71F2EFCD712003D0173BFF2EF97
:101DDE000EF0F4EF0EF002EF0FF0000E796F000E22
:101DEE007A6F000E766F6C69510E3A015A6F510E72
:101DFE005B6F3D01738F12000AC001F00BC002F041
:101E0E00000E046E010E036EBCEC0FF0000E066E9B
:101E1E00000E076E000E086E000E096E1EEC10F01E
:101E2E00040E12000AC001F00BC002F0000E046E88
:101E3E00020E036EBCEC0FF0000E066E000E076E67
:101E4E00000E086E000E096E1EEC10F0020E12004F
:101E5E000AC001F00BC002F0000E046E010E036EFC
:101E6E00BCEC0FF0000E066E000E076E000E086E34
:101E7E00000E096E1EEC10F0020E12000AC001F0E8
:101E8E000BC002F0000E046E020E036EBCEC0FF0DF
:101E9E00000E066E000E076E000E086E000E096E26
:101EAE001EEC10F0040E12005150FC0B0209516E84
:101EBE004D044E10D8A466EF0FF068EF0FF06AEFE6
:101ECE000FF02AEC0BF0D8804A34BBEC10F0040E65
:101EDE001200010E016E51B477EF0FF079EF0FF093
:101EEE0083EF0FF051964A68DEEC10F0DCEC0FF049
:101EFE009CEC10F050C001F001501200E5EC10F017
:101F0E00E2EC10F00009D8B48FEF0FF091EF0FF064
:101F1E0097EF0FF0000EC0EC10F0000EBBEC10F0BF
:101F2E00000E1200000E3901C06F000EC16F000EC0
:101F3E00C26F000EC36F000EC46F000EC56F000E91
:101F4E00C66F000EC76F1200040E3D01736F800E38
:101F5E00746F180E756F000E7B6F000E796F000E8A
:101F6E007A6F000E766F6C69120051A8C1EF0FF0F8
:101F7E00C3EF0FF0CCEF0FF001C04BF002C04CF0EE
:101F8E0003C04DF004C04EF05198120000EEC6F0A2
:101F9E00200EEE6AE806FDE100EE2EF02A0EEE6A45
:101FAE00E806FDE100014AEF09F03901939393959C
:101FBE00929F93913D017A917A957A9F7A9D7A9329
:101FCE007693769576911200F1EF0FF08EEC0DF080
:101FDE0080EC0CF051B4F6EF0FF0F8EF0FF0EDEFE0
:101FEE000FF01200016E3901A3A900EF10F002EFFD
:101FFE0010F0FAEF0FF0600007F0EAFD1200710E1C
:10200E003901D96F000EDB6F000EDD6F010EDF6F31
:10201E00000EDE6F120006C001F007C002F008C00D
:10202E0003F009C004F0020EF0EC0CF0120006C032
:10203E0001F007C002F008C003F009C004F0000E62
:10204E00F0EC0CF0120099EC0FF0ABEC0FF0D5ECBD
:10205E000AF006EC10F027EC0DF012003D0178BBF3
:10206E003BEF10F03EEF10F0010E3FEF10F0000EC0
:10207E0012003D0174BB46EF10F049EF10F0010E57
:10208E004AEF10F0000E12003D0178B151EF10F042
:10209E0054EF10F0010E55EF10F0000E12003D013E
:1020AE0079B55CEF10F05FEF10F0010E60EF10F0FD
:1020BE00000E12003D0176B967EF10F06AEF10F0D6
:1020CE00010E6BEF10F0000E12003D0179BF72EFA2
:1020DE0010F075EF10F0010E76EF10F0000E1200FA
:1020EE005150FC0B0209516E4A504A24BBEC10F0C1
:1020FE00030E1200C5EC10F05194020E506E0F0E2E
:10210E001200C5EC10F05194000E506E0F0E12001E
:10211E00E8EC10F0E5EC10F0B6EC10F012004D50BB
:10212E00C0EC10F05BEC0FF012003D01739F000E3F
:10213E00796F78851200026E0250F9EC0FF01200E2
:10214E0001C05AF002C05BF0120001C05CF002C088
:10215E005DF0120001C058F002C059F01200519407
:10216E00000E506E0F0E1200016E600007F06BFD38
:10217E001200016E600007F06CFD12003D01739FAE
:10218E007885738F1200000E11EC0EF01200010E06
:10219E0011EC0EF01200E8EC10F0090E1200EBEC50
:1021AE0010F0040E1200EBEC10F0030E1200000EF5
:1021BE003D01796F12003D016C5112003D01739B80
:1021CE0012003D01748D12003D01749D12003D01FF
:1021DE006A5112003D01738D12003D01739D120074
:1021EE003D01799512003D01769912003D01799FCE
:1021FE001200010E1200020E1200050E1200010E48
:02220E001200BC
:04FFFC00CDEF0FF046
:020000040030CA
:0A000000FAFFF7FF9FFFFFFFFFFF6D
:00000001FF
