:04000000FEEF7FF0A0
:10AE3A00120012001200010E1200050E1200020E7C
:10AE4A001200010E12003D01799F12003D01769910
:10AE5A0012003D01799512003D01739D12003D01DA
:10AE6A00738D12003D016A5112003D01749D12005A
:10AE7A003D01748D12003D01739B12003D016C511E
:10AE8A001200016802681200000E3D01796F12007B
:10AE9A003AEC57F0030E12003AEC57F0040E120087
:10AEAA003DEC57F0090E1200000E75EC5BF0120033
:10AEBA00010E75EC5BF012003D01739F7885738F6C
:10AECA001200016E600007F06CFD1200016E600056
:10AEDA0007F06BFD120001C0DFF202C0E0F21200BF
:10AEEA0001C0E3F202C0E4F2120001C0E1F202C0C2
:10AEFA00E2F21200026E025032EC58F012003D01EA
:10AF0A00739F000E796F7885120002012395000E57
:10AF1A00226F0F0E120002011F5166EC57F039EC36
:10AF2A0059F012003DEC57F040EC57F08AEC57F01C
:10AF3A00120061EC57F002012395000E226F0F0EEA
:10AF4A00120061EC57F002012395020E226F0F0ED8
:10AF5A0012006B0E176E000E186E680EB7EC5CF0DE
:10AF6A0012003D0179BFBCEF57F0BFEF57F0010E59
:10AF7A00C0EF57F0000E12003D0176B9C7EF57F047
:10AF8A00CAEF57F0010ECBEF57F0000E12003D0149
:10AF9A0079B5D2EF57F0D5EF57F0010ED6EF57F04B
:10AFAA00000E12003D0178B1DDEF57F0E0EF57F0E7
:10AFBA00010EE1EF57F0000E12003D0174BBE8EFFD
:10AFCA0057F0EBEF57F0010EECEF57F0000E1200BE
:10AFDA003D0178BBF3EF57F0F6EF57F0010EF7EFAC
:10AFEA0057F0000E120002012351FC0B0209236FD5
:10AFFA001C511C256BEC57F0030E120090EC58F014
:10B00A006DEC58F01DEC61F026EC58F021EC5DF087
:10B01A00120006C001F007C002F008C003F009C020
:10B02A0004F0000EB2EC5EF0120006C001F007C098
:10B03A0002F008C003F009C004F0020EB2EC5EF0A0
:10B04A001200710E3901D96F000EDB6F000EDD6F31
:10B05A00010EDF6F000EDE6F1200016E3901A3A927
:10B06A0039EF58F03BEF58F033EF58F0600007F033
:10B07A00EAFD1200390193939395929F93913D01B2
:10B08A007A917A957A9F7A9D7A9376937695769144
:10B09A00120054EF58F022EC5CF037EC5EF002013B
:10B0AA0023B55AEF58F05CEF58F050EF58F0120001
:10B0BA0000EE00F2CB0EEE6AE806FDE100EECDF0FE
:10B0CA00200EEE6AE806FDE15E6A000146EF63F0D3
:10B0DA00040E3D01736F800E746F180E756F000EAB
:10B0EA007B6F000E796F000E7A6F000E766F6C69B7
:10B0FA001200020123A984EF58F086EF58F08FEF6F
:10B10A0058F001C01DF202C01EF203C01FF204C0B3
:10B11A0020F223991200000E3901C06F000EC16F90
:10B12A00000EC26F000EC36F000EC46F000EC56F13
:10B13A00000EC66F000EC76F120040EC57F043ECCA
:10B14A0057F00009D8B4ACEF58F0AEEF58F0B4EFAE
:10B15A0058F0000E66EC57F0000E6BEC57F0000E3C
:10B16A001200015003026F00CCFF05F06F00D0FF00
:10B17A0006F001500402F350062602500302F3506F
:10B18A00062605C001F006C002F01200010E016E8B
:10B19A00020123B5D3EF58F0D5EF58F0DFEF58F09E
:10B1AA0023971C6949EC57F03FEC58F084EC57F0B0
:10B1BA0022C201F0015012000AC001F00BC002F0D5
:10B1CA00000E046E020E036E7EEC58F0000E066E40
:10B1DA00000E076E000E086E000E096E0EEC58F097
:10B1EA00040E12000AC001F00BC002F0000E046E39
:10B1FA00010E036E7EEC58F0000E066E000E076E0E
:10B20A00000E086E000E096E0EEC58F0020E1200C7
:10B21A000AC001F00BC002F0000E046E020E036EAB
:10B22A007EEC58F0000E066E000E076E000E086ED9
:10B23A00000E096E0EEC58F0020E12000AC001F060
:10B24A000BC002F0000E046E010E036E7EEC58F085
:10B25A00000E066E000E076E000E086E000E096ED6
:10B26A000EEC58F0040E120002012351FC0B0209E5
:10B27A00236F1F052011D8A445EF59F047EF59F065
:10B28A0049EF59F0D7EC5FF0D88002011C356BEC1E
:10B29A0057F0040E12003D0173BF56EF59F058EFF4
:10B2AA0059F066EF59F0000E796F000E7A6F000EB2
:10B2BA00766F6C69510E3A015A6F510E5B6F3D0100
:10B2CA00738F12001F6E1C50206E1BC021F01DC010
:10B2DA0022F0200E176E000E196E030E186E1F5004
:10B2EA00C9EC5BF00D0E1E6EFC0EE82EFED71E2E6C
:10B2FA00FCD712001F6E1C501D6E1BC01EF01D0EC7
:10B30A00176E000E196E020E186E1F50C9EC5BF014
:10B31A00000E206E200E176E000E196E010E186EAA
:10B32A001F5055EC5AF02050120001500210031021
:10B33A000410D8B4A3EF59F0A5EF59F0ADEF59F0C6
:10B34A00000E011A000E021A000E031A800E041AC9
:10B35A0001C001F002C002F003C003F004C004F00F
:10B36A001200BFEF59F0030E056E980EE82EFED7B5
:10B37A00052EFCD70106000E025A035A045A012868
:10B38A000AE1022808E1032806E10428D8A4D0EF3C
:10B39A0059F0D2EF59F0B8EF59F0120001C007F096
:10B3AA0002C008F0E4EF59F060001FF0D9FF600016
:10B3BA0023F0DAFF60000FF0DFFF074A082A0506CC
:10B3CA00D8A00606052806E10628D8A4EFEF59F00A
:10B3DA00F1EF59F0D9EF59F01200000E106E000E7D
:10B3EA000F6E01EF5AF00EC003F0046A0DC005F0AB
:10B3FA007EEC62F00F4A102A0F500B24D96E1050BF
:10B40A000C20DA6EDF500E6E0E50D8A40FEF5AF0F1
:10B41A0011EF5AF0F8EF59F01200286E000E296E5B
:10B42A0029EF5AF0295023241B6E000E24201C6E8B
:10B43A0029502524D96E000E2620DA6EDF501D6EA3
:10B44A00285067EC59F0292A2750295CD8A030EFF8
:10B45A005AF032EF5AF017EF5AF012007D0E00013F
:10B46A00816F79C082F07AC083F0000E866F000E79
:10B47A00856F000E8B6F000E8A6F820E6F6F7BC016
:10B48A0070F07CC071F0810E726FE0EC62F06FC0F8
:10B49A007FF070C080F07FC079F080C07AF012002F
:10B4AA001A6E1A50F1EC5EF00009D8B45FEF5AF048
:10B4BA0061EF5AF056EF5AF017C001F0026A18C04D
:10B4CA0003F019C004F07EEC58F05DEC57F0CBECB9
:10B4DA0058F0E806D8B474EF5AF076EF5AF06CEFE9
:10B4EA005AF0120001C005F002C006F060000FF029
:10B4FA00F6FF600013F0F7FF034A042AF86A6000B7
:10B50A0017F0D9FF60001BF0DAFF054A062A080087
:10B51A006F00D7FFDFFFDF50D8A496EF5AF098EFFD
:10B52A005AF07BEF5AF01200970E4F6E93C050F00C
:10B53A0094C051F0000E546E000E536E000E5B6EF6
:10B54A00000E5A6E500E00018F6F95C090F096C093
:10B55A0091F04F0E926F26EC5BF053500001932549
:10B56A00D96E54509421DA6EDF6A1200276E000EEB
:10B57A00286ED4EF5AF0285021241B6E000E222088
:10B58A001C6E27507FEC59F0266E28502324D96E62
:10B59A00000E2420DA6E60009BF0DFFF282A255077
:10B5AA00285CD8A0DBEF5AF0DDEF5AF0C0EF5AF072
:10B5BA001200000E1E1A000E1F1A000E201A800E0C
:10B5CA00211A1AC001F01BC002F01CC003F01DC0F2
:10B5DA0004F01EC005F01FC006F020C007F021C00D
:10B5EA0008F02DEC75F001C01AF002C01BF003C080
:10B5FA001CF004C01DF0120020EE02F00A50D926F9
:10B60A000B50DA22DF500C6E0CC001F0026A6000A7
:10B61A002BF0D9FF60002FF0DAFF6F0078FF03F0FC
:10B62A006F0074FF04F07EEC58F0000E066E000EF8
:10B63A00076E000E086E000E096E0EEC58F0020E30
:10B64A00120090C04DF091C04EF035EF5BF08FC004
:10B65A008CF04D0E00018D6F92C08EF03BEC6BF0BA
:10B66A00600037F1F6FF60003BF1F7FFF86A080067
:10B67A00F5500009D8A444EF5BF046EF5BF02CEFDD
:10B68A005BF0000E0001906F000E8F6F1200B6EC97
:10B69A0057F00009D8B454EF5BF056EF5BF05AEF5D
:10B6AA005BF028EC57F074EF5BF0CCEC57F0000934
:10B6BA00D8B462EF5BF064EF5BF068EF5BF02EECFE
:10B6CA0057F074EF5BF0C1EC57F00009D8B470EF93
:10B6DA005BF072EF5BF074EF5BF02BEC57F012004B
:10B6EA00156E010E166E020123B57EEF5BF080EF38
:10B6FA005BF09CEF5BF02385000E166E1F5166EC23
:10B70A0057F01550D8B48CEF5BF08EEF5BF095EFE5
:10B71A005BF0040E0201216F39EC59F09AEF5BF0ED
:10B72A00030E0201216FF8EC57F04EEC58F0165058
:10B73A00120004BEA3EF5BF0A5EF5BF0AFEF5BF086
:10B74A0001C001F002C002F003C003F004C004F01B
:10B75A00C8EF5BF001C005F002C006F003C007F0B5
:10B76A0004C008F0051E061E071E081E052A000E44
:10B77A0006220722082205C001F006C002F007C00F
:10B78A0003F008C004F012001A6E1A50F1EC5EF0D1
:10B79A000009D8B4D3EF5BF0D5EF5BF0CAEF5BF0EA
:10B7AA0017C001F0026A18C003F019C004F07EEC59
:10B7BA0058F0000E066E000E076E000E086E000EA0
:10B7CA00096E1AEC58F059EC57F0CBEC58F0E80631
:10B7DA00D8B4F2EF5BF0F4EF5BF0EAEF5BF0120043
:10B7EA0003C00AF004C00BF001C008F002C009F05F
:10B7FA0014EF5CF060002BF0D9FF60002FF0DAFF45
:10B80A00DF50076E0A4A0B2A600023F0D9FF600056
:10B81A0027F0DAFF60001FF0DFFF084A092A050651
:10B82A00D8A00606052806E10628D8A41FEF5CF072
:10B83A0021EF5CF0FFEF5BF012003901A3A128EFC2
:10B84A005CF02AEF5CF02CEF5CF04FEF5CF0A2AFFB
:10B85A0031EF5CF033EF5CF035EF5CF04FEF5CF00A
:10B86A003D0179A53BEF5CF03DEF5CF03FEF5CF00A
:10B87A004FEF5CF079AF44EF5CF046EF5CF048EFD5
:10B88A005CF04FEF5CF076A94DEF5CF04FEF5CF0A7
:10B89A0022EF5CF0120015BE57EF5CF055EF5CF03A
:10B8AA005BEF5CF0000E156E000E146E000E186E43
:10B8BA00000E176E6BEF5CF0000E046E200E036E26
:10B8CA0011C005F07EEC62F0174A182A1450175C72
:10B8DA001850800A166E1550800A1658D8A078EFAC
:10B8EA005CF07AEF5CF061EF5CF012C00BF013C011
:10B8FA000CF011C00DF0F2EC59F01200FC0E02012E
:10B90A002317020E226F239592EF5CF026EC57F074
:10B91A00B6EF5CF00F0EB6EF5CF010C20AF011C27F
:10B92A000BF002D8A2EF5CF00500FA6E0451FD6E2E
:10B93A000551FE6EFF6AFA5012000D6E0E6A0E5025
:10B94A00000AD8B4ABEF5CF08FEF5CF00D50020A3E
:10B95A00D8B48BEF5CF0010AD8B48BEF5CF08FEFB0
:10B96A005CF01200196E1950F1EC5EF00009D8B4BF
:10B97A00C1EF5CF0C3EF5CF0B8EF5CF0460E066E08
:10B98A00B20E076E180E086E096A0EEC58F0170E02
:10B99A00016E026A000E046E010E036E7EEC58F010
:10B9AA00000E066E000E076E000E086E000E096E7F
:10B9BA001AEC58F059EC57F0CBEC58F0E806D8B42A
:10B9CA00E9EF5CF0EBEF5CF0E1EF5CF012000EEFF8
:10B9DA005DF0200E0E180F10D8B4F6EF5CF0F8EFF9
:10B9EA005CF00EEF5DF00EC00DF0F70E0D26040EA2
:10B9FA000D6402EF5DF004EF5DF00EEF5DF00EC036
:10BA0A0001F00FC002F00CC003F028EC60F020EF48
:10BA1A005DF00CC003F030EC66F003C00EF004C019
:10BA2A000FF00E2806E10F28D8A41EEF5DF020EFD4
:10BA3A005DF0EEEF5CF01200000E3D01EC6F000EBF
:10BA4A00ED6F000EEE6F000EEF6F000EF06F000E3E
:10BA5A00F16FB00EF26F800EF36F000EF46FCF0E1F
:10BA6A00F56F000EF66F000EF76F000EF86F000EFE
:10BA7A00F96F000EFA6F3C0E016EAE0E026E75EC97
:10BA8A0057F03E0E016EAE0E026E7AEC57F03A0E89
:10BA9A00016EAE0E026E70EC57F0000E0001DC6F04
:10BAAA001200000E096E000E0A6E000E0B6E000EDA
:10BABA000C6E01A063EF5DF065EF5DF06DEF5DF078
:10BACA000550092606500A2207500B2208500C225C
:10BADA00D8900536063607360836D890043203322F
:10BAEA00023201320150021003100410D8A480EF70
:10BAFA005DF082EF5DF05EEF5DF009C001F00AC013
:10BB0A0002F00BC003F00CC004F0120049EC57F02D
:10BB1A00020E0201226F9EEF5DF090EC57F0C2EF29
:10BB2A005DF024EC57F0C2EF5DF09EEC57F0C2EFE7
:10BB3A005DF00EC20AF00FC20BF002D8AEEF5DF054
:10BB4A000500FA6E0251FD6E0351FE6EFF6AFA504D
:10BB5A0012000D6E0E6A0E50000AD8B4B7EF5DF0EF
:10BB6A009AEF5DF00D50020AD8B492EF5DF0010A27
:10BB7A00D8B496EF5DF09AEF5DF01200DEEF5DF05B
:10BB8A0060000BF0F6FF60000FF0F7FF000EF86E92
:10BB9A000F0EF76403D00800F55007D06F00DBFFE3
:10BBAA00E9FF6F00DFFFEAFFEF5032EC58F0024A7C
:10BBBA00032A60000BF0F6FF60000FF0F7FF000E9B
:10BBCA00F86E0F0EF76403D00800F55007D06F0027
:10BBDA00DBFFE9FF6F00DFFFEAFFEF500009D8A49F
:10BBEA00F9EF5DF0FBEF5DF0C5EF5DF012001B6E43
:10BBFA0018C01EF019C01CF01AC01DF01B50F1EC41
:10BC0A005EF00009D8B40CEF5EF00EEF5EF003EFC1
:10BC1A005EF0020E066EB60E076E1C0E086E096AFC
:10BC2A000EEC58F0170E016E026A000E046E010E39
:10BC3A00036E7EEC58F0000E066E000E076E000EC4
:10BC4A00086E000E096E1AEC58F059EC57F0CBEC5E
:10BC5A0058F0E806D8B434EF5EF036EF5EF02CEF19
:10BC6A005EF012004CEC5BF002012351030B000959
:10BC7A00D8B442EF5EF044EF5EF051EF5EF0E2ECD2
:10BC8A0057F00009D8B44CEF5EF04EEF5EF051EF7A
:10BC9A005EF0100E0201216F02012151020D990E70
:10BCAA00F324F66EFE0EF420F76EF86A000EF82200
:10BCBA0009006F00D4FF13F009006F00D4FF14F0DD
:10BCCA0002D871EF5EF00500FA6E1350FD6E145043
:10BCDA00FE6EFF6AFA5012000201216F1200020181
:10BCEA00238989EF5EF034EC57F0070EB1EF5EF06E
:10BCFA0002011F2966EC57F0030EB1EF5EF031EC3A
:10BD0A0057F00A0EB1EF5EF00CC20AF00DC20BF04A
:10BD1A0002D899EF5EF00500FA6E0051FD6E0151EE
:10BD2A00FE6EFF6AFA5012000D6E0E6A0E50000A7D
:10BD3A00D8B4A2EF5EF084EF5EF00D50010AD8B4D9
:10BD4A0084EF5EF0030AD8B478EF5EF0060AD8B43E
:10BD5A007DEF5EF084EF5EF01200056E0150021076
:10BD6A00D8B4BAEF5EF0BCEF5EF0DAEF5EF00550E1
:10BD7A00020D000EF324D96E020EF420DA6E600072
:10BD8A0007F0DEFF60000BF0DDFF0550020D0C0E20
:10BD9A00F324D96E020EF420DA6E60000FF0DEFF93
:10BDAA00600013F0DDFFF0EF5EF00550020D000EAB
:10BDBA00F324D96E020EF420DA6E400EDE6EAE0E59
:10BDCA00DD6E0550020D0C0EF324D96E020EF4201E
:10BDDA00DA6EDE6ADD6A1200016E010E026E02017F
:10BDEA0023B7FAEF5EF0FCEF5EF037EF5FF001C0C9
:10BDFA001CF223952387FC0E23170F0E216F010EC9
:10BE0A001B6FF40E1A6F2389400E006FAE0E016F7E
:10BE1A00000E0C6F000E0D6F400E026FAE0E036F18
:10BE2A00000E0E6F000E0F6F400E046FAE0E056F00
:10BE3A00000E106F000E116F400E066FAE0E076FE8
:10BE4A00000E126F000E136F440E086FAE0E096FCC
:10BE5A00000E146F000E156F49EC57F050EC59F0B4
:10BE6A00000E026E02501200D7EC57F00009D8A457
:10BE7A0041EF5FF043EF5FF046EF5FF0040E87EFAC
:10BE8A005FF002012351030B0009D8B44FEF5FF0B2
:10BE9A0051EF5FF05DEF5FF0010E0F6E2351030B60
:10BEAA00106E0F50105E23511018FC0B1018236FE0
:10BEBA001F07D8A020071F512011D8B467EF5FF0E1
:10BECA0069EF5FF077EF5FF037EC57F0600077F8D3
:10BEDA00D9FF60007BF8DAFFDF6E02011D4B1E2BD3
:10BEEA0043EF5FF0D7EC5FF0116E37EC57F060006C
:10BEFA0077F8D9FF60007BF8DAFFDF6E02011D4B8D
:10BF0A001E2B1150120020EE11F0070EDE6AE80611
:10BF1A00FDE201A093EF5FF095EF5FF0A5EF5FF010
:10BF2A00095011260A5012220B5013220C501422C7
:10BF3A000D5015220E5016220F501722105018229B
:10BF4A00D89009360A360B360C360D360E360F36B1
:10BF5A001036D890083207320632053204320332DC
:10BF6A0002320132015002100310041005100610AB
:10BF7A0007100810D8A4C4EF5FF0C6EF5FF08EEF89
:10BF8A005FF011C001F012C002F013C003F014C038
:10BF9A0004F015C005F016C006F017C007F018C067
:10BFAA0008F0120002012389FBEF5FF034EC57F02E
:10BFBA00080E27EF60F034EC57F0070E27EF60F019
:10BFCA0002011F2966EC57F0040E27EF60F0070EF6
:10BFDA0002012119D8B4F4EF5FF0F6EF5FF0F8EF41
:10BFEA005FF031EC57F00F0E27EF60F00CC20AF049
:10BFFA000DC20BF002D80BEF60F00500FA6E00518B
:10C00A00FD6E0151FE6EFF6AFA5012000D6E0E6A45
:10C01A000E50000AD8B414EF60F0ECEF5FF00D5048
:10C02A00010AD8B4ECEF5FF0030AD8B4E0EF5FF08E
:10C03A00010AD8B4DBEF5FF0070AD8B4E5EF5FF086
:10C04A00ECEF5FF01200012806E10228D8A430EFD5
:10C05A0060F032EF60F034EF60F078EF60F0035098
:10C06A00D8A43AEF60F03CEF60F051EF60F0030EB5
:10C07A005E18D8B443EF60F045EF60F078EF60F0F7
:10C08A002C0E5E24D96EDA6A020EDA22600007F0FC
:10C09A00DFFF5E2A78EF60F00350D96EDA6A080E85
:10C0AA00D926030EDE18DE10D8B45EEF60F060EF1A
:10C0BA0060F078EF60F00350D96EDA6A080ED9267C
:10C0CA00DF50046E03500424D96EDA6A050ED926AD
:10C0DA00600007F0DFFF0350D96EDA6A080ED9262E
:10C0EA00DE2A000EDD221200000E096E000E0A6E14
:10C0FA00000E0B6E000E0C6E05500610071008108D
:10C10A00D8B48AEF60F08CEF60F0C2EF60F0010EF5
:10C11A000D6E96EF60F0D89005360636073608366B
:10C12A000D2A08AE9BEF60F09DEF60F090EF60F093
:10C13A00D89009360A360B360C360550015C065083
:10C14A0002580750035808500458D8A0AFEF60F0BF
:10C15A00B1EF60F0BAEF60F00550015E0650025A86
:10C16A000750035A0850045A0980D89008320732F7
:10C17A00063205320D2E9DEF60F009C001F00AC0AB
:10C18A0002F00BC003F00CC004F012003901A3A79F
:10C19A00D1EF60F0D3EF60F0CBEF60F0000E00015A
:10C1AA00DC6F3D01F9A7DCEF60F0DEEF60F0EDEF48
:10C1BA0060F00001DC8302D8EDEF60F00500FA6E52
:10C1CA000201E351FD6EE451FE6EFF6AFA5012005D
:10C1DA003D01F9A3F3EF60F0F5EF60F004EF61F0D1
:10C1EA000001DC8502D804EF61F00500FA6E020155
:10C1FA00E151FD6EE251FE6EFF6AFA501200000133
:10C20A00DC51D8B40BEF61F00DEF61F01AEF61F079
:10C21A0002D81AEF61F00500FA6E0201DF51FD6ED5
:10C22A00E051FE6EFF6AFA5012003D01E851120019
:10C23A00000EBE6E000EBD6E000EBA6E000EBB6E14
:10C24A00000EBC6E070EC66EC268F90EC36EBF0E34
:10C25A00C46EFC0EC56E3A0170697F0E606FF90EEE
:10C26A00506F070E806F4069000E716F000E816F6C
:10C27A00000E516F000E416F000E616F000E5A6F73
:10C28A00000E5B6F000E6A6F000E6B6F000E7A6F06
:10C29A00000E7B6F000E826F000E426F260E526FE9
:10C2AA00180E626F000E726F43695369636973698E
:10C2BA00070E836F44695469646974690F0E846F49
:10C2CA000A0EE26F210E096F220E0A6F130E166F05
:10C2DA00170EE56F090EE16F1200000E0114096EC8
:10C2EA00000E02140A6E800E03140B6E7F0E0414E5
:10C2FA000C6E09500A100B100C10D8A487EF61F0CD
:10C30A0089EF61F091EF61F0000E016E000E026E8E
:10C31A00000E036E000E046E000E0514096E000E68
:10C32A0006140A6E800E07140B6E7F0E08140C6E2C
:10C33A0009500A100B100C10D8A4A6EF61F0A8EF50
:10C34A0061F0B0EF61F0000E056E000E066E000E91
:10C35A00076E000E086E055001180FE1065002180C
:10C36A000CE10750031809E108500418D8B4C0EFCB
:10C37A0061F0C2EF61F0C5EF61F0D890C6EF61F0ED
:10C38A00D8801200000E0A6EFFEF61F0CBEC60F06D
:10C39A00096E0A50D8A4D4EF61F0D6EF61F0EAEF43
:10C3AA0061F00D0E0918D8B4DDEF61F0DFEF61F02E
:10C3BA00FFEF61F00A0E0918D8A4E6EF61F0E8EF82
:10C3CA0061F0EAEF61F0FFEF61F00D0E0918D8A4F1
:10C3DA00F1EF61F0F3EF61F0F5EF61F017EF62F062
:10C3EA000A500124D96E000E0220DA6E600027F08E
:10C3FA00DFFF0A2AFF0E0324046E056AFF0E0522D8
:10C40A000A50066E076A0450065C0750800A086ED6
:10C41A000550800A0858D8A015EF62F017EF62F0AD
:10C42A00CBEF61F00A500124D96E000E0220DA6EB9
:10C43A00DF6A1200000E0B6E000E0A6E0750D96EEC
:10C44A00DA6A6F007BFFF6FF6F0077FFF7FFF86A83
:10C45A000800F5502A0AD8A435EF62F037EF62F0E7
:10C46A0063EF62F00750D96EDA6ADE2A000EDD2227
:10C47A000850D96EDA6A020EDF26DF5CD96EDA6AF4
:10C48A006F0078FF0AF06F0078FF0BF079EF62F027
:10C49A000AC001F00BC002F0000E046E0A0E036E11
:10C4AA00B6EC58F0095001240A6E000E02200B6EF9
:10C4BA000750D96EDA6ADE2A000EDD220750D96EDD
:10C4CA00DA6A6F007BFFF6FF6F0077FFF7FFF86A03
:10C4DA000800F550D00F096E090E096477EF62F073
:10C4EA0079EF62F04DEF62F00AC007F00BC008F076
:10C4FA0012000550D8B484EF62F086EF62F08EEF36
:10C50A0062F00550D8A48CEF62F08EEF62F093EFE0
:10C51A0062F003507FEC57F0DFEF62F00550D96EFE
:10C52A00DA6A0A0ED926DE50DE10D8B49FEF62F01E
:10C53A00A1EF62F0BAEF62F00550D96EDA6A0A0E1C
:10C54A00D9260550E16EE26A030EE126DE50E65C6A
:10C55A00E650800A0A6EDE50800A0A58D8B0B8EF50
:10C56A0062F0BAEF62F0DFEF62F00550D96EDA6A74
:10C57A00030ED9266F0078FF06F06F0074FF07F0EC
:10C58A000550D96EDA6A6F0078FF08F06F0074FF01
:10C59A0009F006500824D96E07500920DA6E6000A7
:10C5AA000FF0DFFF0550D96EDA6A030ED926DE2AAC
:10C5BA00000EDD22120070C077F071C078F0000E14
:10C5CA000201306F000E2F6F2FC2CDF030C2CEF0B5
:10C5DA00D1C073F0D2C074F012EF63F0000E000104
:10C5EA00D26F000ED16F6FC05BF0770E5C6E72C0B7
:10C5FA005DF017EC71F05BC075F05CC076F000017D
:10C60A0076BF0CEF63F00AEF63F00EEF63F023EFEF
:10C61A0063F07551CD277651CE236000DFF1F6FF26
:10C62A006000E3F1F7FFF86A0800F5500009D8A4A2
:10C63A0021EF63F023EF63F0F3EF62F073C0D1F000
:10C64A0074C0D2F00001752906E17629D8A430EF2A
:10C65A0063F032EF63F041EF63F0CD51CE11D8A40D
:10C66A0039EF63F03BEF63F041EF63F075C06FF0B1
:10C67A0076C070F045EF63F0CDC06FF0CEC070F0B9
:10C68A00120003EC58F0AEEC57F0BF0E026EFE0E2D
:10C69A00036EC3EC5DF0CB0E016E020E026E000E4D
:10C6AA00046E000E036E000E066E140E056ED3ECB9
:10C6BA0059F0CB0E016E020E026E140E036EC7EC19
:10C6CA0061F0DB0E026EFF0E036EC3EC5DF0CB0E63
:10C6DA00026E020E036EC3EC5DF0BC0E026EFF0E1C
:10C6EA00036EC3EC5DF0CB0E00018E6F020E8F6FEE
:10C6FA00C70E906F020E916FE90E926FB8EC63F05D
:10C70A000009D8B48BEF63F08DEF63F091EF63F01B
:10C71A00E0EC6DF097EF63F0780E026EFF0E036E99
:10C72A00C3EC5DF00001DB51D8A49EEF63F0A0EFEB
:10C73A0063F04AEF63F0E50E286EE10E296EDD0E16
:10C74A002A6EC30E2B6E020E2C6EBF0E2D6E020EBB
:10C75A002E6EBB0E2F6E020E306E7BEC6CF04AEF23
:10C76A0063F0FEEF7FF08EC079F08FC07AF0BE0ED4
:10C77A0000017B6FFF0E7C6F930E7D6F92C07EF07F
:10C78A0033EC5AF0020E000179197A11D8B4D0EFBD
:10C79A0063F0D2EF63F0EBEF63F08EC079F08FC0F5
:10C7AA007AF0CD0E7B6FFF0E7C6F930E7D6F92C079
:10C7BA007EF033EC5AF0020E000179197A11D8A4EE
:10C7CA00E9EF63F0EBEF63F02FEF64F096510DE1C0
:10C7DA00810E935D1A0E9459060E9559D8A0F8EF5A
:10C7EA0063F0FAEF63F008EF64F0800E936F1A0EAD
:10C7FA00946F060E956F000E966F4F0E026EFF0E27
:10C80A00036EC3EC5DF0E80E016E030E026E000EBD
:10C81A00036E000E046E93C005F094C006F095C036
:10C82A0007F096C008F079EC60F0600043F2D9FF97
:10C83A00600047F2DAFF600007F0DEFF60000BF0ED
:10C84A00DEFF60000FF0DEFF600013F0DEFF010E76
:10C85A0030EF64F0000E12000506D8A0060605287F
:10C86A0006E10628D8A43CEF64F03EEF64F04BEFF3
:10C87A0064F0000E026E000E016EABEF64F0014A26
:10C88A00022A034A042A0506D8A00606600007F011
:10C89A00F6FF60000BF0F7FFF86A0800F550000990
:10C8AA00D8B45AEF64F05CEF64F092EF64F0600081
:10C8BA000FF0F6FF600013F0F7FFF86A0800F55072
:10C8CA000009D8B46BEF64F06DEF64F092EF64F096
:10C8DA0005500610D8B474EF64F076EF64F092EF66
:10C8EA0064F0600007F0F6FF60000BF0F7FFF86AEB
:10C8FA0008006F00D4FF07F060000FF0F6FF600039
:10C90A0013F0F7FFF86A0800F5500718D8B490EF4B
:10C91A0064F092EF64F044EF64F0600007F0F6FF11
:10C92A0060000BF0F7FFF86A08006F00D4FF07F009
:10C93A0060000FF0F6FF600013F0F7FFF86A0800D6
:10C94A00F550075C016E026AD8A00206120028C2DE
:10C95A000BF029C20CF02AC20DF02BC20EF001C056
:10C96A000BF002C00CF003C00DF004C00EF00BC0B7
:10C97A0005F00CC006F00DC007F00EC008F0180E46
:10C98A00CCEF64F0D8900832073206320532E82E2E
:10C99A00C7EF64F00550096E0A6A09500A10D8A454
:10C9AA00D9EF64F0DBEF64F0FBEF64F0D8900B345E
:10C9BA00056E0C34066E0D34076E0E34086E055083
:10C9CA00061007100810D8A4EDEF64F0EFEF64F03A
:10C9DA00F5EF64F0000E026E020E016E2AEF65F0AA
:10C9EA00000E026E030E016E2AEF65F009280A1086
:10C9FA00D8A402EF65F004EF65F026EF65F00BC0EE
:10CA0A0005F00CC006F00DC007F00EC008F0090EC4
:10CA1A00D8900536063607360836E82E0DEF65F04B
:10CA2A000550061007100810D8B41EEF65F021EF64
:10CA3A0065F0010E22EF65F0000E016E026A2AEF20
:10CA4A0065F0000E026E040E016E1200000E1A143A
:10CA5A00226E000E1B14236E800E1C14246E7F0E91
:10CA6A001D14256E2250231024102510D8A440EF3F
:10CA7A0065F042EF65F04AEF65F0000E1A6E000E9F
:10CA8A001B6E000E1C6E000E1D6E000E1E14226E12
:10CA9A00000E1F14236E800E2014246E7F0E2114A4
:10CAAA00256E2250231024102510D8A45FEF65F0BC
:10CABA0061EF65F069EF65F0000E1E6E000E1F6EE5
:10CACA00000E206E000E216E1DAE6EEF65F070EF47
:10CADA0065F079EF65F01A6C1B1ED8B01B2A1C1E74
:10CAEA00D8B01C2A800E1D5621AE7EEF65F080EF6D
:10CAFA0065F089EF65F01E6C1F1ED8B01F2A201E34
:10CB0A00D8B0202A800E2156000E1A1A000E1B1ABF
:10CB1A00000E1C1A800E1D1A000E1E1A000E1F1A75
:10CB2A00000E201A800E211A1E501A5C1F501B5824
:10CB3A0020501C5821501D58D8B0A6EF65F0A8EF18
:10CB4A0065F0ABEF65F0D890ACEF65F0D8801200D5
:10CB5A00033404340A6E0A50D8A4B6EF65F0B8EF6D
:10CB6A0065F0C2EF65F0000E016E000E026E000E57
:10CB7A00036E000E046E2FEF66F001C005F002C0CE
:10CB8A0006F003C007F004C008F0200ED2EF65F0EB
:10CB9A00D8900832073206320532E82ECDEF65F01A
:10CBAA000550096E038EFF0E0116FF0E0216FF0EC8
:10CBBA000316000E0416960E0A5E0ABEE9EF65F029
:10CBCA00E7EF65F0FFEF65F00A50800A970FD8B0DB
:10CBDA00F1EF65F0F3EF65F0F5EF65F0B8EF65F0AA
:10CBEA00D89004320332023201320A3EF5EF65F080
:10CBFA0017EF66F01F0E0A6405EF66F007EF66F09E
:10CC0A000FEF66F0B8EF65F0D890013602360336BA
:10CC1A0004360A060A50D8A415EF66F017EF66F034
:10CC2A0009EF66F00950D8B41DEF66F01FEF66F001
:10CC3A0027EF66F0041E031E021E016C000E02227C
:10CC4A000322042201C001F002C002F003C003F073
:10CC5A0004C004F012000350D8A436EF66F038EF8F
:10CC6A0066F056EF66F05E50D8A43EEF66F040EFED
:10CC7A0066F048EF66F046EC57F001C00AF002C0D1
:10CC8A000BF0B3EF66F05E062C0E5E24D96EDA6AFC
:10CC9A00020EDA22DF50056E05500A6E0B6AB3EFF8
:10CCAA0066F00350D96EDA6A080ED926DE50DE1015
:10CCBA00D8B462EF66F064EF66F07FEF66F0035077
:10CCCA00D96EDA6A080ED926DE06000EDD5A6F0022
:10CCDA0078FF05F06F0074FF06F003500524D96E43
:10CCEA00DA6A050ED926DF50076E07500A6E0B6AFC
:10CCFA00B3EF66F00350D96EDA6A030ED9266F00D5
:10CD0A0078FF05F06F0074FF06F00350D96EDA6AF7
:10CD1A006F0078FF07F06F0074FF08F005500724D2
:10CD2A00D96E06500820DA6EDF50096E09500A6E75
:10CD3A000B6A0A500B10D8A4A5EF66F0A7EF66F0AD
:10CD4A00ABEF66F00A680B68B3EF66F00350D96E72
:10CD5A00DA6A030ED926DE2A000EDD220AC003F0A3
:10CD6A000BC004F01200E2EC57F00009D8B4C0EF8F
:10CD7A0066F0C2EF66F0FCEF66F0CFEF66F090EC7B
:10CD8A0057F048EF67F024EC57F048EF67F0000ED1
:10CD9A0048EF67F012C20AF013C20BF002D8E0EFB4
:10CDAA0066F00500FA6E02010651FD6E0751FE6E2D
:10CDBA00FF6AFA5012000D6E0E6A0E50000AD8B4BD
:10CDCA00E9EF66F0CCEF66F00D50010AD8B4CCEF6B
:10CDDA0066F0030AD8B4C4EF66F0010AD8B4C8EF03
:10CDEA0066F0070AD8B4CCEF66F0CCEF66F0EDEC4B
:10CDFA0057F00009D8B404EF67F006EF67F047EF81
:10CE0A0067F002012351030B0009D8B40FEF67F052
:10CE1A0011EF67F01DEF67F0010E0D6E2351030B42
:10CE2A000E6E0D500E5E23510E18FC0B0E18236F5A
:10CE3A00600077F8D9FF60007BF8DAFFDF500F6EE9
:10CE4A001D4B1E2B1F07D8A020071F512011D8A445
:10CE5A0031EF67F033EF67F03BEF67F074EC5EF0A9
:10CE6A000D6E0D50116E126A3FEF67F0000E126ED2
:10CE7A00030E116E11C010F00F506BEC57F01050EA
:10CE8A0048EF67F0030E1200096E0950D8B450EF4C
:10CE9A0067F052EF67F074EF67F004BE59EF67F07E
:10CEAA0057EF67F074EF67F001C005F002C006F0B3
:10CEBA0003C007F004C008F0051E061E071E081E60
:10CECA00052A000E06220722082205C00BF006C01A
:10CEDA000CF007C00DF008C00EF07CEF67F001C03F
:10CEEA000BF002C00CF003C00DF004C00EF00150AC
:10CEFA00021003100410D8A485EF67F087EF67F0DB
:10CF0A0091EF67F0000E016E000E026E000E036EC6
:10CF1A00000E046E22EF68F0960E0A6E9BEF67F021
:10CF2A000A2AD8900E320D320C320B32000E0B1434
:10CF3A00056E000E0C14066E000E0D14076EFE0E22
:10CF4A000E14086E0550061007100810D8A4B0EF8A
:10CF5A0067F0B2EF67F095EF67F0C0EF67F00A2A63
:10CF6A00010E0B26000E0C220D220E22D8900E3234
:10CF7A000D320C320B32000E0B14056E000E0C141F
:10CF8A00066E000E0D14076EFF0E0E14086E055085
:10CF9A00061007100810D8A4D5EF67F0D7EF67F08E
:10CFAA00B4EF67F0DFEF67F00A06D8900B360C365D
:10CFBA000D360E360DBEE4EF67F0E6EF67F0EEEFE2
:10CFCA0067F0020E0A60ECEF67F0EEEF67F0D9EF58
:10CFDA0067F00AB0F3EF67F0F5EF67F0F6EF67F086
:10CFEA000D9ED8900A320AC005F0066A076A086AD6
:10CFFA0005C008F0076A066A056A05500B12065052
:10D00A000C1207500D1208500E120950D8B410EF26
:10D01A0068F012EF68F01AEF68F004BE19EF68F0D2
:10D02A0017EF68F01AEF68F00E8E0BC001F00CC013
:10D03A0002F00DC003F00EC004F01200B3C0FCF100
:10D04A00B4C0FDF1B5C0FEF1B6C0FFF1000E01019A
:10D05A00E06F000EE16F000EE26F000EE36F04EF67
:10D06A0069F0FCC121F0FDC122F0C80E236E010E49
:10D07A00246E0C0E256E500EBBEC5AF0E40E016EB7
:10D08A00010E026EC80E036E010E046E000E066ECD
:10D09A00040E056EF5EC5BF0E80E016E010E026EF1
:10D0AA00CC0E036E010E046E000E066E040E056EA3
:10D0BA00F5EC5BF0EC0E016E010E026ED00E036E03
:10D0CA00010E046E000E066E040E056EF5EC5BF0A2
:10D0DA00FEC121F0FFC122F0D40E236E010E246E90
:10D0EA000C0E256E510EBBEC5AF0F00E016E010EBD
:10D0FA00026ED40E036E010E046E000E066E040E4E
:10D10A00056EF5EC5BF0F40E016E010E026ED80EA0
:10D11A00036E010E046E000E066E040E056EF5EC2B
:10D12A005BF0F80E016E010E026EDC0E036E010E4C
:10D13A00046E000E066E040E056EF5EC5BF0000E32
:10D14A000001936F010E946F0A0E956FFF0E966F92
:10D15A00E4C197F0E5C198F0E6C199F0E7C19AF009
:10D16A00E8C19BF0E9C19CF0EAC19DF0EBC19EF0D9
:10D17A00ECC19FF0EDC1A0F0EEC1A1F0EFC1A2F0A9
:10D18A00F0C1A3F0F1C1A4F0F2C1A5F0F3C1A6F079
:10D19A00F4C1A7F0F5C1A8F0F6C1A9F0F7C1AAF049
:10D1AA00F8C1ABF0F9C1ACF0FAC1ADF0FBC1AEF019
:10D1BA0099EC5AF0000E026E010E036EC3EC5DF09C
:10D1CA000C0E0101FC255C6E000EFD215D6EFF0E4A
:10D1DA005C14FC6F7F0E5D14FD6F0C0EFE255C6EF9
:10D1EA00000EFF215D6EFF0E5C14FE6F7F0E5D1454
:10D1FA00FF6F010EE027000EE123E223E323000183
:10D20A00AF510101E05D0001B0510101E159000196
:10D21A00B1510101E2590001B2510101E359D8A00B
:10D22A0019EF69F01BEF69F036EF68F0120024C2BB
:10D23A0038F025C239F026C23AF027C23BF028C09E
:10D24A0038F029C039F02AC03AF02BC03BF0810EE1
:10D25A002C6EFF0E2D6E38C02EF039C02FF03AC05A
:10D26A0030F03BC031F0180E40EF69F0D8903132FF
:10D27A0030322F322E32E82E3BEF69F02E502C241A
:10D28A00366E000E2D20376E37BE55EF69F03750D7
:10D29A0009E1170E365CD8A055EF69F057EF69F02F
:10D2AA0061EF69F028C028F029C029F02AC02AF0C5
:10D2BA002BC02BF024EF6AF037BE66EF69F068EFF7
:10D2CA0069F0D8EF69F036C02CF0FF0E2D6EFF0E14
:10D2DA002E6E7F0E2F6E000E306E2C6677EF69F081
:10D2EA007FEF69F0303430322F322E322D322C2E2D
:10D2FA0072EF69F02DC032F02EC033F02FC034F037
:10D30A0030C035F0325038142C6E335039142D6E2B
:10D31A0034503A142E6E35503B142F6E2C502D106B
:10D32A002E102F10D8A49CEF69F09EEF69F0A0EFA1
:10D33A0069F057EF69F038C02CF039C02DF03AC0C7
:10D34A002EF03BC02FF0200EB0EF69F0D8902F32AC
:10D35A002E322D322C32E82EABEF69F02C502D10E4
:10D36A002E102F10D8B4BCEF69F0BEEF69F0C6EFEB
:10D37A0069F0325038263350392234503A22355027
:10D38A003B22321C2C6E331C2D6E341C2E6E351C27
:10D39A002F6E2C5038162D5039162E503A162F5003
:10D3AA003B161CEF6AF038C02CF039C02DF03AC099
:10D3BA002EF03BC02FF0200EE8EF69F0D8902F3204
:10D3CA002E322D322C32E82EE3EF69F02C502D103C
:10D3DA002E102F10D8A4F4EF69F0F6EF69F000EFE1
:10D3EA006AF0000E386E000E396E000E3A6E000EAC
:10D3FA003B6E1CEF6AF0D89038342C6E39342D6E9F
:10D40A003A342E6E3B342F6E2C502D102E102F10C6
:10D41A00D8B412EF6AF014EF6AF01CEF6AF0000E4B
:10D42A00386E000E396E800E3A6EBF0E3B6E38C0F3
:10D43A0028F039C029F03AC02AF03BC02BF012007C
:10D44A0049C00CF0ECEC5CF00001CF51D011D8A42B
:10D45A0031EF6AF033EF6AF039EF6AF0000E566E78
:10D46A001F0E556E3DEF6AF0CFC055F0D0C056F092
:10D47A00000E586E000E576EBBEF6AF049C003F0FB
:10D48A0030EC66F003C059F004C05AF0592806E19E
:10D49A005A28D8A453EF6AF055EF6AF06EEF6AF093
:10D4AA000001CF51D011D8A45DEF6AF05FEF6AF0A6
:10D4BA0068EF6AF057505810D8A466EF6AF068EF20
:10D4CA006AF06EEF6AF059C049F05AC04AF03AEF72
:10D4DA006BF057505810D8A475EF6AF077EF6AF0DE
:10D4EA009BEF6AF02B0E59185A10D8B47FEF6AF0E6
:10D4FA0081EF6AF08BEF6AF02D0E59185A10D8A4F2
:10D50A0089EF6AF08BEF6AF09BEF6AF0830E57247B
:10D51A00D96E020E5820DA6E600067F1DFFF574AB3
:10D52A00582A02012F4B302BBBEF6AF059C04BF03F
:10D53A00D00E4B26090E4B64A5EF6AF0A7EF6AF0EE
:10D54A008BEF6AF0592808E15A28D8B4AFEF6AF08D
:10D55A00B1EF6AF0D5EF6AF059C001F05AC002F093
:10D56A0049C003F028EC60F0D5EF6AF05550575CDB
:10D57A005850800A4B6E5650800A4B58D8B0C8EFA4
:10D58A006AF0CAEF6AF0D5EF6AF0585009E11F0E47
:10D59A00575CD8A0D3EF6AF0D5EF6AF043EF6AF090
:10D5AA00830E5724D96E020E5820DA6EDF6A830E74
:10D5BA00196E020E1A6E530E1B6E000E1D6E0A0EA7
:10D5CA001C6E000E1E6E8DEC77F019C04BF01AC05F
:10D5DA004CF01BC04DF01CC04EF01DC04FF01EC0D9
:10D5EA0050F01FC051F020C052F04A50D96EDA6A8A
:10D5FA0060002FF1DEFF600033F1DEFF600037F1DB
:10D60A00DEFF60003BF1DEFF60003FF1DEFF6000FD
:10D61A0043F1DEFF600047F1DEFF60004BF1DEFF01
:10D62A000001D151D211D8A41DEF6BF01FEF6BF09E
:10D63A0036EF6BF057505810D8B426EF6BF028EF3E
:10D64A006BF036EF6BF0D951D8B42EEF6BF031EFA7
:10D65A006BF0010E32EF6BF0000E496E4A6A3AEF38
:10D66A006BF0FF0E4A6EFE0E496E120000018D51DC
:10D67A00D96EDA6A6F007BFFF6FF6F0077FFF7FF5C
:10D68A00F86A0800F550250AD8A44EEF6BF050EF5F
:10D69A006BF066EF6CF08D51D96EDA6ADE2A000EF5
:10D6AA00DD22000E0201326F000E316F31C2DAF054
:10D6BA000001D369D4698D51D96EDA6A6F007BFF94
:10D6CA00F6FF6F0077FFF7FFF86A0800F5502E0A99
:10D6DA00D8A472EF6BF074EF6BF084EF6BF08D519E
:10D6EA00D96EDA6ADE2A000EDD228DC007F08EC0FE
:10D6FA0008F01FEC62F007C0D3F008C0D4F00001B4
:10D70A008D51D96EDA6A6F0078FF4BF06F0074FFA3
:10D71A004CF060002FF1F6FF600033F1F7FFF86A72
:10D72A0008006F00D4FF4AF0A7EF6BF04B4A4C2A6F
:10D73A00C0EF6BF06C0E4A6EC0EF6BF0000E4A6ED3
:10D74A00C0EF6BF04A50446E456A4550000AD8B49F
:10D75A00B1EF6BF0A3EF6BF044504C0AD8B49BEFD7
:10D76A006BF02A0AD8B49FEF6BF00A0AD8B49BEF81
:10D77A006BF0A3EF6BF060002FF1F6FF600033F15E
:10D78A00F7FFF86A0800F550660AD8A4CFEF6BF0E5
:10D79A00D1EF6BF05DEF6CF005EF6CF08E51D96E46
:10D7AA00DA6A6F007CFF44F0040EDF264450D96E1B
:10D7BA00DA6A6F0078FF46F06F0078FF47F06F0073
:10D7CA0078FF48F06F0078FF49F01AEF6CF08E513D
:10D7DA00D96EDA6A6F007CFF44F0040EDF264450EB
:10D7EA00D96EDA6A6F0078FF46F06F0078FF47F06B
:10D7FA006F0078FF48F06F0078FF49F01AEF6CF07D
:10D80A004A50446E456A4550000AD8B40FEF6CF08E
:10D81A001AEF6CF044504C0AD8B4ECEF6BF0200AC3
:10D82A00D8B4D3EF6BF01AEF6CF0010E4B24446EB0
:10D83A00000E4C20456E8D51D96EDA6A600013F1E4
:10D84A00DEFF600017F1DDFF44EF6CF08CC03CF0A6
:10D85A0046C03DF047C03EF048C03FF049C040F0E6
:10D86A0060002FF1F6FF600033F1F7FFF86A080055
:10D87A006F00D4FF41F053EC7AF07AEF6CF060005D
:10D88A002FF1F6FF600033F1F7FFF86A0800F55050
:10D89A00446E456A4550000AD8B456EF6CF05DEF05
:10D8AA006CF04450660AD8B42BEF6CF05DEF6CF064
:10D8BA0000018D51D96EDA6ADE2A000EDD227AEF76
:10D8CA006CF08D51D96EDA6A6F007BFFF6FF6F003C
:10D8DA0077FFF7FFF86A0800F550036E046A8CC0F8
:10D8EA0005F07EEC62F05DEF6CF012003B0E176EF5
:10D8FA00330E186E000E1A6E0C0E196E680EFCECC2
:10D90A005DF0345033C031F0326A31C032F0316ADE
:10D91A0031103F6E3250406E365035C031F0326AA7
:10D92A0031C032F0316A3110416E3250426E385095
:10D93A0037C031F0326A31C032F0316A3110436E89
:10D94A003250446E3A5039C031F0326A31C032F046
:10D95A00316A3110456E3250466E3C503BC031F050
:10D96A00326A31C032F0316A3110476E3250486E35
:10D97A003E503DC031F0326A31C032F0316A311066
:10D98A00496E32504A6E3FC001F040C002F0000EAC
:10D99A0002BEFF0E036E046E010E49EC67F001C071
:10D9AA000FF002C010F003C011F004C012F0000E14
:10D9BA00136E000E146E800E156E460E166E4AEC2D
:10D9CA006FF02850D96EDA6A60003FF0DEFF60001F
:10D9DA0043F0DEFF600047F0DEFF60004BF0DEFF41
:10D9EA0041C001F042C002F0000E02BEFF0E036EFB
:10D9FA00046E010E49EC67F001C00FF002C010F08E
:10DA0A0003C011F004C012F0000E136E000E146E63
:10DA1A00800E156E460E166E4AEC6FF02950D96EBE
:10DA2A00DA6A60003FF0DEFF600043F0DEFF60006C
:10DA3A0047F0DEFF60004BF0DEFF43C001F044C058
:10DA4A0002F0000E02BEFF0E036E046E010E49ECD8
:10DA5A0067F001C00FF002C010F003C011F004C05B
:10DA6A0012F0000E136E000E146E800E156E460E26
:10DA7A00166E4AEC6FF02A50D96EDA6A60003FF0EF
:10DA8A00DEFF600043F0DEFF600047F0DEFF60006B
:10DA9A004BF0DEFF45C001F046C002F0000E02BEA8
:10DAAA00FF0E036E046E010E49EC67F001C00FF021
:10DABA0002C010F003C011F004C012F0000E136E81
:10DACA00000E146E030E156E430E166E4AEC6FF0BE
:10DADA006000AFF0D9FF6000B3F0DAFF60003FF0FA
:10DAEA00DEFF600043F0DEFF600047F0DEFF60000B
:10DAFA004BF0DEFF47C001F048C002F0000E02BE44
:10DB0A00FF0E036E046E010E49EC67F001C00FF0C0
:10DB1A0002C010F003C011F004C012F0000E136E20
:10DB2A00000E146E030E156E430E166E4AEC6FF05D
:10DB3A006000B7F0D9FF6000BBF0DAFF60003FF089
:10DB4A00DEFF600043F0DEFF600047F0DEFF6000AA
:10DB5A004BF0DEFF49C001F04AC002F0000E02BEDF
:10DB6A00FF0E036E046E010E49EC67F001C00FF060
:10DB7A0002C010F003C011F004C012F0000E136EC0
:10DB8A00000E146E030E156E430E166E4AEC6FF0FD
:10DB9A006000BFF0D9FF6000C3F0DAFF60003FF019
:10DBAA00DEFF600043F0DEFF600047F0DEFF60004A
:10DBBA004BF0DEFF1200000E0001C96F000ECA6FA3
:10DBCA00000ECB6F000ECC6F93EF6EF0E50E286E51
:10DBDA00E10E296EDD0E2A6EC30E2B6E020E2C6E1E
:10DBEA00BF0E2D6E020E2E6EBB0E2F6E020E306E03
:10DBFA007BEC6CF0A30E016E020E026EE50E036E54
:10DC0A00046A000E066E040E056EF5EC5BF0A70EB4
:10DC1A00016E020E026EE10E036E046A000E066EBB
:10DC2A00040E056EF5EC5BF0AB0E016E020E026E91
:10DC3A00DD0E036E046A000E066E040E056EF5EC28
:10DC4A005BF0AF0E016E020E026EC30E036E020E81
:10DC5A00046E000E066E040E056EF5EC5BF0B30E54
:10DC6A00016E020E026EBF0E036E020E046E000EED
:10DC7A00066E040E056EF5EC5BF0B70E016E020E31
:10DC8A00026EBB0E036E020E046E000E066E040ECA
:10DC9A00056EF5EC5BF0D7C023F0D8C024F0A30ED4
:10DCAA00256E020E266E0C0E276E500E12EC5AF0DE
:10DCBA00D5C023F0D6C024F0AF0E256E020E266E14
:10DCCA000C0E276E510E12EC5AF00C0E0001D725DD
:10DCDA00B76F000ED821B86FFF0EB715D76F7F0E3A
:10DCEA00B815D86F0C0ED525B76F000ED621B86FB0
:10DCFA00FF0EB715D56F7F0EB815D66F010EC9275F
:10DD0A00000ECA23CB23CC23C7C201F0C8C202F03B
:10DD1A00C9C203F0CAC204F0B6EC59F00001E951D5
:10DD2A00C95DEA51CA59EB51CB59EC51CC59D8A02B
:10DD3A00A1EF6EF0A3EF6EF0EBEF6DF0E951C919A8
:10DD4A000DE1EA51CA190AE1EB51CB1907E1EC518D
:10DD5A00CC19D8A4B3EF6EF0B5EF6EF040EF6FF0C8
:10DD6A009E0E026EFF0E036EC3EC5DF00001D751EA
:10DD7A00D811D8B4C3EF6EF0C5EF6EF0CDEF6EF0E8
:10DD8A00D7C0C1F0D8C0C2F0C36BC46BD5EF6EF078
:10DD9A00000EC16F800EC26F000EC36F000EC46FFB
:10DDAA00E9C001F0EAC002F0EBC003F0ECC004F0F5
:10DDBA00F40E056EFF0E066EFF0E076EFF0E086E5E
:10DDCA0056EC5DF00001C1510124B96FC251022025
:10DDDA00BA6FC3510320BB6FC4510420BC6FD55125
:10DDEA00D611D8B4FBEF6EF0FDEF6EF005EF6FF0D1
:10DDFA00D5C0C5F0D6C0C6F0C76BC86B0DEF6FF0C3
:10DE0A00000EC56F800EC66F000EC76F000EC86F7A
:10DE1A00E9C001F0EAC002F0EBC003F0ECC004F084
:10DE2A00F40E056EFF0E066EFF0E076EFF0E086EED
:10DE3A0056EC5DF00001C5510124BD6FC6510220A8
:10DE4A00BE6FC7510320BF6FC8510420C06FE9C01D
:10DE5A00AFF0EAC0B0F0EBC0B1F0ECC0B2F0B9C0BC
:10DE6A00B3F0BAC0B4F0BDC0B5F0BEC0B6F023EC92
:10DE7A0068F046EF6FF0E60E026EFF0E036EC3EC1B
:10DE8A005DF0000E0001DB6F12001250800B1F6E56
:10DE9A0012501224266E11AE55EF6FF057EF6FF045
:10DEAA0058EF6FF026802650D8B45EEF6FF060EF1F
:10DEBA006FF075EF6FF02628D8A466EF6FF068EF61
:10DECA006FF070EF6FF0000E0F6E000E106E000E06
:10DEDA00116E000E126E118E000E126E7DEF6FF033
:10DEEA00000E0F6E000E106E000E116E000E126EF6
:10DEFA001650800B1F1A16501624276E15AE88EF7F
:10DF0A006FF08AEF6FF08BEF6FF027802750D8B44D
:10DF1A0091EF6FF093EF6FF0A8EF6FF02728D8A476
:10DF2A0099EF6FF09BEF6FF0A3EF6FF0000E136E97
:10DF3A00000E146E000E156E000E166E158E000E73
:10DF4A00166EB0EF6FF0000E136E000E146E000E18
:10DF5A00156E000E166E1350141015101610D8A454
:10DF6A00B9EF6FF0BBEF6FF0D3EF6FF0000E0F6EEB
:10DF7A00000E106E000E116E000E126E800E11123F
:10DF8A007F0E12121F5012120FC00FF010C010F0A5
:10DF9A0011C011F012C012F016EF71F02650D8A479
:10DFAA00D9EF6FF0DBEF6FF0E5EF6FF0000E0F6E59
:10DFBA00000E106E000E116E000E126E16EF71F04A
:10DFCA00275026C017F0186A175E000E185A7F0EDF
:10DFDA001724206E000E1820216E0FC01BF010C0EF
:10DFEA001CF011C01DF012C01EF0000E0F6E000EC4
:10DFFA00106E000E116E000E126E000E226E000ED2
:10E00A00236E000E246E000E256E000E276E46EF5C
:10E01A0070F02750D8B414EF70F016EF70F02DEFAF
:10E02A0070F0D8901B361C361D361E36D8900F3627
:10E03A0010361136123625AE25EF70F027EF70F044
:10E04A0028EF70F00F80D8902236233624362536F2
:10E05A0013501B5C14501C5815501D5816501E584E
:10E06A00D8A03AEF70F03CEF70F045EF70F0258CD5
:10E07A0013501B5E14501C5A15501D5A16501E5A26
:10E08A00272A190E27644CEF70F04EEF70F00EEF4E
:10E09A0070F01B501C101D101E10D8B457EF70F0F2
:10E0AA0059EF70F071EF70F0228071EF70F0D89034
:10E0BA000F3610361136123625AE66EF70F068EF5D
:10E0CA0070F069EF70F00F80D8902236233624362C
:10E0DA0025362006D8A0210611AE76EF70F078EF2B
:10E0EA0070F05CEF70F0000E276E25AE7FEF70F0D7
:10E0FA0081EF70F0A5EF70F0FF0E2214176EFF0E7D
:10E10A002314186EFF0E2414196E7F0E25141A6E2E
:10E11A001750181019101A10D8B496EF70F098EF1B
:10E12A0070F09CEF70F0010E276EA5EF70F00FA053
:10E13A00A1EF70F0A3EF70F0A5EF70F098EF70F018
:10E14A002750D8B4ABEF70F0ADEF70F0D1EF70F0AC
:10E15A00010E0F26000E10221122122212A0B8EF71
:10E16A0070F0BAEF70F0D1EF70F00FC017F010C076
:10E17A0018F011C019F012C01AF01A341A321932F2
:10E18A001832173217C00FF018C010F019C011F06A
:10E19A001AC012F0204A212A21BEDCEF70F0215069
:10E1AA0008E12028D8A0DCEF70F0DEEF70F0E9EF8C
:10E1BA0070F0000E216E2068000E0F6E000E106EB9
:10E1CA00000E116E000E126E21BEF6EF70F0215095
:10E1DA0006E12004D8B0F4EF70F0F6EF70F004EF27
:10E1EA0071F0000E216E000E206E000E0F6E000EF2
:10E1FA00106E000E116E000E126E000E1F6E20C001
:10E20A0026F026A00BEF71F00DEF71F010EF71F010
:10E21A00118E11EF71F0119ED8902630126EC7EF51
:10E22A006FF012005C50D96EDA6A6F007BFFF6FF5E
:10E23A006F0077FFF7FFF86A0800F550250AD8A49F
:10E24A0029EF71F02BEF71F03DEF72F05C50D96E4F
:10E25A00DA6ADE2A000EDD22000E0001D06F000EFF
:10E26A00CF6FCF51D011D8A43DEF71F040EF71F0CC
:10E27A00010E41EF71F0000ED96F5C50D96EDA6A67
:10E28A006F007BFFF6FF6F0077FFF7FFF86A080061
:10E29A00F550750AD8A454EF71F056EF71F08DEF6E
:10E2AA0071F05C50D96EDA6ADE2A000EDD225BC09C
:10E2BA0049F0630E4A6E25EC6AF049C06BF04AC019
:10E2CA006CF000016CBF72EF71F06C5108E16B05E4
:10E2DA00D8A072EF71F074EF71F087EF71F05D50B2
:10E2EA00D96EDA6ADF2ADF04D96EDA6A6F0078FF3C
:10E2FA0062F06251D96EDA6A60008FF1DEFF600067
:10E30A0093F1DDFF6BC05BF06CC05CF005EF73F05E
:10E31A005C50D96EDA6A6F0078FF01F06F0074FF03
:10E32A0002F0F70E036EFF0E046E000E066E020E6A
:10E33A00056E31EC64F001500210D8A4A7EF71F019
:10E34A00A9EF71F0E3EF71F05C50D96EDA6A020E50
:10E35A00DE26000EDD225BC049F0630E4A6E25EC14
:10E36A006AF049C06BF04AC06CF000016CBFC6EF9E
:10E37A0071F06C5108E16B05D8A0C6EF71F0C8EFD7
:10E38A0071F087EF71F05D50D96EDA6ADF2ADF0427
:10E39A00D96EDA6A6F0078FF62F06251D96EDA6A72
:10E3AA0060008FF1DEFF600093F1DEFF600097F1FD
:10E3BA00DEFF60009BF1DEFF87EF71F05C50D96EE3
:10E3CA00DA6A6F007BFFF6FF6F0077FFF7FFF86AE4
:10E3DA000800F550250AD8A4F5EF71F0F7EF71F0AF
:10E3EA0035EF72F05BC00CF0ECEC5CF05BC003F054
:10E3FA0030EC66F003C06DF004C06EF0250E00012B
:10E40A006D196E11D8A40CEF72F00EEF72F01DEFB9
:10E41A0072F05C50D96EDA6ADE2A000EDD22020141
:10E42A002F4B302B000E5C6E000E5B6E05EF73F007
:10E43A006D2908E16E29D8B425EF72F027EF72F042
:10E44A002FEF72F06DC001F06EC002F05BC003F0F6
:10E45A0028EC60F0FF0E5C6EFE0E5B6E05EF73F04B
:10E46A005C50D96EDA6ADE2A000EDD2217EF72F0EE
:10E47A005BC003F030EC66F003C06DF004C06EF0D0
:10E48A005C50D96EDA6A6F007BFFF6FF6F0077FF88
:10E49A00F7FFF86A0800F550200AD8B457EF72F06F
:10E4AA0059EF72F072EF72F05C50D96EDA6A6F004F
:10E4BA007BFFF6FF6F0077FFF7FFF86A08006F002F
:10E4CA00D4FF60F0F70E00016027050E606170EF5F
:10E4DA0072F072EF72F0DDEF72F05C50D96EDA6AA8
:10E4EA00DE2A000EDD225C50D96EDA6A6F007BFFED
:10E4FA00F6FF6F0077FFF7FFF86A0800F550200A69
:10E50A00D8B48AEF72F08CEF72F072EF72F05C504E
:10E51A00D96EDA6A6F007BFFF6FF6F0077FFF7FFAD
:10E52A00F86A08006F00D4FF60F0F70E0001602758
:10E53A00040E6065A3EF72F0A5EF72F072EF72F04D
:10E54A00B2EF72F002012F4B302B5BC003F030ECBC
:10E55A0066F003C06DF004C06EF0200E00016D1964
:10E56A006E11D8B4BBEF72F0BDEF72F0A7EF72F084
:10E57A006DC060F0F70E6027040E6065C7EF72F099
:10E58A00C9EF72F0A7EF72F06D2908E16E29D8B4CD
:10E59A00D1EF72F0D3EF72F017EF72F06DC001F0A5
:10E5AA006EC002F05BC003F028EC60F017EF72F067
:10E5BA005C50D96EDA6A6F007BFFF6FF6F0077FF57
:10E5CA00F7FFF86A0800F550606F616B6D516019CA
:10E5DA0007E16E516119D8A4F5EF72F0F7EF72F006
:10E5EA00F9EF72F00EEF72F06D2906E16E29D8A4E8
:10E5FA0001EF73F003EF73F027EF72F05B685C686A
:10E60A0012000450800B0D6E04500424136E03AEE6
:10E61A0011EF73F013EF73F014EF73F013801350CC
:10E62A00D8B41AEF73F01CEF73F02FEF73F01328BE
:10E63A00D8A422EF73F024EF73F02CEF73F0000EDE
:10E64A00016E000E026E000E036E000E046E038E43
:10E65A0037EF73F0000E016E000E026E000E036EAD
:10E66A00000E046E0850800B0D1A085008240E6E16
:10E67A0007AE42EF73F044EF73F045EF73F00E808C
:10E68A000E50D8B44BEF73F04DEF73F060EF73F0A8
:10E69A000E28D8A453EF73F055EF73F05DEF73F0C3
:10E6AA00000E056E000E066E000E076E000E086E56
:10E6BA00078E68EF73F0000E056E000E066E000EF0
:10E6CA00076E000E086E0E50D8B46EEF73F070EF3E
:10E6DA0073F078EF73F01350D8A476EF73F078EFF5
:10E6EA0073F082EF73F0000E016E000E026E000EE0
:10E6FA00036E000E046E2CEF75F0075001026F00D6
:10E70A00CCFF18F06F00D0FF19F018500F6E106A86
:10E71A00116A126A1950146E156A166A176A065037
:10E72A0002026F00CCFF18F06F00D0FF19F01850EA
:10E73A000F26000E10221122122219501426000E42
:10E74A00152216221722055003026F00CCFF18F07B
:10E75A006F00D0FF19F018500F26000E1022112258
:10E76A00122219501426000E15221622172211C041
:10E77A0012F010C011F00FC010F00F6A055002021B
:10E78A006F00CCFF18F06F00D0FF19F018500F2659
:10E79A0019501022000E1122000E122206500102F8
:10E7AA006F00CCFF18F06F00D0FF19F018500F2639
:10E7BA0019501022000E1122000E122211C012F05E
:10E7CA0010C011F00FC010F00F6A055001026F005F
:10E7DA00CCFF18F06F00D0FF19F018500F2619500F
:10E7EA001022000E1122000E1222075002026F00A0
:10E7FA00CCFF18F06F00D0FF19F0185014261950EA
:10E80A001522000E1622000E1722065003026F0070
:10E81A00CCFF18F06F00D0FF19F0185014261950C9
:10E82A001522000E1622000E1722075003026F004F
:10E83A00CCFF18F06F00D0FF19F01850096E19506C
:10E84A000A6E0B6A0C6A0BC00CF00AC00BF009C006
:10E85A000AF0096A095014260A5015220B5016228A
:10E86A000C5017220FC009F010C00AF011C00BF0AB
:10E87A0012C00CF0190E47EF74F0D8900C320B321C
:10E88A000A320932E82E42EF74F0095014260A506F
:10E89A0015220B5016220C50172211C012F010C06C
:10E8AA0011F00FC010F00F6A0E5013C009F00A6A77
:10E8BA000926000E0A22820E0924186EFF0E0A206B
:10E8CA00196E7DEF74F0D890143615361636173651
:10E8DA0012AE72EF74F074EF74F075EF74F0148086
:10E8EA00D8900F361036113612361806D8A01906E7
:10E8FA0016AE82EF74F084EF74F068EF74F0000ED5
:10E90A000E6E12AE8BEF74F08DEF74F0B1EF74F0FF
:10E91A00FF0E0F14096EFF0E10140A6EFF0E11146B
:10E92A000B6E7F0E12140C6E09500A100B100C108D
:10E93A00D8B4A2EF74F0A4EF74F0A8EF74F0010E4B
:10E94A000E6EB1EF74F014A0ADEF74F0AFEF74F087
:10E95A00B1EF74F0A4EF74F00E50D8B4B7EF74F0BE
:10E96A00B9EF74F0DDEF74F0010E1426000E1522D3
:10E97A001622172217A0C4EF74F0C6EF74F0DDEF69
:10E98A0074F014C009F015C00AF016C00BF017C0D5
:10E99A000CF00C340C320B320A32093209C014F072
:10E9AA000AC015F00BC016F00CC017F0184A192A45
:10E9BA0019BEE8EF74F0195008E11828D8A0E8EF5A
:10E9CA0074F0EAEF74F0F4EF74F0000E146E000EB7
:10E9DA00156E800E166E7F0E176E22EF75F019BE39
:10E9EA0001EF75F0195006E11804D8B0FFEF74F082
:10E9FA0001EF75F00DEF75F0000E146E000E156E36
:10EA0A00000E166E000E176E000E0D6E22EF75F0D8
:10EA1A0018C013F0FF0E1416FF0E15167F0E1616E9
:10EA2A00000E171613A01CEF75F01EEF75F01FEFFE
:10EA3A0075F0168ED8901330176E0D50171214C039
:10EA4A0001F015C002F016C003F017C004F012005E
:10EA5A000450800B0D6E045004240F6E03AE38EF81
:10EA6A0075F03AEF75F03BEF75F00F800F50D8B4A0
:10EA7A0041EF75F043EF75F058EF75F00F28D8A401
:10EA8A0049EF75F04BEF75F053EF75F0000E016E1C
:10EA9A00000E026E000E036E000E046E038E000E50
:10EAAA00046E60EF75F0000E016E000E026E000E2D
:10EABA00036E000E046E0850800B0E6E0D500E1879
:10EACA00D8B46AEF75F06CEF75F06DEF75F00D8CD8
:10EADA00085008240E6E07AE75EF75F077EF75F0E3
:10EAEA0078EF75F00E800E50D8B47EEF75F080EF97
:10EAFA0075F095EF75F00E28D8A486EF75F088EFBB
:10EB0A0075F090EF75F0000E056E000E066E000EA1
:10EB1A00076E000E086E078E000E086E9DEF75F0E8
:10EB2A00000E056E000E066E000E076E000E086ED1
:10EB3A000F500E5CD8B0A4EF75F0A6EF75F0CDEFCC
:10EB4A0075F00DACABEF75F0ADEF75F0AFEF75F09A
:10EB5A00800E0D1A0FC010F00EC00FF010C00EF08C
:10EB6A0001C010F005C001F010C005F002C010F09D
:10EB7A0006C002F010C006F003C010F007C003F090
:10EB8A0010C007F004C010F008C004F010C008F06C
:10EB9A00000E106E0F500EC009F00A6A095E000ED0
:10EBAA000A5A0ABEE2EF75F00A5009E11A0E095C28
:10EBBA00D8A0E2EF75F0E4EF75F01BEF76F00150A4
:10EBCA00021003100410D8A4EDEF75F0F0EF75F001
:10EBDA00010EF1EF75F0000E106E000E016E000EC0
:10EBEA00026E000E036E000E046E0EC00FF024EFCC
:10EBFA0076F010A003EF76F005EF76F00BEF76F0E3
:10EC0A00D89010300109106E0DEF76F0D8901032BE
:10EC1A0001A012EF76F014EF76F015EF76F0108E71
:10EC2A00043404320332023201320F2A0E500F5CCE
:10EC3A00D8A022EF76F024EF76F0FEEF75F00DBC47
:10EC4A0029EF76F02BEF76F06BEF76F00F50D8A421
:10EC5A0031EF76F033EF76F03DEF76F0000E016E8D
:10EC6A00000E026E000E036E000E046E8CEF77F03B
:10EC7A00055001260650022207500322085004229A
:10EC8A0004A04AEF76F04CEF76F0F8EF76F010A099
:10EC9A0051EF76F053EF76F059EF76F0D8901030C6
:10ECAA000109106E5BEF76F0D890103201A060EF88
:10ECBA0076F062EF76F063EF76F0108E0434043269
:10ECCA000332023201320F2AF8EF76F00550015C66
:10ECDA0006500258075003580450800A096E08501B
:10ECEA00800A0958D8B07CEF76F07EEF76F0A9EF6B
:10ECFA0076F00150055C096E025006580A6E035000
:10ED0A0007580B6E045008580C6EFF0E0924016E4A
:10ED1A00FF0E0A20026EFF0E0B20036EFF0E0C2060
:10ED2A00046E800E0D1A106C1050D8A49FEF76F066
:10ED3A00A1EF76F0B1EF76F0010E0126000E022265
:10ED4A0003220422B1EF76F00550015E0650025A02
:10ED5A000750035A0850045A0150021003100410B5
:10ED6A00D8A4BAEF76F0BCEF76F0F1EF76F0105057
:10ED7A00D8A4C2EF76F0C4EF76F0F1EF76F0000E89
:10ED8A00016E000E026E000E036E000E046E8CEF12
:10ED9A0077F0D890013602360336043610AED8EF33
:10EDAA0076F0DAEF76F0DBEF76F0018010A0E0EF94
:10EDBA0076F0E2EF76F0E6EF76F0D8801036E8EFFC
:10EDCA0076F0D89010360F50D8B4EEEF76F0F0EF18
:10EDDA0076F0F1EF76F00F0603AEF6EF76F0F8EF85
:10EDEA0076F0CEEF76F0000E0E6E10AEFFEF76F0F4
:10EDFA0001EF77F019EF77F010C009F07F0E0916CE
:10EE0A00D8B40AEF77F00CEF77F010EF77F0010E35
:10EE1A000E6E19EF77F001A015EF77F017EF77F084
:10EE2A0019EF77F00CEF77F00E50D8B41FEF77F0A8
:10EE3A0021EF77F04CEF77F0010E0126000E022247
:10EE4A000322042204A02CEF77F02EEF77F04CEF88
:10EE5A0077F001C009F002C00AF003C00BF004C049
:10EE6A000CF00C340C320B320A32093209C001F0B0
:10EE7A000AC002F00BC003F00CC004F00F28D8B48B
:10EE8A0049EF77F04BEF77F04CEF77F00F2A0F2826
:10EE9A00D8B452EF77F054EF77F05CEF77F00F5079
:10EEAA00D8A45AEF77F05CEF77F06EEF77F0000EA8
:10EEBA00016E000E026E000E036E000E046E0F50FD
:10EECA00D8A46AEF77F06CEF77F06EEF77F0000E68
:10EEDA000D6E0FA073EF77F075EF77F078EF77F09C
:10EEEA00038E79EF77F0039ED8900F30046E0DAE43
:10EEFA0081EF77F083EF77F084EF77F0048E01C02B
:10EF0A0001F002C002F003C003F004C004F01200D2
:10EF1A00000E3D6E20EE3EF0070EDE6AE806FDE2C8
:10EF2A0019C046F01AC047F01DBEA7EF77F01D5072
:10EF3A0007E1250E1C5CD8B0A5EF77F0A7EF77F0B4
:10EF4A00B0EF77F01C041D10D8A4AEEF77F0B0EF45
:10EF5A0077F0B7EF77F0000E0001D26F160ED16F7F
:10EF6A0026EF7AF046504710D8B4BEEF77F0C0EFDC
:10EF7A0077F026EF7AF060001BF1D9FF60001FF1ED
:10EF8A00DAFFDF50D8A4CCEF77F0CEEF77F0D0EFEE
:10EF9A0077F026EF7AF060001BF1D9FF60001FF1CD
:10EFAA00DAFFDF50486EE4EF77F0464A472A6000FE
:10EFBA001BF1D9FF60001FF1DAFFDF50486E200E07
:10EFCA004818D8B4EBEF77F0EDEF77F0DAEF77F097
:10EFDA0048C021F0F70E2126040E2164F7EF77F0DE
:10EFEA00F9EF77F0DAEF77F02D0E4818D8A400EF92
:10EFFA0078F002EF78F00FEF78F03D80464A472A22
:10F00A0060001BF1D9FF60001FF1DAFFDF50486E84
:10F01A001AEF78F02B0E4818D8A416EF78F018EFEC
:10F02A0078F01AEF78F003EF78F0300E4818D8A489
:10F03A0021EF78F023EF78F0C0EF78F0464A472ABC
:10F04A0060001BF1D9FF60001FF1DAFFDF50486E44
:10F05A001C501D10D8B434EF78F036EF78F040EF3A
:10F06A0078F0100E1C181D10D8A43EEF78F040EF6F
:10F07A0078F0B2EF78F0780E4818D8B447EF78F005
:10F08A0049EF78F052EF78F0580E4818D8A450EFAC
:10F09A0078F052EF78F0B2EF78F0000E1D6E100E95
:10F0AA001C6E464A472A60001BF1D9FF60001FF117
:10F0BA00DAFFDF50486E48C021F0200E21129F0E61
:10F0CA0021261A0E21606CEF78F06EEF78F092EF3D
:10F0DA0078F048C021F09F0E2126190E216478EF9E
:10F0EA0078F07AEF78F07FEF78F048C031F0326A42
:10F0FA0086EF78F048C021F05F0E21162150316E5C
:10F10A00326A31C021F0C90E2126100E216090EF1B
:10F11A0078F092EF78F0ACEF78F048C021F0200E4A
:10F12A0021129F0E2126190E21649EEF78F0A0EF7E
:10F13A0078F0C0EF78F048C021F0D00E2126090EF1
:10F14A002164AAEF78F0ACEF78F0C0EF78F03D8454
:10F15A004606D8A0470626EF7AF03D841C501D10BB
:10F16A00D8A4BAEF78F0BCEF78F0C0EF78F0000ED0
:10F17A001D6E080E1C6E1C501D10D8A4C7EF78F027
:10F18A00C9EF78F0CDEF78F0000E1D6E0A0E1C6EF6
:10F19A001E50D8B4D3EF78F0D5EF78F000EF79F0BD
:10F1AA003DB0DAEF78F0DCEF78F0EEEF78F0FF0EB2
:10F1BA00356EFF0E366EFF0E376EFF0E386EFF0E7F
:10F1CA00396EFF0E3A6EFF0E3B6E7F0E3C6E08EFF5
:10F1DA0079F0000E356E000E366E000E376E000E98
:10F1EA00386E000E396E000E3A6E000E3B6E800EBF
:10F1FA003C6E08EF79F035683668376838683968E0
:10F20A003A683B683C683EC029F03FC02AF040C0DB
:10F21A002BF041C02CF042C02DF043C02EF044C068
:10F22A002FF045C030F048C021F0200E21129F0E69
:10F23A0021261A0E216024EF79F026EF79F043EFA8
:10F24A0079F048C021F09F0E2126190E216430EF73
:10F25A0079F032EF79F037EF79F048C033F0346A59
:10F26A003EEF79F048C021F05F0E21162150336E2F
:10F27A00346A3350C90F486E51EF79F048C021F013
:10F28A00D00E21260A0E21604DEF79F04FEF79F06A
:10F29A000CEF7AF0300E485E4850216E226A1C50FC
:10F2AA00215C2250800A236E1D50800A2358D8A060
:10F2BA0061EF79F063EF79F065EF79F00CEF7AF0AE
:10F2CA003DB26AEF79F06CEF79F0FFEF79F01CC08C
:10F2DA0001F01DC002F0000E02BEFF0E036E046EA6
:10F2EA00056E066E076E086E3EC009F03FC00AF052
:10F2FA0040C00BF041C00CF042C00DF043C00EF00C
:10F30A0044C00FF045C010F088EC5FF001C021F056
:10F31A0002C022F003C023F004C024F005C025F087
:10F32A0006C026F007C027F008C028F0485021245C
:10F33A003E6E000E22203F6E000E2320406E000E0D
:10F34A002420416E000E2520426E000E2620436EB8
:10F35A00000E2720446E000E2820456E29503E5C80
:10F36A002A503F582B5040582C5041582D50425843
:10F37A002E5043582F50445830504558D8A0C8EF03
:10F38A0079F0CAEF79F0E9EF79F01E50D8B4D0EFEE
:10F39A0079F0D2EF79F0FFEF79F03E50355C3F50CB
:10F3AA0036584050375841503858425039584350CF
:10F3BA003A5844503B5845503C58D8B0E7EF79F09A
:10F3CA00E9EF79F0FFEF79F035C03EF036C03FF053
:10F3DA0037C040F038C041F039C042F03AC043F07B
:10F3EA003BC044F03CC045F0000E0001D26F220E33
:10F3FA00D16F3D82464A472A60001BF1D9FF60005F
:10F40A001FF1DAFFDF50486E3D8408EF79F03D5076
:10F41A00030BE806D8A414EF7AF016EF7AF026EF79
:10F42A007AF0451E441E431E421E411E401E3F1EC8
:10F43A003E6C000E3F2240224122422243224422B5
:10F44A0045221B50D8B42CEF7AF02EEF7AF042EF17
:10F45A007AF03DB433EF7AF035EF7AF039EF7AF09B
:10F46A0019C046F01AC047F01B50D96EDA6A60001C
:10F47A001BF1DEFF60001FF1DDFF3EC019F03FC047
:10F48A001AF040C01BF041C01CF042C01DF043C03E
:10F49A001EF044C01FF045C020F01200000E00010B
:10F4AA00816F3DC082F03EC083F03FC084F040C00F
:10F4BA0085F085BF65EF7AF063EF7AF079EF7AF03D
:10F4CA00010E816F82C001F083C002F084C003F094
:10F4DA0085C004F09AEC59F001C082F002C083F0B2
:10F4EA0003C084F004C085F0000E0001876F000E8F
:10F4FA00866F31C271F032C272F08151D8B488EF8E
:10F50A007AF08AEF7AF09EEF7AF08151D8A490EFE0
:10F51A007AF092EF7AF098EF7AF0000E676F2B0E7E
:10F52A00666F9CEF7AF0000E676F2D0E666F66C0ED
:10F53A0081F082C001F083C002F084C003F085C06C
:10F54A0004F0ACEC64F001040210D8A4AFEF7AF036
:10F55A00B1EF7AF0E2EF7AF000018151D8B4B8EF56
:10F56A007AF0BAEF7AF0C3EF7AF081C033F271071A
:10F57A00D8A07207000E876F010E866F330E86259C
:10F58A00016E020E8721026EEF0E036EFF0E046EED
:10F59A0077EC5AF00001FD0E7127FF0E72233CC072
:10F5AA0011F0330E126E020E136E71C014F072C097
:10F5BA0015F050EC5CF04BEF7FF082C001F083C095
:10F5CA0002F084C003F085C004F0ACEC64F0015092
:10F5DA000210D8A4F3EF7AF0F5EF7AF015EF7BF08A
:10F5EA0000018151D8B4FCEF7AF0FEEF7AF007EF10
:10F5FA007BF081C033F27107D8A07207000E876FC3
:10F60A00010E866F330E8625016E020E8721026E69
:10F61A00F30E036EFF0E046E77EC5AF0CFEF7AF01A
:10F62A00000E0001886F000E896F800E8A6F3F0EF0
:10F63A008B6F000E706F000E6F6F82C001F083C077
:10F64A0002F084C003F085C004F0000E056E000EBF
:10F65A00066E000E076E000E086E72EC61F0D8B0EE
:10F66A0039EF7BF03BEF7BF01AEF7CF048EF7BF051
:10F67A0073C088F074C089F075C08AF076C08BF0C8
:10F68A0000016F4B702B88C001F089C002F08AC05C
:10F69A0003F08BC004F0000E056E000E066E200EFD
:10F6AA00076E410E086E06EC73F001C073F002C0DB
:10F6BA0074F003C075F004C076F000017351825DE6
:10F6CA00016E74518359026E75518459036E7651D5
:10F6DA008559046E9EEC5BF004BE7FEF7BF004500C
:10F6EA000310021009E1020E015CD8A07FEF7BF043
:10F6FA0081EF7BF03DEF7BF073C01AF074C01BF012
:10F70A0075C01CF076C01DF082C01EF083C01FF0C9
:10F71A0084C020F085C021F02BEC65F0D8A098EFCA
:10F72A007BF09AEF7BF03DEF7BF000018851825D20
:10F73A00016E89518359026E8A518459036E8B5125
:10F74A008559046E9EEC5BF004BEB9EF7BF0045061
:10F75A000310021007E1020E015CD8B0B7EF7BF08C
:10F76A00B9EF7BF001EF7CF088C082F089C083F0AA
:10F77A008AC084F08BC085F01AEF7CF088C00FF045
:10F78A0089C010F08AC011F08BC012F0000E136EFF
:10F79A00000E146E200E156E410E166E4AEC6FF0B6
:10F7AA000FC088F010C089F011C08AF012C08BF027
:10F7BA0000016F07D8A070078851825D016E8951D8
:10F7CA008359026E8A518459036E8B518559046E8E
:10F7DA009EEC5BF004BEFFEF7BF0045003100210B6
:10F7EA0007E1020E015CD8B0FDEF7BF0FFEF7BF082
:10F7FA0001EF7CF0B9EF7BF082C01AF083C01BF0F6
:10F80A0084C01CF085C01DF088C01EF089C01FF09E
:10F81A008AC020F08BC021F02BEC65F0D8A018EF3D
:10F82A007CF01AEF7CF0C3EF7BF041C069F069C04D
:10F83A006AF00001D4BF24EF7CF026EF7CF02CEFB5
:10F84A007CF0D3C062F0D4C063F030EF7CF0000EDD
:10F85A00636F060E626F62C06DF063C06EF06D4B2F
:10F86A006E2B660E6A19D8A43DEF7CF03FEF7CF050
:10F87A005FEF7CF070BF46EF7CF044EF7CF052EF14
:10F88A007CF0000E886F000E896F800E8A6F3F0E23
:10F89A008B6F000E706F000E6F6F670E6919D8B408
:10F8AA0059EF7CF05BEF7CF05FEF7CF06F516D27D6
:10F8BA0070516E23000E786F000E776F82C079F058
:10F8CA0083C07AF084C07BF085C07CF088C073F076
:10F8DA0089C074F08AC075F08BC076F0F0EF7CF0C6
:10F8EA0079C00FF07AC010F07BC011F07CC012F022
:10F8FA0088C013F089C014F08AC015F08BC016F0C6
:10F90A004AEC6FF00FC028F010C029F011C02AF09D
:10F91A0012C02BF01CEC69F028C07DF029C07EF0E3
:10F92A002AC07FF02BC080F07DC001F07EC002F0BB
:10F93A007FC003F080C004F0ADEC65F001C06BF04D
:10F94A0002C06CF079C01AF07AC01BF07BC01CF0C0
:10F95A007CC01DF07DC005F07EC006F07FC007F0B8
:10F96A0080C008F088C001F089C002F08AC003F0A4
:10F97A008BC004F006EC73F001C01EF002C01FF049
:10F98A0003C020F004C021F0DEEC5AF01AC079F06E
:10F99A001BC07AF01CC07BF01DC07CF088C00FF041
:10F9AA0089C010F08AC011F08BC012F0000E136EDD
:10F9BA00000E146E200E156E410E166E4AEC6FF094
:10F9CA000FC088F010C089F011C08AF012C08BF005
:10F9DA000001774B782B6D51775D7851800A426E22
:10F9EA006E51800A4258D8A0FDEF7CF0FFEF7CF000
:10F9FA0075EF7CF088C001F089C002F08AC003F07C
:10FA0A008BC004F0000E056E000E066EA00E076E87
:10FA1A00400E086E06EC73F001C07DF002C07EF065
:10FA2A0003C07FF004C080F079C01AF07AC01BF0DE
:10FA3A007BC01CF07CC01DF07DC01EF07EC01FF094
:10FA4A007FC020F080C021F02BEC65F0D8B030EFF9
:10FA5A007DF032EF7DF03DEF7DF0000E00017D6F0D
:10FA6A00000E7E6F000E7F6F000E806F66EF7DF0D6
:10FA7A0079C001F07AC002F07BC003F07CC004F0C8
:10FA8A007DC005F07EC006F07FC007F080C008F098
:10FA9A0072EC61F0D8A054EF7DF056EF7DF066EF7E
:10FAAA007DF000016BB15CEF7DF05EEF7DF066EFFB
:10FABA007DF0000E7D6F000E7E6F000E7F6F000ED0
:10FACA00806F82C001F083C002F084C003F085C059
:10FADA0004F07DC005F07EC006F07FC007F080C04C
:10FAEA0008F02DEC75F001C079F002C07AF003C07D
:10FAFA007BF004C07CF079C01AF07AC01BF07BC09E
:10FB0A001CF07CC01DF0000E056E000E066E200E65
:10FB1A00076E410E086E73C001F074C002F075C022
:10FB2A0003F076C004F006EC73F001C01EF002C0C8
:10FB3A001FF003C020F004C021F02BEC65F0D8A020
:10FB4A00A9EF7DF0ABEF7DF0D4EF7DF000016F4BB4
:10FB5A00702B73C001F074C002F075C003F076C058
:10FB6A0004F0000E056E000E066E200E076E410EA2
:10FB7A00086E06EC73F001C073F002C074F003C0A3
:10FB8A0075F004C076F0660E00016A19D8A4D0EFA9
:10FB9A007DF0D2EF7DF0D4EF7DF06D4B6E2B73C00C
:10FBAA0088F074C089F075C08AF076C08BF06FC097
:10FBBA0060F070C061F0000E0001686F000E656FA2
:10FBCA00000E646F000E786F000E776FD2EF7EF032
:10FBDA0079C00FF07AC010F07BC011F07CC012F02F
:10FBEA0088C013F089C014F08AC015F08BC016F0D3
:10FBFA004AEC6FF00FC028F010C029F011C02AF0AB
:10FC0A0012C02BF01CEC69F028C07DF029C07EF0F0
:10FC1A002AC07FF02BC080F07DC001F07EC002F0C8
:10FC2A007FC003F080C004F0ADEC65F002BE29EF9E
:10FC3A007EF0025007E10A0E015CD8B027EF7EF091
:10FC4A0029EF7EF039EF7EF07DC001F07EC002F030
:10FC5A007FC003F080C004F0ADEC65F001C06BF02A
:10FC6A0002C06CF03EEF7EF0000E00016C6F090ED0
:10FC7A006B6F00016851D8A445EF7EF047EF7EF024
:10FC8A006FEF7EF061BF4EEF7EF04CEF7EF06FEFCC
:10FC9A007EF0330E8625D96E020E8721DA6E2E0E7D
:10FCAA00DF6E864B872B7107D8A07207010E686F2B
:10FCBA006FEF7EF0330E8625D96E020E8721DA6E3B
:10FCCA00300EDF6E864B872B7107D8A07207640748
:10FCDA00D8A0650764516511D8A476EF7EF078EF55
:10FCEA007EF05FEF7EF0330E8625D96E020E8721F5
:10FCFA00DA6E6B51300FDF6E864B872B7107D8A0F7
:10FD0A00720779C01AF07AC01BF07BC01CF07CC065
:10FD1A001DF07DC005F07EC006F07FC007F080C0F0
:10FD2A0008F088C001F089C002F08AC003F08BC0D5
:10FD3A0004F006EC73F001C01EF002C01FF003C00D
:10FD4A0020F004C021F0DEEC5AF01AC079F01BC092
:10FD5A007AF01CC07BF01DC07CF088C00FF089C00F
:10FD6A0010F08AC011F08BC012F0000E136E000E54
:10FD7A00146E200E156E410E166E4AEC6FF00FC00F
:10FD8A0088F010C089F011C08AF012C08BF000010F
:10FD9A006007D8A06107774B782B6D51775D785152
:10FDAA00800A426E6E51800A4258D8B0DFEF7EF068
:10FDBA00E1EF7EF0EFEF7EF087BFEDEF7EF0875147
:10FDCA0009E14B0E865DD8A0EDEF7EF0EFEF7EF0F5
:10FDDA00EDEF7DF0000E786F4F0E776F330E7725BB
:10FDEA00D96E020E7821DA6EDF6A330E426E020E87
:10FDFA00436E8651425E8751435A77514224016EBF
:10FE0A0078514320026E330E036E020E046E86C0D2
:10FE1A0005F087C006F0F5EC5BF000018651775DCE
:10FE2A00866F87517859876F8151D8A41FEF7FF069
:10FE3A0022EF7FF0010E23EF7FF0000E776F786BD1
:10FE4A008151D8B42BEF7FF02DEF7FF039EF7FF09F
:10FE5A008607D8A08707330E8625D96E020E87211A
:10FE6A00DA6E600007F2DFFF7751715F7851725BDB
:10FE7A003CC011F0330E8625126E020E8721136ED6
:10FE8A0071C014F072C015F050EC5CF0120000144E
:10FE9A00AF72B2F0AF70CD72BEE8BCAEBF20AF4851
:10FEAA00AE4CAE44B1A2AE9AAE2EAFAAAE3CAF06ED
:10FEBA00B916BB4CAF496E6772657365206C6120D9
:10FECA006672656375656E63696120286D61782065
:10FEDA00343030303030292079206D756573747272
:10FEEA0061732028656A656D706C6F3A204C4F47C4
:10FEFA00283430303030302C31303029293A200043
:10FF0A00454550524F4D202D2041583A20252E323A
:10FF1A00662C2041593A20252E32662C20415A3A25
:10FF2A0020252E32662C2047583A20252E32662C60
:10FF3A002047593A20252E32662C20475A3A202546
:10FF4A002E32660A004672656375656E63696120C2
:10FF5A0065786365646964612E20416A75737461AA
:10FF6A0064612061203430306B487A2E0A00456E75
:10FF7A007472616461206E6F2076616C6964612EAF
:10FF8A0020496E74656E7465206465206E756576A9
:10FF9A006F2E0A00B0B0B0B0B0B0B0B0B0B0B0B070
:10FFAA004C4F475F4F4BB0B0B0B0B0B0B0B0B0B08C
:10FFBA00B0B00A004C4F4728256C752C256C752962
:10FFCA000D0A004C4F4728256C752C256C75290A9B
:10FFDA0000526563696269646F3A20004C4F475F5B
:10FFEA004552520A00696E66006E616E006C7500B9
:01FFFA000006
:04FFFC005DEF58F06D
:020000040030CA
:0A000000FAFFF7FF9FFFFFFFFFFF6D
:00000001FF
