:04000000FEEF7FF0A0
:10A8FC00120012001200010E1200050E1200020EC0
:10A90C001200010E12003D01799F12003D01769953
:10A91C0012003D01799512003D01739D12003D011D
:10A92C00738D12003D016A5112003D01749D12009D
:10A93C003D01748D12003D01739B12003D016C5161
:10A94C001200016802681200000E3D01796F1200BE
:10A95C009BEC54F0030E12009BEC54F0040E12000E
:10A96C009EEC54F0090E1200000ED6EC58F01200BA
:10A97C00010ED6EC58F012003D01739F7885738F51
:10A98C001200016E600007F06CFD1200016E600099
:10A99C0007F06BFD120001C0F5F002C0F6F01200DA
:10A9AC0001C0F9F002C0FAF0120001C0F7F002C0C9
:10A9BC00F8F01200026E025093EC55F012003D01BB
:10A9CC00739F000E796F7885120003012395000E9A
:10A9DC00226F0F0E120003011F51C7EC54F08AECCA
:10A9EC0056F012009EEC54F0A1EC54F0EBEC54F049
:10A9FC001200C2EC54F003012395000E226F0F0ECF
:10AA0C001200C2EC54F003012395020E226F0F0EBC
:10AA1C0012006B0E176E000E186E680E4CEC5AF08E
:10AA2C0012003D0179BF1DEF55F020EF55F0010EDE
:10AA3C0021EF55F0000E12003D0176B928EF55F0CC
:10AA4C002BEF55F0010E2CEF55F0000E12003D01CE
:10AA5C0079B533EF55F036EF55F0010E37EF55F071
:10AA6C00000E12003D0178B13EEF55F041EF55F06C
:10AA7C00010E42EF55F0000E12003D0174BB49EF80
:10AA8C0055F04CEF55F0010E4DEF55F0000E120045
:10AA9C003D0178BB54EF55F057EF55F0010E58EFD0
:10AAAC0055F0000E120003012351FC0B0209236F19
:10AABC001C511C25CCEC54F0030E1200E1EC55F0AB
:10AACC00BEEC55F0CBEC5EF087EC55F018EC5AF080
:10AADC00120006C001F007C002F008C003F009C064
:10AAEC0004F0000E12EC5CF0120006C001F007C07E
:10AAFC0002F008C003F009C004F0020E12EC5CF086
:10AB0C001200710E3901D96F000EDB6F000EDD6F74
:10AB1C00010EDF6F000EDE6F1200016E3901A3A96A
:10AB2C009AEF55F09CEF55F094EF55F0600007F05C
:10AB3C00EAFD1200390193939395929F93913D01F5
:10AB4C007A917A957A9F7A9D7A9376937695769187
:10AB5C001200B5EF55F083EC59F097EC5BF0030164
:10AB6C0023B5BBEF55F0BDEF55F0B1EF55F012002A
:10AB7C00040E3D01736F800E746F180E756F000E0E
:10AB8C007B6F000E796F000E7A6F000E766F6C691A
:10AB9C001200030123A9D5EF55F0D7EF55F0E0EFE4
:10ABAC0055F001C01DF302C01EF303C01FF304C017
:10ABBC0020F323991200000E3901C06F000EC16FF3
:10ABCC00000EC26F000EC36F000EC46F000EC56F77
:10ABDC00000EC66F000EC76F1200A1EC54F0A4EC6F
:10ABEC0054F00009D8B4FDEF55F0FFEF55F005EF28
:10ABFC0056F0000EC7EC54F0000ECCEC54F0000EE6
:10AC0C001200015003026F00CCFF05F06F00D0FF63
:10AC1C0006F001500402F350062602500302F350D2
:10AC2C00062605C001F006C002F01200010E016EEE
:10AC3C00030123B524EF56F026EF56F030EF56F013
:10AC4C0023971C69AAEC54F0A0EC55F0E5EC54F0F9
:10AC5C0022C301F0015012000AC001F00BC002F037
:10AC6C00000E046E020E036ECFEC55F0000E066E55
:10AC7C00000E076E000E086E000E096E6FEC55F09C
:10AC8C00040E12000AC001F00BC002F0000E046E9C
:10AC9C00010E036ECFEC55F0000E066E000E076E23
:10ACAC00000E086E000E096E6FEC55F0020E1200CD
:10ACBC000AC001F00BC002F0000E046E020E036E0F
:10ACCC00CFEC55F0000E066E000E076E000E086EEF
:10ACDC00000E096E6FEC55F0020E12000AC001F066
:10ACEC000BC002F0000E046E010E036ECFEC55F09B
:10ACFC00000E066E000E076E000E086E000E096E3A
:10AD0C006FEC55F0040E120003012351FC0B0209E9
:10AD1C00236F1F052011D8A496EF56F098EF56F02C
:10AD2C009AEF56F0D4EC5DF0D88003011C35CCECD6
:10AD3C0054F0040E12003D0173BFA7EF56F0A9EFBB
:10AD4C0056F0B7EF56F0000E796F000E7A6F000ECA
:10AD5C00766F6C69510E3A015A6F510E5B6F3D0163
:10AD6C00738F120000EE00F3AC0EEE6AE806FDE104
:10AD7C0000EEE8F2180EEE6AE806FDE100EECFF008
:10AD8C00260EEE6AE806FDE15F6A5E6A00019AEF44
:10AD9C0060F01F6E1C50206E1BC021F01DC022F0F5
:10ADAC00200E176E000E196E030E186E1F502AEC33
:10ADBC0059F00D0E1E6EFC0EE82EFED71E2EFCD783
:10ADCC00120001C006F0F2EF56F00650D96EDA6AA6
:10ADDC0060000BF0DFFF062A0406D8A00506042845
:10ADEC0006E10528D8A4FDEF56F0FFEF56F0EBEF87
:10ADFC0056F012001F6E1C501D6E1BC01EF01D0E57
:10AE0C00176E000E196E020E186E1F502AEC59F0B8
:10AE1C00000E206E200E176E000E196E010E186EAD
:10AE2C001F50B6EC57F020501200015002100310C6
:10AE3C000410D8B424EF57F026EF57F02EEF57F04C
:10AE4C00000E011A000E021A000E031A800E041ACC
:10AE5C0001C001F002C002F003C003F004C004F012
:10AE6C00120040EF57F0030E056E980EE82EFED739
:10AE7C00052EFCD70106000E025A035A045A01286B
:10AE8C000AE1022808E1032806E10428D8A451EFBE
:10AE9C0057F053EF57F039EF57F01200000E106EC9
:10AEAC00000E0F6E63EF57F00EC003F0046A0DC076
:10AEBC0005F0D4EC5FF00F4A102A0F500B24D96E1A
:10AECC0010500C20DA6EDF500E6E0E50D8A471EFBD
:10AEDC0057F073EF57F05AEF57F012007D0E000148
:10AEEC00836F7AC084F0856B000E886F000E876FBD
:10AEFC00000E8D6F000E8C6F840E706F7BC071F026
:10AF0C007CC072F0830E736F36EC60F070C081F011
:10AF1C0071C082F081C07AF082C07BF01200286E82
:10AF2C00000E296EACEF57F0295023241B6E000E37
:10AF3C0024201C6E29502524D96E000E2620DA6E92
:10AF4C00DF501D6E2850CFEC56F0292A2750295C73
:10AF5C00D8A0B3EF57F0B5EF57F09AEF57F01200B7
:10AF6C001A6E1A5051EC5CF00009D8B4C0EF57F0CF
:10AF7C00C2EF57F0B7EF57F017C001F0026A18C0D4
:10AF8C0003F019C004F0CFEC55F0BEEC54F01CECFF
:10AF9C0056F0E806D8B4D5EF57F0D7EF57F0CDEF11
:10AFAC0057F0120001C005F002C006F060000FF06F
:10AFBC00F6FF600013F0F7FF034A042AF86A6000FA
:10AFCC0017F0D9FF60001BF0DAFF054A062A0800CB
:10AFDC006F00D7FFDFFFDF50D8A4F7EF57F0F9EF82
:10AFEC0057F0DCEF57F01200970E4F6E93C050F0F5
:10AFFC0094C051F0000E546E000E536E000E5B6E3A
:10B00C00000E5A6E500E00018F6F95C090F096C0D6
:10B01C0091F04F0E926F87EC58F05350000193252E
:10B02C00D96E54509421DA6EDF6A1200276E000E2E
:10B03C00286E35EF58F0285021241B6E000E22206C
:10B04C001C6E275000EC57F0266E28502324D96E26
:10B05C00000E2420DA6E60009BF0DFFF282A2550BA
:10B06C00285CD8A03CEF58F03EEF58F021EF58F098
:10B07C001200000E1E1A000E1F1A000E201A800E4F
:10B08C00211A1AC001F01BC002F01CC003F01DC035
:10B09C0004F01EC005F01FC006F020C007F021C050
:10B0AC0008F0FEEC71F001C01AF002C01BF003C0F6
:10B0BC001CF004C01DF0120020EE02F00A50D9263C
:10B0CC000B50DA22DF500C6E0CC001F0026A6000EB
:10B0DC002BF0D9FF60002FF0DAFF6F0078FF03F040
:10B0EC006F0074FF04F0CFEC55F0000E066E000EEE
:10B0FC00076E000E086E000E096E6FEC55F0020E16
:10B10C00120090C04DF091C04EF096EF58F08FC0E9
:10B11C008CF04D0E00018D6F92C08EF075EC6AF0C4
:10B12C00600037F1F6FF60003BF1F7FFF86A0800AA
:10B13C00F5500009D8A4A5EF58F0A7EF58F08DEF03
:10B14C0058F0000E0001906F000E8F6F120017EC7C
:10B15C0055F00009D8B4B5EF58F0B7EF58F0BBEF85
:10B16C0058F089EC54F0D5EF58F02DEC55F000095F
:10B17C00D8B4C3EF58F0C5EF58F0C9EF58F08FECC6
:10B18C0054F0D5EF58F022EC55F00009D8B4D1EFBB
:10B19C0058F0D3EF58F0D5EF58F08CEC54F0120077
:10B1AC00156E010E166E030123B5DFEF58F0E1EFBB
:10B1BC0058F0FDEF58F02385000E166E1F51C7ECAA
:10B1CC0054F01550D8B4EDEF58F0EFEF58F0F6EF0F
:10B1DC0058F0040E0301216F8AEC56F0FBEF58F087
:10B1EC00030E0301216F59EC55F0AFEC55F01650DE
:10B1FC00120004BE04EF59F006EF59F010EF59F0AD
:10B20C0001C001F002C002F003C003F004C004F05E
:10B21C0029EF59F001C005F002C006F003C007F099
:10B22C0004C008F0051E061E071E081E052A000E87
:10B23C0006220722082205C001F006C002F007C052
:10B24C0003F008C004F012001A6E1A5051EC5CF0B6
:10B25C000009D8B434EF59F036EF59F02BEF59F010
:10B26C0017C001F0026A18C003F019C004F0CFEC4B
:10B27C0055F0000E066E000E076E000E086E000EE6
:10B28C00096E7BEC55F0BAEC54F01CEC56F0E80669
:10B29C00D8B453EF59F055EF59F04BEF59F0120069
:10B2AC0003C009F004C00AF001C007F002C008F0A6
:10B2BC0075EF59F0600027F0D9FF60002BF0DAFF32
:10B2CC00DF500B6E094A0A2A60001FF0D9FF60009C
:10B2DC0023F0DAFF60002FF0DFFF074A082A05068B
:10B2EC00D8A00606052806E10628D8A480EF59F058
:10B2FC0082EF59F060EF59F012003901A3A189EFE8
:10B30C0059F08BEF59F08DEF59F0B0EF59F0A2AF27
:10B31C0092EF59F094EF59F096EF59F0B0EF59F0D5
:10B32C003D0179A59CEF59F09EEF59F0A0EF59F033
:10B33C00B0EF59F079AFA5EF59F0A7EF59F0A9EF9D
:10B34C0059F0B0EF59F076A9AEEF59F0B0EF59F0D3
:10B35C0083EF59F0120015BEB8EF59F0B6EF59F063
:10B36C00BCEF59F0000E156E000E146E000E186E28
:10B37C00000E176ECCEF59F0000E046E200E036E0B
:10B38C0011C005F0D4EC5FF0174A182A1450175C62
:10B39C001850800A166E1550800A1658D8A0D9EF8E
:10B3AC0059F0DBEF59F0C2EF59F012C00BF013C09B
:10B3BC000CF011C00DF054EC57F01200FC0E030110
:10B3CC002317020E226F2395F3EF59F087EC54F0FC
:10B3DC0017EF5AF00F0E17EF5AF010C30AF011C303
:10B3EC000BF002D803EF5AF00500FA6E0451FD6E13
:10B3FC000551FE6EFF6AFA5012000D6E0E6A0E5069
:10B40C00000AD8B40CEF5AF0F0EF59F00D50020AC4
:10B41C00D8B4ECEF59F0010AD8B4ECEF59F0F0EFD6
:10B42C0059F01200000E3D01EC6F000EED6F000E96
:10B43C00EE6F000EEF6F000EF06F000EF16FB00E9E
:10B44C00F26F800EF36F000EF46FCF0EF56F000EDF
:10B45C00F66F000EF76F000EF86F000EF96F000E0E
:10B46C00FA6FFE0E016EA80E026ED6EC54F0000EB2
:10B47C00016EA90E026EDBEC54F0FC0E016EA80EF0
:10B48C00026ED1EC54F0000E5F6E1200196E195062
:10B49C0051EC5CF00009D8B456EF5AF058EF5AF062
:10B4AC004DEF5AF0E80E066EAC0E076E180E086ED5
:10B4BC00096A6FEC55F0170E016E026A000E046EED
:10B4CC00010E036ECFEC55F0000E066E000E076EEB
:10B4DC00000E086E000E096E7BEC55F0BAEC54F0C1
:10B4EC001CEC56F0E806D8B47EEF5AF080EF5AF018
:10B4FC0076EF5AF01200A3EF5AF0200E0E180F1030
:10B50C00D8B48BEF5AF08DEF5AF0A3EF5AF00EC06F
:10B51C000DF0F70E0D26040E0D6497EF5AF099EF0F
:10B52C005AF0A3EF5AF00EC001F00FC002F00CC09D
:10B53C0003F085EC5DF0B5EF5AF00CC003F004ECB1
:10B54C0064F003C00EF004C00FF00E2806E10F28C3
:10B55C00D8A4B3EF5AF0B5EF5AF083EF5AF01200BB
:10B56C00000E096E000E0A6E000E0B6E000E0C6EB5
:10B57C0001A0C3EF5AF0C5EF5AF0CDEF5AF00550C9
:10B58C00092606500A2207500B2208500C22D8908C
:10B59C000536063607360836D890043203320232A6
:10B5AC0001320150021003100410D8A4E0EF5AF03D
:10B5BC00E2EF5AF0BEEF5AF009C001F00AC002F0F7
:10B5CC000BC003F00CC004F01200AAEC54F0020EF5
:10B5DC000301226FFEEF5AF0F1EC54F022EF5BF016
:10B5EC0085EC54F022EF5BF0FFEC54F022EF5BF0B3
:10B5FC000EC30AF00FC30BF002D80EEF5BF0050080
:10B60C00FA6E0251FD6E0351FE6EFF6AFA50120083
:10B61C000D6E0E6A0E50000AD8B417EF5BF0FAEFFD
:10B62C005AF00D50020AD8B4F2EF5AF0010AD8B40D
:10B63C00F6EF5AF0FAEF5AF012003EEF5BF06000B2
:10B64C000BF0F6FF60000FF0F7FF000EF86E0F0E18
:10B65C00F76403D00800F55007D06F00DBFFE9FF5B
:10B66C006F00DFFFEAFFEF5093EC55F0024A032A1C
:10B67C0060000BF0F6FF60000FF0F7FF000EF86EA5
:10B68C000F0EF76403D00800F55007D06F00DBFFF6
:10B69C00E9FF6F00DFFFEAFFEF500009D8A459EF74
:10B6AC005BF05BEF5BF025EF5BF012001B6E18C0DC
:10B6BC001EF019C01CF01AC01DF01B5051EC5CF0B0
:10B6CC000009D8B46CEF5BF06EEF5BF063EF5BF0EE
:10B6DC00C40E066EB00E076E1C0E086E096A6FEC77
:10B6EC0055F0170E016E026A000E046E010E036E09
:10B6FC00CFEC55F0000E066E000E076E000E086EB5
:10B70C00000E096E7BEC55F0BAEC54F01CEC56F0C4
:10B71C00E806D8B494EF5BF096EF5BF08CEF5BF03F
:10B72C001200ADEC58F003012351030B0009D8B4FF
:10B73C00A2EF5BF0A4EF5BF0B1EF5BF043EC55F0E4
:10B74C000009D8B4ACEF5BF0AEEF5BF0B1EF5BF09F
:10B75C00100E0301216F03012151020DFF0EF32482
:10B76C00F66EFD0EF420F76EF86A000EF822090052
:10B77C006F00D4FF13F009006F00D4FF14F002D84F
:10B78C00D1EF5BF00500FA6E1350FD6E1450FE6E97
:10B79C00FF6AFA5012000301216F12000301238982
:10B7AC00E9EF5BF095EC54F0070E11EF5CF0030140
:10B7BC001F29C7EC54F0030E11EF5CF092EC54F01F
:10B7CC000A0E11EF5CF00CC30AF00DC30BF002D89B
:10B7DC00F9EF5BF00500FA6E0051FD6E0151FE6E43
:10B7EC00FF6AFA5012000D6E0E6A0E50000AD8B4A1
:10B7FC0002EF5CF0E4EF5BF00D50010AD8B4E4EF1B
:10B80C005BF0030AD8B4D8EF5BF0060AD8B4DDEFCE
:10B81C005BF0E4EF5BF01200056E01500210D8B43F
:10B82C001AEF5CF01CEF5CF03AEF5CF00550020D87
:10B83C00000EF324D96E030EF420DA6E600007F0CC
:10B84C00DEFF60000BF0DDFF0550020D0C0EF32443
:10B85C00D96E030EF420DA6E60000FF0DEFF60008C
:10B86C0013F0DDFF50EF5CF00550020D000EF324D9
:10B87C00D96E030EF420DA6E020EDE6EA90EDD6EAA
:10B88C000550020D0C0EF324D96E030EF420DA6E63
:10B89C00DE6ADD6A1200016E010E026E030123B72F
:10B8AC005AEF5CF05CEF5CF097EF5CF001C01CF3BE
:10B8BC0023952387FC0E23170F0E216F010E1B6F90
:10B8CC00F40E1A6F2389020E006FA90E016F000E81
:10B8DC000C6F000E0D6F020E026FA90E036F000E9F
:10B8EC000E6F000E0F6F020E046FA90E056F000E87
:10B8FC00106F000E116F020E066FA90E076F000E6F
:10B90C00126F000E136F060E086FA90E096F000E52
:10B91C00146F000E156FAAEC54F0A1EC56F0000E4B
:10B92C00026E025012003901A3A79FEF5CF0A1EF49
:10B93C005CF099EF5CF0000E5F6E3D01F9A7A9EF8A
:10B94C005CF0ABEF5CF0B9EF5CF05F8202D8B9EF62
:10B95C005CF00500FA6E0001F951FD6EFA51FE6EB5
:10B96C00FF6AFA5012003D01F9A3BFEF5CF0C1EF82
:10B97C005CF0CFEF5CF05F8402D8CFEF5CF0050099
:10B98C00FA6E0001F751FD6EF851FE6EFF6AFA5027
:10B99C0012005F50D8B4D5EF5CF0D7EF5CF0E4EF59
:10B9AC005CF002D8E4EF5CF00500FA6E0001F55192
:10B9BC00FD6EF651FE6EFF6AFA5012003D01E85121
:10B9CC00120038EC55F00009D8A4EFEF5CF0F1EF61
:10B9DC005CF0F4EF5CF0040E35EF5DF003012351E5
:10B9EC00030B0009D8B4FDEF5CF0FFEF5CF00BEF3C
:10B9FC005DF0010E0F6E2351030B106E0F50105E95
:10BA0C0023511018FC0B1018236F1F07D8A0200708
:10BA1C001F512011D8B415EF5DF017EF5DF025EF35
:10BA2C005DF098EC54F0600077FCD9FF60007BFC73
:10BA3C00DAFFDF6E03011D4B1E2BF1EF5CF0D4EC33
:10BA4C005DF0116E98EC54F0600077FCD9FF60004B
:10BA5C007BFCDAFFDF6E03011D4B1E2B1150120015
:10BA6C0020EE11F0070EDE6AE806FDE201A041EFC0
:10BA7C005DF043EF5DF053EF5DF0095011260A5075
:10BA8C0012220B5013220C5014220D5015220E5062
:10BA9C0016220F50172210501822D89009360A3649
:10BAAC000B360C360D360E360F361036D890083253
:10BABC0007320632053204320332023201320150AF
:10BACC000210031004100510061007100810D8A45B
:10BADC0072EF5DF074EF5DF03CEF5DF011C001F0C2
:10BAEC0012C002F013C003F014C004F015C005F02E
:10BAFC0016C006F017C007F018C008F01200012895
:10BB0C0006E10228D8A48DEF5DF08FEF5DF091EF88
:10BB1C005DF0D3EF5DF00350D8A497EF5DF099EF93
:10BB2C005DF0ACEF5DF0030E5E18D8B4A0EF5DF0E5
:10BB3C00A2EF5DF0D3EF5DF05E50D70FD96EDA6AED
:10BB4C00600007F0DFFF5E2AD3EF5DF00350D96E83
:10BB5C00DA6A080ED926030EDE18DE10D8B4B9EF57
:10BB6C005DF0BBEF5DF0D3EF5DF00350D96EDA6A98
:10BB7C00080ED926DF50046E03500424D96EDA6AFD
:10BB8C00050ED926600007F0DFFF0350D96EDA6A84
:10BB9C00080ED926DE2A000EDD22120003012389AD
:10BBAC00F8EF5DF095EC54F0080E24EF5EF095EC98
:10BBBC0054F0070E24EF5EF003011F29C7EC54F07C
:10BBCC00040E24EF5EF0070E03012119D8B4F1EF37
:10BBDC005DF0F3EF5DF0F5EF5DF092EC54F00F0ECD
:10BBEC0024EF5EF00CC30AF00DC30BF002D808EF83
:10BBFC005EF00500FA6E0051FD6E0151FE6EFF6A9B
:10BC0C00FA5012000D6E0E6A0E50000AD8B411EFE5
:10BC1C005EF0E9EF5DF00D50010AD8B4E9EF5DF08C
:10BC2C00030AD8B4DDEF5DF0010AD8B4D8EF5DF0AB
:10BC3C00070AD8B4E2EF5DF0E9EF5DF01200000EF8
:10BC4C00096E000E0A6E000E0B6E000E0C6E055087
:10BC5C00061007100810D8B436EF5EF038EF5EF01F
:10BC6C006EEF5EF0010E0D6E42EF5EF0D890053671
:10BC7C000636073608360D2A08AE47EF5EF049EF58
:10BC8C005EF03CEF5EF0D89009360A360B360C3677
:10BC9C000550015C065002580750035808500458D0
:10BCAC00D8A05BEF5EF05DEF5EF066EF5EF00550E6
:10BCBC00015E0650025A0750035A0850045A098074
:10BCCC00D89008320732063205320D2E49EF5EF05D
:10BCDC0009C001F00AC002F00BC003F00CC004F064
:10BCEC001200000E096EADEF5EF099EC5CF0086E80
:10BCFC000950D8A484EF5EF086EF5EF09AEF5EF008
:10BD0C000D0E0818D8B48DEF5EF08FEF5EF0ADEF2E
:10BD1C005EF00A0E0818D8A496EF5EF098EF5EF06D
:10BD2C009AEF5EF0ADEF5EF00D0E0818D8A4A1EFFF
:10BD3C005EF0A3EF5EF0A5EF5EF0C5EF5EF0015094
:10BD4C000924D96EDA6A600023F0DFFF092AFF0E9E
:10BD5C000224036E046AFF0E04220950056E066A63
:10BD6C000350055C0650800A076E0450800A075881
:10BD7C00D8A0C3EF5EF0C5EF5EF07BEF5EF0015034
:10BD8C000924D96EDA6ADF6A1200000EBE6E000E4C
:10BD9C00BD6E000EBA6E000EBB6E000EBC6E070EB2
:10BDAC00C66EC268F90EC36EBF0EC46EFC0EC56EB5
:10BDBC003A0170697F0E606FF90E506F070E806F3D
:10BDCC004069000E716F000E816F000E516F000EF6
:10BDDC00416F000E616F000E5A6F000E5B6F000E0C
:10BDEC006A6F000E6B6F000E7A6F000E7B6F000E89
:10BDFC00826F000E426F260E526F180E626F000E8D
:10BE0C00726F4369536963697369070E836F446981
:10BE1C005469646974690F0E846F0A0EE26F210E07
:10BE2C00096F220E0A6F130E166F170EE56F090EAF
:10BE3C00E16F1200000E0114096E000E02140A6E5E
:10BE4C00800E03140B6E7F0E04140C6E09500A1036
:10BE5C000B100C10D8A435EF5FF037EF5FF03FEF0D
:10BE6C005FF0000E016E000E026E000E036E000EEF
:10BE7C00046E000E0514096E000E06140A6E800E78
:10BE8C0007140B6E7F0E08140C6E09500A100B1061
:10BE9C000C10D8A454EF5FF056EF5FF05EEF5FF03C
:10BEAC00000E056E000E066E000E076E000E086E7C
:10BEBC00055001180FE1065002180CE10750031849
:10BECC0009E108500418D8B46EEF5FF070EF5FF022
:10BEDC0073EF5FF0D89074EF5FF0D8801200000E13
:10BEEC000B6E000E0A6E0750D96EDA6A6F007BFF7C
:10BEFC00F6FF6F0077FFF7FFF86A0800F5502A0A83
:10BF0C00D8A48BEF5FF08DEF5FF0B9EF5FF00750C7
:10BF1C00D96EDA6ADE2A000EDD220850D96EDA6A92
:10BF2C00020EDF26DF5CD96EDA6A6F0078FF0AF04A
:10BF3C006F0078FF0BF0CFEF5FF00AC001F00BC081
:10BF4C0002F0000E046E0A0E036E07EC56F0095058
:10BF5C0001240A6E000E02200B6E0750D96EDA6AAD
:10BF6C00DE2A000EDD220750D96EDA6A6F007BFFE5
:10BF7C00F6FF6F0077FFF7FFF86A0800F550D00F57
:10BF8C00096E090E0964CDEF5FF0CFEF5FF0A3EF00
:10BF9C005FF00AC007F00BC008F012000550D8B4CF
:10BFAC00DAEF5FF0DCEF5FF0E4EF5FF00550D8A460
:10BFBC00E2EF5FF0E4EF5FF0E9EF5FF00350E0ECED
:10BFCC0054F035EF60F00550D96EDA6A0A0ED926B6
:10BFDC00DE50DE10D8B4F5EF5FF0F7EF5FF010EF46
:10BFEC0060F00550D96EDA6A0A0ED9260550E16E5A
:10BFFC00E26A030EE126DE50E65CE650800A0A6E29
:10C00C00DE50800A0A58D8B00EEF60F010EF60F0E6
:10C01C0035EF60F00550D96EDA6A030ED9266F0041
:10C02C0078FF06F06F0074FF07F00550D96EDA6ADE
:10C03C006F0078FF08F06F0074FF09F006500824B9
:10C04C00D96E07500920DA6E60000FF0DFFF055043
:10C05C00D96EDA6A030ED926DE2A000EDD22120012
:10C06C0071C078F072C079F0000E0001DB6F000E29
:10C07C00DA6FDAC0DCF0DBC0DDF0E0C074F0E1C0F8
:10C08C0075F067EF60F0000EE16F000EE06F70C0AE
:10C09C005BF0780E5C6E73C05DF0DCEC6DF05BC039
:10C0AC0076F05CC077F0000177BF61EF60F05FEF76
:10C0BC0060F063EF60F078EF60F07651DC27775139
:10C0CC00DD236000E3F1F6FF6000E7F1F7FFF86AAB
:10C0DC000800F5500009D8A476EF60F078EF60F016
:10C0EC0049EF60F074C0E0F075C0E1F0762906E12C
:10C0FC007729D8A484EF60F086EF60F095EF60F0BC
:10C10C00DC51DD11D8A48DEF60F08FEF60F095EF6E
:10C11C0060F076C070F077C071F099EF60F0DCC021
:10C12C0070F0DDC071F0120064EC55F00FEC55F0BE
:10C13C00250E026EFE0E036E23EC5BF0BB0E016E41
:10C14C00000E036E000E026E000E056E140E046ED1
:10C15C00E7EC56F0BB0E016E140E026E77EC5EF03F
:10C16C00D70E026EFF0E036E23EC5BF0BB0E026E5D
:10C17C00036A23EC5BF0B80E026EFF0E036E23EC29
:10C18C005BF0BB0E0001906FF10E916FFC0E926F85
:10C19C00020E936F07EC61F00009D8B4D8EF60F091
:10C1AC00DAEF60F0DEEF60F024EC77F0E4EF60F0B3
:10C1BC00DE0E026EFE0E036E23EC5BF00001E85106
:10C1CC00D8A4EBEF60F0EDEF60F09EEF60F0F80EAE
:10C1DC00286E020E296EF40E2A6E020E2B6EF00ED5
:10C1EC002C6E020E2D6EEC0E2E6E020E2F6EED0EC0
:10C1FC00306EE90E316E0DEC69F09EEF60F0FEEFE3
:10C20C007FF090C07AF0BA0E00017B6FFF0E7C6F4E
:10C21C00940E7D6F7E6B92C07FF093C080F074ECB7
:10C22C0057F0020E00017A197B11D8B420EF61F09F
:10C23C0022EF61F03CEF61F090C07AF0C90E7B6F99
:10C24C00FF0E7C6F940E7D6F7E6B92C07FF093C05F
:10C25C0080F074EC57F0020E00017A197B11D8A40F
:10C26C003AEF61F03CEF61F07EEF61F097510DE138
:10C27C00810E945D1A0E9559060E9659D8A049EF69
:10C28C0061F04BEF61F059EF61F0800E946F1A0E74
:10C29C00956F060E966F000E976FB50E026EFE0E22
:10C2AC00036E23EC5BF0E80E016E030E026E000EC3
:10C2BC00036E000E046E94C005F095C006F096C097
:10C2CC0007F097C008F025EC5EF000019151D96E93
:10C2DC00DA6A600007F0DEFF60000BF0DEFF600042
:10C2EC000FF0DEFF600013F0DEFF010E7FEF61F058
:10C2FC00000E12000506D8A00606052806E1062841
:10C30C00D8A48BEF61F08DEF61F09AEF61F0000E25
:10C31C00026E000E016EFAEF61F0014A022A034A26
:10C32C00042A0506D8A00606600007F0F6FF600098
:10C33C000BF0F7FFF86A0800F5500009D8B4A9EF24
:10C34C0061F0ABEF61F0E1EF61F060000FF0F6FF30
:10C35C00600013F0F7FFF86A0800F5500009D8B434
:10C36C00BAEF61F0BCEF61F0E1EF61F0055006103F
:10C37C00D8B4C3EF61F0C5EF61F0E1EF61F060009C
:10C38C0007F0F6FF60000BF0F7FFF86A08006F008B
:10C39C00D4FF07F060000FF0F6FF600013F0F7FF1A
:10C3AC00F86A0800F5500718D8B4DFEF61F0E1EF38
:10C3BC0061F093EF61F0600007F0F6FF60000BF0A6
:10C3CC00F7FFF86A08006F00D4FF07F060000FF069
:10C3DC00F6FF600013F0F7FFF86A0800F550075CF1
:10C3EC00016E026AD8A002061200D3C00BF0D4C0B2
:10C3FC000CF0D5C00DF0D6C00EF001C00BF002C091
:10C40C000CF003C00DF004C00EF00BC005F00CC016
:10C41C0006F00DC007F00EC008F0180E1BEF62F00E
:10C42C00D8900832073206320532E82E16EF62F049
:10C43C000550096E0A6A09500A10D8A428EF62F058
:10C44C002AEF62F04AEF62F0D8900B34056E0C3490
:10C45C00066E0D34076E0E34086E0550061007106C
:10C46C000810D8A43CEF62F03EEF62F044EF62F0AB
:10C47C00000E026E020E016E79EF62F0000E026E7B
:10C48C00030E016E79EF62F009280A10D8A451EF5F
:10C49C0062F053EF62F075EF62F00BC005F00CC068
:10C4AC0006F00DC007F00EC008F0090ED890053646
:10C4BC00063607360836E82E5CEF62F0055006109B
:10C4CC0007100810D8B46DEF62F070EF62F0010E37
:10C4DC0071EF62F0000E016E026A79EF62F0000EED
:10C4EC00026E040E016E1200000E1A14226E000E63
:10C4FC001B14236E800E1C14246E7F0E1D14256ECF
:10C50C002250231024102510D8A48FEF62F091EF45
:10C51C0062F099EF62F0000E1A6E000E1B6E000EA8
:10C52C001C6E000E1D6E000E1E14226E000E1F14CB
:10C53C00236E800E2014246E7F0E2114256E225043
:10C54C00231024102510D8A4AEEF62F0B0EF62F0E7
:10C55C00B8EF62F0000E1E6E000E1F6E000E206E05
:10C56C00000E216E1DAEBDEF62F0BFEF62F0C8EFA2
:10C57C0062F01A6C1B1ED8B01B2A1C1ED8B01C2AC9
:10C58C00800E1D5621AECDEF62F0CFEF62F0D8EFEA
:10C59C0062F01E6C1F1ED8B01F2A201ED8B0202A95
:10C5AC00800E2156000E1A1A000E1B1A000E1C1AB1
:10C5BC00800E1D1A000E1E1A000E1F1A000E201AD5
:10C5CC00800E211A1E501A5C1F501B5820501C58EC
:10C5DC0021501D58D8B0F5EF62F0F7EF62F0FAEF8A
:10C5EC0062F0D890FBEF62F0D88012000334043470
:10C5FC000A6E0A50D8A405EF63F007EF63F011EF51
:10C60C0063F0000E016E000E026E000E036E000E43
:10C61C00046E7EEF63F001C005F002C006F003C0AB
:10C62C0007F004C008F0200E21EF63F0D890083218
:10C63C00073206320532E82E1CEF63F00550096E06
:10C64C00038EFF0E0116FF0E0216FF0E0316000ED0
:10C65C000416960E0A5E0ABE38EF63F036EF63F0EE
:10C66C004EEF63F00A50800A970FD8B040EF63F09A
:10C67C0042EF63F044EF63F007EF63F0D8900432BD
:10C68C000332023201320A3E44EF63F066EF63F08C
:10C69C001F0E0A6454EF63F056EF63F05EEF63F025
:10C6AC0007EF63F0D89001360236033604360A06DB
:10C6BC000A50D8A464EF63F066EF63F058EF63F0B0
:10C6CC000950D8B46CEF63F06EEF63F076EF63F063
:10C6DC00041E031E021E016C000E02220322042201
:10C6EC0001C001F002C002F003C003F004C004F06A
:10C6FC0012000001E5BF87EF63F085EF63F08DEF6B
:10C70C0063F0000E226E010E216E91EF63F0E4C017
:10C71C0021F0E5C022F0E2C01FF0E3C020F0000ED3
:10C72C00256E4F0E246E000E0301736FD1EF63F074
:10C73C002406D8A025061A500F0B236E0A0E236070
:10C74C00AAEF63F0ACEF63F0B0EF63F0300E23268A
:10C75C00B2EF63F0370E2326240E2424D96E030E79
:10C76C002520DA6E60008FF0DFFF2106D8A02206AC
:10C77C001F06D8A020061AC01CF01BC01DF0040E0A
:10C78C001E6ED8901D321C321E2EC7EF63F01CC0DB
:10C79C001AF01DC01BF025BEDDEF63F0255009E13A
:10C7AC00020E245CD8A0DDEF63F0DFEF63F0F5EF51
:10C7BC0063F01A501B10D8A4E6EF63F0E8EF63F0B7
:10C7CC009EEF63F022BEF5EF63F0225006E12104E8
:10C7DC00D8B0F3EF63F0F5EF63F09EEF63F019C0A0
:10C7EC0011F0240E2424126E030E2520136E1FC08C
:10C7FC0014F020C015F0B1EC59F012000350D8A47D
:10C80C000AEF64F00CEF64F028EF64F05E50D8A4EB
:10C81C0012EF64F014EF64F01CEF64F0A7EC54F02A
:10C82C0001C00AF002C00BF085EF64F05E065E50AA
:10C83C00D70FD96EDA6ADF50056E05500A6E0B6A97
:10C84C0085EF64F00350D96EDA6A080ED926DE50F3
:10C85C00DE10D8B434EF64F036EF64F051EF64F0CE
:10C86C000350D96EDA6A080ED926DE06000EDD5AA0
:10C87C006F0078FF05F06F0074FF06F0035005247D
:10C88C00D96EDA6A050ED926DF50076E07500A6E8C
:10C89C000B6A85EF64F00350D96EDA6A030ED92661
:10C8AC006F0078FF05F06F0074FF06F00350D96E2F
:10C8BC00DA6A6F0078FF07F06F0074FF08F005501C
:10C8CC000724D96E06500820DA6EDF50096E095025
:10C8DC000A6E0B6A0A500B10D8A477EF64F079EF4C
:10C8EC0064F07DEF64F00A680B6885EF64F0035028
:10C8FC00D96EDA6A030ED926DE2A000EDD220AC0B2
:10C90C0003F00BC004F0120043EC55F00009D8B44E
:10C91C0092EF64F094EF64F0CEEF64F0A1EF64F06A
:10C92C00F1EC54F01AEF65F085EC54F01AEF65F069
:10C93C00000E1AEF65F012C30AF013C30BF002D805
:10C94C00B2EF64F00500FA6E03010651FD6E07515B
:10C95C00FE6EFF6AFA5012000D6E0E6A0E50000A3F
:10C96C00D8B4BBEF64F09EEF64F00D50010AD8B45C
:10C97C009EEF64F0030AD8B496EF64F0010AD8B4C1
:10C98C009AEF64F0070AD8B49EEF64F09EEF64F05F
:10C99C004EEC55F00009D8B4D6EF64F0D8EF64F043
:10C9AC0019EF65F003012351030B0009D8B4E1EF33
:10C9BC0064F0E3EF64F0EFEF64F0010E0D6E2351C1
:10C9CC00030B0E6E0D500E5E23510E18FC0B0E1841
:10C9DC00236F600077FCD9FF60007BFCDAFFDF502F
:10C9EC00116E1D4B1E2B1F07D8A020071F512011A5
:10C9FC00D8A403EF65F005EF65F00DEF65F0D4EC0E
:10CA0C005BF00D6E0D500F6E106A11EF65F0000E9D
:10CA1C00106E030E0F6E0FC012F01150CCEC54F0D0
:10CA2C0012501AEF65F0030E1200096E0950D8B4BB
:10CA3C0022EF65F024EF65F046EF65F004BE2BEFB6
:10CA4C0065F029EF65F046EF65F001C005F002C016
:10CA5C0006F003C007F004C008F0051E061E071EF2
:10CA6C00081E052A000E06220722082205C00BF01C
:10CA7C0006C00CF007C00DF008C00EF04EEF65F0CC
:10CA8C0001C00BF002C00CF003C00DF004C00EF09E
:10CA9C000150021003100410D8A457EF65F059EFA1
:10CAAC0065F063EF65F0000E016E000E026E000E75
:10CABC00036E000E046EF4EF65F0960E0A6E6DEFC9
:10CACC0065F00A2AD8900E320D320C320B32000E61
:10CADC000B14056E000E0C14066E000E0D14076E72
:10CAEC00FE0E0E14086E0550061007100810D8A480
:10CAFC0082EF65F084EF65F067EF65F092EF65F01B
:10CB0C000A2A010E0B26000E0C220D220E22D890A2
:10CB1C000E320D320C320B32000E0B14056E000E61
:10CB2C000C14066E000E0D14076EFF0E0E14086E1C
:10CB3C000550061007100810D8A4A7EF65F0A9EF50
:10CB4C0065F086EF65F0B1EF65F00A06D8900B360C
:10CB5C000C360D360E360DBEB6EF65F0B8EF65F03F
:10CB6C00C0EF65F0020E0A60BEEF65F0C0EF65F035
:10CB7C00ABEF65F00AB0C5EF65F0C7EF65F0C8EF35
:10CB8C0065F00D9ED8900A320AC005F0066A076A55
:10CB9C00086A05C008F0076A066A056A05500B1298
:10CBAC0006500C1207500D1208500E120950D8B432
:10CBBC00E2EF65F0E4EF65F0ECEF65F004BEEBEF4F
:10CBCC0065F0E9EF65F0ECEF65F00E8E0BC001F04F
:10CBDC000CC002F00DC003F00EC004F01200B3C084
:10CBEC00FCF1B4C0FDF1B5C0FEF1B6C0FFF1000E12
:10CBFC000101E06F000EE16F000EE26F000EE36FBB
:10CC0C00D6EF66F0FCC121F0FDC122F0C80E236EF8
:10CC1C00010E246E0C0E256E500E1CEC58F0E40E1A
:10CC2C00016E010E026EC80E036E010E046E000E34
:10CC3C00066E040E056E56EC59F0E80E016E010EF0
:10CC4C00026ECC0E036E010E046E000E066E040E08
:10CC5C00056E56EC59F0EC0E016E010E026ED00E04
:10CC6C00036E010E046E000E066E040E056E56EC7D
:10CC7C0059F0FEC121F0FFC122F0D40E236E010E3B
:10CC8C00246E0C0E256E510E1CEC58F0F00E016E3D
:10CC9C00010E026ED40E036E010E046E000E066EB3
:10CCAC00040E056E56EC59F0F40E016E010E026E78
:10CCBC00D80E036E010E046E000E066E040E056E89
:10CCCC0056EC59F0F80E016E010E026EDC0E036E7E
:10CCDC00010E046E000E066E040E056E56EC59F035
:10CCEC00000E0001936F010E946F700E956FFE0E87
:10CCFC00966FE4C197F0E5C198F0E6C199F0E7C1F1
:10CD0C009AF0E8C19BF0E9C19CF0EAC19DF0EBC13F
:10CD1C009EF0ECC19FF0EDC1A0F0EEC1A1F0EFC10F
:10CD2C00A2F0F0C1A3F0F1C1A4F0F2C1A5F0F3C1DF
:10CD3C00A6F0F4C1A7F0F5C1A8F0F6C1A9F0F7C1AF
:10CD4C00AAF0F8C1ABF0F9C1ACF0FAC1ADF0FBC17F
:10CD5C00AEF0FAEC57F0000E026E010E036E23ECEF
:10CD6C005BF00C0E0101FC255C6E000EFD215D6E6E
:10CD7C00FF0E5C14FC6F7F0E5D14FD6F0C0EFE2518
:10CD8C005C6E000EFF215D6EFF0E5C14FE6F7F0E5D
:10CD9C005D14FF6F010EE027000EE123E223E32375
:10CDAC000001AF510101E05D0001B0510101E159F9
:10CDBC000001B1510101E2590001B2510101E359E5
:10CDCC00D8A0EBEF66F0EDEF66F008EF66F012001E
:10CDDC00CFC038F0D0C039F0D1C03AF0D2C03BF05F
:10CDEC0028C038F029C039F02AC03AF02BC03BF0EB
:10CDFC00810E2C6EFF0E2D6E38C02EF039C02FF028
:10CE0C003AC030F03BC031F0180E12EF67F0D890FA
:10CE1C00313230322F322E32E82E0DEF67F02E5099
:10CE2C002C24366E000E2D20376E37BE27EF67F0A0
:10CE3C00375009E1170E365CD8A027EF67F029EFC1
:10CE4C0067F033EF67F028C028F029C029F02AC01A
:10CE5C002AF02BC02BF0F6EF67F037BE38EF67F0F7
:10CE6C003AEF67F0AAEF67F036C02CF0FF0E2D6E8C
:10CE7C00FF0E2E6E7F0E2F6E000E306E2C6649EF5D
:10CE8C0067F051EF67F0303430322F322E322D32C2
:10CE9C002C2E44EF67F02DC032F02EC033F02FC093
:10CEAC0034F030C035F0325038142C6E3350391405
:10CEBC002D6E34503A142E6E35503B142F6E2C5070
:10CECC002D102E102F10D8A46EEF67F070EF67F0B6
:10CEDC0072EF67F029EF67F038C02CF039C02DF0F5
:10CEEC003AC02EF03BC02FF0200E82EF67F0D890A6
:10CEFC002F322E322D322C32E82E7DEF67F02C5053
:10CF0C002D102E102F10D8B48EEF67F090EF67F025
:10CF1C0098EF67F0325038263350392234503A2289
:10CF2C0035503B22321C2C6E331C2D6E341C2E6E55
:10CF3C00351C2F6E2C5038162D5039162E503A1693
:10CF4C002F503B16EEEF67F038C02CF039C02DF0A7
:10CF5C003AC02EF03BC02FF0200EBAEF67F0D890FD
:10CF6C002F322E322D322C32E82EB5EF67F02C50AA
:10CF7C002D102E102F10D8A4C6EF67F0C8EF67F055
:10CF8C00D2EF67F0000E386E000E396E000E3A6E5E
:10CF9C00000E3B6EEEEF67F0D89038342C6E3934BF
:10CFAC002D6E3A342E6E3B342F6E2C502D102E10CD
:10CFBC002F10D8B4E4EF67F0E6EF67F0EEEF67F010
:10CFCC00000E386E000E396E800E3A6EBF0E3B6E40
:10CFDC0038C028F039C029F03AC02AF03BC02BF0F9
:10CFEC00120049C00CF081EC5AF00001DE51DF1147
:10CFFC00D8A403EF68F005EF68F00BEF68F0000EB3
:10D00C00566E1F0E556E0FEF68F0DEC055F0DFC088
:10D01C0056F0000E586E000E576E8DEF68F049C03A
:10D02C0003F004EC64F003C059F004C05AF0592822
:10D03C0006E15A28D8A425EF68F027EF68F040EFF6
:10D04C0068F00001DE51DF11D8A42FEF68F031EF4A
:10D05C0068F03AEF68F057505810D8A438EF68F0E1
:10D06C003AEF68F040EF68F059C049F05AC04AF006
:10D07C000CEF69F057505810D8A447EF68F049EFFF
:10D08C0068F06DEF68F02B0E59185A10D8B451EFA8
:10D09C0068F053EF68F05DEF68F02D0E59185A10D8
:10D0AC00D8A45BEF68F05DEF68F06DEF68F0740E7C
:10D0BC005724D96E030E5820DA6E600067F1DFFF3B
:10D0CC00574A582A0001DA4BDB2B8DEF68F059C018
:10D0DC004BF0D00E4B26090E4B6477EF68F079EFCE
:10D0EC0068F05DEF68F0592808E15A28D8B481EF50
:10D0FC0068F083EF68F0A7EF68F059C001F05AC0F0
:10D10C0002F049C003F085EC5DF0A7EF68F05550D4
:10D11C00575C5850800A4B6E5650800A4B58D8B00A
:10D12C009AEF68F09CEF68F0A7EF68F0585009E1AF
:10D13C001F0E575CD8A0A5EF68F0A7EF68F015EFAD
:10D14C0068F0740E5724D96E030E5820DA6EDF6A1D
:10D15C00740E196E030E1A6E530E1B6E000E1D6E9E
:10D16C000A0E1C6E000E1E6E5EEC74F019C04BF0B5
:10D17C001AC04CF01BC04DF01CC04EF01DC04FF03F
:10D18C001EC050F01FC051F020C052F04A50D96E52
:10D19C00DA6A60002FF1DEFF600033F1DEFF600021
:10D1AC0037F1DEFF60003BF1DEFF60003FF1DEFF98
:10D1BC00600043F1DEFF600047F1DEFF60004BF1E1
:10D1CC00DEFF0001E051E111D8A4EFEF68F0F1EFC0
:10D1DC0068F008EF69F057505810D8B4F8EF68F0C1
:10D1EC00FAEF68F008EF69F0E651D8B400EF69F097
:10D1FC0003EF69F0010E04EF69F0000E496E4A6A04
:10D20C000CEF69F0FF0E4A6EFE0E496E12003B0EDB
:10D21C00176E340E186E000E1A6E0C0E196E680E08
:10D22C005CEC5BF0355034C032F0336A32C033F012
:10D23C00326A3210406E3350416E375036C032F085
:10D24C00336A32C033F0326A3210426E3350436E5E
:10D25C00395038C032F0336A32C033F0326A32108F
:10D26C00446E3350456E3B503AC032F0336A32C094
:10D27C0033F0326A3210466E3350476E3D503CC02C
:10D28C0032F0336A32C033F0326A3210486E3350A7
:10D29C00496E3F503EC032F0336A32C033F0326ACE
:10D2AC0032104A6E33504B6E40C001F041C002F058
:10D2BC00000E02BEFF0E036E046E010E1BEC65F039
:10D2CC0001C00FF002C010F003C011F004C012F046
:10D2DC00000E136E000E146E800E156E460E166E3A
:10D2EC000FEC6CF06000A3F0D9FF6000A7F0DAFF40
:10D2FC0060003FF0DEFF600043F0DEFF600047F0AF
:10D30C00DEFF60004BF0DEFF42C001F043C002F0D4
:10D31C00000E02BEFF0E036E046E010E1BEC65F0D8
:10D32C0001C00FF002C010F003C011F004C012F0E5
:10D33C00000E136E000E146E800E156E460E166ED9
:10D34C000FEC6CF06000ABF0D9FF6000AFF0DAFFCF
:10D35C0060003FF0DEFF600043F0DEFF600047F04E
:10D36C00DEFF60004BF0DEFF44C001F045C002F070
:10D37C00000E02BEFF0E036E046E010E1BEC65F078
:10D38C0001C00FF002C010F003C011F004C012F085
:10D39C00000E136E000E146E800E156E460E166E79
:10D3AC000FEC6CF06000B3F0D9FF6000B7F0DAFF5F
:10D3BC0060003FF0DEFF600043F0DEFF600047F0EE
:10D3CC00DEFF60004BF0DEFF46C001F047C002F00C
:10D3DC00000E02BEFF0E036E046E010E1BEC65F018
:10D3EC0001C00FF002C010F003C011F004C012F025
:10D3FC00000E136E000E146E030E156E430E166E99
:10D40C000FEC6CF06000BBF0D9FF6000BFF0DAFFEE
:10D41C0060003FF0DEFF600043F0DEFF600047F08D
:10D42C00DEFF60004BF0DEFF48C001F049C002F0A7
:10D43C00000E02BEFF0E036E046E010E1BEC65F0B7
:10D44C0001C00FF002C010F003C011F004C012F0C4
:10D45C00000E136E000E146E030E156E430E166E38
:10D46C000FEC6CF03050D96EDA6A60003FF0DEFFE2
:10D47C00600043F0DEFF600047F0DEFF60004BF021
:10D48C00DEFF4AC001F04BC002F0000E02BEFF0EE0
:10D49C00036E046E010E1BEC65F001C00FF002C0B0
:10D4AC0010F003C011F004C012F0000E136E000E49
:10D4BC00146E030E156E430E166E0FEC6CF031509D
:10D4CC00D96EDA6A60003FF0DEFF600043F0DEFFE9
:10D4DC00600047F0DEFF60004BF0DEFF1200000141
:10D4EC008D51D96EDA6A6F007BFFF6FF6F0077FF04
:10D4FC00F7FFF86A0800F550250AD8A488EF6AF0FF
:10D50C008AEF6AF0FAEF6BF08D51D96EDA6ADE2A87
:10D51C00000EDD22000EE36F000EE26FE2C0E7F0BA
:10D52C00E469E5698D51D96EDA6A6F007BFFF6FF0D
:10D53C006F0077FFF7FFF86A0800F5502E0AD8A4A1
:10D54C00AAEF6AF0ACEF6AF0BCEF6AF08D51D96EBD
:10D55C00DA6ADE2A000EDD228DC007F08EC008F0DC
:10D56C0075EC5FF007C0E4F008C0E5F000018D51E8
:10D57C00D96EDA6A6F0078FF4BF06F0074FF4CF0D5
:10D58C0060002FF1F6FF600033F1F7FFF86A080036
:10D59C00F550580AD8A4D5EF6AF0D7EF6AF019EF16
:10D5AC006BF08E51D96EDA6A020EDF26DF5CD96E13
:10D5BC00DA6A6F0078FF46F06F0078FF47F0010ED3
:10D5CC004B24446E000E4C20456E8D51D96EDA6A98
:10D5DC00600013F1DEFF600017F1DDFF00EF6BF070
:10D5EC008CC019F046C01AF047C01BF07FEC63F0FA
:10D5FC000EEF6CF060002FF1F6FF600033F1F7FFD7
:10D60C00F86A0800F550446E456A4550000AD8B4D3
:10D61C0012EF6BF019EF6BF04450580AD8B4F6EFD8
:10D62C006AF019EF6BF08D51D96EDA6A6F0078FFE2
:10D63C004BF06F0074FF4CF060002FF1F6FF6000B0
:10D64C0033F1F7FFF86A08006F00D4FF4AF03BEFA4
:10D65C006BF04B4A4C2A54EF6BF06C0E4A6E54EF45
:10D66C006BF0000E4A6E54EF6BF04A50446E456AF4
:10D67C004550000AD8B445EF6BF037EF6BF04450CF
:10D68C004C0AD8B42FEF6BF02A0AD8B433EF6BF0F6
:10D69C000A0AD8B42FEF6BF037EF6BF060002FF164
:10D6AC00F6FF600033F1F7FFF86A0800F550660AE0
:10D6BC00D8A463EF6BF065EF6BF0F1EF6BF099EFC3
:10D6CC006BF08E51D96EDA6A6F007CFF44F0040E59
:10D6DC00DF264450D96EDA6A6F0078FF46F06F008F
:10D6EC0078FF47F06F0078FF48F06F0078FF49F043
:10D6FC00AEEF6BF08E51D96EDA6A6F007CFF44F09E
:10D70C00040EDF264450D96EDA6A6F0078FF46F0BB
:10D71C006F0078FF47F06F0078FF48F06F0078FFDC
:10D72C0049F0AEEF6BF04A50446E456A4550000A22
:10D73C00D8B4A3EF6BF0AEEF6BF044504C0AD8B4F6
:10D74C0080EF6BF0200AD8B467EF6BF0AEEF6BF0A4
:10D75C00010E4B24446E000E4C20456E8D51D96E3B
:10D76C00DA6A600013F1DEFF600017F1DDFFD8EF1D
:10D77C006BF08CC03CF046C03DF047C03EF048C05A
:10D78C003FF049C040F060002FF1F6FF600033F12C
:10D79C00F7FFF86A08006F00D4FF41F006EC7AF04E
:10D7AC000EEF6CF060002FF1F6FF600033F1F7FF25
:10D7BC00F86A0800F550446E456A4550000AD8B422
:10D7CC00EAEF6BF0F1EF6BF04450660AD8B4BFEFA0
:10D7DC006BF0F1EF6BF000018D51D96EDA6ADE2A35
:10D7EC00000EDD220EEF6CF08D51D96EDA6A6F00EF
:10D7FC007BFFF6FF6F0077FFF7FFF86A0800F55024
:10D80C00036E046A8CC005F0D4EC5FF0F1EF6BF0A2
:10D81C0012001250800B1F6E12501224266E11AE85
:10D82C001AEF6CF01CEF6CF01DEF6CF0268026509C
:10D83C00D8B423EF6CF025EF6CF03AEF6CF026289F
:10D84C00D8A42BEF6CF02DEF6CF035EF6CF0000ED4
:10D85C000F6E000E106E000E116E000E126E118EF9
:10D86C00000E126E42EF6CF0000E0F6E000E106E7A
:10D87C00000E116E000E126E1650800B1F1A1650F1
:10D88C001624276E15AE4DEF6CF04FEF6CF050EF89
:10D89C006CF027802750D8B456EF6CF058EF6CF032
:10D8AC006DEF6CF02728D8A45EEF6CF060EF6CF095
:10D8BC0068EF6CF0000E136E000E146E000E156EF9
:10D8CC00000E166E158E000E166E75EF6CF0000EB7
:10D8DC00136E000E146E000E156E000E166E1350A5
:10D8EC00141015101610D8A47EEF6CF080EF6CF0AD
:10D8FC0098EF6CF0000E0F6E000E106E000E116E95
:10D90C00000E126E800E11127F0E12121F50121288
:10D91C000FC00FF010C010F011C011F012C012F0B7
:10D92C00DBEF6DF02650D8A49EEF6CF0A0EF6CF0FE
:10D93C00AAEF6CF0000E0F6E000E106E000E116E42
:10D94C00000E126EDBEF6DF0275026C017F0186A30
:10D95C00175E000E185A7F0E1724206E000E18202A
:10D96C00216E0FC01BF010C01CF011C01DF012C0B6
:10D97C001EF0000E0F6E000E106E000E116E000EDB
:10D98C00126E000E226E000E236E000E246E000E20
:10D99C00256E000E276E0BEF6DF02750D8B4D9EF23
:10D9AC006CF0DBEF6CF0F2EF6CF0D8901B361C36A1
:10D9BC001D361E36D8900F3610361136123625AE5F
:10D9CC00EAEF6CF0ECEF6CF0EDEF6CF00F80D890B0
:10D9DC00223623362436253613501B5C14501C5823
:10D9EC0015501D5816501E58D8A0FFEF6CF001EFC3
:10D9FC006DF00AEF6DF0258C13501B5E14501C5A01
:10DA0C0015501D5A16501E5A272A190E276411EF4D
:10DA1C006DF013EF6DF0D3EF6CF01B501C101D105C
:10DA2C001E10D8B41CEF6DF01EEF6DF036EF6DF0DC
:10DA3C00228036EF6DF0D8900F3610361136123634
:10DA4C0025AE2BEF6DF02DEF6DF02EEF6DF00F80FE
:10DA5C00D89022362336243625362006D8A0210627
:10DA6C0011AE3BEF6DF03DEF6DF021EF6DF0000E60
:10DA7C00276E25AE44EF6DF046EF6DF06AEF6DF05A
:10DA8C00FF0E2214176EFF0E2314186EFF0E2414B3
:10DA9C00196E7F0E25141A6E1750181019101A10C3
:10DAAC00D8B45BEF6DF05DEF6DF061EF6DF0010ED2
:10DABC00276E6AEF6DF00FA066EF6DF068EF6DF0FA
:10DACC006AEF6DF05DEF6DF02750D8B470EF6DF02C
:10DADC0072EF6DF096EF6DF0010E0F26000E102216
:10DAEC001122122212A07DEF6DF07FEF6DF096EFF8
:10DAFC006DF00FC017F010C018F011C019F012C063
:10DB0C001AF01A341A3219321832173217C00FF0B1
:10DB1C0018C010F019C011F01AC012F0204A212AB6
:10DB2C0021BEA1EF6DF0215008E12028D8A0A1EF73
:10DB3C006DF0A3EF6DF0AEEF6DF0000E216E20686E
:10DB4C00000E0F6E000E106E000E116E000E126E97
:10DB5C0021BEBBEF6DF0215006E12004D8B0B9EF27
:10DB6C006DF0BBEF6DF0C9EF6DF0000E216E000E85
:10DB7C00206E000E0F6E000E106E000E116E000E59
:10DB8C00126E000E1F6E20C026F026A0D0EF6DF096
:10DB9C00D2EF6DF0D5EF6DF0118ED6EF6DF0119ECA
:10DBAC00D8902630126E8CEF6CF012005C50D96E4F
:10DBBC00DA6A6F007BFFF6FF6F0077FFF7FFF86AFA
:10DBCC000800F550250AD8A4EEEF6DF0F0EF6DF0DB
:10DBDC000FEF6FF05C50D96EDA6ADE2A000EDD2290
:10DBEC00000E0001DF6F000EDE6FDE51DF11D8A4D6
:10DBFC0002EF6EF005EF6EF0010E06EF6EF0000E08
:10DC0C00E66F5C50D96EDA6A6F007BFFF6FF6F002F
:10DC1C0077FFF7FFF86A0800F550750AD8A419EFDA
:10DC2C006EF01BEF6EF059EF6EF05C50D96EDA6A45
:10DC3C00DE2A000EDD225BC049F0640E4A6EF7EC62
:10DC4C0067F049C06CF04AC06DF000016DBF37EF52
:10DC5C006EF06D5108E16C05D8A037EF6EF039EF1E
:10DC6C006EF053EF6EF05D50D96EDA6A020EDF265D
:10DC7C00DF5CD96EDA6A6F0078FF62F06F0078FFB4
:10DC8C0063F060008BF1D9FF60008FF1DAFF600068
:10DC9C0093F1DEFF600097F1DDFF6CC05BF06DC0AF
:10DCAC005CF0D6EF6FF05C50D96EDA6A6F0078FFDB
:10DCBC0001F06F0074FF02F0F80E036EFF0E046E9D
:10DCCC00000E066E020E056E80EC61F00150021023
:10DCDC00D8A473EF6EF075EF6EF0B6EF6EF05C508B
:10DCEC00D96EDA6A020EDE26000EDD225BC049F028
:10DCFC00640E4A6EF7EC67F049C06CF04AC06DF0E8
:10DD0C0000016DBF92EF6EF06D5108E16C05D8A06B
:10DD1C0092EF6EF094EF6EF053EF6EF05D50D96EA3
:10DD2C00DA6A020EDF26DF5CD96EDA6A6F0078FFE2
:10DD3C0062F06F0078FF63F060008BF1D9FF600038
:10DD4C008FF1DAFF600093F1DEFF600097F1DEFFE8
:10DD5C0060009BF1DEFF60009FF1DEFF53EF6EF081
:10DD6C005C50D96EDA6A6F007BFFF6FF6F0077FFAD
:10DD7C00F7FFF86A0800F550250AD8A4C8EF6EF032
:10DD8C00CAEF6EF007EF6FF05BC00CF081EC5AF04D
:10DD9C005BC003F004EC64F003C06EF004C06FF0E1
:10DDAC00250E00016E196F11D8A4DFEF6EF0E1EFB4
:10DDBC006EF0EFEF6EF05C50D96EDA6ADE2A000E70
:10DDCC00DD22DA4BDB2B000E5C6E000E5B6ED6EFA9
:10DDDC006FF06E2908E16F29D8B4F7EF6EF0F9EF08
:10DDEC006EF001EF6FF06EC001F06FC002F05BC01F
:10DDFC0003F085EC5DF0FF0E5C6EFE0E5B6ED6EFF5
:10DE0C006FF05C50D96EDA6ADE2A000EDD22E9EF83
:10DE1C006EF05BC003F004EC64F003C06EF004C061
:10DE2C006FF05C50D96EDA6A6F007BFFF6FF6F0003
:10DE3C0077FFF7FFF86A0800F550200AD8B429EFED
:10DE4C006FF02BEF6FF044EF6FF05C50D96EDA6A25
:10DE5C006F007BFFF6FF6F0077FFF7FFF86A080093
:10DE6C006F00D4FF60F0F70E00016027050E6061B3
:10DE7C0042EF6FF044EF6FF0AEEF6FF05C50D96E85
:10DE8C00DA6ADE2A000EDD225C50D96EDA6A6F0087
:10DE9C007BFFF6FF6F0077FFF7FFF86A0800F5507D
:10DEAC00200AD8B45CEF6FF05EEF6FF044EF6FF0C8
:10DEBC005C50D96EDA6A6F007BFFF6FF6F0077FF5C
:10DECC00F7FFF86A08006F00D4FF60F0F70E00014E
:10DEDC006027040E606575EF6FF077EF6FF044EF1D
:10DEEC006FF083EF6FF0DA4BDB2B5BC003F004ECCD
:10DEFC0064F003C06EF004C06FF0200E00016E19C8
:10DF0C006F11D8B48CEF6FF08EEF6FF079EF6FF07C
:10DF1C006EC060F0F70E6027040E606598EF6FF02E
:10DF2C009AEF6FF079EF6FF06E2908E16F29D8B492
:10DF3C00A2EF6FF0A4EF6FF0E9EF6EF06EC001F09E
:10DF4C006FC002F05BC003F085EC5DF0E9EF6EF0A2
:10DF5C005C50D96EDA6A6F007BFFF6FF6F0077FFBB
:10DF6C00F7FFF86A0800F550606F616B6E5160192D
:10DF7C0007E16F516119D8A4C6EF6FF0C8EF6FF0CD
:10DF8C00CAEF6FF0E1EF6EF06E2906E16F29D8A4AD
:10DF9C00D2EF6FF0D4EF6FF0F9EF6EF05B685C6866
:10DFAC0012000450800B0D6E04500424136E03AE4B
:10DFBC00E2EF6FF0E4EF6FF0E5EF6FF013801350CA
:10DFCC00D8B4EBEF6FF0EDEF6FF000EF70F01328BB
:10DFDC00D8A4F3EF6FF0F5EF6FF0FDEF6FF0000EDC
:10DFEC00016E000E026E000E036E000E046E038EA8
:10DFFC0008EF70F0000E016E000E026E000E036E44
:10E00C00000E046E0850800B0D1A08500824126E76
:10E01C0007AE13EF70F015EF70F016EF70F0128082
:10E02C001250D8B41CEF70F01EEF70F031EF70F09E
:10E03C001228D8A424EF70F026EF70F02EEF70F0B9
:10E04C00000E056E000E066E000E076E000E086EBA
:10E05C00078E39EF70F0000E056E000E066E000E86
:10E06C00076E000E086E1250D8B43FEF70F041EFFF
:10E07C0070F049EF70F01350D8A447EF70F049EFEF
:10E08C0070F053EF70F0000E016E000E026E000E79
:10E09C00036E000E046EFDEF71F0075001026F006D
:10E0AC00CCFF18F06F00D0FF19F018500E6E0F6AED
:10E0BC00106A116A1950146E156A166A176A06509E
:10E0CC0002026F00CCFF18F06F00D0FF19F018504F
:10E0DC000E26000E0F221022112219501426000EAB
:10E0EC00152216221722055003026F00CCFF18F0E0
:10E0FC006F00D0FF19F018500E26000E0F221022C0
:10E10C00112219501426000E15221622172210C0A7
:10E11C0011F00FC010F00EC00FF00E6A0550020285
:10E12C006F00CCFF18F06F00D0FF19F018500E26BE
:10E13C0019500F22000E1022000E1122065001025F
:10E14C006F00CCFF18F06F00D0FF19F018500E269E
:10E15C0019500F22000E1022000E112210C011F0C7
:10E16C000FC010F00EC00FF00E6A055001026F00C8
:10E17C00CCFF18F06F00D0FF19F018500E26195074
:10E18C000F22000E1022000E1122075002026F0007
:10E19C00CCFF18F06F00D0FF19F01850142619504E
:10E1AC001522000E1622000E1722065003026F00D5
:10E1BC00CCFF18F06F00D0FF19F01850142619502E
:10E1CC001522000E1622000E1722075003026F00B4
:10E1DC00CCFF18F06F00D0FF19F01850096E1950D1
:10E1EC000A6E0B6A0C6A0BC00CF00AC00BF009C06B
:10E1FC000AF0096A095014260A5015220B501622EF
:10E20C000C5017220EC009F00FC00AF010C00BF012
:10E21C0011C00CF0190E18EF71F0D8900C320B32B3
:10E22C000A320932E82E13EF71F0095014260A5005
:10E23C0015220B5016220C50172210C011F00FC0D3
:10E24C0010F00EC00FF00E6A125013C009F00A6ADB
:10E25C000926000E0A22820E0924186EFF0E0A20CF
:10E26C00196E4EEF71F0D8901436153616361736E7
:10E27C0011AE43EF71F045EF71F046EF71F0148081
:10E28C00D8900E360F36103611361806D8A019064F
:10E29C0016AE53EF71F055EF71F039EF71F0000ECF
:10E2AC00126E11AE5CEF71F05EEF71F082EF71F0F7
:10E2BC00FF0E0E14096EFF0E0F140A6EFF0E1014D3
:10E2CC000B6E7F0E11140C6E09500A100B100C10F3
:10E2DC00D8B473EF71F075EF71F079EF71F0010E46
:10E2EC00126E82EF71F014A07EEF71F080EF71F07E
:10E2FC0082EF71F075EF71F01250D8B488EF71F0B5
:10E30C008AEF71F0AEEF71F0010E1426000E15229B
:10E31C001622172217A095EF71F097EF71F0AEEF60
:10E32C0071F014C009F015C00AF016C00BF017C03C
:10E33C000CF00C340C320B320A32093209C014F0D6
:10E34C000AC015F00BC016F00CC017F0184A192AA9
:10E35C0019BEB9EF71F0195008E11828D8A0B9EF1F
:10E36C0071F0BBEF71F0C5EF71F0000E146E000E82
:10E37C00156E800E166E7F0E176EF3EF71F019BED0
:10E38C00D2EF71F0195006E11804D8B0D0EF71F04B
:10E39C00D2EF71F0DEEF71F0000E146E000E156E00
:10E3AC00000E166E000E176E000E0D6EF3EF71F070
:10E3BC0018C013F0FF0E1416FF0E15167F0E16164E
:10E3CC00000E171613A0EDEF71F0EFEF71F0F0EFF8
:10E3DC0071F0168ED8901330176E0D50171214C0A2
:10E3EC0001F015C002F016C003F017C004F01200C3
:10E3FC000450800B0D6E045004240F6E03AE09EF15
:10E40C0072F00BEF72F00CEF72F00F800F50D8B46B
:10E41C0012EF72F014EF72F029EF72F00F28D8A4FB
:10E42C001AEF72F01CEF72F024EF72F0000E016E16
:10E43C00000E026E000E036E000E046E038E000EB4
:10E44C00046E31EF72F0000E016E000E026E000EC3
:10E45C00036E000E046E0850800B0E6E0D500E18DD
:10E46C00D8B43BEF72F03DEF72F03EEF72F00D8CD2
:10E47C00085008240E6E07AE46EF72F048EF72F0AB
:10E48C0049EF72F00E800E50D8B44FEF72F051EF8E
:10E49C0072F066EF72F00E28D8A457EF72F059EFB5
:10E4AC0072F061EF72F0000E056E000E066E000E3B
:10E4BC00076E000E086E078E000E086E6EEF72F07F
:10E4CC00000E056E000E066E000E076E000E086E36
:10E4DC000F500E5CD8B075EF72F077EF72F09EEFC4
:10E4EC0072F00DAC7CEF72F07EEF72F080EF72F098
:10E4FC00800E0D1A0FC010F00EC00FF010C00EF0F1
:10E50C0001C010F005C001F010C005F002C010F001
:10E51C0006C002F010C006F003C010F007C003F0F4
:10E52C0010C007F004C010F008C004F010C008F0D0
:10E53C00000E106E0F500EC009F00A6A095E000E34
:10E54C000A5A0ABEB3EF72F00A5009E11A0E095CBE
:10E55C00D8A0B3EF72F0B5EF72F0ECEF72F001509F
:10E56C00021003100410D8A4BEEF72F0C1EF72F0C9
:10E57C00010EC2EF72F0000E106E000E016E000E56
:10E58C00026E000E036E000E046E0EC00FF0F5EF5F
:10E59C0072F010A0D4EF72F0D6EF72F0DCEF72F0E4
:10E5AC00D89010300109106EDEEF72F0D890103256
:10E5BC0001A0E3EF72F0E5EF72F0E6EF72F0108E6F
:10E5CC00043404320332023201320F2A0E500F5C33
:10E5DC00D8A0F3EF72F0F5EF72F0CFEF72F00DBC44
:10E5EC00FAEF72F0FCEF72F03CEF73F00F50D8A41E
:10E5FC0002EF73F004EF73F00EEF73F0000E016E88
:10E60C00000E026E000E036E000E046E5DEF74F0D1
:10E61C0005500126065002220750032208500422FE
:10E62C0004A01BEF73F01DEF73F0C9EF73F010A093
:10E63C0022EF73F024EF73F02AEF73F0D8901030C0
:10E64C000109106E2CEF73F0D890103201A031EF4D
:10E65C0073F033EF73F034EF73F0108E0434043234
:10E66C000332023201320F2AC9EF73F00550015CFC
:10E67C0006500258075003580450800A096E08507F
:10E68C00800A0958D8B04DEF73F04FEF73F07AEF62
:10E69C0073F00150055C096E025006580A6E035067
:10E6AC0007580B6E045008580C6EFF0E0924016EAF
:10E6BC00FF0E0A20026EFF0E0B20036EFF0E0C20C5
:10E6CC00046E800E0D1A106C1050D8A470EF73F0FD
:10E6DC0072EF73F082EF73F0010E0126000E02222E
:10E6EC000322042282EF73F00550015E0650025A99
:10E6FC000750035A0850045A01500210031004101A
:10E70C00D8A48BEF73F08DEF73F0C2EF73F0105051
:10E71C00D8A493EF73F095EF73F0C2EF73F0000E83
:10E72C00016E000E026E000E036E000E046E5DEFA5
:10E73C0074F0D890013602360336043610AEA9EFC9
:10E74C0073F0ABEF73F0ACEF73F0018010A0B1EF8E
:10E75C0073F0B3EF73F0B7EF73F0D8801036B9EFF6
:10E76C0073F0D89010360F50D8B4BFEF73F0C1EFE0
:10E77C0073F0C2EF73F00F0603AEC7EF73F0C9EF7F
:10E78C0073F09FEF73F0000E0E6E10AED0EF73F0BF
:10E79C00D2EF73F0EAEF73F010C009F07F0E091698
:10E7AC00D8B4DBEF73F0DDEF73F0E1EF73F0010E33
:10E7BC000E6EEAEF73F001A0E6EF73F0E8EF73F082
:10E7CC00EAEF73F0DDEF73F00E50D8B4F0EF73F0A6
:10E7DC00F2EF73F01DEF74F0010E0126000E022211
:10E7EC000322042204A0FDEF73F0FFEF73F01DEF82
:10E7FC0074F001C009F002C00AF003C00BF004C0B1
:10E80C000CF00C340C320B320A32093209C001F014
:10E81C000AC002F00BC003F00CC004F00F28D8B4EF
:10E82C001AEF74F01CEF74F01DEF74F00F2A0F2820
:10E83C00D8B423EF74F025EF74F02DEF74F00F5073
:10E84C00D8A42BEF74F02DEF74F03FEF74F0000EA2
:10E85C00016E000E026E000E036E000E046E0F5061
:10E86C00D8A43BEF74F03DEF74F03FEF74F0000E62
:10E87C000D6E0FA044EF74F046EF74F049EF74F096
:10E88C00038E4AEF74F0039ED8900F30046E0DAED9
:10E89C0052EF74F054EF74F055EF74F0048E01C025
:10E8AC0001F002C002F003C003F004C004F0120037
:10E8BC00000E3D6E20EE3EF0070EDE6AE806FDE22D
:10E8CC0019C046F01AC047F01DBE78EF74F01D5009
:10E8DC0007E1250E1C5CD8B076EF74F078EF74F07D
:10E8EC0081EF74F01C041D10D8A47FEF74F081EF3D
:10E8FC0074F088EF74F0000E0001E16F160EE06FFB
:10E90C00F7EF76F046504710D8B48FEF74F091EFD4
:10E91C0074F0F7EF76F060001BF1D9FF60001FF187
:10E92C00DAFFDF50D8A49DEF74F09FEF74F0A1EFE5
:10E93C0074F0F7EF76F060001BF1D9FF60001FF167
:10E94C00DAFFDF50486EB5EF74F0464A472A600094
:10E95C001BF1D9FF60001FF1DAFFDF50486E200E6B
:10E96C004818D8B4BCEF74F0BEEF74F0ABEF74F091
:10E97C0048C021F0F70E2126040E2164C8EF74F074
:10E98C00CAEF74F0ABEF74F02D0E4818D8A4D1EF89
:10E99C0074F0D3EF74F0E0EF74F03D80464A472AF0
:10E9AC0060001BF1D9FF60001FF1DAFFDF50486EE9
:10E9BC00EBEF74F02B0E4818D8A4E7EF74F0E9EFE6
:10E9CC0074F0EBEF74F0D4EF74F0300E4818D8A458
:10E9DC00F2EF74F0F4EF74F091EF75F0464A472AB9
:10E9EC0060001BF1D9FF60001FF1DAFFDF50486EA9
:10E9FC001C501D10D8B405EF75F007EF75F011EF32
:10EA0C0075F0100E1C181D10D8A40FEF75F011EF37
:10EA1C0075F083EF75F0780E4818D8B418EF75F0D0
:10EA2C001AEF75F023EF75F0580E4818D8A421EFA3
:10EA3C0075F023EF75F083EF75F0000E1D6E100E60
:10EA4C001C6E464A472A60001BF1D9FF60001FF17B
:10EA5C00DAFFDF50486E48C021F0200E21129F0EC5
:10EA6C0021261A0E21603DEF75F03FEF75F063EF34
:10EA7C0075F048C021F09F0E2126190E216449EF34
:10EA8C0075F04BEF75F050EF75F048C031F0326A0D
:10EA9C0057EF75F048C021F05F0E21162150316EF2
:10EAAC00326A31C021F0C90E2126100E216061EFAF
:10EABC0075F063EF75F07DEF75F048C021F0200E16
:10EACC0021129F0E2126190E21646FEF75F071EF44
:10EADC0075F091EF75F048C021F0D00E2126090E8B
:10EAEC0021647BEF75F07DEF75F091EF75F03D844F
:10EAFC004606D8A04706F7EF76F03D841C501D1053
:10EB0C00D8A48BEF75F08DEF75F091EF75F0000ECA
:10EB1C001D6E080E1C6E1C501D10D8A498EF75F0BD
:10EB2C009AEF75F09EEF75F0000E1D6E0A0E1C6EBE
:10EB3C001E50D8B4A4EF75F0A6EF75F0D1EF75F0B8
:10EB4C003DB0ABEF75F0ADEF75F0BFEF75F0FF0EAC
:10EB5C00356EFF0E366EFF0E376EFF0E386EFF0EE3
:10EB6C00396EFF0E3A6EFF0E3B6E7F0E3C6ED9EF88
:10EB7C0075F0000E356E000E366E000E376E000E00
:10EB8C00386E000E396E000E3A6E000E3B6E800E23
:10EB9C003C6ED9EF75F03568366837683868396877
:10EBAC003A683B683C683EC029F03FC02AF040C040
:10EBBC002BF041C02CF042C02DF043C02EF044C0CD
:10EBCC002FF045C030F048C021F0200E21129F0ECE
:10EBDC0021261A0E2160F5EF75F0F7EF75F014EFA2
:10EBEC0076F048C021F09F0E2126190E216401EF0A
:10EBFC0076F003EF76F008EF76F048C033F0346A25
:10EC0C000FEF76F048C021F05F0E21162150336EC5
:10EC1C00346A3350C90F486E22EF76F048C021F0A9
:10EC2C00D00E21260A0E21601EEF76F020EF76F032
:10EC3C00DDEF76F0300E485E4850216E226A1C5093
:10EC4C00215C2250800A236E1D50800A2358D8A0C4
:10EC5C0032EF76F034EF76F036EF76F0DDEF76F0DB
:10EC6C003DB23BEF76F03DEF76F0D0EF76F01CC086
:10EC7C0001F01DC002F0000E02BEFF0E036E046E0A
:10EC8C00056E066E076E086E3EC009F03FC00AF0B6
:10EC9C0040C00BF041C00CF042C00DF043C00EF070
:10ECAC0044C00FF045C010F036EC5DF001C021F00F
:10ECBC0002C022F003C023F004C024F005C025F0EC
:10ECCC0006C026F007C027F008C028F048502124C1
:10ECDC003E6E000E22203F6E000E2320406E000E72
:10ECEC002420416E000E2520426E000E2620436E1D
:10ECFC00000E2720446E000E2820456E29503E5CE5
:10ED0C002A503F582B5040582C5041582D504258A7
:10ED1C002E5043582F50445830504558D8A099EF96
:10ED2C0076F09BEF76F0BAEF76F01E50D8B4A1EFE8
:10ED3C0076F0A3EF76F0D0EF76F03E50355C3F5096
:10ED4C003658405037584150385842503958435033
:10ED5C003A5844503B5845503C58D8B0B8EF76F030
:10ED6C00BAEF76F0D0EF76F035C03EF036C03FF01B
:10ED7C0037C040F038C041F039C042F03AC043F0DF
:10ED8C003BC044F03CC045F0000E0001E16F220E88
:10ED9C00E06F3D82464A472A60001BF1D9FF6000B4
:10EDAC001FF1DAFFDF50486E3D84D9EF75F03D500E
:10EDBC00030BE806D8A4E5EF76F0E7EF76F0F7EF73
:10EDCC0076F0451E441E431E421E411E401E3F1E31
:10EDDC003E6C000E3F22402241224222432244221A
:10EDEC0045221B50D8B4FDEF76F0FFEF76F013EF11
:10EDFC0077F03DB404EF77F006EF77F00AEF77F099
:10EE0C0019C046F01AC047F01B50D96EDA6A600080
:10EE1C001BF1DEFF60001FF1DDFF3EC019F03FC0AB
:10EE2C001AF040C01BF041C01CF042C01DF043C0A2
:10EE3C001EF044C01FF045C020F01200000E02016D
:10EE4C00DC6F000EDD6F000EDE6F000EDF6F28EF43
:10EE5C0078F0F80E286E020E296EF40E2A6E020E51
:10EE6C002B6EF00E2C6E020E2D6EEC0E2E6E020E14
:10EE7C002F6EED0E306EE90E316E0DEC69F0940EC6
:10EE8C00016E030E026EF80E036E020E046E000E7F
:10EE9C00066E040E056E56EC59F0980E016E030EBC
:10EEAC00026EF40E036E020E046E000E066E040E5D
:10EEBC00056E56EC59F09C0E016E030E026EF00EB0
:10EECC00036E020E046E000E066E040E056E56ECFA
:10EEDC0059F0A00E016E030E026EEC0E036E020EC4
:10EEEC00046E000E066E040E056E56EC59F0A40E60
:10EEFC00016E030E026EED0E036E046A000E066EBA
:10EF0C00040E056E56EC59F0A80E016E030E026E3F
:10EF1C00E90E036E046A000E066E040E056E56ECC6
:10EF2C0059F0040E026EFF0E036E23EC5BF0000E24
:10EF3C000001936F020E946FEB0E956FFF0E966FA0
:10EF4C00EAC297F0EBC298F0FAEC57F0000E026EA2
:10EF5C00020E036E23EC5BF0B80E026EFF0E036E16
:10EF6C0023EC5BF0EAC223F0EBC224F0940E256E86
:10EF7C00030E266E0C0E276E500E95EC57F02A0ED3
:10EF8C00026EFF0E036E23EC5BF0000E0001936F1C
:10EF9C00020E946FEB0E956FFF0E966FE8C297F012
:10EFAC00E9C298F0FAEC57F0000E026E020E036EF6
:10EFBC0023EC5BF0B80E026EFF0E036E23EC5BF0DD
:10EFCC00E8C223F0E9C224F0A00E256E030E266ED3
:10EFDC000C0E276E510E95EC57F00C0E0201EA2523
:10EFEC000001B76F000E0201EB210001B86FFF0E9C
:10EFFC00B7150201EA6F7F0E0001B8150201EB6F25
:10F00C000C0EE8250001B76F000E0201E92100018A
:10F01C00B86FFF0EB7150201E86F7F0E0001B8152F
:10F02C000201E96F010EDC27000EDD23DE23DF2356
:10F03C00F1C001F0F2C002F0F3C003F0F4C004F030
:10F04C0037EC57F00201FC51DC5DFD51DD59FE51EE
:10F05C00DE59FF51DF59D8A036EF78F038EF78F051
:10F06C002FEF77F0FC51DC190DE1FD51DD190AE1B0
:10F07C00FE51DE1907E1FF51DF19D8A448EF78F0F3
:10F08C004AEF78F0FCEF79F09A0E026EFF0E036EE9
:10F09C0023EC5BF00201EA51EB11D8B458EF78F095
:10F0AC005AEF78F062EF78F0EAC2C8F2EBC2C9F21C
:10F0BC00CA6BCB6B6AEF78F0000EC86F800EC96F0D
:10F0CC00000ECA6F000ECB6FFCC201F0FDC202F045
:10F0DC00FEC203F0FFC204F0F40E056EFF0E066EC6
:10F0EC00FF0E076EFF0E086EB6EC5AF00201C85107
:10F0FC000124E06FC9510220E16FCA510320E26F75
:10F10C00CB510420E36FE851E911D8B490EF78F0BB
:10F11C0092EF78F09AEF78F0E8C2CCF2E9C2CDF237
:10F12C00CE6BCF6BA2EF78F0000ECC6F800ECD6F54
:10F13C00000ECE6F000ECF6FFCC201F0FDC202F0CC
:10F14C00FEC203F0FFC204F0F40E056EFF0E066E55
:10F15C00FF0E076EFF0E086EB6EC5AF00201CC5192
:10F16C000124E46FCD510220E56FCE510320E66FF0
:10F17C00CF510420E76F000ED06F000ED16F000E40
:10F18C00D26F000ED36F69EF79F0500E026EFF0E46
:10F19C00036E23EC5BF0000E0001936F020E946F74
:10F1AC00EB0E956FFF0E966FE0C297F0E1C298F0F0
:10F1BC00E2C299F0E3C29AF0FAEC57F0000E026E3C
:10F1CC00020E036E23EC5BF0B80E026EFF0E036EA4
:10F1DC0023EC5BF00C0E0201E0250001B76F000E72
:10F1EC000201E1210001B86F000E0201E2210001D1
:10F1FC00B96F000E0201E3210001BA6FFF0EB715C3
:10F20C000201E06F7F0E0001B8150201E16F000EE4
:10F21C000001B9150201E26F000E0001BA150201DE
:10F22C00E36F750E026EFF0E036E23EC5BF0000EA7
:10F23C000001936F020E946FEB0E956FFF0E966F9D
:10F24C00E4C297F0E5C298F0E6C299F0E7C29AF0F2
:10F25C00FAEC57F0000E026E020E036E23EC5BF01C
:10F26C00B80E026EFF0E036E23EC5BF00C0E020167
:10F27C00E4250001B76F000E0201E5210001B86F13
:10F28C00000E0201E6210001B96F000E0201E72118
:10F29C000001BA6FFF0EB7150201E46F7F0E00017B
:10F2AC00B8150201E56F000E0001B9150201E66FF9
:10F2BC00000E0001BA150201E76F010ED027000EF7
:10F2CC00D123D223D323FC51D05DFD51D159FE5112
:10F2DC00D259FF51D359D8A076EF79F078EF79F065
:10F2EC00CBEF78F0EA51EB11D8B47FEF79F081EFE6
:10F2FC0079F089EF79F0EAC2D4F2EBC2D5F2D66B91
:10F30C00D76B91EF79F0000ED46F800ED56F000E95
:10F31C00D66F000ED76FFCC201F0FDC202F0FEC228
:10F32C0003F0FFC204F0F40E056EFF0E066EFF0E26
:10F33C00076EFF0E086EB6EC5AF00201D451012490
:10F34C00E06FD5510220E16FD6510320E26FD75107
:10F35C000420E36FE851E911D8B4B7EF79F0B9EFB5
:10F36C0079F0C1EF79F0E8C2D8F2E9C2D9F2DA6BE0
:10F37C00DB6BC9EF79F0000ED86F800ED96F000EE1
:10F38C00DA6F000EDB6FFCC201F0FDC202F0FEC2B0
:10F39C0003F0FFC204F0F40E056EFF0E066EFF0EB6
:10F3AC00076EFF0E086EB6EC5AF00201D85101241C
:10F3BC00E46FD9510220E56FDA510320E66FDB517F
:10F3CC000420E76FFCC2AFF0FDC2B0F0FEC2B1F09A
:10F3DC00FFC2B2F0E0C2B3F0E1C2B4F0E4C2B5F0E7
:10F3EC00E5C2B6F0F5EC65F002EF7AF0E20E026ED3
:10F3FC00FF0E036E23EC5BF0000E0001E86F1200B1
:10F40C00000E0001816F3DC082F03EC083F03FC012
:10F41C0084F040C085F085BF18EF7AF016EF7AF0D3
:10F42C002CEF7AF0010E816F82C001F083C002F0E4
:10F43C0084C003F085C004F01BEC57F001C082F0CF
:10F44C0002C083F003C084F004C085F0000E0001FC
:10F45C00876F000E866FE2C071F0E3C072F08151CD
:10F46C00D8B43BEF7AF03DEF7AF051EF7AF081515E
:10F47C00D8A443EF7AF045EF7AF04BEF7AF0000E18
:10F48C00676F2B0E666F4FEF7AF0000E676F2D0EC5
:10F49C00666F66C081F082C001F083C002F084C048
:10F4AC0003F085C004F0FBEC61F001040210D8A459
:10F4BC0062EF7AF064EF7AF095EF7AF00001815107
:10F4CC00D8B46BEF7AF06DEF7AF076EF7AF081C00A
:10F4DC0024F37107D8A07207000E876F010E866F98
:10F4EC00240E8625016E030E8721026EF00E036E2C
:10F4FC00FF0E046ED8EC57F00001FD0E7127FF0EC5
:10F50C0072233CC011F0240E126E030E136E71C0E8
:10F51C0014F072C015F0B1EC59F0FEEF7EF082C021
:10F52C0001F083C002F084C003F085C004F0FBEC52
:10F53C0061F001500210D8A4A6EF7AF0A8EF7AF08F
:10F54C00C8EF7AF000018151D8B4AFEF7AF0B1EF87
:10F55C007AF0BAEF7AF081C024F37107D8A0720761
:10F56C00000E876F010E866F240E8625016E030E2A
:10F57C008721026EF40E036EFF0E046ED8EC57F06A
:10F58C0082EF7AF0000E0001886F000E896F800EFA
:10F59C008A6F3F0E8B6F000E706F000E6F6F82C004
:10F5AC0001F083C002F084C003F085C004F0000EAB
:10F5BC00056E000E066E000E076E000E086E20EC37
:10F5CC005FF0D8B0ECEF7AF0EEEF7AF0CDEF7BF0A5
:10F5DC00FBEF7AF073C088F074C089F075C08AF0C4
:10F5EC0076C08BF000016F4B702B88C001F089C086
:10F5FC0002F08AC003F08BC004F0000E056E000E02
:10F60C00066E200E076E410E086ED7EC6FF001C02F
:10F61C0073F002C074F003C075F004C076F0000102
:10F62C007351825D016E74518359026E7551845908
:10F63C00036E76518559046EFFEC58F004BE32EF20
:10F64C007BF004500310021009E1020E015CD8A0FB
:10F65C0032EF7BF034EF7BF0F0EF7AF073C01AF0FE
:10F66C0074C01BF075C01CF076C01DF082C01EF07B
:10F67C0083C01FF084C020F085C021F07AEC62F0CA
:10F68C00D8A04BEF7BF04DEF7BF0F0EF7AF0000160
:10F69C008851825D016E89518359026E8A51845959
:10F6AC00036E8B518559046EFFEC58F004BE6CEF61
:10F6BC007BF004500310021007E1020E015CD8B07D
:10F6CC006AEF7BF06CEF7BF0B4EF7BF088C082F0DC
:10F6DC0089C083F08AC084F08BC085F0CDEF7BF0BD
:10F6EC0088C00FF089C010F08AC011F08BC012F0E6
:10F6FC00000E136E000E146E200E156E410E166E5B
:10F70C000FEC6CF00FC088F010C089F011C08AF0BB
:10F71C0012C08BF000016F07D8A070078851825D72
:10F72C00016E89518359026E8A518459036E8B5133
:10F73C008559046EFFEC58F004BEB2EF7BF0045018
:10F74C000310021007E1020E015CD8B0B0EF7BF0A1
:10F75C00B2EF7BF0B4EF7BF06CEF7BF082C01AF071
:10F76C0083C01BF084C01CF085C01DF088C01EF047
:10F77C0089C01FF08AC020F08BC021F07AEC62F0B7
:10F78C00D8A0CBEF7BF0CDEF7BF076EF7BF041C0D8
:10F79C0069F069C06AF00001E5BFD7EF7BF0D9EFE3
:10F7AC007BF0DFEF7BF0E4C062F0E5C063F0E3EFE9
:10F7BC007BF0000E636F060E626F62C06DF063C06B
:10F7CC006EF06D4B6E2B660E6A19D8A4F0EF7BF0C1
:10F7DC00F2EF7BF012EF7CF070BFF9EF7BF0F7EFFC
:10F7EC007BF005EF7CF0000E886F000E896F800EA9
:10F7FC008A6F3F0E8B6F000E706F000E6F6F670E6F
:10F80C006919D8B40CEF7CF00EEF7CF012EF7CF0A1
:10F81C006F516D2770516E23000E786F000E776F4D
:10F82C0082C079F083C07AF084C07BF085C07CF014
:10F83C0088C073F089C074F08AC075F08BC076F004
:10F84C00A3EF7CF079C00FF07AC010F07BC011F000
:10F85C007CC012F088C013F089C014F08AC015F077
:10F86C008BC016F00FEC6CF00FC028F010C029F014
:10F87C0011C02AF012C02BF0EEEC66F028C07DF01F
:10F88C0029C07EF02AC07FF02BC080F07DC001F033
:10F89C007EC002F07FC003F080C004F0FCEC62F08C
:10F8AC0001C06BF002C06CF079C01AF07AC01BF08A
:10F8BC007BC01CF07CC01DF07DC005F07EC006F046
:10F8CC007FC007F080C008F088C001F089C002F04A
:10F8DC008AC003F08BC004F0D7EC6FF001C01EF0AF
:10F8EC0002C01FF003C020F004C021F03FEC58F020
:10F8FC001AC079F01BC07AF01CC07BF01DC07CF0E4
:10F90C0088C00FF089C010F08AC011F08BC012F0C3
:10F91C00000E136E000E146E200E156E410E166E38
:10F92C000FEC6CF00FC088F010C089F011C08AF099
:10F93C0012C08BF00001774B782B6D51775D7851AD
:10F94C00800A426E6E51800A4258D8A0B0EF7CF00B
:10F95C00B2EF7CF028EF7CF088C001F089C002F097
:10F96C008AC003F08BC004F0000E056E000E066E0C
:10F97C00A00E076E400E086ED7EC6FF001C07DF044
:10F98C0002C07EF003C07FF004C080F079C01AF092
:10F99C007AC01BF07BC01CF07CC01DF07DC01EF03B
:10F9AC007EC01FF07FC020F080C021F07AEC62F0A6
:10F9BC00D8B0E3EF7CF0E5EF7CF0F0EF7CF0000EDC
:10F9CC0000017D6F000E7E6F000E7F6F000E806F4A
:10F9DC0019EF7DF079C001F07AC002F07BC003F022
:10F9EC007CC004F07DC005F07EC006F07FC007F03F
:10F9FC0080C008F020EC5FF0D8A007EF7DF009EF95
:10FA0C007DF019EF7DF000016BB10FEF7DF011EF80
:10FA1C007DF019EF7DF0000E7D6F000E7E6F000EF5
:10FA2C007F6F000E806F82C001F083C002F084C033
:10FA3C0003F085C004F07DC005F07EC006F07FC0E9
:10FA4C0007F080C008F0FEEC71F001C079F002C044
:10FA5C007AF003C07BF004C07CF079C01AF07AC055
:10FA6C001BF07BC01CF07CC01DF0000E056E000E60
:10FA7C00066E200E076E410E086E73C001F074C046
:10FA8C0002F075C003F076C004F0D7EC6FF001C043
:10FA9C001EF002C01FF003C020F004C021F07AEC6D
:10FAAC0062F0D8A05CEF7DF05EEF7DF087EF7DF02B
:10FABC0000016F4B702B73C001F074C002F075C065
:10FACC0003F076C004F0000E056E000E066E200EDC
:10FADC00076E410E086ED7EC6FF001C073F002C0D8
:10FAEC0074F003C075F004C076F0660E00016A195C
:10FAFC00D8A483EF7DF085EF7DF087EF7DF06D4B23
:10FB0C006E2B73C088F074C089F075C08AF076C013
:10FB1C008BF06FC060F070C061F0000E0001686F78
:10FB2C00000E656F000E646F000E786F000E776F1D
:10FB3C0085EF7EF079C00FF07AC010F07BC011F029
:10FB4C007CC012F088C013F089C014F08AC015F084
:10FB5C008BC016F00FEC6CF00FC028F010C029F021
:10FB6C0011C02AF012C02BF0EEEC66F028C07DF02C
:10FB7C0029C07EF02AC07FF02BC080F07DC001F040
:10FB8C007EC002F07FC003F080C004F0FCEC62F099
:10FB9C0002BEDCEF7DF0025007E10A0E015CD8B02A
:10FBAC00DAEF7DF0DCEF7DF0ECEF7DF07DC001F065
:10FBBC007EC002F07FC003F080C004F0FCEC62F069
:10FBCC0001C06BF002C06CF0F1EF7DF0000E000193
:10FBDC006C6F090E6B6F00016851D8A4F8EF7DF0C3
:10FBEC00FAEF7DF022EF7EF061BF01EF7EF0FFEFC8
:10FBFC007DF022EF7EF0240E8625D96E030E872130
:10FC0C00DA6E2E0EDF6E864B872B7107D8A072072B
:10FC1C00010E686F22EF7EF0240E8625D96E030E3E
:10FC2C008721DA6E300EDF6E864B872B7107D8A0DA
:10FC3C0072076407D8A0650764516511D8A429EF31
:10FC4C007EF02BEF7EF012EF7EF0240E8625D96E1F
:10FC5C00030E8721DA6E6B51300FDF6E864B872BCC
:10FC6C007107D8A0720779C01AF07AC01BF07BC05C
:10FC7C001CF07CC01DF07DC005F07EC006F07FC07E
:10FC8C0007F080C008F088C001F089C002F08AC07B
:10FC9C0003F08BC004F0D7EC6FF001C01EF002C073
:10FCAC001FF003C020F004C021F03FEC58F01AC044
:10FCBC0079F01BC07AF01CC07BF01DC07CF088C0B2
:10FCCC000FF089C010F08AC011F08BC012F0000E3A
:10FCDC00136E000E146E200E156E410E166E0FEC88
:10FCEC006CF00FC088F010C089F011C08AF012C0FF
:10FCFC008BF000016007D8A06107774B782B6D5112
:10FD0C00775D7851800A426E6E51800A4258D8B0A5
:10FD1C0092EF7EF094EF7EF0A2EF7EF087BFA0EF23
:10FD2C007EF0875109E14B0E865DD8A0A0EF7EF0E6
:10FD3C00A2EF7EF0A0EF7DF0000E786F4F0E776F84
:10FD4C00240E7725D96E030E7821DA6EDF6A240E25
:10FD5C00426E030E436E8651425E8751435A775171
:10FD6C004224016E78514320026E240E036E030E62
:10FD7C00046E86C005F087C006F056EC59F0000101
:10FD8C008651775D866F87517859876F8151D8A4DA
:10FD9C00D2EF7EF0D5EF7EF0010ED6EF7EF0000EA6
:10FDAC00776F786B8151D8B4DEEF7EF0E0EF7EF0A8
:10FDBC00ECEF7EF08607D8A08707240E8625D96E37
:10FDCC00030E8721DA6E600007F2DFFF7751715F57
:10FDDC007851725B3CC011F0240E8625126E030E16
:10FDEC008721136E71C014F072C015F0B1EC59F08C
:10FDFC00120000D6A914ADB2AA14C9CEB9A8B7A8DE
:10FE0C00BBE2A90AA90EA9E6AB64A95CA9F0A96C8E
:10FE1C00A9FEA9C8B3D6B50EAA496E6772657365FB
:10FE2C00206C61206672656375656E63696120285C
:10FE3C006D617820343030303030292079206D7568
:10FE4C006573747261732028656A656D706C6F3AA6
:10FE5C00204C4F47283430303030302C3130302962
:10FE6C00293A2000454550524F4D202D2041583AFB
:10FE7C0020252E32662C2041593A20252E32662C14
:10FE8C0020415A3A20252E32662C2047583A2025FC
:10FE9C002E32662C2047593A20252E32662C2047CC
:10FEAC005A3A20252E32660A004672656375656ED5
:10FEBC006369612065786365646964612E20416AB9
:10FECC007573746164612061203430306B487A2E14
:10FEDC000A00456E7472616461206E6F2076616CED
:10FEEC006964612E20496E74656E746520646520AA
:10FEFC006E7565766F2E0A0045736372696269656B
:10FF0C006E646F20656E20454550524F4D31206513
:10FF1C006E20646972656363696F6E3A2000457385
:10FF2C006372696269656E646F20656E2045455029
:10FF3C00524F4D3220656E20646972656363696F40
:10FF4C006E3A20004C6579656E646F2064652045BF
:10FF5C004550524F4D31206465736465206469725D
:10FF6C00656363696F6E3A20004C6579656E646FEA
:10FF7C0020646520454550524F4D322064657364B2
:10FF8C006520646972656363696F6E3A2000B0B076
:10FF9C00B0B0B0B0B0B0B0B0B0B04C4F475F4F4B9A
:10FFAC00B0B0B0B0B0B0B0B0B0B0B0B00A004C4F60
:10FFBC004728256C752C256C75290D0A004C4F476C
:10FFCC0028256C752C256C75290A005265636962AD
:10FFDC0069646F3A20004C4F475F4552520A00301B
:10FFEC0078255800696E66006E616E006C750000B5
:04FFFC00B8EF56F014
:020000040030CA
:0A000000FAFFF7FF9FFFFFFFFFFF6D
:00000001FF
