:04000000FEEF7FF0A0
:10A18A00120012001200010E1200050E1200020E39
:10A19A001200010E12003D01799F12003D017699CD
:10A1AA0012003D01799512003D01739D12003D0197
:10A1BA00738D12003D016A5112003D01749D120017
:10A1CA003D01748D12003D01739B12003D016C51DB
:10A1DA001200016802681200000E3D01796F120038
:10A1EA00E2EC50F0030E1200E2EC50F0040E120002
:10A1FA00E5EC50F0090E1200010E9CEC55F012002D
:10A20A00000E9CEC55F012003D01739F7885738F08
:10A21A001200016E600007F06CFD1200016E600012
:10A22A0007F06BFD1200026E0250DAEC51F01200D8
:10A23A0001C0ACF302C0ADF3120001C021F202C0AA
:10A24A0022F2120001C01FF202C020F212003D01E8
:10A25A00739F000E796F7885120003012395000E13
:10A26A00226F0F0E120003011F510EEC51F0F9EC90
:10A27A0052F01200E5EC50F0E8EC50F032EC51F0FC
:10A28A00120009EC51F003012395000E226F0F0E04
:10A29A00120009EC51F003012395020E226F0F0EF2
:10A2AA0012006B0E176E000E186E680EDEEC56F07A
:10A2BA0012003D0179BF64EF51F067EF51F0010ED2
:10A2CA0068EF51F0000E12003D0176B96FEF51F0C0
:10A2DA0072EF51F0010E73EF51F0000E12003D01C2
:10A2EA0079B57AEF51F07DEF51F0010E7EEF51F022
:10A2FA00000E12003D0178B185EF51F088EF51F060
:10A30A00010E89EF51F0000E12003D0174BB90EF6F
:10A31A0051F093EF51F0010E94EF51F0000E12003C
:10A32A003D0178BB9BEF51F09EEF51F0010E9FEF7C
:10A33A0051F0000E120003012351FC0B0209236F96
:10A34A001C511C2513EC51F0030E120028EC52F09C
:10A35A0005EC52F04FEC5CF0CEEC51F048EC57F0C3
:10A36A00120006C001F007C002F008C003F009C0DD
:10A37A0004F0000E4BEC59F0120006C001F007C0C1
:10A38A0002F008C003F009C004F0020E4BEC59F0C9
:10A39A001200710E3901D96F000EDB6F000EDD6FEE
:10A3AA00010EDF6F000EDE6F1200016E3901A3A9E4
:10A3BA00E1EF51F0E3EF51F0DBEF51F0600007F00D
:10A3CA00EAFD1200390193939395929F93913D016F
:10A3DA007A917A957A9F7A9D7A9376937695769101
:10A3EA001200FCEF51F049EC56F0D0EC58F00301A2
:10A3FA0023B502EF52F004EF52F0F8EF51F01200D9
:10A40A00040E3D01736F800E746F180E756F000E87
:10A41A007B6F000E796F000E7A6F000E766F6C6993
:10A42A001200030123A91CEF52F01EEF52F027EF8E
:10A43A0052F001C01DF302C01EF303C01FF304C093
:10A44A0020F323991200000E3901C06F000EC16F6C
:10A45A00000EC26F000EC36F000EC46F000EC56FF0
:10A46A00000EC66F000EC76F12000001C8512A6E97
:10A47A00C7C02BF0000E246E000E236E2A0E256E26
:10A48A00266A020E276E500EEFEC53F01200E8EC2B
:10A49A0050F0EBEC50F00009D8B456EF52F058EFF8
:10A4AA0052F05EEF52F0000E0EEC51F0000E13EC7B
:10A4BA0051F0000E1200015003026F00CCFF05F0AC
:10A4CA006F00D0FF06F001500402F3500626025036
:10A4DA000302F350062605C001F006C002F012007E
:10A4EA00010E016E030123B57DEF52F07FEF52F0AA
:10A4FA0089EF52F023971C69F1EC50F0E7EC51F028
:10A50A002CEC51F022C301F0015012000AC001F0F4
:10A51A000BC002F0000E046E020E036E16EC52F02F
:10A52A00000E066E000E076E000E086E000E096E13
:10A53A00B6EC51F0040E12000AC001F00BC002F092
:10A54A00000E046E010E036E16EC52F0000E066E3B
:10A55A00000E076E000E086E000E096EB6EC51F082
:10A56A00020E12000AC001F00BC002F0000E046EC7
:10A57A00020E036E16EC52F0000E066E000E076E07
:10A58A00000E086E000E096EB6EC51F0020E1200B3
:10A59A000AC001F00BC002F0000E046E010E036E39
:10A5AA0016EC52F0000E066E000E076E000E086ED4
:10A5BA00000E096EB6EC51F0040E120000EE00F324
:10A5CA00AC0EEE6AE806FDE100EE14F20B0EEE6A3E
:10A5DA00E806FDE100EEB9F0340EEE6AE806FDE1A8
:10A5EA005E6A000139EF6BF003012351FC0B02098B
:10A5FA00236F1F052011D8A405EF53F007EF53F07E
:10A60A0009EF53F0B4EC5AF0D88003011C3513EC6F
:10A61A0051F0040E12003D0173BF16EF53F018EF0C
:10A62A0053F026EF53F0000E796F000E7A6F000E8A
:10A63A00766F6C69510E3A015A6F510E5B6F3D018C
:10A64A00738F12001F6E1C50206E1BC021F01DC09C
:10A65A0022F0200E176E000E196E030E186E1F5090
:10A66A00F0EC55F00D0E1E6EFC0EE82EFED71E2ED7
:10A67A00FCD712001F6E1C501D6E1BC01EF01D0E53
:10A68A00176E000E196E020E186E1F50F0EC55F080
:10A69A00000E206E200E176E000E196E010E186E37
:10A6AA001F5010EC54F020501200015002100310F9
:10A6BA000410D8B463EF53F065EF53F06DEF53F025
:10A6CA00000E011A000E021A000E031A800E041A56
:10A6DA0001C001F002C002F003C003F004C004F09C
:10A6EA001200000E226E000E216E2B0E236E246ABB
:10A6FA00020E256E500E98EC54F02C502BC029F007
:10A70A002A6A29C02AF0296A29100001C76F2A502B
:10A71A00C86FC7C0C5F0C8C0C6F012009CEF53F09E
:10A72A00030E056E980EE82EFED7052EFCD70106FD
:10A73A00000E025A035A045A01280AE1022808E1C3
:10A74A00032806E10428D8A4ADEF53F0AFEF53F085
:10A75A0095EF53F0120001C007F002C008F0C1EFF4
:10A76A0053F060001FF0D9FF600023F0DAFF6000A9
:10A77A000FF0DFFF074A082A0506D8A006060528B3
:10A78A0006E10628D8A4CCEF53F0CEEF53F0B6EF8B
:10A79A0053F01200000E106E000E0F6EDEEF53F033
:10A7AA000EC003F0046A0DC005F05BEC5DF00F4AC1
:10A7BA00102A0F500B24D96E10500C20DA6EDF507D
:10A7CA000E6E0E50D8A4ECEF53F0EEEF53F0D5EF27
:10A7DA0053F01200286E000E296E06EF54F029502D
:10A7EA0023241B6E000E24201C6E29502524D96EAA
:10A7FA00000E2620DA6EDF501D6E285027EC53F02B
:10A80A00292A2750295CD8A00DEF54F00FEF54F0F5
:10A81A00F4EF53F012001A6E1A50CEEC59F00009F8
:10A82A00D8B41AEF54F01CEF54F011EF54F017C0DB
:10A83A0001F0026A18C003F019C004F016EC52F0D5
:10A84A0001EC51F075EC52F0E806D8B42FEF54F051
:10A85A0031EF54F027EF54F012007D0E0001816FA2
:10A86A0079C082F07AC083F0000E866F000E856F81
:10A87A00000E8B6F000E8A6F820E6F6F7BC070F0B6
:10A88A007CC071F0810E726FBDEC5DF06FC07FF01D
:10A89A0070C080F07FC079F080C07AF0120001C0E9
:10A8AA0005F002C006F060000FF0F6FF600013F03A
:10A8BA00F7FF034A042AF86A600017F0D9FF60001C
:10A8CA001BF0DAFF054A062A08006F00D7FFDFFFF0
:10A8DA00DF50D8A473EF54F075EF54F058EF54F0EA
:10A8EA001200970E4F6E93C050F094C051F0000EB4
:10A8FA00546E000E536E000E5B6E000E5A6E500EB2
:10A90A0000018F6F95C090F096C091F04F0E926F34
:10A91A004DEC55F0535000019325D96E54509421B3
:10A92A00DA6EDF6A1200276E000E286EB1EF54F05D
:10A93A00285021241B6E000E22201C6E27503FEC4B
:10A94A0053F0266E28502324D96E000E2420DA6E86
:10A95A0060009BF0DFFF282A2550285CD8A0B8EFBA
:10A96A0054F0BAEF54F09DEF54F01200000E1E1A84
:10A97A00000E1F1A000E201A800E211A1AC001F0AA
:10A98A001BC002F01CC003F01DC004F01EC005F07D
:10A99A001FC006F020C007F021C008F0D8EC74F000
:10A9AA0001C01AF002C01BF003C01CF004C01DF065
:10A9BA00120020EE02F00A50D9260B50DA22DF509C
:10A9CA000C6E0CC001F0026A60002BF0D9FF600027
:10A9DA002FF0DAFF6F0078FF03F06F0074FF04F0C6
:10A9EA0016EC52F0000E066E000E076E000E086E90
:10A9FA00000E096EB6EC51F0020E1200000E226E25
:10AA0A00020E216E290E236E246A080E256E500E40
:10AA1A0098EC54F0E50E016E026A290E036E046A80
:10AA2A00000E066E040E056E1CEC56F0E90E016E61
:10AA3A00026A2D0E036E046A000E066E040E056E7F
:10AA4A001CEC56F012002A0E016E026AE50E036E25
:10AA5A00046A000E066E040E056E1CEC56F02E0EED
:10AA6A00016E026AE90E036E046A000E066E040E97
:10AA7A00056E1CEC56F0000E246E020E236E2A0E92
:10AA8A00256E266A080E276E500EEFEC53F0120060
:10AA9A0090C04DF091C04EF05CEF55F08FC08CF035
:10AAAA004D0E00018D6F92C08EF0B0EC72F0600016
:10AABA0037F1F6FF60003BF1F7FFF86A0800F5503E
:10AACA000009D8A46BEF55F06DEF55F053EF55F030
:10AADA00000E0001906F000E8F6F12005EEC51F0B5
:10AAEA000009D8B47BEF55F07DEF55F081EF55F0B2
:10AAFA00D0EC50F09BEF55F074EC51F00009D8B44B
:10AB0A0089EF55F08BEF55F08FEF55F0D6EC50F0FA
:10AB1A009BEF55F069EC51F00009D8B497EF55F066
:10AB2A0099EF55F09BEF55F0D3EC50F01200156EEB
:10AB3A00010E166E030123B5A5EF55F0A7EF55F0E8
:10AB4A00C3EF55F02385000E166E1F510EEC51F01F
:10AB5A001550D8B4B3EF55F0B5EF55F0BCEF55F03A
:10AB6A00040E0301216FF9EC52F0C1EF55F0030E08
:10AB7A000301216FA0EC51F0F6EC51F016501200CF
:10AB8A0004BECAEF55F0CCEF55F0D6EF55F001C030
:10AB9A0001F002C002F003C003F004C004F0EFEFBA
:10ABAA0055F001C005F002C006F003C007F004C06A
:10ABBA0008F0051E061E071E081E052A000E06229C
:10ABCA000722082205C001F006C002F007C003F000
:10ABDA0008C004F012001A6E1A50CEEC59F000099F
:10ABEA00D8B4FAEF55F0FCEF55F0F1EF55F017C075
:10ABFA0001F0026A18C003F019C004F016EC52F012
:10AC0A00000E066E000E076E000E086E000E096E2C
:10AC1A00C2EC51F005EC51F075EC52F0E806D8B4EC
:10AC2A0019EF56F01BEF56F011EF56F0120003C061
:10AC3A000AF004C00BF001C008F002C009F03BEFB3
:10AC4A0056F060002BF0D9FF60002FF0DAFFDF50DA
:10AC5A00076E0A4A0B2A600023F0D9FF600027F02A
:10AC6A00DAFF60001FF0DFFF084A092A0506D8A0AC
:10AC7A000606052806E10628D8A446EF56F048EF4E
:10AC8A0056F026EF56F012003901A3A14FEF56F005
:10AC9A0051EF56F053EF56F076EF56F0A2AF58EF59
:10ACAA0056F05AEF56F05CEF56F076EF56F03D014B
:10ACBA0079A562EF56F064EF56F066EF56F076EF3C
:10ACCA0056F079AF6BEF56F06DEF56F06FEF56F026
:10ACDA0076EF56F076A974EF56F076EF56F049EF14
:10ACEA0056F0120015BE7EEF56F07CEF56F082EF5A
:10ACFA0056F0000E156E000E146E000E186E000E41
:10AD0A00176E92EF56F0000E046E200E036E11C0FD
:10AD1A0005F05BEC5DF0174A182A1450175C1850BE
:10AD2A00800A166E1550800A1658D8A09FEF56F062
:10AD3A00A1EF56F088EF56F012C00BF013C00CF0DA
:10AD4A0011C00DF0CFEC53F01200FC0E03012317D3
:10AD5A00020E226F2395B9EF56F0CEEC50F0DDEFDC
:10AD6A0056F00F0EDDEF56F010C30AF011C30BF0C8
:10AD7A0002D8C9EF56F00500FA6E0451FD6E05516E
:10AD8A00FE6EFF6AFA5012000D6E0E6A0E50000A2D
:10AD9A00D8B4D2EF56F0B6EF56F00D50020AD8B436
:10ADAA00B2EF56F0010AD8B4B2EF56F0B6EF56F049
:10ADBA001200196E1950CEEC59F00009D8B4E8EF18
:10ADCA0056F0EAEF56F0DFEF56F09A0E066EA50E31
:10ADDA00076E180E086E096AB6EC51F0170E016E6E
:10ADEA00026A000E046E010E036E16EC52F0000E9B
:10ADFA00066E000E076E000E086E000E096EC2EC9B
:10AE0A0051F005EC51F075EC52F0E806D8B410EFA9
:10AE1A0057F012EF57F008EF57F0120035EF57F0DE
:10AE2A00200E0E180F10D8B41DEF57F01FEF57F071
:10AE3A0035EF57F00EC00DF0F70E0D26040E0D6417
:10AE4A0029EF57F02BEF57F035EF57F00EC001F00E
:10AE5A000FC002F00CC003F005EC5BF047EF57F0AF
:10AE6A000CC003F0A5EC5FF003C00EF004C00FF0B5
:10AE7A000E2806E10F28D8A445EF57F047EF57F000
:10AE8A0015EF57F01200000E3D01EC6F000EED6F4A
:10AE9A00000EEE6F000EEF6F000EF06F000EF16FF6
:10AEAA00B00EF26F800EF36F000EF46FCF0EF56FD7
:10AEBA00000EF66F000EF76F000EF86F000EF96FB6
:10AECA00000EFA6F8C0E016EA10E026E22EC51F08A
:10AEDA008E0E016EA10E026E27EC51F08A0E016EE3
:10AEEA00A10E026E1DEC51F0000E0001CC6F120093
:10AEFA00000E096E000E0A6E000E0B6E000E0C6E2E
:10AF0A0001A08AEF57F08CEF57F094EF57F00550F5
:10AF1A00092606500A2207500B2208500C22D89004
:10AF2A000536063607360836D8900432033202321E
:10AF3A0001320150021003100410D8A4A7EF57F0F1
:10AF4A00A9EF57F085EF57F009C001F00AC002F0E7
:10AF5A000BC003F00CC004F01200F1EC50F0020E2A
:10AF6A000301226FC5EF57F038EC51F0E9EF57F0C3
:10AF7A00CCEC50F0E9EF57F046EC51F0E9EF57F01E
:10AF8A000EC30AF00FC30BF002D8D5EF57F0050035
:10AF9A00FA6E0251FD6E0351FE6EFF6AFA501200FC
:10AFAA000D6E0E6A0E50000AD8B4DEEF57F0C1EFEC
:10AFBA0057F00D50020AD8B4B9EF57F0010AD8B4C5
:10AFCA00BDEF57F0C1EF57F012008EC079F08FC075
:10AFDA007AF09F0E00017B6FFF0E7C6F90C07DF0B0
:10AFEA0091C07EF032EC54F0020E000179197A1108
:10AFFA00D8B402EF58F004EF58F01DEF58F08EC0A5
:10B00A0079F08FC07AF0AE0E7B6FFF0E7C6F90C026
:10B01A007DF091C07EF032EC54F0020E00017919F5
:10B02A007A11D8A41BEF58F01DEF58F020EF58F012
:10B03A00010E21EF58F0000E12003DEF58F06000AB
:10B04A000BF0F6FF60000FF0F7FF000EF86E0F0E20
:10B05A00F76403D00800F55007D06F00DBFFE9FF63
:10B06A006F00DFFFEAFFEF50DAEC51F0024A032AE1
:10B07A0060000BF0F6FF60000FF0F7FF000EF86EAD
:10B08A000F0EF76403D00800F55007D06F00DBFFFE
:10B09A00E9FF6F00DFFFEAFFEF500009D8A458EF7D
:10B0AA0058F05AEF58F024EF58F01200000E076ECD
:10B0BA00000E066E03500410D8B466EF58F068EF1D
:10B0CA0058F090EF58F0010E056E70EF58F0D890D6
:10B0DA0003360436052A04AE75EF58F077EF58F0B8
:10B0EA006CEF58F0D890063607360350015C0450CE
:10B0FA000258D8A083EF58F085EF58F08AEF58F03D
:10B10A000350015E0450025A0680D890043203327A
:10B11A00052E77EF58F006C001F007C002F01200C2
:10B12A001B6E18C01EF019C01CF01AC01DF01B506F
:10B13A00CEEC59F00009D8B4A5EF58F0A7EF58F0B3
:10B14A009CEF58F0BC0E066EA90E076E1C0E086E18
:10B15A00096AB6EC51F0170E016E026A000E046E0F
:10B16A00010E036E16EC52F0000E066E000E076E0C
:10B17A00000E086E000E096EC2EC51F005EC51F09B
:10B18A0075EC52F0E806D8B4CDEF58F0CFEF58F08E
:10B19A00C5EF58F0120073EC55F003012351030B6D
:10B1AA000009D8B4DBEF58F0DDEF58F0EAEF58F0B9
:10B1BA008AEC51F00009D8B4E5EF58F0E7EF58F0FF
:10B1CA00EAEF58F0100E0301216F03012151020D1D
:10B1DA00EF0EF324F66EFD0EF420F76EF86A000EF9
:10B1EA00F82209006F00D4FF13F009006F00D4FFA2
:10B1FA0014F002D80AEF59F00500FA6E1350FD6EEA
:10B20A001450FE6EFF6AFA5012000301216F1200F9
:10B21A000301238922EF59F0DCEC50F0070E4AEFC4
:10B22A0059F003011F290EEC51F0030E4AEF59F0B1
:10B23A00D9EC50F00A0E4AEF59F00CC30AF00DC3CC
:10B24A000BF002D832EF59F00500FA6E0051FD6E8C
:10B25A000151FE6EFF6AFA5012000D6E0E6A0E5010
:10B26A00000AD8B43BEF59F01DEF59F00D50010A0E
:10B27A00D8B41DEF59F0030AD8B411EF59F0060AF1
:10B28A00D8B416EF59F01DEF59F01200056E0150AF
:10B29A000210D8B453EF59F055EF59F073EF59F043
:10B2AA000550020D000EF324D96E030EF420DA6E57
:10B2BA00600007F0DEFF60000BF0DDFF0550020DB5
:10B2CA000C0EF324D96E030EF420DA6E60000FF030
:10B2DA00DEFF600013F0DDFF89EF59F00550020D23
:10B2EA00000EF324D96E030EF420DA6E900EDE6E91
:10B2FA00A10EDD6E0550020D0C0EF324D96E030E5D
:10B30A00F420DA6EDE6ADD6A1200055006100710B4
:10B31A000810D8B493EF59F095EF59F0C5EF59F0EA
:10B32A00010E096E9FEF59F0D8900536063607369A
:10B33A000836092A08AEA4EF59F0A6EF59F099EF9A
:10B34A0059F00550015C065002580750035808503E
:10B35A000458D8A0B3EF59F0B5EF59F0BDEF59F042
:10B36A000550015E0650025A0750035A0850045A03
:10B37A00D8900832073206320532092EA6EF59F064
:10B38A0001C001F002C002F003C003F004C004F0DF
:10B39A001200016E010E026E030123B7D7EF59F0B6
:10B3AA00D9EF59F014EF5AF001C01CF32395238703
:10B3BA00FC0E23170F0E216F010E1B6FF40E1A6F6E
:10B3CA002389900E006FA10E016F000E0C6F000E04
:10B3DA000D6F900E026FA10E036F000E0E6F000E1E
:10B3EA000F6F900E046FA10E056F000E106F000E06
:10B3FA00116F900E066FA10E076F000E126F000EEE
:10B40A00136F940E086FA10E096F000E146F000ED1
:10B41A00156FF1EC50F010EC53F0000E026E025072
:10B42A0012007FEC51F00009D8A41EEF5AF020EF69
:10B43A005AF023EF5AF0040E64EF5AF00301235135
:10B44A00030B0009D8B42CEF5AF02EEF5AF03AEF5A
:10B45A005AF0010E0F6E2351030B106E0F50105E3F
:10B46A0023511018FC0B1018236F1F07D8A02007B0
:10B47A001F512011D8B444EF5AF046EF5AF054EF56
:10B48A005AF0DFEC50F0600077FCD9FF60007BFCDB
:10B49A00DAFFDF6E03011D4B1E2B20EF5AF0B4ECCE
:10B4AA005AF0116EDFEC50F0600077FCD9FF6000B3
:10B4BA007BFCDAFFDF6E03011D4B1E2B11501200BD
:10B4CA0020EE11F0070EDE6AE806FDE201A070EF39
:10B4DA005AF072EF5AF082EF5AF0095011260A50C8
:10B4EA0012220B5013220C5014220D5015220E500A
:10B4FA0016220F50172210501822D89009360A36F1
:10B50A000B360C360D360E360F361036D8900832FA
:10B51A000732063205320432033202320132015056
:10B52A000210031004100510061007100810D8A402
:10B53A00A1EF5AF0A3EF5AF06BEF5AF011C001F0E5
:10B54A0012C002F013C003F014C004F015C005F0D5
:10B55A0016C006F017C007F018C008F01200030161
:10B56A002389D8EF5AF0DCEC50F0080E04EF5BF0B8
:10B57A00DCEC50F0070E04EF5BF003011F290EEC20
:10B58A0051F0040E04EF5BF0070E03012119D8B441
:10B59A00D1EF5AF0D3EF5AF0D5EF5AF0D9EC50F078
:10B5AA000F0E04EF5BF00CC30AF00DC30BF002D8C8
:10B5BA00E8EF5AF00500FA6E0051FD6E0151FE6E79
:10B5CA00FF6AFA5012000D6E0E6A0E50000AD8B4C5
:10B5DA00F1EF5AF0C9EF5AF00D50010AD8B4C9EF89
:10B5EA005AF0030AD8B4BDEF5AF0010AD8B4B8EF3A
:10B5FA005AF0070AD8B4C2EF5AF0C9EF5AF012004B
:10B60A00012806E10228D8A40DEF5BF00FEF5BF0EA
:10B61A0011EF5BF055EF5BF00350D8A417EF5BF026
:10B62A0019EF5BF02EEF5BF0030E5E18D8B420EF33
:10B63A005BF022EF5BF055EF5BF01C0E5E24D96ED7
:10B64A00DA6A020EDA22600007F0DFFF5E2A55EF9F
:10B65A005BF00350D96EDA6A080ED926030EDE189B
:10B66A00DE10D8B43BEF5BF03DEF5BF055EF5BF0DB
:10B67A000350D96EDA6A080ED926DF50046E0350D9
:10B68A000424D96EDA6A050ED926600007F0DFFFB6
:10B69A000350D96EDA6A080ED926DE2A000EDD2298
:10B6AA001200000E096E000E0A6E000E0B6E000EDE
:10B6BA000C6E0550061007100810D8B467EF5BF03F
:10B6CA0069EF5BF09FEF5BF0010E0D6E73EF5BF0BD
:10B6DA00D89005360636073608360D2A08AE78EFB2
:10B6EA005BF07AEF5BF06DEF5BF0D89009360A36C3
:10B6FA000B360C360550015C0650025807500358A9
:10B70A0008500458D8A08CEF5BF08EEF5BF097EFEF
:10B71A005BF00550015E0650025A0750035A085062
:10B72A00045A0980D89008320732063205320D2EA3
:10B73A007AEF5BF009C001F00AC002F00BC003F017
:10B74A000CC004F012003901A3A7AEEF5BF0B0EF12
:10B75A005BF0A8EF5BF0000E0001CC6F3D01F9A78A
:10B76A00B9EF5BF0BBEF5BF0CAEF5BF00001CC8393
:10B77A0002D8CAEF5BF00500FA6E02012151FD6E94
:10B78A002251FE6EFF6AFA5012003D01F9A3D0EF72
:10B79A005BF0D2EF5BF0E1EF5BF00001CC8502D801
:10B7AA00E1EF5BF00500FA6E02011F51FD6E2051B8
:10B7BA00FE6EFF6AFA5012000001CC51D8B4E8EFCD
:10B7CA005BF0EAEF5BF0F7EF5BF002D8F7EF5BF0C4
:10B7DA000500FA6E0301AC51FD6EAD51FE6EFF6AB3
:10B7EA00FA5012003D01E8511200000E0114096ED0
:10B7FA00000E02140A6E800E03140B6E7F0E0414E0
:10B80A000C6E09500A100B100C10D8A40FEF5CF044
:10B81A0011EF5CF019EF5CF0000E016E000E026E83
:10B82A00000E036E000E046E000E0514096E000E63
:10B83A0006140A6E800E07140B6E7F0E08140C6E27
:10B84A0009500A100B100C10D8A42EEF5CF030EF40
:10B85A005CF038EF5CF0000E056E000E066E000E0E
:10B86A00076E000E086E055001180FE10650021807
:10B87A000CE10750031809E108500418D8B448EF3E
:10B88A005CF04AEF5CF04DEF5CF0D8904EEF5CF064
:10B89A00D8801200000EBE6E000EBD6E000EBA6E8B
:10B8AA00000EBB6E000EBC6E070EC66EC268F90EA5
:10B8BA00C36EBF0EC46EFC0EC56E3A0170697F0E70
:10B8CA00606FF90E506F070E806F4069000E716F3E
:10B8DA00000E816F000E516F000E416F000E616FF6
:10B8EA00000E5A6F000E5B6F000E6A6F000E6B6FD0
:10B8FA00000E7A6F000E7B6F000E826F000E426F91
:10B90A00260E526F180E626F000E726F43695369EA
:10B91A0063697369070E836F44695469646974695A
:10B92A000F0E846F0A0EE26F210E096F220E0A6F44
:10B93A00130E166F170EE56F090EE16F1200000E57
:10B94A000A6EDCEF5CF0A8EC5BF0096E0A50D8A432
:10B95A00B1EF5CF0B3EF5CF0C7EF5CF00D0E0918C5
:10B96A00D8B4BAEF5CF0BCEF5CF0DCEF5CF00A0E26
:10B97A000918D8A4C3EF5CF0C5EF5CF0C7EF5CF020
:10B98A00DCEF5CF00D0E0918D8A4CEEF5CF0D0EF16
:10B99A005CF0D2EF5CF0F4EF5CF00A500124D96E4F
:10B9AA00000E0220DA6E600027F0DFFF0A2AFF0E7F
:10B9BA000324046E056AFF0E05220A50066E076A02
:10B9CA000450065C0750800A086E0550800A085821
:10B9DA00D8A0F2EF5CF0F4EF5CF0A8EF5CF00A504C
:10B9EA000124D96E000E0220DA6EDF6A1200000E00
:10B9FA000B6E000E0A6E0750D96EDA6A6F007BFF73
:10BA0A00F6FF6F0077FFF7FFF86A0800F5502A0A79
:10BA1A00D8A412EF5DF014EF5DF040EF5DF007502F
:10BA2A00D96EDA6ADE2A000EDD220850D96EDA6A89
:10BA3A00020EDF26DF5CD96EDA6A6F0078FF0AF041
:10BA4A006F0078FF0BF056EF5DF00AC001F00BC0F3
:10BA5A0002F0000E046E0A0E036E60EC52F00950FA
:10BA6A0001240A6E000E02200B6E0750D96EDA6AA4
:10BA7A00DE2A000EDD220750D96EDA6A6F007BFFDC
:10BA8A00F6FF6F0077FFF7FFF86A0800F550D00F4E
:10BA9A00096E090E096454EF5DF056EF5DF02AEF66
:10BAAA005DF00AC007F00BC008F012000550D8B4C8
:10BABA0061EF5DF063EF5DF06BEF5DF00550D8A4C8
:10BACA0069EF5DF06BEF5DF070EF5DF0035018EC1D
:10BADA0051F0BCEF5DF00550D96EDA6A0A0ED9262C
:10BAEA00DE50DE10D8B47CEF5DF07EEF5DF097EFAC
:10BAFA005DF00550D96EDA6A0A0ED9260550E16E54
:10BB0A00E26A030EE126DE50E65CE650800A0A6E1F
:10BB1A00DE50800A0A58D8B095EF5DF097EF5DF0D5
:10BB2A00BCEF5DF00550D96EDA6A030ED9266F00B4
:10BB3A0078FF06F06F0074FF07F00550D96EDA6AD5
:10BB4A006F0078FF08F06F0074FF09F006500824B0
:10BB5A00D96E07500920DA6E60000FF0DFFF05503A
:10BB6A00D96EDA6A030ED926DE2A000EDD22120009
:10BB7A0070C077F071C078F0000E0001BA6F000E45
:10BB8A00B96FB9C0BBF0BAC0BCF0BFC073F0C0C0D7
:10BB9A0074F0EEEF5DF0000EC06F000EBF6F6FC065
:10BBAA005BF0770E5C6E72C05DF09CEC6EF05BC071
:10BBBA0075F05CC076F0000176BFE8EF5DF0E6EF65
:10BBCA005DF0EAEF5DF0FFEF5DF07551BB2776514E
:10BBDA00BC236000DFF1F6FF6000E3F1F7FFF86ACB
:10BBEA000800F5500009D8A4FDEF5DF0FFEF5DF005
:10BBFA00D0EF5DF073C0BFF074C0C0F0752906E1E4
:10BC0A007629D8A40BEF5EF00DEF5EF01CEF5EF024
:10BC1A00BB51BC11D8A414EF5EF016EF5EF01CEF16
:10BC2A005EF075C06FF076C070F020EF5EF0BBC0BA
:10BC3A006FF0BCC070F0120018C20BF019C20CF001
:10BC4A001AC20DF01BC20EF001C00BF002C00CF0BC
:10BC5A0003C00DF004C00EF00BC005F00CC006F0D6
:10BC6A000DC007F00EC008F0180E41EF5EF0D89034
:10BC7A000832073206320532E82E3CEF5EF00550F4
:10BC8A00096E0A6A09500A10D8A44EEF5EF050EF06
:10BC9A005EF070EF5EF0D8900B34056E0C34066ED1
:10BCAA000D34076E0E34086E055006100710081082
:10BCBA00D8A462EF5EF064EF5EF06AEF5EF0000E09
:10BCCA00026E020E016E9FEF5EF0000E026E030E10
:10BCDA00016E9FEF5EF009280A10D8A477EF5EF094
:10BCEA0079EF5EF09BEF5EF00BC005F00CC006F03A
:10BCFA000DC007F00EC008F0090ED89005360636BA
:10BD0A0007360836E82E82EF5EF005500610071057
:10BD1A000810D8B493EF5EF096EF5EF0010E97EF3D
:10BD2A005EF0000E016E026A9FEF5EF0000E026E78
:10BD3A00040E016E1200000E1A14226E000E1B145D
:10BD4A00236E800E1C14246E7F0E1D14256E225045
:10BD5A00231024102510D8A4B5EF5EF0B7EF5EF0DB
:10BD6A00BFEF5EF0000E1A6E000E1B6E000E1C6E08
:10BD7A00000E1D6E000E1E14226E000E1F14236E7E
:10BD8A00800E2014246E7F0E2114256E225023105B
:10BD9A0024102510D8A4D4EF5EF0D6EF5EF0DEEFC3
:10BDAA005EF0000E1E6E000E1F6E000E206E000E5C
:10BDBA00216E1DAEE3EF5EF0E5EF5EF0EEEF5EF0B2
:10BDCA001A6C1B1ED8B01B2A1C1ED8B01C2A800E47
:10BDDA001D5621AEF3EF5EF0F5EF5EF0FEEF5EF07A
:10BDEA001E6C1F1ED8B01F2A201ED8B0202A800E13
:10BDFA002156000E1A1A000E1B1A000E1C1A800E6B
:10BE0A001D1A000E1E1A000E1F1A000E201A800E8E
:10BE1A00211A1E501A5C1F501B5820501C582150C2
:10BE2A001D58D8B01BEF5FF01DEF5FF020EF5FF0F9
:10BE3A00D89021EF5FF0D8801200033404340A6EE0
:10BE4A000A50D8A42BEF5FF02DEF5FF037EF5FF0C9
:10BE5A00000E016E000E026E000E036E000E046EDE
:10BE6A00A4EF5FF001C005F002C006F003C007F0BE
:10BE7A0004C008F0200E47EF5FF0D890083207326E
:10BE8A0006320532E82E42EF5FF00550096E038E46
:10BE9A00FF0E0116FF0E0216FF0E0316000E041601
:10BEAA00960E0A5E0ABE5EEF5FF05CEF5FF074EF1B
:10BEBA005FF00A50800A970FD8B066EF5FF068EF1C
:10BECA005FF06AEF5FF02DEF5FF0D8900432033233
:10BEDA00023201320A3E6AEF5FF08CEF5FF01F0E0A
:10BEEA000A647AEF5FF07CEF5FF084EF5FF02DEF8A
:10BEFA005FF0D89001360236033604360A060A5035
:10BF0A00D8A48AEF5FF08CEF5FF07EEF5FF0095004
:10BF1A00D8B492EF5FF094EF5FF09CEF5FF0041EED
:10BF2A00031E021E016C000E02220322042201C01B
:10BF3A0001F002C002F003C003F004C004F01200D2
:10BF4A000350D8A4ABEF5FF0ADEF5FF0CBEF5FF03B
:10BF5A005E50D8A4B3EF5FF0B5EF5FF0BDEF5FF0CE
:10BF6A00EEEC50F001C00AF002C00BF028EF60F0CE
:10BF7A005E061C0E5E24D96EDA6A020EDA22DF50E1
:10BF8A00056E05500A6E0B6A28EF60F00350D96EF1
:10BF9A00DA6A080ED926DE50DE10D8B4D7EF5FF081
:10BFAA00D9EF5FF0F4EF5FF00350D96EDA6A080E4A
:10BFBA00D926DE06000EDD5A6F0078FF05F06F0005
:10BFCA0074FF06F003500524D96EDA6A050ED926E5
:10BFDA00DF50076E07500A6E0B6A28EF60F00350B5
:10BFEA00D96EDA6A030ED9266F0078FF05F06F0062
:10BFFA0074FF06F00350D96EDA6A6F0078FF07F013
:10C00A006F0074FF08F005500724D96E0650082007
:10C01A00DA6EDF50096E09500A6E0B6A0A500B106D
:10C02A00D8A41AEF60F01CEF60F020EF60F00A6805
:10C03A000B6828EF60F00350D96EDA6A030ED9262E
:10C04A00DE2A000EDD220AC003F00BC004F0120043
:10C05A000001C4BF35EF60F033EF60F03BEF60F0F2
:10C06A00000E216E010E206E3FEF60F0C3C020F07B
:10C07A00C4C021F0C1C01EF0C2C01FF0000E236E62
:10C08A004F0E226E000E0301736F8AEF60F02206D4
:10C09A00D8A02306240E2224D96E030E2320DA6E9A
:10C0AA001AC001F01BC002F01CC003F01DC004F04E
:10C0BA000A0E056E000E066E000E076E000E086E62
:10C0CA008AEC59F00150300FDF6E2006D8A0210605
:10C0DA001E06D8A01F061AC001F01BC002F01CC021
:10C0EA0003F01DC004F00A0E056E000E066E000E67
:10C0FA00076E000E086E56EC5BF001C01AF002C023
:10C10A001BF003C01CF004C01DF022502310D8B449
:10C11A0091EF60F093EF60F0ABEF60F01A501B10F4
:10C12A001C101D10D8A49CEF60F09EEF60F04CEF3D
:10C13A0060F021BEABEF60F0215006E12004D8B0D8
:10C14A00A9EF60F0ABEF60F04CEF60F019C011F0AE
:10C15A00240E2224126E030E2320136E1EC014F026
:10C16A001FC015F077EC56F012008AEC51F0000966
:10C17A00D8B4C2EF60F0C4EF60F0FEEF60F0D1EF28
:10C18A0060F038EC51F04AEF61F0CCEC50F04AEF35
:10C19A0061F0000E4AEF61F012C30AF013C30BF00C
:10C1AA0002D8E2EF60F00500FA6E03010651FD6E57
:10C1BA000751FE6EFF6AFA5012000D6E0E6A0E509B
:10C1CA00000AD8B4EBEF60F0CEEF60F00D50010A30
:10C1DA00D8B4CEEF60F0030AD8B4C6EF60F0010A13
:10C1EA00D8B4CAEF60F0070AD8B4CEEF60F0CEEF49
:10C1FA0060F095EC51F00009D8B406EF61F008EF51
:10C20A0061F049EF61F003012351030B0009D8B42F
:10C21A0011EF61F013EF61F01FEF61F0010E0D6E87
:10C22A002351030B0E6E0D500E5E23510E18FC0B9C
:10C23A000E18236F600077FCD9FF60007BFCDAFFE1
:10C24A00DF500F6E1D4B1E2B1F07D8A020071F5152
:10C25A002011D8A433EF61F035EF61F03DEF61F0C2
:10C26A000DEC59F00D6E0D50116E126A41EF61F02E
:10C27A00000E126E030E116E11C010F00F5013EC67
:10C28A0051F010504AEF61F0030E12000001C4BFD2
:10C29A0053EF61F051EF61F059EF61F0000E256E36
:10C2AA00010E246E5DEF61F0C3C024F0C4C025F016
:10C2BA00C1C022F0C2C023F0000E286E4F0E276EB6
:10C2CA00000E0301736FA8EF61F02706D8A02806B5
:10C2DA001A500F0B266E0A0E266076EF61F078EF81
:10C2EA0061F07CEF61F0300E26267EEF61F0370EAA
:10C2FA002626240E2724D96E030E2820DA6E600023
:10C30A009BF0DFFF2406D8A025062206D8A0230624
:10C31A001AC01EF01BC01FF01CC020F01DC021F067
:10C32A00050E9DEF61F0D890213220321F321E3265
:10C33A00E82E98EF61F01EC01AF01FC01BF020C053
:10C34A001CF021C01DF028BEB4EF61F0285009E1AD
:10C35A00020E275CD8A0B4EF61F0B6EF61F0CEEF21
:10C36A0061F01A501B101C101D10D8A4BFEF61F009
:10C37A00C1EF61F06AEF61F025BECEEF61F02550A2
:10C38A0006E12404D8B0CCEF61F0CEEF61F06AEF99
:10C39A0061F019C011F0240E2724126E030E282012
:10C3AA00136E22C014F023C015F077EC56F0120079
:10C3BA000506D8A00606052806E10628D8A4E8EF4F
:10C3CA0061F0EAEF61F0F7EF61F0000E026E000E25
:10C3DA00016E7AEF62F0014A022A034A042A05062C
:10C3EA00D8A00606600007F0F6FF60000BF0F7FF22
:10C3FA00000EF86E0F0EF76403D00800F55007D050
:10C40A006F00DBFFE9FF6F00DFFFEAFFEF50000973
:10C41A00D8B412EF62F014EF62F056EF62F06000E7
:10C42A000FF0F6FF600013F0F7FFF86A0800F55006
:10C43A000009D8B423EF62F025EF62F056EF62F0FC
:10C44A0005500610D8B42CEF62F02EEF62F056EFCA
:10C45A0062F060000FF0F6FF600013F0F7FFF86A71
:10C46A0008006F00D4FF07F0600007F0F6FF6000D5
:10C47A000BF0F7FF000EF86E0F0EF76403D00800FA
:10C48A00F55007D06F00DBFFE9FF6F00DFFFEAFF1F
:10C49A00EF500718D8B454EF62F056EF62F0F0EF9D
:10C4AA0061F0600007F0F6FF60000BF0F7FF000E86
:10C4BA00F86E0F0EF76403D00800F55007D06F002E
:10C4CA00DBFFE9FF6F00DFFFEAFFEF50076E600056
:10C4DA000FF0F6FF600013F0F7FFF86A0800F55056
:10C4EA00075C016E026AD8A002061200096E0950A2
:10C4FA00D8B482EF62F084EF62F0A6EF62F004BE75
:10C50A008BEF62F089EF62F0A6EF62F001C005F0EE
:10C51A0002C006F003C007F004C008F0051E061E9C
:10C52A00071E081E052A000E06220722082205C039
:10C53A000BF006C00CF007C00DF008C00EF0AEEF0D
:10C54A0062F001C00BF002C00CF003C00DF004C091
:10C55A000EF00150021003100410D8A4B7EF62F0D5
:10C56A00B9EF62F0C3EF62F0000E016E000E026EC8
:10C57A00000E036E000E046E54EF63F0960E0A6E00
:10C58A00CDEF62F00A2AD8900E320D320C320B32FD
:10C59A00000E0B14056E000E0C14066E000E0D1420
:10C5AA00076EFE0E0E14086E0550061007100810CE
:10C5BA00D8A4E2EF62F0E4EF62F0C7EF62F0F2EFC4
:10C5CA0062F00A2A010E0B26000E0C220D220E2200
:10C5DA00D8900E320D320C320B32000E0B14056E4F
:10C5EA00000E0C14066E000E0D14076EFF0E0E14CC
:10C5FA00086E0550061007100810D8A407EF63F05C
:10C60A0009EF63F0E6EF62F011EF63F00A06D890E3
:10C61A000B360C360D360E360DBE16EF63F018EFDC
:10C62A0063F020EF63F0020E0A601EEF63F020EF62
:10C63A0063F00BEF63F00AB025EF63F027EF63F0C6
:10C64A0028EF63F00D9ED8900A320AC005F0066AF8
:10C65A00076A086A05C008F0076A066A056A05508B
:10C66A000B1206500C1207500D1208500E120950E8
:10C67A00D8B442EF63F044EF63F04CEF63F004BECA
:10C68A004BEF63F049EF63F04CEF63F00E8E0BC093
:10C69A0001F00CC002F00DC003F00EC004F012004D
:10C6AA00000E0101FD6F020EFC6F000EFF6F020EFD
:10C6BA00FE6F000EE06F000EE16F000EE26F000EDB
:10C6CA00E36F36EF64F0FCC121F0FDC122F0C80E21
:10C6DA00236E010E246E0C0E256E500E98EC54F04B
:10C6EA00E40E016E010E026EC80E036E010E046E98
:10C6FA00000E066E040E056E1CEC56F0E80E016E76
:10C70A00010E026ECC0E036E010E046E000E066E52
:10C71A00040E056E1CEC56F0EC0E016E010E026E54
:10C72A00D00E036E010E046E000E066E040E056E28
:10C73A001CEC56F0FEC121F0FFC122F0D40E236E8C
:10C74A00010E246E0C0E256E510E98EC54F0F00E6C
:10C75A00016E010E026ED40E036E010E046E000EFF
:10C76A00066E040E056E1CEC56F0F40E016E010EF8
:10C77A00026ED80E036E010E046E000E066E040ED3
:10C78A00056E1CEC56F0F80E016E010E026EDC0E00
:10C79A00036E010E046E000E066E040E056E1CEC8E
:10C7AA0056F0000E0001936F010E946F6D0E956F97
:10C7BA00FF0E966FE4C197F0E5C198F0E6C199F0D3
:10C7CA00E7C19AF0E8C19BF0E9C19CF0EAC19DF08B
:10C7DA00EBC19EF0ECC19FF0EDC1A0F0EEC1A1F05B
:10C7EA00EFC1A2F0F0C1A3F0F1C1A4F0F2C1A5F02B
:10C7FA00F3C1A6F0F4C1A7F0F5C1A8F0F6C1A9F0FB
:10C80A00F7C1AAF0F8C1ABF0F9C1ACF0FAC1ADF0CA
:10C81A00FBC1AEF076EC54F0000E026E010E036E10
:10C82A0022EC58F00C0E0101FC255C6E000EFD2175
:10C83A005D6EFF0E5C14FC6F7F0E5D14FD6F0C0EB7
:10C84A00FE255C6E000EFF215D6EFF0E5C14FE6F0E
:10C85A007F0E5D14FF6F010EE027000EE123E22335
:10C86A00E3230001AF510101E05D0001B051010174
:10C87A00E1590001B1510101E2590001B25101012E
:10C88A00E359D8A04BEF64F04DEF64F068EF63F022
:10C89A001200B3C0FCF1B4C0FDF1B5C0FEF1B6C0E0
:10C8AA00FFF1000E0101E06F000EE16F000EE26F72
:10C8BA00000EE36F2FEF65F0FCC121F0FDC122F0FD
:10C8CA00C80E236E010E246E0C0E256E500E98ECC7
:10C8DA0054F0E40E016E010E026EC80E036E010ED4
:10C8EA00046E000E066E040E056E1CEC56F0E80E81
:10C8FA00016E010E026ECC0E036E010E046E000E66
:10C90A00066E040E056E1CEC56F0EC0E016E010E5E
:10C91A00026ED00E036E010E046E000E066E040E39
:10C92A00056E1CEC56F0FEC121F0FFC122F0D40EB8
:10C93A00236E010E246E0C0E256E510E98EC54F0E7
:10C94A00F00E016E010E026ED40E036E010E046E1D
:10C95A00000E066E040E056E1CEC56F0F40E016E07
:10C96A00010E026ED80E036E010E046E000E066EE4
:10C97A00040E056E1CEC56F0F80E016E010E026EE6
:10C98A00DC0E036E010E046E000E066E040E056EBA
:10C99A001CEC56F0000E0001936F010E946F150EF9
:10C9AA00956FFE0E966FE4C197F0E5C198F0E6C167
:10C9BA0099F0E7C19AF0E8C19BF0E9C19CF0EAC19D
:10C9CA009DF0EBC19EF0ECC19FF0EDC1A0F0EEC16D
:10C9DA00A1F0EFC1A2F0F0C1A3F0F1C1A4F0F2C13D
:10C9EA00A5F0F3C1A6F0F4C1A7F0F5C1A8F0F6C10D
:10C9FA00A9F0F7C1AAF0F8C1ABF0F9C1ACF0FAC1DD
:10CA0A00ADF0FBC1AEF076EC54F0000E026E010EF2
:10CA1A00036E22EC58F00C0E0101FC255C6E000E30
:10CA2A00FD215D6EFF0E5C14FC6F7F0E5D14FD6FC1
:10CA3A000C0EFE255C6E000EFF215D6EFF0E5C146F
:10CA4A00FE6F7F0E5D14FF6F010EE027000EE123DB
:10CA5A00E223E3230001AF510101E05D0001B0517F
:10CA6A000101E1590001B1510101E2590001B2513C
:10CA7A000101E359D8A044EF65F046EF65F061EF94
:10CA8A0064F01200B3C0FCF1B4C0FDF1B5C0FEF110
:10CA9A00B6C0FFF18C0E026EFF0E036E22EC58F048
:10CAAA00000E0101E06F000EE16F000EE26F000E52
:10CABA00E36F2EEF66F0FCC121F0FDC122F0C80E33
:10CACA00236E010E246E0C0E256E500E98EC54F057
:10CADA00E40E016E010E026EC80E036E010E046EA4
:10CAEA00000E066E040E056E1CEC56F0E80E016E82
:10CAFA00010E026ECC0E036E010E046E000E066E5F
:10CB0A00040E056E1CEC56F0EC0E016E010E026E60
:10CB1A00D00E036E010E046E000E066E040E056E34
:10CB2A001CEC56F0FEC121F0FFC122F0D40E236E98
:10CB3A00010E246E0C0E256E510E98EC54F0F00E78
:10CB4A00016E010E026ED40E036E010E046E000E0B
:10CB5A00066E040E056E1CEC56F0F40E016E010E04
:10CB6A00026ED80E036E010E046E000E066E040EDF
:10CB7A00056E1CEC56F0F80E016E010E026EDC0E0C
:10CB8A00036E010E046E000E066E040E056E1CEC9A
:10CB9A0056F0000E0001936F010E946F6D0E956FA3
:10CBAA00FF0E966FE4C197F0E5C198F0E6C199F0DF
:10CBBA00E7C19AF0E8C19BF0E9C19CF0EAC19DF097
:10CBCA00EBC19EF0ECC19FF0EDC1A0F0EEC1A1F067
:10CBDA00EFC1A2F0F0C1A3F0F1C1A4F0F2C1A5F037
:10CBEA00F3C1A6F0F4C1A7F0F5C1A8F0F6C1A9F007
:10CBFA00F7C1AAF0F8C1ABF0F9C1ACF0FAC1ADF0D7
:10CC0A00FBC1AEF076EC54F0000E026E010E036E1C
:10CC1A0022EC58F00C0E0101FC255C6E000EFD2181
:10CC2A005D6EFF0E5C14FC6F7F0E5D14FD6F0C0EC3
:10CC3A00FE255C6E000EFF215D6EFF0E5C14FE6F1A
:10CC4A007F0E5D14FF6F010EE027000EE123E22341
:10CC5A00E3230001AF510101E05D0001B051010180
:10CC6A00E1590001B1510101E2590001B25101013A
:10CC7A00E359D8A043EF66F045EF66F060EF65F040
:10CC8A00120014C238F015C239F016C23AF017C2AF
:10CC9A003BF028C038F029C039F02AC03AF02BC03E
:10CCAA003BF0810E2C6EFF0E2D6E38C02EF039C06F
:10CCBA002FF03AC030F03BC031F0180E6AEF66F040
:10CCCA00D890313230322F322E32E82E65EF66F0AC
:10CCDA002E502C24366E000E2D20376E37BE7FEF75
:10CCEA0066F0375009E1170E365CD8A07FEF66F080
:10CCFA0081EF66F08BEF66F028C028F029C029F092
:10CD0A002AC02AF02BC02BF04EEF67F037BE90EF07
:10CD1A0066F092EF66F002EF67F036C02CF0FF0E75
:10CD2A002D6EFF0E2E6E7F0E2F6E000E306E2C664D
:10CD3A00A1EF66F0A9EF66F0303430322F322E328E
:10CD4A002D322C2E9CEF66F02DC032F02EC033F01F
:10CD5A002FC034F030C035F0325038142C6E3350B6
:10CD6A0039142D6E34503A142E6E35503B142F6EF2
:10CD7A002C502D102E102F10D8A4C6EF66F0C8EF35
:10CD8A0066F0CAEF66F081EF66F038C02CF039C061
:10CD9A002DF03AC02EF03BC02FF0200EDAEF66F0ED
:10CDAA00D8902F322E322D322C32E82ED5EF66F063
:10CDBA002C502D102E102F10D8B4E6EF66F0E8EFA5
:10CDCA0066F0F0EF66F0325038263350392234508C
:10CDDA003A2235503B22321C2C6E331C2D6E341CE9
:10CDEA002E6E351C2F6E2C5038162D5039162E509B
:10CDFA003A162F503B1646EF67F038C02CF039C070
:10CE0A002DF03AC02EF03BC02FF0200E12EF67F043
:10CE1A00D8902F322E322D322C32E82E0DEF67F0B9
:10CE2A002C502D102E102F10D8A41EEF67F020EFD3
:10CE3A0067F02AEF67F0000E386E000E396E000EAA
:10CE4A003A6E000E3B6E46EF67F0D89038342C6E7F
:10CE5A0039342D6E3A342E6E3B342F6E2C502D10F1
:10CE6A002E102F10D8B43CEF67F03EEF67F046EF74
:10CE7A0067F0000E386E000E396E800E3A6EBF0EE5
:10CE8A003B6E38C028F039C029F03AC02AF03BC0BE
:10CE9A002BF0120049C00CF013EC57F00001BD5101
:10CEAA00BE11D8A45BEF67F05DEF67F063EF67F040
:10CEBA00000E566E1F0E556E67EF67F0BDC055F037
:10CECA00BEC056F0000E586E000E576EE5EF67F0C2
:10CEDA0049C003F0A5EC5FF003C059F004C05AF052
:10CEEA00592806E15A28D8A47DEF67F07FEF67F04A
:10CEFA0098EF67F00001BD51BE11D8A487EF67F023
:10CF0A0089EF67F092EF67F057505810D8A490EF66
:10CF1A0067F092EF67F098EF67F059C049F05AC08E
:10CF2A004AF064EF68F057505810D8A49FEF67F0A2
:10CF3A00A1EF67F0C5EF67F02B0E59185A10D8B455
:10CF4A00A9EF67F0ABEF67F0B5EF67F02D0E591850
:10CF5A005A10D8A4B3EF67F0B5EF67F0C5EF67F0E2
:10CF6A00740E5724D96E030E5820DA6E600067F1EA
:10CF7A00DFFF574A582A0001B94BBA2BE5EF67F091
:10CF8A0059C04BF0D00E4B26090E4B64CFEF67F019
:10CF9A00D1EF67F0B5EF67F0592808E15A28D8B4FD
:10CFAA00D9EF67F0DBEF67F0FFEF67F059C001F0E8
:10CFBA005AC002F049C003F005EC5BF0FFEF67F0DE
:10CFCA005550575C5850800A4B6E5650800A4B5841
:10CFDA00D8B0F2EF67F0F4EF67F0FFEF67F0585060
:10CFEA0009E11F0E575CD8A0FDEF67F0FFEF67F06D
:10CFFA006DEF67F0740E5724D96E030E5820DA6E5F
:10D00A00DF6A740E196E030E1A6E530E1B6E000E33
:10D01A001D6E0A0E1C6E000E1E6E38EC77F019C0DB
:10D02A004BF01AC04CF01BC04DF01CC04EF01DC096
:10D03A004FF01EC050F01FC051F020C052F04A50AD
:10D04A00D96EDA6A60002FF1DEFF600033F1DEFF8D
:10D05A00600037F1DEFF60003BF1DEFF60003FF168
:10D06A00DEFF600043F1DEFF600047F1DEFF600093
:10D07A004BF1DEFF0001BF51C011D8A447EF68F0A1
:10D08A0049EF68F060EF68F057505810D8B450EF85
:10D09A0068F052EF68F060EF68F0C951D8B458EF01
:10D0AA0068F05BEF68F0010E5CEF68F0000E496E05
:10D0BA004A6A64EF68F0FF0E4A6EFE0E496E12006D
:10D0CA003B0E176E300E186E000E1A6E0C0E196E8D
:10D0DA00680E95EC58F0315030C02EF02F6A2EC0F1
:10D0EA002FF02E6A2E103C6E2F503D6E335032C0F8
:10D0FA002EF02F6A2EC02FF02E6A2E103E6E2F5061
:10D10A003F6E355034C02EF02F6A2EC02FF02E6A93
:10D11A002E10406E2F50416E375036C02EF02F6AB7
:10D12A002EC02FF02E6A2E10426E2F50436E3950A9
:10D13A0038C02EF02F6A2EC02FF02E6A2E10446EA1
:10D14A002F50456E3B503AC02EF02F6A2EC02FF05A
:10D15A002E6A2E10466E2F50476E3CC001F03DC01D
:10D16A0002F0000E02BEFF0E036E046E010E7BEC8F
:10D17A0062F001C00FF002C010F003C011F004C049
:10D18A0012F0000E136E000E146E800E156E460E0F
:10D19A00166ECFEC6CF02850D96EDA6A60003FF058
:10D1AA00DEFF600043F0DEFF600047F0DEFF600054
:10D1BA004BF0DEFF3EC001F03FC002F0000E02BE9F
:10D1CA00FF0E036E046E010E7BEC62F001C00FF0DD
:10D1DA0002C010F003C011F004C012F0000E136E6A
:10D1EA00000E146E800E156E460E166ECFEC6CF0A5
:10D1FA002950D96EDA6A60003FF0DEFF600043F022
:10D20A00DEFF600047F0DEFF60004BF0DEFF40C04B
:10D21A0001F041C002F0000E02BEFF0E036E046E62
:10D22A00010E7BEC62F001C00FF002C010F003C0E7
:10D23A0011F004C012F0000E136E000E146E800E70
:10D24A00156E460E166ECFEC6CF02A50D96EDA6A5D
:10D25A0060003FF0DEFF600043F0DEFF600047F051
:10D26A00DEFF60004BF0DEFF42C001F043C002F077
:10D27A00000E02BEFF0E036E046E010E7BEC62F01E
:10D28A0001C00FF002C010F003C011F004C012F088
:10D29A00000E136E000E146E030E156E430E166EFC
:10D2AA00CFEC6CF02B50D96EDA6A60003FF0DEFFEB
:10D2BA00600043F0DEFF600047F0DEFF60004BF0E5
:10D2CA00DEFF44C001F045C002F0000E02BEFF0EB0
:10D2DA00036E046E010E7BEC62F001C00FF002C017
:10D2EA0010F003C011F004C012F0000E136E000E0D
:10D2FA00146E030E156E430E166ECFEC6CF02C50A6
:10D30A00D96EDA6A60003FF0DEFF600043F0DEFFAC
:10D31A00600047F0DEFF60004BF0DEFF46C001F020
:10D32A0047C002F0000E02BEFF0E036E046E010E2D
:10D33A007BEC62F001C00FF002C010F003C011F0E4
:10D34A0004C012F0000E136E000E146E030E156E5A
:10D35A00430E166ECFEC6CF02D50D96EDA6A60006F
:10D36A003FF0DEFF600043F0DEFF600047F0DEFFC3
:10D37A0060004BF0DEFF1200000E0201106F000E7B
:10D38A00116F000E126F000E136F6CEF6AF0E10E50
:10D39A00286EDD0E296ED90E2A6ED50E2B6ED10E91
:10D3AA002C6ECD0E2D6E65EC68F0940E016E030E98
:10D3BA00026EE10E036E046A000E066E040E056E1E
:10D3CA001CEC56F0980E016E030E026EDD0E036E13
:10D3DA00046A000E066E040E056E1CEC56F09C0ED6
:10D3EA00016E030E026ED90E036E046A000E066EFB
:10D3FA00040E056E1CEC56F0A00E016E030E026EB2
:10D40A00D50E036E046A000E066E040E056E1CEC41
:10D41A0056F0A40E016E030E026ED10E036E046A5C
:10D42A00000E066E040E056E1CEC56F0A80E016E78
:10D43A00030E026ECD0E036E046A000E066E040E13
:10D44A00056E1CEC56F0C7C023F0C8C024F0940E39
:10D45A00256E030E266E0C0E276E500EEFEC53F05F
:10D46A00C5C023F0C6C024F0A00E256E030E266E9A
:10D47A000C0E276E510EEFEC53F00C0E0001C7256F
:10D48A00B76F000EC821B86FFF0EB715C76F7F0EB2
:10D49A00B815C86F0C0EC525B76F000EC621B86F38
:10D4AA00FF0EB715C56F7F0EB815C66F010E0201C4
:10D4BA001027000E112312231323E5C001F0E6C042
:10D4CA0002F0E7C003F0E8C004F093EC53F0000167
:10D4DA00E9510201105D0001EA51020111590001EE
:10D4EA00EB51020112590001EC5102011359D8A063
:10D4FA0081EF6AF083EF6AF0CCEF69F00001E9513D
:10D50A000201101913E10001EA51020111190EE199
:10D51A000001EB510201121909E10001EC5102016B
:10D52A001319D8A49BEF6AF09DEF6AF02FEF6BF006
:10D53A004C0E026EFF0E036E22EC58F00001C7512A
:10D54A00C811D8B4ABEF6AF0ADEF6AF0B6EF6AF083
:10D55A00C7C008F2C8C009F202010A6B0B6BBFEF21
:10D56A006AF0000E0201086F800E096F000E0A6F42
:10D57A00000E0B6FE9C001F0EAC002F0EBC003F045
:10D58A00ECC004F0F40E056EFF0E066EFF0E076E79
:10D59A00FF0E086E7DEC57F0020108510124006F5E
:10D5AA0009510220016F0A510320026F0B51042016
:10D5BA00036F0001C551C611D8B4E6EF6AF0E8EF6F
:10D5CA006AF0F1EF6AF0C5C00CF2C6C00DF20201B2
:10D5DA000E6B0F6BFAEF6AF0000E02010C6F800EF1
:10D5EA000D6F000E0E6F000E0F6FE9C001F0EAC05A
:10D5FA0002F0EBC003F0ECC004F0F40E056EFF0E6F
:10D60A00066EFF0E076EFF0E086E7DEC57F00201E4
:10D61A000C510124046F0D510220056F0E51032095
:10D62A00066F0F510420076FE9C0AFF0EAC0B0F0EF
:10D63A00EBC0B1F0ECC0B2F000C2B3F001C2B4F07A
:10D64A0004C2B5F005C2B6F04EEC64F03AEC52F002
:10D65A0035EF6BF0C70E026EFF0E036E22EC58F028
:10D66A00000E0001CB6F1200ABEC51F056EC51F0FA
:10D67A0076EC53F003EC55F0000E0001936F040EA4
:10D68A00946FCA0E956FFE0E966FC7C097F0C8C00A
:10D69A0098F076EC54F0000E026E040E036E22EC43
:10D6AA0058F0000E0001936F040E946FF80E956FF8
:10D6BA00FE0E966FC5C097F0C6C098F076EC54F08F
:10D6CA00000E026E040E036E22EC58F05A0E026E21
:10D6DA00FE0E036E22EC58F0C80E016E040E026EA6
:10D6EA00000E046E000E036E000E066E140E056E1A
:10D6FA00B0EC53F0C80E016E040E026E140E036EE7
:10D70A00A4EC5CF0BC0E026EFF0E036E22EC58F025
:10D71A00C80E026E040E036E22EC58F0AC0E026EB6
:10D72A00FF0E036E22EC58F0C80E016E040E026E54
:10D73A00E20E036EFF0E046E000E066E070E056EF5
:10D74A00DDEC61F001500210D8A4AEEF6BF0B0EF3F
:10D75A006BF0D7EF6BF0FE0E0001C725016EFF0ECE
:10D76A00C821026E000E046E0C0E036E5BEC58F0BC
:10D77A0001C0DCF402C0DDF40401DE6BDF6BDCC443
:10D78A00AFF0DDC4B0F0DEC4B1F0DFC4B2F0000E19
:10D79A000001B46F020EB36F000EB66F020EB56FC2
:10D7AA0055EC63F0C80E016E040E026ED00E036EC5
:10D7BA00FF0E046E000E066E080E056EDDEC61F0BB
:10D7CA0001500210D8A4ECEF6BF0EEEF6BF078EF9B
:10D7DA006CF00001C751C811D8B4F6EF6BF0F8EF3E
:10D7EA006BF001EF6CF0C7C0E8F4C8C0E9F40401BB
:10D7FA00EA6BEB6B0AEF6CF0000E0401E86F800E27
:10D80A00E96F000EEA6F000EEB6FE9C001F0EAC0A3
:10D81A0002F0EBC003F0ECC004F0F40E056EFF0E4C
:10D82A00066EFF0E076EFF0E086E7DEC57F00401C0
:10D83A00E8510124E06FE9510220E16FEA51032027
:10D84A00E26FEB510420E36F0001C551C611D8B451
:10D85A0031EF6CF033EF6CF03CEF6CF0C5C0ECF4D8
:10D86A00C6C0EDF40401EE6BEF6B45EF6CF0000EF1
:10D87A000401EC6F800EED6F000EEE6F000EEF6F7D
:10D88A00E9C001F0EAC002F0EBC003F0ECC004F01A
:10D89A00F40E056EFF0E066EFF0E076EFF0E086E83
:10D8AA007DEC57F00401EC510124E46FED510220A4
:10D8BA00E56FEE510320E66FEF510420E76FE9C0F0
:10D8CA00AFF0EAC0B0F0EBC0B1F0ECC0B2F0E0C427
:10D8DA00B3F0E1C4B4F0E4C4B5F0E5C4B6F047EC83
:10D8EA0065F06BEF6BF0C80E016E040E026ED90E76
:10D8FA00036EFF0E046E000E066E080E056EDDEC5A
:10D90A0061F001500210D8A48DEF6CF08FEF6CF02B
:10D91A00ACEF6CF0000E0001936F040E946F980E3A
:10D92A00956FFE0E966FE9C097F0EAC098F0EBC0CB
:10D93A0099F0ECC09AF0E5C09BF0E6C09CF0E7C015
:10D94A009DF0E8C09EF076EC54F065EF6BF0C80EDF
:10D95A0000018E6F040E8F6FE50E906FE90E916FC6
:10D96A00EAEC57F00009D8B4BDEF6CF0BFEF6CF0E9
:10D97A00C5EF6CF0C1EC69F028EC55F06BEF6BF079
:10D98A00260E026EFF0E036E22EC58F06BEF6BF060
:10D99A00FEEF7FF01250800B1F6E12501224266E7B
:10D9AA0011AEDAEF6CF0DCEF6CF0DDEF6CF0268094
:10D9BA002650D8B4E3EF6CF0E5EF6CF0FAEF6CF0B8
:10D9CA002628D8A4EBEF6CF0EDEF6CF0F5EF6CF0D5
:10D9DA00000E0F6E000E106E000E116E000E126E0B
:10D9EA00118E000E126E02EF6DF0000E0F6E000E19
:10D9FA00106E000E116E000E126E1650800B1F1A5A
:10DA0A0016501624276E15AE0DEF6DF00FEF6DF060
:10DA1A0010EF6DF027802750D8B416EF6DF018EF8D
:10DA2A006DF02DEF6DF02728D8A41EEF6DF020EFD2
:10DA3A006DF028EF6DF0000E136E000E146E000EDE
:10DA4A00156E000E166E158E000E166E35EF6DF001
:10DA5A00000E136E000E146E000E156E000E166E7A
:10DA6A001350141015101610D8A43EEF6DF040EFA5
:10DA7A006DF058EF6DF0000E0F6E000E106E000E76
:10DA8A00116E000E126E800E11127F0E12121F50AE
:10DA9A0012120FC00FF010C010F011C011F012C016
:10DAAA0012F09BEF6EF02650D8A45EEF6DF060EF97
:10DABA006DF06AEF6DF0000E0F6E000E106E000E24
:10DACA00116E000E126E9BEF6EF0275026C017F0F3
:10DADA00186A175E000E185A7F0E1724206E000E61
:10DAEA001820216E0FC01BF010C01CF011C01DF0D1
:10DAFA0012C01EF0000E0F6E000E106E000E116E98
:10DB0A00000E126E000E226E000E236E000E246EA0
:10DB1A00000E256E000E276ECBEF6DF02750D8B49D
:10DB2A0099EF6DF09BEF6DF0B2EF6DF0D8901B3668
:10DB3A001C361D361E36D8900F3610361136123660
:10DB4A0025AEAAEF6DF0ACEF6DF0ADEF6DF00F8082
:10DB5A00D890223623362436253613501B5C1450AF
:10DB6A001C5815501D5816501E58D8A0BFEF6DF0FE
:10DB7A00C1EF6DF0CAEF6DF0258C13501B5E145087
:10DB8A001C5A15501D5A16501E5A272A190E276458
:10DB9A00D1EF6DF0D3EF6DF093EF6DF01B501C10C9
:10DBAA001D101E10D8B4DCEF6DF0DEEF6DF0F6EF4D
:10DBBA006DF02280F6EF6DF0D8900F3610361136E0
:10DBCA00123625AEEBEF6DF0EDEF6DF0EEEF6DF086
:10DBDA000F80D89022362336243625362006D8A040
:10DBEA00210611AEFBEF6DF0FDEF6DF0E1EF6DF088
:10DBFA00000E276E25AE04EF6EF006EF6EF02AEFE8
:10DC0A006EF0FF0E2214176EFF0E2314186EFF0E0D
:10DC1A002414196E7F0E25141A6E17501810191035
:10DC2A001A10D8B41BEF6EF01DEF6EF021EF6EF0F4
:10DC3A00010E276E2AEF6EF00FA026EF6EF028EF86
:10DC4A006EF02AEF6EF01DEF6EF02750D8B430EF69
:10DC5A006EF032EF6EF056EF6EF0010E0F26000EE8
:10DC6A0010221122122212A03DEF6EF03FEF6EF049
:10DC7A0056EF6EF00FC017F010C018F011C019F06F
:10DC8A0012C01AF01A341A3219321832173217C05F
:10DC9A000FF018C010F019C011F01AC012F0204A83
:10DCAA00212A21BE61EF6EF0215008E12028D8A078
:10DCBA0061EF6EF063EF6EF06EEF6EF0000E216EA4
:10DCCA002068000E0F6E000E106E000E116E000E10
:10DCDA00126E21BE7BEF6EF0215006E12004D8B00F
:10DCEA0079EF6EF07BEF6EF089EF6EF0000E216E29
:10DCFA00000E206E000E0F6E000E106E000E116EDA
:10DD0A00000E126E000E1F6E20C026F026A090EFA5
:10DD1A006EF092EF6EF095EF6EF0118E96EF6EF058
:10DD2A00119ED8902630126E4CEF6DF012005C50A6
:10DD3A00D96EDA6A6F007BFFF6FF6F0077FFF7FF95
:10DD4A00F86A0800F550250AD8A4AEEF6EF0B0EFD5
:10DD5A006EF0C1EF6FF05C50D96EDA6ADE2A000EFF
:10DD6A00DD22000E0001BE6F000EBD6FBD51BE1157
:10DD7A00D8A4C2EF6EF0C5EF6EF0010EC6EF6EF0DA
:10DD8A00000EC96F5C50D96EDA6A6F007BFFF6FF2E
:10DD9A006F0077FFF7FFF86A0800F550750AD8A4F4
:10DDAA00D9EF6EF0DBEF6EF012EF6FF05C50D96EC8
:10DDBA00DA6ADE2A000EDD225BC049F0630E4A6E83
:10DDCA004FEC67F049C06BF04AC06CF000016CBFC1
:10DDDA00F7EF6EF06C5108E16B05D8A0F7EF6EF023
:10DDEA00F9EF6EF00CEF6FF05D50D96EDA6ADF2A48
:10DDFA00DF04D96EDA6A6F0078FF62F06251D96E79
:10DE0A00DA6A60008FF1DEFF600093F1DDFF6BC01C
:10DE1A005BF06CC05CF088EF70F05C50D96EDA6A27
:10DE2A006F0078FF01F06F0074FF02F0F70E036EC7
:10DE3A00FF0E046E000E066E020E056EDDEC61F03A
:10DE4A0001500210D8A42CEF6FF02EEF6FF068EF9C
:10DE5A006FF05C50D96EDA6A020EDE26000EDD2201
:10DE6A005BC049F0630E4A6E4FEC67F049C06BF035
:10DE7A004AC06CF000016CBF4BEF6FF06C5108E1C7
:10DE8A006B05D8A04BEF6FF04DEF6FF00CEF6FF012
:10DE9A005D50D96EDA6ADF2ADF04D96EDA6A6F005A
:10DEAA0078FF62F06251D96EDA6A60008FF1DEFFA4
:10DEBA00600093F1DEFF600097F1DEFF60009BF1E6
:10DECA00DEFF0CEF6FF05C50D96EDA6A6F007BFFF1
:10DEDA00F6FF6F0077FFF7FFF86A0800F550250A8A
:10DEEA00D8A47AEF6FF07CEF6FF0B9EF6FF05BC0F8
:10DEFA000CF013EC57F05BC003F0A5EC5FF003C025
:10DF0A006DF004C06EF0250E00016D196E11D8A4D3
:10DF1A0091EF6FF093EF6FF0A1EF6FF05C50D96E55
:10DF2A00DA6ADE2A000EDD22B94BBA2B000E5C6ECD
:10DF3A00000E5B6E88EF70F06D2908E16E29D8B487
:10DF4A00A9EF6FF0ABEF6FF0B3EF6FF06DC001F0B8
:10DF5A006EC002F05BC003F005EC5BF0FF0E5C6E76
:10DF6A00FE0E5B6E88EF70F05C50D96EDA6ADE2ABC
:10DF7A00000EDD229BEF6FF05BC003F0A5EC5FF0B3
:10DF8A0003C06DF004C06EF05C50D96EDA6A6F009F
:10DF9A007BFFF6FF6F0077FFF7FFF86A0800F5507E
:10DFAA00200AD8B4DBEF6FF0DDEF6FF0F6EF6FF019
:10DFBA005C50D96EDA6A6F007BFFF6FF6F0077FF5D
:10DFCA00F7FFF86A08006F00D4FF60F0F70E00014F
:10DFDA006027050E6061F4EF6FF0F6EF6FF060EF07
:10DFEA0070F05C50D96EDA6ADE2A000EDD225C50CF
:10DFFA00D96EDA6A6F007BFFF6FF6F0077FFF7FFD3
:10E00A00F86A0800F550200AD8B40EEF70F010EF45
:10E01A0070F0F6EF6FF05C50D96EDA6A6F007BFF32
:10E02A00F6FF6F0077FFF7FFF86A08006F00D4FF6A
:10E03A0060F0F70E00016027040E606527EF70F0AC
:10E04A0029EF70F0F6EF6FF035EF70F0B94BBA2B9D
:10E05A005BC003F0A5EC5FF003C06DF004C06EF086
:10E06A00200E00016D196E11D8B43EEF70F040EF2A
:10E07A0070F02BEF70F06DC060F0F70E6027040EA1
:10E08A0060654AEF70F04CEF70F02BEF70F06D297D
:10E09A0008E16E29D8B454EF70F056EF70F09BEF98
:10E0AA006FF06DC001F06EC002F05BC003F005ECCA
:10E0BA005BF09BEF6FF05C50D96EDA6A6F007BFF02
:10E0CA00F6FF6F0077FFF7FFF86A0800F550606FF8
:10E0DA00616B6D51601907E16E516119D8A478EF2F
:10E0EA0070F07AEF70F07CEF70F093EF6FF06D29BB
:10E0FA0006E16E29D8A484EF70F086EF70F0ABEFDA
:10E10A006FF05B685C6812000450800B0D6E04505F
:10E11A000424136E03AE94EF70F096EF70F097EF4D
:10E12A0070F013801350D8B49DEF70F09FEF70F029
:10E13A00B2EF70F01328D8A4A5EF70F0A7EF70F033
:10E14A00AFEF70F0000E016E000E026E000E036E4D
:10E15A00000E046E038EBAEF70F0000E016E000E10
:10E16A00026E000E036E000E046E0850800B0D1A2C
:10E17A00085008240E6E07AEC5EF70F0C7EF70F0B6
:10E18A00C8EF70F00E800E50D8B4CEEF70F0D0EF1A
:10E19A0070F0E3EF70F00E28D8A4D6EF70F0D8EF45
:10E1AA0070F0E0EF70F0000E056E000E066E000EC5
:10E1BA00076E000E086E078EEBEF70F0000E056E0C
:10E1CA00000E066E000E076E000E086E0E50D8B4D2
:10E1DA00F1EF70F0F3EF70F0FBEF70F01350D8A48A
:10E1EA00F9EF70F0FBEF70F005EF71F0000E016EC1
:10E1FA00000E026E000E036E000E046EAFEF72F098
:10E20A00075001026F00CCFF18F06F00D0FF19F021
:10E21A0018500F6E106A116A126A1950146E156A34
:10E22A00166A176A065002026F00CCFF18F06F00D8
:10E23A00D0FF19F018500F26000E102211221222B8
:10E24A0019501426000E1522162217220550030211
:10E25A006F00CCFF18F06F00D0FF19F018500F268E
:10E26A00000E10221122122219501426000E152215
:10E27A001622172211C012F010C011F00FC010F0B0
:10E28A000F6A055002026F00CCFF18F06F00D0FF32
:10E29A0019F018500F2619501022000E1122000EE4
:10E2AA001222065001026F00CCFF18F06F00D0FF57
:10E2BA0019F018500F2619501022000E1122000EC4
:10E2CA00122211C012F010C011F00FC010F00F6A24
:10E2DA00055001026F00CCFF18F06F00D0FF19F053
:10E2EA0018500F2619501022000E1122000E122269
:10E2FA00075002026F00CCFF18F06F00D0FF19F030
:10E30A001850142619501522000E1622000E172234
:10E31A00065003026F00CCFF18F06F00D0FF19F00F
:10E32A001850142619501522000E1622000E172214
:10E33A00075003026F00CCFF18F06F00D0FF19F0EE
:10E34A001850096E19500A6E0B6A0C6A0BC00CF051
:10E35A000AC00BF009C00AF0096A095014260A50CB
:10E36A0015220B5016220C5017220FC009F010C0AC
:10E37A000AF011C00BF012C00CF0190ECAEF71F0BE
:10E38A00D8900C320B320A320932E82EC5EF71F0FE
:10E39A00095014260A5015220B5016220C50172227
:10E3AA0011C012F010C011F00FC010F00F6A0E5019
:10E3BA0013C009F00A6A0926000E0A22820E0924ED
:10E3CA00186EFF0E0A20196E00EF72F0D8901436FC
:10E3DA0015361636173612AEF5EF71F0F7EF71F003
:10E3EA00F8EF71F01480D8900F36103611361236C5
:10E3FA001806D8A0190616AE05EF72F007EF72F0EC
:10E40A00EBEF71F0000E0E6E12AE0EEF72F010EF1F
:10E41A0072F034EF72F0FF0E0F14096EFF0E101433
:10E42A000A6EFF0E11140B6E7F0E12140C6E095039
:10E43A000A100B100C10D8B425EF72F027EF72F007
:10E44A002BEF72F0010E0E6E34EF72F014A030EF63
:10E45A0072F032EF72F034EF72F027EF72F00E5072
:10E46A00D8B43AEF72F03CEF72F060EF72F0010E3E
:10E47A001426000E15221622172217A047EF72F053
:10E48A0049EF72F060EF72F014C009F015C00AF09B
:10E49A0016C00BF017C00CF00C340C320B320A32D7
:10E4AA00093209C014F00AC015F00BC016F00CC0EE
:10E4BA0017F0184A192A19BE6BEF72F0195008E1C1
:10E4CA001828D8A06BEF72F06DEF72F077EF72F048
:10E4DA00000E146E000E156E800E166E7F0E176EED
:10E4EA00A5EF72F019BE84EF72F0195006E1180414
:10E4FA00D8B082EF72F084EF72F090EF72F0000EF3
:10E50A00146E000E156E000E166E000E176E000EBB
:10E51A000D6EA5EF72F018C013F0FF0E1416FF0E61
:10E52A0015167F0E1616000E171613A09FEF72F01F
:10E53A00A1EF72F0A2EF72F0168ED8901330176E18
:10E54A000D50171214C001F015C002F016C003F0E6
:10E55A0017C004F0120000018D51D96EDA6A6F00FB
:10E56A007BFFF6FF6F0077FFF7FFF86A0800F550A8
:10E57A00250AD8A4C3EF72F0C5EF72F0C3EF74F0A6
:10E58A008D51D96EDA6ADE2A000EDD22000EC26FC4
:10E59A00000EC16FC1C0CAF0C369C4698D51D96E7A
:10E5AA00DA6A6F007BFFF6FF6F0077FFF7FFF86A02
:10E5BA000800F5502E0AD8A4E5EF72F0E7EF72F0E2
:10E5CA00F7EF72F08D51D96EDA6ADE2A000EDD227B
:10E5DA008DC007F08EC008F0FCEC5CF007C0C3F0F9
:10E5EA0008C0C4F000018D51D96EDA6A6F0078FF55
:10E5FA004BF06F0074FF4CF060002FF1F6FF6000E3
:10E60A0033F1F7FFF86A08006F00D4FF4AF01AEFF7
:10E61A0073F04B4A4C2A33EF73F0690E4A6E33EFAC
:10E62A0073F0000E4A6E33EF73F04A50446E456A37
:10E63A004550000AD8B424EF73F016EF73F0445033
:10E64A00580AD8B412EF73F0340AD8B40EEF73F044
:10E65A00190AD8B412EF73F016EF73F060002FF1B5
:10E66A00F6FF600033F1F7FFF86A0800F550580A20
:10E67A00D8B442EF73F044EF73F083EF73F06000A5
:10E68A002FF1F6FF600033F1F7FFF86A0800F55042
:10E69A00750AD8A453EF73F055EF73F0E2EF73F0F5
:10E6AA0083EF73F08E51D96EDA6ADF50DF2ADF2AE0
:10E6BA00D96EDA6A6F0078FF44F06F0074FF45F094
:10E6CA0044C046F045C047F0486A496A98EF73F07B
:10E6DA008E51D96EDA6A040EDF26DF5CD96EDA6AE9
:10E6EA006F0078FF46F06F0078FF47F06F0078FF01
:10E6FA0048F06F0078FF49F098EF73F04A50446E83
:10E70A00456A4550000AD8B48DEF73F098EF73F05C
:10E71A004450690AD8B457EF73F0050AD8B46DEFBC
:10E72A0073F098EF73F0010E4B24446E000E4C20E8
:10E73A00456E8D51D96EDA6A600013F1DEFF600012
:10E74A0017F1DDFFC5EF73F08CC019F046C01AF05F
:10E75A0047C01BF048C01CF049C01DF02DEC60F00A
:10E76A00D7EF74F08CC019F046C01AF047C01BF0FE
:10E77A0048C01CF049C01DF04BEC61F0D7EF74F0B3
:10E78A0060002FF1F6FF600033F1F7FFF86A080026
:10E79A00F550446E456A4550000AD8B4D7EF73F075
:10E7AA00E2EF73F04450580AD8B4B7EF73F02D0A69
:10E7BA00D8B4A9EF73F0E2EF73F08D51D96EDA6A2B
:10E7CA006F0078FF4BF06F0074FF4CF060002FF180
:10E7DA00F6FF600033F1F7FFF86A08006F00D4FF14
:10E7EA004AF004EF74F04B4A4C2A1DEF74F06C0E99
:10E7FA004A6E1DEF74F0000E4A6E1DEF74F04A5017
:10E80A00446E456A4550000AD8B40EEF74F000EF22
:10E81A0074F044504C0AD8B4F8EF73F02A0AD8B40A
:10E82A00FCEF73F00A0AD8B4F8EF73F000EF74F053
:10E83A0060002FF1F6FF600033F1F7FFF86A080075
:10E84A00F550660AD8A42CEF74F02EEF74F0BAEFE4
:10E85A0074F062EF74F08E51D96EDA6A6F007CFF41
:10E86A0044F0040EDF264450D96EDA6A6F0078FF4E
:10E87A0046F06F0078FF47F06F0078FF48F06F00AE
:10E88A0078FF49F077EF74F08E51D96EDA6A6F002B
:10E89A007CFF44F0040EDF264450D96EDA6A6F001A
:10E8AA0078FF46F06F0078FF47F06F0078FF48F076
:10E8BA006F0078FF49F077EF74F04A50446E456A6A
:10E8CA004550000AD8B46CEF74F077EF74F04450F6
:10E8DA004C0AD8B449EF74F0200AD8B430EF74F077
:10E8EA0077EF74F0010E4B24446E000E4C20456EF7
:10E8FA008D51D96EDA6A600013F1DEFF600017F1FC
:10E90A00DDFFA1EF74F08CC03CF046C03DF047C07B
:10E91A003EF048C03FF049C040F060002FF1F6FFDA
:10E92A00600033F1F7FFF86A08006F00D4FF41F086
:10E93A00FEEC79F0D7EF74F060002FF1F6FF60007B
:10E94A0033F1F7FFF86A0800F550446E456A4550FE
:10E95A00000AD8B4B3EF74F0BAEF74F04450660A00
:10E96A00D8B488EF74F0BAEF74F000018D51D96E03
:10E97A00DA6ADE2A000EDD22D7EF74F08D51D96EE5
:10E98A00DA6A6F007BFFF6FF6F0077FFF7FFF86A1E
:10E99A000800F550036E046A8CC005F05BEC5DF06C
:10E9AA00BAEF74F012000450800B0D6E0450042468
:10E9BA000F6E03AEE3EF74F0E5EF74F0E6EF74F078
:10E9CA000F800F50D8B4ECEF74F0EEEF74F003EF51
:10E9DA0075F00F28D8A4F4EF74F0F6EF74F0FEEF98
:10E9EA0074F0000E016E000E026E000E036E000E31
:10E9FA00046E038E000E046E0BEF75F0000E016EAE
:10EA0A00000E026E000E036E000E046E0850800B9C
:10EA1A000E6E0D500E18D8B415EF75F017EF75F08D
:10EA2A0018EF75F00D8C085008240E6E07AE20EF13
:10EA3A0075F022EF75F023EF75F00E800E50D8B402
:10EA4A0029EF75F02BEF75F040EF75F00E28D8A47A
:10EA5A0031EF75F033EF75F03BEF75F0000E056E90
:10EA6A00000E066E000E076E000E086E078E000E70
:10EA7A00086E48EF75F0000E056E000E066E000E69
:10EA8A00076E000E086E0F500E5CD8B04FEF75F08F
:10EA9A0051EF75F078EF75F00DAC56EF75F058EF51
:10EAAA0075F05AEF75F0800E0D1A0FC010F00EC0F7
:10EABA000FF010C00EF001C010F005C001F010C038
:10EACA0005F002C010F006C002F010C006F003C044
:10EADA0010F007C003F010C007F004C010F008C01F
:10EAEA0004F010C008F0000E106E0F500EC009F0AE
:10EAFA000A6A095E000E0A5A0ABE8DEF75F00A50BC
:10EB0A0009E11A0E095CD8A08DEF75F08FEF75F048
:10EB1A00C6EF75F00150021003100410D8A498EF44
:10EB2A0075F09BEF75F0010E9CEF75F0000E106EFC
:10EB3A00000E016E000E026E000E036E000E046ED1
:10EB4A000EC00FF0CFEF75F010A0AEEF75F0B0EF7A
:10EB5A0075F0B6EF75F0D89010300109106EB8EF65
:10EB6A0075F0D890103201A0BDEF75F0BFEF75F0C7
:10EB7A00C0EF75F0108E04340432033202320132CF
:10EB8A000F2A0E500F5CD8A0CDEF75F0CFEF75F0BD
:10EB9A00A9EF75F00DBCD4EF75F0D6EF75F016EF4E
:10EBAA0076F00F50D8A4DCEF75F0DEEF75F0E8EFE1
:10EBBA0075F0000E016E000E026E000E036E000E5E
:10EBCA00046E37EF77F005500126065002220750EF
:10EBDA0003220850042204A0F5EF75F0F7EF75F050
:10EBEA00A3EF76F010A0FCEF75F0FEEF75F004EFDE
:10EBFA0076F0D89010300109106E06EF76F0D890B2
:10EC0A00103201A00BEF76F00DEF76F00EEF76F0F2
:10EC1A00108E043404320332023201320F2AA3EF77
:10EC2A0076F00550015C065002580750035804500C
:10EC3A00800A096E0850800A0958D8B027EF76F082
:10EC4A0029EF76F054EF76F00150055C096E025018
:10EC5A0006580A6E035007580B6E045008580C6E7B
:10EC6A00FF0E0924016EFF0E0A20026EFF0E0B2012
:10EC7A00036EFF0E0C20046E800E0D1A106C1050DD
:10EC8A00D8A44AEF76F04CEF76F05CEF76F0010EFE
:10EC9A000126000E0222032204225CEF76F00550C0
:10ECAA00015E0650025A0750035A0850045A01508E
:10ECBA00021003100410D8A465EF76F067EF76F01F
:10ECCA009CEF76F01050D8A46DEF76F06FEF76F0E7
:10ECDA009CEF76F0000E016E000E026E000E036EBF
:10ECEA00000E046E37EF77F0D890013602360336FD
:10ECFA00043610AE83EF76F085EF76F086EF76F085
:10ED0A00018010A08BEF76F08DEF76F091EF76F020
:10ED1A00D880103693EF76F0D89010360F50D8B4CA
:10ED2A0099EF76F09BEF76F09CEF76F00F0603AE44
:10ED3A00A1EF76F0A3EF76F079EF76F0000E0E6E83
:10ED4A0010AEAAEF76F0ACEF76F0C4EF76F010C012
:10ED5A0009F07F0E0916D8B4B5EF76F0B7EF76F062
:10ED6A00BBEF76F0010E0E6EC4EF76F001A0C0EF95
:10ED7A0076F0C2EF76F0C4EF76F0B7EF76F00E5089
:10ED8A00D8B4CAEF76F0CCEF76F0F7EF76F0010E52
:10ED9A000126000E02220322042204A0D7EF76F0F5
:10EDAA00D9EF76F0F7EF76F001C009F002C00AF069
:10EDBA0003C00BF004C00CF00C340C320B320A32D4
:10EDCA00093209C001F00AC002F00BC003F00CC0FE
:10EDDA0004F00F28D8B4F4EF76F0F6EF76F0F7EFF8
:10EDEA0076F00F2A0F28D8B4FDEF76F0FFEF76F011
:10EDFA0007EF77F00F50D8A405EF77F007EF77F019
:10EE0A0019EF77F0000E016E000E026E000E036E0F
:10EE1A00000E046E0F50D8A415EF77F017EF77F0B5
:10EE2A0019EF77F0000E0D6E0FA01EEF77F020EFAE
:10EE3A0077F023EF77F0038E24EF77F0039ED890D4
:10EE4A000F30046E0DAE2CEF77F02EEF77F02FEF28
:10EE5A0077F0048E01C001F002C002F003C003F093
:10EE6A0004C004F01200000E3D6E20EE3EF0070EC4
:10EE7A00DE6AE806FDE219C046F01AC047F01DBE78
:10EE8A0052EF77F01D5007E1250E1C5CD8B050EF09
:10EE9A0077F052EF77F05BEF77F01C041D10D8A4DF
:10EEAA0059EF77F05BEF77F062EF77F0000E000131
:10EEBA00C06F160EBF6FD1EF79F046504710D8B425
:10EECA0069EF77F06BEF77F0D1EF79F060001BF123
:10EEDA00D9FF60001FF1DAFFDF50D8A477EF77F08F
:10EEEA0079EF77F07BEF77F0D1EF79F060001BF1E3
:10EEFA00D9FF60001FF1DAFFDF50486E8FEF77F01D
:10EF0A00464A472A60001BF1D9FF60001FF1DAFF69
:10EF1A00DF50486E200E4818D8B496EF77F098EF75
:10EF2A0077F085EF77F048C021F0F70E2126040E1E
:10EF3A002164A2EF77F0A4EF77F085EF77F02D0E3A
:10EF4A004818D8A4ABEF77F0ADEF77F0BAEF77F0C7
:10EF5A003D80464A472A60001BF1D9FF60001FF135
:10EF6A00DAFFDF50486EC5EF77F02B0E4818D8A4A9
:10EF7A00C1EF77F0C3EF77F0C5EF77F0AEEF77F038
:10EF8A00300E4818D8A4CCEF77F0CEEF77F06BEFBD
:10EF9A0078F0464A472A60001BF1D9FF60001FF14A
:10EFAA00DAFFDF50486E1C501D10D8B4DFEF77F03F
:10EFBA00E1EF77F0EBEF77F0100E1C181D10D8A4D4
:10EFCA00E9EF77F0EBEF77F05DEF78F0780E48181D
:10EFDA00D8B4F2EF77F0F4EF77F0FDEF77F0580E50
:10EFEA004818D8A4FBEF77F0FDEF77F05DEF78F0E3
:10EFFA00000E1D6E100E1C6E464A472A60001BF159
:10F00A00D9FF60001FF1DAFFDF50486E48C021F0D7
:10F01A00200E21129F0E21261A0E216017EF78F07A
:10F02A0019EF78F03DEF78F048C021F09F0E2126C5
:10F03A00190E216423EF78F025EF78F02AEF78F0A3
:10F04A0048C031F0326A31EF78F048C021F05F0EE3
:10F05A0021162150316E326A31C021F0C90E2126A3
:10F06A00100E21603BEF78F03DEF78F057EF78F023
:10F07A0048C021F0200E21129F0E2126190E21646C
:10F08A0049EF78F04BEF78F06BEF78F048C021F059
:10F09A00D00E2126090E216455EF78F057EF78F04B
:10F0AA006BEF78F03D844606D8A04706D1EF79F099
:10F0BA003D841C501D10D8A465EF78F067EF78F0F6
:10F0CA006BEF78F0000E1D6E080E1C6E1C501D10A2
:10F0DA00D8A472EF78F074EF78F078EF78F0000E39
:10F0EA001D6E0A0E1C6E1E50D8B47EEF78F080EFAB
:10F0FA0078F0ABEF78F03DB085EF78F087EF78F0F5
:10F10A0099EF78F0FF0E356EFF0E366EFF0E376EF2
:10F11A00FF0E386EFF0E396EFF0E3A6EFF0E3B6E13
:10F12A007F0E3C6EB3EF78F0000E356E000E366E31
:10F13A00000E376E000E386E000E396E000E3A6EF3
:10F14A00000E3B6E800E3C6EB3EF78F03568366881
:10F15A003768386839683A683B683C683EC029F0C5
:10F16A003FC02AF040C02BF041C02CF042C02DF025
:10F17A0043C02EF044C02FF045C030F048C021F003
:10F18A00200E21129F0E21261A0E2160CFEF78F051
:10F19A00D1EF78F0EEEF78F048C021F09F0E2126EB
:10F1AA00190E2164DBEF78F0DDEF78F0E2EF78F00A
:10F1BA0048C033F0346AE9EF78F048C021F05F0EB6
:10F1CA0021162150336E346A3350C90F486EFCEF52
:10F1DA0078F048C021F0D00E21260A0E2160F8EFFF
:10F1EA0078F0FAEF78F0B7EF79F0300E485E4850D1
:10F1FA00216E226A1C50215C2250800A236E1D5007
:10F20A00800A2358D8A00CEF79F00EEF79F010EFAE
:10F21A0079F0B7EF79F03DB215EF79F017EF79F0A1
:10F22A00AAEF79F01CC001F01DC002F0000E02BE68
:10F23A00FF0E036E046E056E066E076E086E3EC004
:10F24A0009F03FC00AF040C00BF041C00CF042C0C8
:10F25A000DF043C00EF044C00FF045C010F065EC4D
:10F26A005AF001C021F002C022F003C023F004C00A
:10F27A0024F005C025F006C026F007C027F008C014
:10F28A0028F0485021243E6E000E22203F6E000EC8
:10F29A002320406E000E2420416E000E2520426E6F
:10F2AA00000E2620436E000E2720446E000E2820F2
:10F2BA00456E29503E5C2A503F582B5040582C50DE
:10F2CA0041582D5042582E5043582F5044583050D0
:10F2DA004558D8A073EF79F075EF79F094EF79F08B
:10F2EA001E50D8B47BEF79F07DEF79F0AAEF79F070
:10F2FA003E50355C3F503658405037584150385888
:10F30A004250395843503A5844503B5845503C585B
:10F31A00D8B092EF79F094EF79F0AAEF79F035C08E
:10F32A003EF036C03FF037C040F038C041F039C037
:10F33A0042F03AC043F03BC044F03CC045F0000EF6
:10F34A000001C06F220EBF6F3D82464A472A600005
:10F35A001BF1D9FF60001FF1DAFFDF50486E3D84D0
:10F36A00B3EF78F03D50030BE806D8A4BFEF79F06D
:10F37A00C1EF79F0D1EF79F0451E441E431E421EBB
:10F38A00411E401E3F1E3E6C000E3F22402241227B
:10F39A0042224322442245221B50D8B4D7EF79F0A7
:10F3AA00D9EF79F0EDEF79F03DB4DEEF79F0E0EFE7
:10F3BA0079F0E4EF79F019C046F01AC047F01B5013
:10F3CA00D96EDA6A60001BF1DEFF60001FF1DDFF13
:10F3DA003EC019F03FC01AF040C01BF041C01CF0FB
:10F3EA0042C01DF043C01EF044C01FF045C020F0CB
:10F3FA001200000E0001816F3DC082F03EC083F012
:10F40A003FC084F040C085F085BF10EF7AF00EEF60
:10F41A007AF024EF7AF0010E816F82C001F083C086
:10F42A0002F084C003F085C004F05AEC53F001C026
:10F43A0082F002C083F003C084F004C085F0000E9D
:10F44A000001876F000E866FC1C071F0C2C072F0F2
:10F45A008151D8B433EF7AF035EF7AF049EF7AF088
:10F46A008151D8A43BEF7AF03DEF7AF043EF7AF07E
:10F47A00000E676F2B0E666F47EF7AF0000E676F0C
:10F48A002D0E666F66C081F082C001F083C002F063
:10F49A0084C003F085C004F021EC5EF00104021080
:10F4AA00D8A45AEF7AF05CEF7AF08DEF7AF0000187
:10F4BA008151D8B463EF7AF065EF7AF06EEF7AF0A3
:10F4CA0081C024F37107D8A07207000E876F010E5E
:10F4DA00866F240E8625016E030E8721026EEF0EBB
:10F4EA00036EFF0E046E54EC54F00001FD0E7127FA
:10F4FA00FF0E72233CC011F0240E126E030E136E1F
:10F50A0071C014F072C015F077EC56F0F6EF7EF089
:10F51A0082C001F083C002F084C003F085C004F009
:10F52A0021EC5EF001500210D8A49EEF7AF0A0EF11
:10F53A007AF0C0EF7AF000018151D8B4A7EF7AF0DF
:10F54A00A9EF7AF0B2EF7AF081C024F37107D8A05C
:10F55A007207000E876F010E866F240E8625016ED4
:10F56A00030E8721026EF30E036EFF0E046E54EC37
:10F57A0054F07AEF7AF0000E0001886F000E896F5E
:10F58A00800E8A6F3F0E8B6F000E706F000E6F6FCA
:10F59A0082C001F083C002F084C003F085C004F089
:10F5AA00000E056E000E066E000E076E000E086E47
:10F5BA00FAEC5BF0D8B0E4EF7AF0E6EF7AF0C5EF58
:10F5CA007BF0F3EF7AF073C088F074C089F075C0ED
:10F5DA008AF076C08BF000016F4B702B88C001F067
:10F5EA0089C002F08AC003F08BC004F0000E056ED9
:10F5FA00000E066E200E076E410E086E89EC70F042
:10F60A0001C073F002C074F003C075F004C076F054
:10F61A0000017351825D016E74518359026E7551F6
:10F62A008459036E76518559046EC5EC55F004BEB3
:10F63A002AEF7BF004500310021009E1020E015C6C
:10F64A00D8A02AEF7BF02CEF7BF0E8EF7AF073C0BA
:10F65A001AF074C01BF075C01CF076C01DF082C091
:10F66A001EF083C01FF084C020F085C021F0A0ECFA
:10F67A005EF0D8A043EF7BF045EF7BF0E8EF7AF03D
:10F68A0000018851825D016E89518359026E8A5147
:10F69A008459036E8B518559046EC5EC55F004BE2E
:10F6AA0064EF7BF004500310021007E1020E015CC4
:10F6BA00D8B062EF7BF064EF7BF0ACEF7BF088C0F0
:10F6CA0082F089C083F08AC084F08BC085F0C5EFD0
:10F6DA007BF088C00FF089C010F08AC011F08BC08F
:10F6EA0012F0000E136E000E146E200E156E410EEF
:10F6FA00166ECFEC6CF00FC088F010C089F011C004
:10F70A008AF012C08BF000016F07D8A070078851E9
:10F71A00825D016E89518359026E8A518459036E42
:10F72A008B518559046EC5EC55F004BEAAEF7BF0E7
:10F73A0004500310021007E1020E015CD8B0A8EFD2
:10F74A007BF0AAEF7BF0ACEF7BF064EF7BF082C03A
:10F75A001AF083C01BF084C01CF085C01DF088C05D
:10F76A001EF089C01FF08AC020F08BC021F0A0ECE7
:10F77A005EF0D8A0C3EF7BF0C5EF7BF06EEF7BF0B5
:10F78A0041C069F069C06AF00001C4BFCFEF7BF0E5
:10F79A00D1EF7BF0D7EF7BF0C3C062F0C4C063F057
:10F7AA00DBEF7BF0000E636F060E626F62C06DF0D6
:10F7BA0063C06EF06D4B6E2B660E6A19D8A4E8EF23
:10F7CA007BF0EAEF7BF00AEF7CF070BFF1EF7BF0A1
:10F7DA00EFEF7BF0FDEF7BF0000E886F000E896F74
:10F7EA00800E8A6F3F0E8B6F000E706F000E6F6F68
:10F7FA00670E6919D8B404EF7CF006EF7CF00AEFC3
:10F80A007CF06F516D2770516E23000E786F000ED9
:10F81A00776F82C079F083C07AF084C07BF085C0AC
:10F82A007CF088C073F089C074F08AC075F08BC010
:10F83A0076F09BEF7CF079C00FF07AC010F07BC0B5
:10F84A0011F07CC012F088C013F089C014F08AC08D
:10F85A0015F08BC016F0CFEC6CF00FC028F010C07A
:10F86A0029F011C02AF012C02BF046EC66F028C02D
:10F87A007DF029C07EF02AC07FF02BC080F07DC0C9
:10F88A0001F07EC002F07FC003F080C004F022ECD9
:10F89A005FF001C06BF002C06CF079C01AF07AC058
:10F8AA001BF07BC01CF07CC01DF07DC005F07EC043
:10F8BA0006F07FC007F080C008F088C001F089C058
:10F8CA0002F08AC003F08BC004F089EC70F001C02A
:10F8DA001EF002C01FF003C020F004C021F0BBECF0
:10F8EA0054F01AC079F01BC07AF01CC07BF01DC01E
:10F8FA007CF088C00FF089C010F08AC011F08BC06C
:10F90A0012F0000E136E000E146E200E156E410ECC
:10F91A00166ECFEC6CF00FC088F010C089F011C0E1
:10F92A008AF012C08BF00001774B782B6D51775D0E
:10F93A007851800A426E6E51800A4258D8A0A8EFC8
:10F94A007CF0AAEF7CF020EF7CF088C001F089C03F
:10F95A0002F08AC003F08BC004F0000E056E000EA0
:10F96A00066EA00E076E400E086E89EC70F001C09C
:10F97A007DF002C07EF003C07FF004C080F079C041
:10F98A001AF07AC01BF07BC01CF07CC01DF07DC051
:10F99A001EF07EC01FF07FC020F080C021F0A0ECD6
:10F9AA005EF0D8B0DBEF7CF0DDEF7CF0E8EF7CF0C6
:10F9BA00000E00017D6F000E7E6F000E7F6F000E3D
:10F9CA00806F11EF7DF079C001F07AC002F07BC040
:10F9DA0003F07CC004F07DC005F07EC006F07FC055
:10F9EA0007F080C008F0FAEC5BF0D8A0FFEF7CF0DB
:10F9FA0001EF7DF011EF7DF000016BB107EF7DF0B3
:10FA0A0009EF7DF011EF7DF0000E7D6F000E7E6F25
:10FA1A00000E7F6F000E806F82C001F083C002F07B
:10FA2A0084C003F085C004F07DC005F07EC006F0F6
:10FA3A007FC007F080C008F0D8EC74F001C079F0FC
:10FA4A0002C07AF003C07BF004C07CF079C01AF0DF
:10FA5A007AC01BF07BC01CF07CC01DF0000E056E46
:10FA6A00000E066E200E076E410E086E73C001F07E
:10FA7A0074C002F075C003F076C004F089EC70F02F
:10FA8A0001C01EF002C01FF003C020F004C021F024
:10FA9A00A0EC5EF0D8A054EF7DF056EF7DF07FEF3A
:10FAAA007DF000016F4B702B73C001F074C002F03F
:10FABA0075C003F076C004F0000E056E000E066EE7
:10FACA00200E076E410E086E89EC70F001C073F0CB
:10FADA0002C074F003C075F004C076F0660E00012F
:10FAEA006A19D8A47BEF7DF07DEF7DF07FEF7DF082
:10FAFA006D4B6E2B73C088F074C089F075C08AF0A4
:10FB0A0076C08BF06FC060F070C061F0000E00012B
:10FB1A00686F000E656F000E646F000E786F000E3E
:10FB2A00776F7DEF7EF079C00FF07AC010F07BC05E
:10FB3A0011F07CC012F088C013F089C014F08AC09A
:10FB4A0015F08BC016F0CFEC6CF00FC028F010C087
:10FB5A0029F011C02AF012C02BF046EC66F028C03A
:10FB6A007DF029C07EF02AC07FF02BC080F07DC0D6
:10FB7A0001F07EC002F07FC003F080C004F022ECE6
:10FB8A005FF002BED4EF7DF0025007E10A0E015C7D
:10FB9A00D8B0D2EF7DF0D4EF7DF0E4EF7DF07DC0F8
:10FBAA0001F07EC002F07FC003F080C004F022ECB6
:10FBBA005FF001C06BF002C06CF0E9EF7DF0000E5F
:10FBCA0000016C6F090E6B6F00016851D8A4F0EF49
:10FBDA007DF0F2EF7DF01AEF7EF061BFF9EF7DF074
:10FBEA00F7EF7DF01AEF7EF0240E8625D96E030E0C
:10FBFA008721DA6E2E0EDF6E864B872B7107D8A00F
:10FC0A007207010E686F1AEF7EF0240E8625D96EF0
:10FC1A00030E8721DA6E300EDF6E864B872B710753
:10FC2A00D8A072076407D8A0650764516511D8A4E3
:10FC3A0021EF7EF023EF7EF00AEF7EF0240E862578
:10FC4A00D96E030E8721DA6E6B51300FDF6E864B49
:10FC5A00872B7107D8A0720779C01AF07AC01BF0F7
